:100000000C9464000C94EF170C941C180C948C0046
:100010000C948C000C948C000C948C000C9429147F
:100020000C948C000C948C000C948C000C948C0020
:100030000C948C000C948C000C948C000C948C0010
:100040000C9491150C948C000C9449180C947B180A
:100050000C948C000C948C000C948C000C948C00F0
:100060000C946D0F0C948C0000000008000201003D
:100070000003040700000000000000000102040863
:100080001020408001020408102001020408102002
:10009000040404040404040402020202020203032E
:1000A00003030303000000002300260029000000D2
:1000B0000000250028002B0000000000240027007D
:1000C0002A008C06140FAB1811241FBECFEFD8E006
:1000D000DEBFCDBF11E0A0E0B1E0E4E4FBE302C08D
:1000E00005900D92AC3FB107D9F724E0ACEFB1E039
:1000F00001C01D92A63FB207E1F710E0C8ECD0E0C6
:1001000004C02297FE010E946E1DC23CD107C9F7B0
:100110000E94EF180C94A01D0C94000080916602C0
:10012000909167020196909367028093660281E046
:1001300090E090936B0280936A020895809164022C
:10014000909165020196909365028093640281E02C
:1001500090E090936902809368020895CF93DF93B3
:10016000EC01E881F9813697808191818C0F9D1F88
:10017000DC01ED91FC910190F081E02D09958091D9
:100180004504823161F0809145048A3141F08091CB
:100190004504803221F0809145048A32B9F4E88127
:1001A000F9813697808191818C0F9D1FFC012285FA
:1001B00021110EC0E0914304F091440462817381E7
:1001C00040E659E00E941012811102C080E0B1C0E7
:1001D000E881F98136970190F081E02DEC0FFD1F49
:1001E00082E08387E881F9813697808191818C0F45
:1001F0009D1FFC01238530914504422F50E02317B9
:1002000008F082C0440F551FE0914304F09144046C
:10021000E40FF51F6081718148E552E00E941012E1
:100220008823A1F2E881F98136970190F081E02DD1
:10023000EC0FFD1F83858F5F8387E881F9813697F7
:10024000808191818C0F9D1FFC0123854091430487
:1002500030914404E42FF32FE20FF11DE20FF11D62
:100260006081718140EB54E00E9410122881398135
:10027000F9013697882379F00190F081E02DEC0F99
:10028000FD1F4381548165817681440F551F661F90
:10029000771F41602AC0808191818C0F9D1FDC01F6
:1002A0001B962C914091430430914404E42FF32F8A
:1002B000E20FF11DE20FF11D6081718148E552E00E
:1002C0000E941012882309F481CFE881F9813697C2
:1002D0000190F081E02DEC0FFD1F43815481658179
:1002E0007681440F551F661F771F438354836583B0
:1002F0007683E881F98136970190F081E02DEC0F4B
:10030000FD1F83858F5F6DCF9A012150310937FD25
:100310009A0135952795DC0119962C93E881F9818E
:1003200036970190F081E02DEC0FFD1F82E0828373
:1003300081E0DF91CF910895CF92DF92EF92FF920B
:100340000F931F93CF93DF93EC01E881F9813697E8
:10035000808191818C0F9D1FDC01ED91FC910190BA
:10036000F081E02D099580914504863009F069C03F
:10037000E0914304F091440462817381E881F98142
:1003800036978081918140EA51E18C0F9D1F0E9438
:100390001012882309F455C0E0914304F0914404FD
:1003A00064817581E881F98136978081918140EA85
:1003B00051E18C0F9D1F0E941012882309F441C047
:1003C000E0914304F091440466817781E881F981EA
:1003D00036978081918144E352E08C0F9D1F0E94EB
:1003E0001012882371F1E0914304F0914404628576
:1003F0007385E881F98136978081918144E352E0E9
:100400008C0F9D1F0E9410128823D9F0E881F9817A
:1004100036970190F081E02DEC0FFD1F1186E881E9
:10042000F98136970190F081E02DEC0FFD1F4FEF21
:100430005FEFBA01438354836583768397E09283A9
:1004400023C0E881F98136978081918134E3C32EFE
:1004500032E0D32E4CE9E42E46E0F42E04E312E021
:1004600020EA31E140EA51E164E48C0F9D1F0E94D3
:100470004412882349F0E881F98136970190F08190
:10048000E02DEC0FFD1FDACFDF91CF911F910F917F
:10049000FF90EF90DF90CF900895CF92DF92EF9290
:1004A000FF920F931F93CF93DF93EC01E881F981C3
:1004B0003697808191818C0F9D1FDC01ED91FC911D
:1004C0000190F081E02D099580914504843009F078
:1004D00055C0E0914304F091440462817381E88146
:1004E000F98136978081918140E453E28C0F9D1F02
:1004F0000E941012882309F441C0E0914304F09156
:10050000440464817581E881F98136978081918105
:1005100040ED58E08C0F9D1F0E941012882371F14E
:10052000E0914304F091440466817781E881F98188
:1005300036978081918144E352E08C0F9D1F0E9489
:1005400010128823D9F0E881F98136970190F08163
:10055000E02DEC0FFD1F1186E881F981369701909F
:10056000F081E02DEC0FFD1F4FEF5FEFBA014383E9
:1005700054836583768391E0928323C0E881F98177
:1005800036978081918154E3C52E52E0D52E6CE9D7
:10059000E62E66E0F62E04E312E020EA31E140E4C4
:1005A00053E264E48C0F9D1F0E944412882349F09B
:1005B000E881F98136970190F081E02DEC0FFD1F65
:1005C000DACFDF91CF911F910F91FF90EF90DF90E5
:1005D000CF900895CF92DF92EF92FF920F931F93E7
:1005E000CF93DF93EC0180914504843009F055C02E
:1005F000E0914304F091440462817381E881F981C0
:1006000036978081918144E752E28C0F9D1F0E94B2
:100610001012882309F441C0E0914304F09144048E
:1006200064817581E881F9813697808191814DE9F6
:1006300058E08C0F9D1F0E941012882371F1E091E9
:100640004304F091440466817781E881F98136970B
:10065000808191814AEE51E08C0F9D1F0E94101203
:100660008823D9F0E881F98136970190F081E02D57
:10067000EC0FFD1F1186E881F98136970190F0811A
:10068000E02DEC0FFD1F4FEF5FEFBA014383548362
:100690006583768399E0928323C0E881F981369758
:1006A000808191817DE9C72E78E0D72EEAE3EE2E96
:1006B000E1E1FE2E0AEE11E02AE331E144E752E2E5
:1006C00064E28C0F9D1F0E944412882349F0E88148
:1006D000F98136970190F081E02DEC0FFD1FDACF04
:1006E000DF91CF911F910F91FF90EF90DF90CF900E
:1006F0000895CF92DF92EF92FF92CF93DF93EC01B8
:10070000E881F9813697808191818C0F9D1FDC01F2
:10071000ED91FC910190F081E02D099580914504C7
:10072000803151F0809145048C3131F08091450445
:10073000843211F080E042C1E881F98136978081EE
:1007400091818C0F9D1FFC01228521110CC0E0912D
:100750004304F09144046281738141EA51E00E94B4
:100760001012882339F3E0914304F091440464812A
:100770007581E881F98136978081918146E151E068
:100780008C0F9D1F0E9410128823A1F2E881F9812D
:1007900036970190F081E02DEC0FFD1F83E08387F9
:1007A000C12CD12C7601E881F98136978081918125
:1007B0008C0F9D1FDC011B96EC9120914504F0E00D
:1007C00030E0215031096091430470914404AF013D
:1007D000440F551FE217F3070CF0CAC0FB01E40FEA
:1007E000F51F6081718120E530E047EA50E00E940A
:1007F0004913882309F49ECFE881F9813697019047
:10080000F081E02DEC0FFD1F83858F5F8387E881EA
:10081000F9813697808191818C0F9D1FFC01238582
:100820004091430430914404E42FF32FE20FF11D73
:10083000E20FF11D6081718120E530E046E151E079
:100840000E944913882341F022E0CC0CDD1CEE1CF1
:10085000FF1C2A95D1F780C0E881F9813697808105
:1008600091818C0F9D1FDC011B962C9140914304BC
:1008700030914404E42FF32FE20FF11DE20FF11D3C
:100880006081718120E530E04CEB51E00E9449131A
:10089000882369F092E0CC0CDD1CEE1CFF1C9A95BD
:1008A000D1F7BFEFCB1ADB0AEB0AFB0A55C0E88190
:1008B000F9813697808191818C0F9D1FFC012385E2
:1008C0004091430430914404E42FF32FE20FF11DD3
:1008D000E20FF11D6081718120E530E043E652E0D6
:1008E0000E944913882369F082E0CC0CDD1CEE1CC9
:1008F000FF1C8A95D1F7F2E0CF0ED11CE11CF11C50
:100900002BC0E881F9813697808191818C0F9D1FE2
:10091000DC011B962C914091430430914404E42F58
:10092000F32FE20FF11DE20FF11D6081718120E5CF
:1009300030E04AE053E00E944913882309F4FACEDC
:10094000B2E0CC0CDD1CEE1CFF1CBA95D1F7B3E075
:10095000CB0ED11CE11CF11CE881F9813697019086
:10096000F081E02DEC0FFD1F83858F5F83871BCF08
:10097000FB01E40FF51F6081718147EA50E00E949E
:100980001012882309F4D6CE90914504E881F981AC
:1009900036970190F081E02DEC0FFD1F9450918768
:1009A000E881F98136970190F081E02DEC0FFD1F71
:1009B000C382D482E582F6829BE09283DF91CF915D
:1009C000FF90EF90DF90CF900895CF93DF93EC01ED
:1009D000E881F9813897808191818C0F9D1F0E9459
:1009E0004D0281112CC0E881F9813A978081918173
:1009F0008C0F9D1F0E94AE00811121C0E881F981FA
:100A00003C97808191818C0F9D1F0E949C018111D8
:100A100016C0E881F9813E97808191818C0F9D1FDE
:100A20000E94EA0281110BC0E881F98170978081F0
:100A300091818C0F9D1FDF91CF910C94790381E000
:100A4000DF91CF910895DC01ED91FC9138972081E1
:100A50003181820F931F0C94E50470939D02609383
:100A60009C02892B39F060E080911A010E94601786
:100A700061E006C061E080911A010E94601760E0A9
:100A8000809118010C94601770939B0260939A02F6
:100A9000892B39F060E0809116010E94601761E0B7
:100AA00006C061E0809116010E94601760E08091AD
:100AB00014010C94601760E080911A010E94601785
:100AC00061E0809118010E94601760E0809116013A
:100AD0000E94601761E0809114010C94601761E03E
:100AE00080911A010E94601760E0809118010E94B5
:100AF000601761E0809116010E94601760E08091AC
:100B000014010C94601760E080911A010E94601734
:100B100061E0809118010E94601761E080911601E8
:100B20000E94601761E0809114010C94601760E0EE
:100B300080911A010E94601761E0809118010E9463
:100B4000601761E0809116010E94601760E080915B
:100B500014010C94601761E080911A010E946017E3
:100B600061E0809118010E94601760E08091160199
:100B70000E94601761E0809114010C94601761E09D
:100B800080911A010E94601760E0809118010E9414
:100B9000601760E0809116010E94601761E080910B
:100BA00014010C94601761E080911A010E94601793
:100BB00061E0809118010E94601761E08091160148
:100BC0000E94601761E0809114010C946017892BDA
:100BD00019F480910A0102C0809108010C946017F9
:100BE000CF93DF938EEF91E00E94E914CAE0D0E04A
:100BF00087E00E94151590931D0280931C02219797
:100C00002097B1F786319340B4F48DE090E0909353
:100C100015018093140185E090E090930B0180937F
:100C20000A018AE090E090930901809308011092F4
:100C30000F0110920E0143E050E06EE870E080E09A
:100C40000E94BF1743E050E06EE970E081E00E942F
:100C5000BF1761E080911A010E94271761E080911F
:100C600018010E94271761E0809116010E94271742
:100C700061E0809114010E94271765E070E08EE921
:100C800092E00E94A71068E070E086EA92E00E947D
:100C9000080F65E87DE086EA92E00E940A0F60ECAA
:100CA0007DE086EA92E00E940F0F80910C01909106
:100CB0000D0190939B0280939A0290939D028093E2
:100CC0009C0260E070E08FE693E00E94E811809360
:100CD000200261E070E08FE693E00E94E8118093CB
:100CE0001F0262E070E08FE693E00E94E8118093BB
:100CF0001E02909120029E3D31F490911F0294318A
:100D000011F490E002C084E690E090932402809376
:100D10002302DF91CF9108958EE992E00E949A100C
:100D200084E092E00E94F9118BE991E09093030234
:100D30008093020283EA91E090930502809304027B
:100D40008DEA91E0909311028093100287EB91E07D
:100D500090931302809312028FEB91E0909315020F
:100D60008093140285EC91E0909317028093160211
:100D70006AE08EEF91E00E948F1387EE91E09093EE
:100D8000FF018093FE0108958F929F92AF92BF92D0
:100D9000CF92DF92EF92FF928EEF91E00E941D14AE
:100DA000882319F182E092E00E94E5048091070215
:100DB00090910802A0910902B0910A02AC01BD0114
:100DC00041505109610971094E3F5F4F6F4F7F4F8D
:100DD00040F48093180290931902A0931A02B093E2
:100DE0001B028EEF91E00E94E914809148029091DD
:100DF00049028937910581F48091180280932F026E
:100E00001092300282E090E0909345028093440279
:100E1000109249021092480260919A0270919B02CE
:100E2000882777FD8095982F0E94CA1B6B017C0153
:100E3000609123027091240264567109882777FD1E
:100E40008095982F0E94CA1B9B01AC01C701B60177
:100E50000E94561C20E030E048EC52E40E942F1B18
:100E60009B01AC01C701B6010E94CB1A0E94971BDF
:100E70006F3F710541F03CF08FEF90E090932202BC
:100E8000809321020BC077FD05C07093220260930E
:100E9000210204C0109222021092210260919C0251
:100EA00070919D02809112010E9432156091210281
:100EB00070912202809110010E94321580914802A7
:100EC000909149020A9781F580916A0290916B0294
:100ED000019749F461E080910A010E946017109225
:100EE0006B0210926A0280916802909169020197E8
:100EF00051F461E070E081E090E00E94E70510921B
:100F000069021092680268EC70E080E090E00E9454
:100F10000A1660E080910A010E94601760E070E0AC
:100F200081E090E00E94E70580914802909149029B
:100F30000B9721F526E040E855E260E070E089E596
:100F400094E00E944C1A89E594E00E946919892B6B
:100F5000D1F389E594E00E948219813659F4E09139
:100F60005904F0915A040190F081E02D6BE689E577
:100F700094E0099589E594E00E94AE1A80914802B8
:100F8000909149020C97A9F480914A0290914B02EA
:100F900061E00E94271760914C0270914D02809190
:100FA0004A0290914B020E946017109249021092DF
:100FB000480280914802909149020D97D9F480919E
:100FC0004A0290914B0260E00E94271780914A02EA
:100FD00090914B020E94961780932F02109230023C
:100FE00082E090E09093450280934402109249027F
:100FF0001092480280914802909149020E9709F59B
:1010000080914A0290914B020E94151590932E02F6
:1010100080932D029C0197FF02C021503F4F3093D7
:101020002F0260E071E00E94CD1C8093300282E0CC
:1010300090E09093450280934402109249021092EE
:10104000480280914802909149020F9771F4609193
:101050004C0270914D0280914A0290914B020E9485
:1010600032151092490210924802809148029091E4
:1010700049024097E9F480914C0290914D02892BEE
:1010800031F480914A0290914B0260E00BC0809154
:101090004C0290914D02019739F480914A0290914F
:1010A0004B0261E00E9427171092490210924802F9
:1010B00020914802309149028091960290919702C6
:1010C0002737310541F020914802309149022337FA
:1010D000310509F028C1892B71F480919A02909111
:1010E0009B02909399028093980281E090E0909304
:1010F000970280939602A0906A02B0906B0281E002
:10110000A816B10409F041C080919002909191021B
:10111000892B79F4B0929102A09290020E94E71577
:101120006093840270938502809386029093870275
:1011300028C010929102109290020E94E7156093CD
:101140008002709381028093820290938302C09008
:101150008402D0908502E0908602F0908702DC0144
:10116000CB018C199D09AE09BF098093740290933D
:101170007502A0937602B0937702B0928B02A09290
:101180008A0210926B0210926A02A0906802B090DC
:10119000690221E0A216B10409F041C080918E02DB
:1011A00090918F02892B79F4B0928F02A0928E02D7
:1011B0000E94E71560937C0270937D0280937E020B
:1011C00090937F0228C010928F0210928E020E948C
:1011D000E715609378027093790280937A02909376
:1011E0007B02C0907C02D0907D02E0907E02F09065
:1011F0007F02DC01CB018C199D09AE09BF098093E8
:10120000700290937102A0937202B0937302B09235
:101210008D02A0928C021092690210926802809155
:101220008C0290918D02019709F08BC0C0907402DE
:10123000D0907502E0907602F090770281E1C816B6
:1012400087E2D806E104F10408F47BC060917002E3
:101250007091710280917202909173026C197D09F4
:101260008E099F0960936C0270936D0280936E02E9
:1012700090936F020E94CA1B2091000130910101DE
:1012800040910201509103010E94561C4B015C01E8
:10129000C701B6010E94C81B9B01AC01C501B40186
:1012A0000E942F1B60930401709305018093060137
:1012B000909307016B017C01F7FAF094F7F8F09432
:1012C00060919C0270919D02882777FD8095982FF0
:1012D0000E94CA1B9B01AC01C701B6010E94561CAB
:1012E0000E94971B709389026093880220919A0252
:1012F00030919B02260F371F2F3F310519F014F054
:101300002FEF30E037FF02C020E030E030939B0247
:1013100020939A0210928D0210928C0210928B02EE
:1013200010928A020EC0892B61F0809198029091F0
:10133000990290939B0280939A02109297021092C6
:10134000960280914802909149028437910561F498
:1013500080919C0290919D02853F91051CF08FEF3A
:1013600090E016C00A9614C08091480290914902FC
:1013700087369105E9F480919C0290919D028B3013
:1013800091052CF410929D0210929C0205C00A97C0
:1013900090939D0280939C0280919C0290919D026B
:1013A00090939B0280939A021092490210924802F5
:1013B00080914802909149028734910549F48091C7
:1013C0004A0290914B0290939D0280939C020FC021
:1013D00080914802909149028634910561F4809190
:1013E0004A0290914B0290939B0280939A02109232
:1013F0004902109248028091480290914902873731
:10140000910541F0809148029091490289369105F9
:1014100009F098C10E945B0580915202909153029D
:10142000892B29F10E94DB15C0905802D0905902F7
:10143000E0905A02F0905B026C197D098E099F09B9
:10144000C0905402D0905502E0905602F09057029E
:10145000C616D706E806F90650F40E94D305109286
:101460004902109248021092530210925202809147
:10147000480290914902C29739F08091620290919E
:101480006302019709F063C080914802909149027C
:10149000C297D1F5109249021092480281E090E083
:1014A000909363028093620280914A0290914B0272
:1014B00097FD0196959587959093610280936002C0
:1014C00080914A0290914B0262E070E00E94CD1C34
:1014D00090935F0280935E0280914C0290914D0246
:1014E00020914E0230914F02982F8827820F931F30
:1014F00090935D0280935C021092650210926402E8
:1015000010926702109266028091600290916102CF
:1015100020915E0230915F02892B09F4D4C2809140
:101520005C0290915D02232B09F0D9C220916602E2
:10153000309167022817390754F01092490210922F
:1015400048020E94D3051092630210926202209119
:101550006202309163028091250290912602232B32
:1015600011F0816001C08E7F909326028093250246
:1015700020915202309153028091250290912602CF
:10158000232B11F0826001C08D7F909326028093FF
:1015900025028091480290914902C59771F580918A
:1015A0004A0290914B02892B29F480916602909116
:1015B000670204C0809164029091650290932E02AC
:1015C00080932D0280912D0290912E029C0197FF15
:1015D00002C021503F4F30932F0260E071E00E9423
:1015E000CD1C8093300282E090E09093450280937E
:1015F0004402109249021092480280914802909150
:1016000049024E9761F480914A0290914B02909367
:101610002402809323021092490210924802809182
:10162000480290914902809709F043C060E070E061
:101630008FE693E00E94E8118093200261E070E061
:101640008FE693E00E94E81180931F0262E070E051
:101650008FE693E00E94E81180931E029091200291
:101660009E3D31F490911F02943111F490E002C03C
:101670008FEF9FEF90932E0280932D0280912D0289
:1016800090912E029C0197FF02C021503F4F309352
:101690002F0260E071E00E94CD1C8093300282E056
:1016A00090E0909345028093440210924902109278
:1016B000480280914802909149024F9711F580911C
:1016C0004A0290914B0290932402809323024EEDA4
:1016D00060E070E08FE693E00E94EB1144E161E08E
:1016E00070E08FE693E00E94EB114091230262E0EC
:1016F00070E08FE693E00E94EB1110924902109285
:10170000480280912B0290912C02892B11F00E94AB
:101710000A110E94DB15C0902702D0902802E090A9
:101720002902F0902A026C197D098E099F09613106
:1017300077428105910508F4DFC110922C021092C6
:101740002B02DAC1809148029091490281369105BD
:1017500019F40E94830560CE80914802909149025D
:101760008236910519F40E94970556CE8091480261
:10177000909149028337910539F080914802909108
:1017800049028B36910519F40E946F0545CE809170
:101790004802909149028436910519F40E94AB05E4
:1017A0003BCE80914802909149028E36910519F402
:1017B0000E94BF0531CE809148029091490288373E
:1017C000910519F40E94D30527CE8091480290918B
:1017D00049028F36910559F460914C0270914D0287
:1017E00080914A0290914B020E942D0515CE809166
:1017F0004802909149028037910559F460914C025A
:1018000070914D0280914A0290914B020E944405D2
:1018100003CE80914802909149028637910581F468
:1018200080910E010E941515909395028093940269
:101830009C0197FF02C021503F4F30932F023DC0C3
:10184000809148029091490285379105E9F5E09031
:101850004A02F0904B0261E08E2D0E94271760E053
:101860008E2D0E94601782E090E00E94321661E0A7
:101870008E2D0E94601785E090E00E94321660E095
:101880008E2D0E94601760E08E2D0E94271720E4A5
:1018900032E44FE050E061E08E2D0E9478162AE39A
:1018A00030E040E050E00E94031DC901B90137FF5C
:1018B00002C061507F4F70932F0260E071E00E9480
:1018C000CD1C80933002F4C080914802909149026F
:1018D0008237910539F480919C0280932F02809188
:1018E0009A02EFCF8091480290914902469709F4FD
:1018F000E5C08091480290914902459739F46DE125
:1019000071E089E594E00E945719D8C0809148029F
:10191000909149028C36910559F460914C02709176
:101920004D0280914A0290914B020E94E705C6C089
:10193000809148029091490285369105B9F46091F1
:101940004A0270914B0270939302609392028EE967
:1019500092E00E94C5100E94DB15609327027093ED
:1019600028028093290290932A0232C08091480273
:1019700090914902449721F481E180932F0298C00D
:101980008091480290914902C39779F443E050E076
:101990006EE870E080E00E94BF1743E050E06EE91F
:1019A00070E081E00E94BF1789C080914802909149
:1019B0004902C49739F481E00E94DF1780E00E9459
:1019C000DF177CC08091480290914902CD9739F48D
:1019D00081E090E090932C0280932B026FC0809165
:1019E000480290914902CC9729F410922C0210924F
:1019F0002B0264C080914802909149028035910584
:101A000069F580914A0290914B0220914C023091ED
:101A10004D02982F8827820F931FAA2797FDA09524
:101A2000BA2F8093540290935502A0935602B0931C
:101A3000570210924902109248020E94DB156093EF
:101A400058027093590280935A0290935B0281E08E
:101A500090E09093530280935202DECC8091480232
:101A60009091490281359105B9F410924902109282
:101A700048020E94DB1560935802709359028093CC
:101A80005A0290935B0210925302109252021092EB
:101A9000630210926202C0CC809148029091490288
:101AA000499709F0B9CC80E180932F02109230025F
:101AB00082E090E0909345028093440210924902A4
:101AC00010924802A9CC232B09F441CD2091640245
:101AD0003091650280915C0290915D022BCD209146
:101AE000660230916702281739070CF430CD209137
:101AF0006402309165021ECDFF90EF90DF90CF9091
:101B0000BF90AF909F908F900895CF93DF9386EA18
:101B100092E00E94250E892B81F186EA92E00E94D4
:101B2000250E0497A1F4109247021092460280916C
:101B3000520290915302892B51F00E94DB15609361
:101B400058027093590280935A0290935B02C0919D
:101B50004602D0914702CE010196909347028093AE
:101B6000460286EA92E00E942D0EFE01EE0FFF1F54
:101B7000E85BFD4F91838083CACFDF91CF910895B9
:101B800080914402909145020297D9F48091FC0122
:101B90009091FD019C012F5F3F4F3093FD012093F9
:101BA000FC01FC01E15DFD4F608186EA92E00E944C
:101BB000AC0E8091FC019091FD01029709F044C0A8
:101BC0001FC080914402909145020497F1F48091E6
:101BD000FC019091FD019C012F5F3F4F3093FD016F
:101BE0002093FC01FC01E15DFD4F608186EA92E0FB
:101BF0000E94AC0E8091FC019091FD01049721F5AB
:101C00001092FD011092FC010EC08091440290914F
:101C10004502449769F444E150E06FE272E086EADD
:101C200092E00E947F0E10924502109244020895A5
:101C3000E091A602F091A7020190F081E02D609161
:101C4000250286EA92E0099408958091D90290E0F5
:101C50002091DA02821B910908952091DA02809185
:101C6000D902281750F4E22FF0E0E552FD4F8081B1
:101C700090E02F5F2093DA0208958FEF9FEF089591
:101C8000E091DA028091D902E81730F4F0E0E552F1
:101C9000FD4F808190E008958FEF9FEF08950895A4
:101CA000E091B202F091B3023097E1F03091DA02A4
:101CB0002091D9023217B0F040E0242F30E02617EF
:101CC000370754F4DC01A20FB31F5C91D901A55270
:101CD000BD4F5C934F5FF1CF1092DA026093D9024F
:101CE000CB0109940895E091B402F091B5023097C8
:101CF00029F01092B8021092B70209940895CF9279
:101D0000DF92EF92FF920F931F93CF93DF937C01AB
:101D1000CB018A012091B602222389F0EB016B01ED
:101D2000C40ED51ECC15DD0569F06991D701ED9182
:101D3000FC910190F081E02DC7010995F3CF642F4C
:101D40000E943A0FC801DF91CF911F910F91FF9030
:101D5000EF90DF90CF900895CF93DF931F92CDB790
:101D6000DEB769832091B6022223D1F02091B70219
:101D7000203240F021E030E0FC013383228380E018
:101D800090E015C08091B802E82FF0E0E754FD4FD5
:101D9000998190838F5F8093B8028093B70205C0CA
:101DA00061E0CE0101960E943A0F81E090E00F9031
:101DB000DF91CF910895FC011382128248EE53E027
:101DC00060E070E0448355836683778389EC91E01B
:101DD0009183808308951092DA021092D9021092B2
:101DE000B8021092B7020C94180FCF93DF93EC0156
:101DF000862F0E94360F83E79EE00E94580F80E5F1
:101E00009EE00E94530FCE01DF91CF910C94EB0E18
:101E10000C94F50E7093B3026093B2020895709320
:101E2000B5026093B402089586EA92E00C94DB0E4A
:101E30001092680381E0809366031092650361E06D
:101E400082E10E94601761E083E10E946017E9EB84
:101E5000F0E080818E7F808380818D7F808388E425
:101E60008093B80085E48093BC000895880F809328
:101E7000BA000895613298F420916803243089F4FF
:101E800060931D03FC018FE193E0DC012A2F281BE6
:101E9000261718F421912D93F9CF80E0089581E061
:101EA000089582E0089590936203809361030895FA
:101EB0009093640380936303089585ED8093BC0041
:101EC0008091BC0084FDFCCF10926803089585ECDE
:101ED0008093BC001092680308951F920F920FB672
:101EE0000F9211242F933F934F935F936F937F93A0
:101EF0008F939F93AF93BF93EF93FF938091B9001C
:101F0000887F803609F49CC068F5883209F45BC08C
:101F100090F4803109F454C038F4882309F4F5C0F2
:101F2000883009F44DC0F5C0883109F44CC08032C6
:101F300009F45DC0EEC0803409F468C048F4803311
:101F400009F455C0883309F0E4C08093FB02A8C0AF
:101F5000803509F44FC0883509F45DC0883409F034
:101F6000D8C0D5C0883909F4C6C0A8F4883709F4A8
:101F700067C038F4883609F463C0803709F460C05C
:101F8000C8C0883809F4B7C0803909F45FC0803808
:101F900009F0BFC05BC0803B09F485C038F4803ACB
:101FA00009F466C0883A09F47EC0B3C0803C09F4E5
:101FB000A6C0883C09F4A3C0883B09F489C0A9C025
:101FC0008091670310C09091400380913F03981760
:101FD00070F5E091400381E08E0F80934003F0E0C4
:101FE000EF5BFC4F80818093BB0085EC85C08093C4
:101FF000FB028DC0E091400381E08E0F809340038F
:102000008091BB00F0E0EF5BFC4F80839091400338
:1020100080913F036DC0E091400381E08E0F80937B
:1020200040038091BB00F0E0EF5BFC4F8083809128
:10203000660381116CC081E08093650384EA60C00F
:1020400083E0809368031092FC02CFCF8091FC0262
:10205000803208F050C0E091FC0281E08E0F809346
:10206000FC028091BB00F0E0E350FD4F8083BDCFC8
:102070008091FC02803230F4E091FC02F0E0E35009
:10208000FD4F10820E945D0F6091FC0270E0E091B4
:102090006103F09162038DEF92E009951092FC02CA
:1020A0000E94670F36C084E08093680310921E037D
:1020B00010921D03E0916303F091640309958091F0
:1020C0001D03811105C081E080931D0310921F0341
:1020D000E0911E0381E08E0F80931E03F0E0E15E2D
:1020E000FC4F80818093BB0090911E0380911D0363
:1020F000981708F47ACF85E88093BC000AC085EC75
:102100008093BC001092680304C01092FB020E94EE
:102110005D0FFF91EF91BF91AF919F918F917F9153
:102120006F915F914F913F912F910F900FBE0F9044
:102130001F901895FC0110828FEF81831382128209
:1021400082E2848386E98583178216820895CF937D
:10215000DF93EC01862F68839FEF99831B821A829D
:1021600020916D0330916E033F832E83D0936E03D5
:10217000C0936D0360E00E94601761E088810E9457
:10218000271781E0DF91CF910895CF92DF92EF92F0
:10219000FF92CF93DF93EC0177FD06C0653B71059D
:1021A0002CF064EB70E002C060E070E06983CC80EA
:1021B0002D8130E02C193109D12CE12CF12CFE2C91
:1021C000ED2CDC2CCC24C901AA2797FDA095BA2FB1
:1021D0002227382F492F5A2FDB010E942D1D24EB77
:1021E00030E040E050E00E94031DC20ED31EE41E0A
:1021F000F51EC701B60120E430E040E050E00E9447
:10220000031D3B832A83DF91CF91FF90EF90DF90F6
:10221000CF9008957F928F929F92AF92BF92CF926C
:10222000DF92EF92FF920F931F93CF93DF93CDB77F
:10223000DEB70DB71EB70E94DB15C0906903D090C2
:102240006A03E0906B03F0906C036C157D058E05BE
:102250009F0558F024E1C20ED11CE11CF11C6C1545
:102260007D058E059F0508F49BC0609369037093FC
:102270006A0380936B0390936C03E0916D03F0917C
:102280006E03DF01B12C109761F012968D919C9135
:102290001397892B09F0B39416960D90BC91A02D3D
:1022A000F2CFBB2009F47CC08DB79EB7A2E0BA9EE6
:1022B0008019910911240FB6F8949EBF0FBE8DBFEF
:1022C00001967C0120E0309781F082819381892BF7
:1022D00041F0D701A20FB11DA20FB11DED93FC93E8
:1022E0002F5F0680F781E02DEECFC12CDD24D39443
:1022F000DB1438F5ED2DF0E04F01880C991C8E0CA5
:102300009F1CD4018D919C913197EE0FFF1FEE0D14
:10231000FF1D20813181DC0112966D917C91139714
:10232000D90112964D915C9113976417750738F493
:10233000D4012D933C9391838083CC24C394D39474
:10234000D7CFC110D2CF6701A12CD601ED91FD915D
:102350006D0161E080810E946017A394AB10F5CFFE
:10236000A6B4C12CD12C712C8A2C912CD701ED91C3
:10237000FD917D0182819381880D991D2A2DA6B43E
:10238000A21608F4D39496012A0D311D82179307E3
:10239000A8F760E080810E94601773947B10E6CFFD
:1023A0000FB6F8941EBF0FBE0DBF0FB6F8941EBF38
:1023B0000FBE0DBFDF91CF911F910F91FF90EF9056
:1023C000DF90CF90BF90AF909F908F907F900895B7
:1023D000CB010C948A1DCB01642F0C94921DFC013F
:1023E0001282138214821582168210861782118639
:1023F0000895FC0189ED91E0918380831092770329
:102400008AE793E0909344048093430412861282F7
:1024100013821482158216821086178211860895FF
:10242000CF92DF92EF92FF92CF93DF93EB01BA014D
:10243000882777FD8095982F0E94CA1B6B017C012D
:1024400020E030E040E45FE30E94561C0E949C1BA9
:10245000C617D70788F020E030E040EA5FE3C70105
:10246000B6010E94561C0E949C1B21E06C177D0740
:1024700008F420E0822F01C080E0DF91CF91FF902F
:10248000EF90DF90CF9008952F923F924F925F92FE
:102490006F927F928F929F92AF92BF92CF92DF9274
:1024A000EF92FF920F931F93CF93DF93CDB7DEB7D9
:1024B00028970FB6F894DEBF0FBECDBF98878F83E5
:1024C00039011A830983DC01ED91FC910190F081BF
:1024D000E02D4D835E836C830995B09045046C813B
:1024E0004D815E81662331F080914504861711F09D
:1024F00080E0B6C0EF81F885828581110FC041155B
:10250000510561F0E0914304F091440462817381CC
:102510008F8198850E941012882351F361147104F1
:1025200069F0E0914304F091440464817581A30152
:102530008F8198850E9410128823D1F283E0AF81A9
:10254000B8851B968C93209043043090440420E07F
:1025500030E000E010E0412C512C612C712C8824DB
:102560008A948B0CEF81F8859384492D50E0981460
:1025700008F052C0FA01EE0FFF1FE20DF31D60815B
:10258000718149815A818F8198852C833D830E9476
:1025900010122C813D81882309F4AACF81E0890D96
:1025A000EF81F88583875101A80EB11CA80EB11CDC
:1025B000D5016D917C91A701CF012C833D830E94B1
:1025C00010122C813D81882341F0A801B201C30182
:1025D00001E00E94351D216015C0F5016081718107
:1025E000A6018F8198852C833D830E9410122C8137
:1025F0003D81882309F47CCFA801B201C30101E029
:102600000E94351D8A012B013C0182E0890DAF81BA
:10261000B8851B968C93A6CFCA01019797FDCA0176
:10262000959587958150AF81B88519968C931997A8
:1026300013962C93139714963C93149715960C931A
:10264000159716961C931697A801B201C30100E2D4
:102650000E94501D17962C93179718963C9381E073
:1026600028960FB6F894DEBF0FBECDBFDF91CF9195
:102670001F910F91FF90EF90DF90CF90BF90AF90A0
:102680009F908F907F906F905F904F903F902F9092
:102690000895CA01821B930B6817790734F0420F23
:1026A000531F81E0461757070CF480E008951092FD
:1026B00077031092790384E080934A04089562E0DE
:1026C000809170030E9427171092420481E080934A
:1026D0004A0410924B040895109277032AE733E0DE
:1026E00030934404209343041092710328E73EE1A1
:1026F00030937303209372032CE930E03093750319
:102700002093740322E330E0FC0133832283109290
:1027100078031092760384E080934A0408952FEDA5
:1027200031E0FC0131832083609370030C946C13BF
:10273000EF92FF921F93CF93DF9310927803209133
:102740007903E0914304F0914404222321F0AF0186
:102750001092790306C020914204209345044AE771
:1027600053E010E020914504121728F5212F30E0A6
:10277000220F331F7F01E20EF31EEA01C20FD31FA7
:1027800028813981269FE001279FD00D369FD00DEB
:102790001124DC0112962D913C91139710FF03C078
:1027A0003195219531092C0F3D1FD70111963C938E
:1027B0002E931F5FD7CF1092770381E0DF91CF91E7
:1027C0001F91FF90EF900895CF93C1E0C0937803DD
:1027D00084E080934A04809171038823E9F080911A
:1027E00077038823C9F04091420450E0440F551FFD
:1027F0006AE773E080914304909144040E94811D34
:10280000809142048093450410927703C09379032A
:1028100010924204C0934A04CF91089580917603A8
:10282000882351F08091420480FF02C061E001C022
:1028300060E08DE00C9460170895209178032223C6
:1028400031F062E370E00E94981381E0089580E027
:10285000089578941F920F920FB60F9211242F9320
:102860003F934F935F936F937F938F939F93AF9318
:10287000BF93CF93EF93FF93809170030E949617BD
:10288000C82F4091460450914704609148047091CC
:1028900049044F5F5F4F6F4F7F4F40934604509303
:1028A000470460934804709349048091420484363D
:1028B00018F084E00E94E41390914A04923079F079
:1028C00018F4913039F071C0933059F1943009F413
:1028D00062C06BC0C11169C01092420424C0C130F3
:1028E00009F063C0E091420481E08E0F80934204BE
:1028F000F0E08091460490914704A0914804B09183
:102900004904EE0FFF1FE658FC4F9183808310921D
:10291000460410924704109248041092490483E040
:1029200020C0C11121C0E091420481E08E0F80934C
:102930004204F0E08091460490914704A09148043D
:10294000B0914904EE0FFF1FE658FC4F918380833E
:1029500010924604109247041092480410924904C1
:1029600082E080934A0421C040914604509147047C
:1029700060914804709149048091740390917503AB
:10298000A0E0B0E084179507A607B70770F485E0CC
:102990000E94E4130AC0C11108C0109246041092AC
:1029A000470410924804109249040E940E14FF91AB
:1029B000EF91CF91BF91AF919F918F917F916F9147
:1029C0005F914F913F912F910F900FBE0F901F90ED
:1029D000189520917803211123C021E020937703DB
:1029E00020914A04243021F020914B042223C1F08D
:1029F0000E945F13109246041092470410924804FC
:102A000010924904F89482E08093B0008093B10062
:102A100094E69093B3001092B20080937000789483
:102A20000895109270000C9457138E3008F08E5059
:102A3000877020911C0190E4299F90011124822B22
:102A400080937C0080917A00806480937A008091EA
:102A50007A0086FDFCCF809178002091790090E08B
:102A6000922B08951F93CF93DF93182FEB0161E012
:102A70000E942717209711F460E004C0CF3FD105D2
:102A800039F461E0812FDF91CF911F910C94601791
:102A9000E12FF0E0E859FF4FE491E330F9F048F41A
:102AA000E130B9F0E230A1F584B5806284BDC8BDE3
:102AB00034C0E730E9F0E83019F1E43049F58091AD
:102AC0008000806280938000D0938B00C0938A0046
:102AD00024C084B5806884BDC7BD1FC080918000BC
:102AE000806880938000D0938900C093880015C0CF
:102AF0008091B00080688093B000C093B3000DC097
:102B00008091B00080628093B000C093B40005C093
:102B1000C038D1050CF0B5CFAFCFDF91CF911F9169
:102B200008951F920F920FB60F9211242F933F9387
:102B30008F939F93AF93BF9380914D0490914E04D8
:102B4000A0914F04B091500430914C0423E0230F26
:102B50002D3720F40196A11DB11D05C026E8230FD5
:102B60000296A11DB11D20934C0480934D049093B7
:102B70004E04A0934F04B09350048091510490915F
:102B80005204A0915304B09154040196A11DB11DAB
:102B90008093510490935204A0935304B09354042F
:102BA000BF91AF919F918F913F912F910F900FBE49
:102BB0000F901F9018952FB7F89460914D04709165
:102BC0004E0480914F04909150042FBF08953FB759
:102BD000F8948091510490915204A0915304B091C3
:102BE000540426B5A89B05C02F3F19F00196A11DDE
:102BF000B11D3FBF6627782F892F9A2F620F711D55
:102C0000811D911D42E0660F771F881F991F4A950D
:102C1000D1F70895CF92DF92EF92FF92CF93DF9397
:102C20006B017C010E94E715EB01C114D104E104A2
:102C3000F10489F00E94FD160E94E7156C1B7D0BC4
:102C4000683E734090F381E0C81AD108E108F108AA
:102C5000C851DC4FEACFDF91CF91FF90EF90DF902A
:102C6000CF9008950197009739F0880F991F880F2A
:102C7000991F02970197F1F70895789484B58260BF
:102C800084BD84B5816084BD85B5826085BD85B510
:102C9000816085BDEEE6F0E0808181608083E1E8BF
:102CA000F0E01082808182608083808181608083F7
:102CB000E0E8F0E0808181608083E1EBF0E08081FA
:102CC00084608083E0EBF0E0808181608083EAE7CC
:102CD000F0E0808184608083808182608083808155
:102CE000816080838081806880831092C100089514
:102CF000CF92DF92EF92FF920F931F93CF93DF93C8
:102D000090E0FC01E458FF4FD491FC01E057FF4FE5
:102D10007491611102C0C0E001C0CD2FDA01C90178
:102D2000BF70672F70E0660F771F6C557F4F00E014
:102D300010E09801FB01E590F490F70140814D23EC
:102D40004C131EC0680179014FEFC41AD40AE40A7B
:102D5000F40A081719072A073B0709F442C097012C
:102D60008601E8CF68017901FFEFCF1ADF0AEF0A89
:102D7000FF0A081719072A073B0799F197018601EF
:102D8000FB01E590F490F70140814D234C13EACF0D
:102D9000801B910BA20BB30B20E030E0A901FB01DB
:102DA000E590F490F701F080FD22FC120AC028178C
:102DB00039074A075B07A9F02F5F3F4F4F4F5F4F1F
:102DC000EECFA8E1B0E00E94221D605F7F4F8F4FE1
:102DD0009F4F24E096958795779567952A95D1F72B
:102DE00003C060E070E0CB01DF91CF911F910F91A4
:102DF000FF90EF90DF90CF9008950895833081F099
:102E000028F4813099F08230A1F008958730A9F03C
:102E10008830B9F08430D1F4809180008F7D03C078
:102E2000809180008F7780938000089584B58F779C
:102E300002C084B58F7D84BD08958091B0008F77E6
:102E400003C08091B0008F7D8093B0000895CF9330
:102E5000DF9390E0FC01E458FF4F2491FC01E05720
:102E6000FF4F8491882349F190E0880F991FFC015E
:102E7000E854FF4FA591B49182559F4FFC01C59135
:102E8000D4919FB7611108C0F8948C91209582234A
:102E90008C93888182230AC0623051F4F8948C911B
:102EA000322F309583238C938881822B888304C0B2
:102EB000F8948C91822B8C939FBFDF91CF910895D2
:102EC0000F931F93CF93DF931F92CDB7DEB7282FB9
:102ED00030E0F901E859FF4F8491F901E458FF4FC0
:102EE0001491F901E057FF4F04910023C9F08823A2
:102EF00021F069830E94FE166981E02FF0E0EE0F59
:102F0000FF1FE255FF4FA591B4919FB7F8948C91A4
:102F1000611103C01095812301C0812B8C939FBF49
:102F20000F90DF91CF911F910F910895CF93DF9371
:102F3000282F30E0F901E859FF4F8491F901E45856
:102F4000FF4FD491F901E057FF4FC491CC2391F08A
:102F500081110E94FE16EC2FF0E0EE0FFF1FEC55E2
:102F6000FF4FA591B4912C912D2381E090E021F4A5
:102F700080E002C080E090E0DF91CF910895823040
:102F8000E8F4E82FF0E0EE0FFF1FEB5AFB4F7183E0
:102F90006083813041F0809169008C7F842B809325
:102FA0006900E89A089580916900440F551F440F05
:102FB000551F837F842B80936900E99A089582309E
:102FC00068F4813011F0E89801C0E998E82FF0E04A
:102FD000EE0FFF1FEB5AFB4F1182108208951F92D4
:102FE0000F920FB60F9211242F933F934F935F933D
:102FF0006F937F938F939F93AF93BF93EF93FF93C1
:103000008091550490915604892B29F0E091550444
:10301000F09156040995FF91EF91BF91AF919F9167
:103020008F917F916F915F914F913F912F910F9071
:103030000FBE0F901F9018951F920F920FB60F9210
:1030400011242F933F934F935F936F937F938F93AD
:103050009F93AF93BF93EF93FF9380915704909109
:103060005804892B29F0E0915704F09158040995F0
:10307000FF91EF91BF91AF919F918F917F916F9150
:103080005F914F913F912F910F900FBE0F901F9026
:1030900018951F920F920FB60F9211242F938F93B2
:1030A0009F93EF93FF93E0916904F0916A0480810C
:1030B000E0916F04F091700482FD12C090818091C4
:1030C00072048F5F8F7320917304821751F0E09127
:1030D0007204F0E0E75AFB4F958F8093720401C0B1
:1030E0008081FF91EF919F918F912F910F900FBE53
:1030F0000F901F9018951F920F920FB60F921124E8
:103100002F933F934F935F936F937F938F939F93EF
:10311000AF93BF93EF93FF9389E594E00E94A419C6
:10312000FF91EF91BF91AF919F918F917F916F919F
:103130005F914F913F912F910F900FBE0F901F9075
:10314000189589E594E00E94691921E0892B09F41A
:1031500020E0822F089510925C0410925B0488EEA8
:1031600093E0A0E0B0E080935D0490935E04A093B0
:103170005F04B09360048FEE91E090935A048093C3
:10318000590485EC90E0909366048093650484EC88
:1031900090E0909368048093670480EC90E09093B3
:1031A0006A048093690481EC90E090936C048093AE
:1031B0006B0482EC90E090936E0480936D0486EC37
:1031C00090E09093700480936F04109272041092B8
:1031D00073041092740410927504089508950E9467
:1031E0003D160E94EE180E94F005C6E9D9E10E9442
:1031F000C4062097E1F30E949619F9CFCF92DF928F
:10320000EF92FF920F931F93CF93DF936C017A019C
:10321000EB01E60EF71E00E010E0CE15DF0561F0D1
:103220006991D601ED91FC910190F081E02DC601EC
:103230000995080F191FF1CFC801DF91CF911F9198
:103240000F91FF90EF90DF90CF9008956115710579
:1032500081F0DB010D900020E9F7AD0141505109EB
:10326000461B570BDC01ED91FC910280F381E02DB0
:10327000099480E090E00895DC01ED91FC910190CB
:10328000F081E02D09940F931F93CF93DF93EC010E
:103290006DE00E943C198C016AE0CE010E943C194D
:1032A000800F911FDF91CF911F910F9108950F9380
:1032B0001F93CF93DF93EC010E9426198C01CE015E
:1032C0000E944319800F911FDF91CF911F910F91A1
:1032D0000895FC01818D228D90E0805C9F4F821BC0
:1032E00091098F7399270895FC01918D828D98170C
:1032F00031F0828DE80FF11D858D90E008958FEFFC
:103300009FEF0895FC01918D828D981761F0828D59
:10331000DF01A80FB11D5D968C91928D9F5F9F7309
:10332000928F90E008958FEF9FEF089581EA98E1E2
:10333000892B49F080E090E0892B29F00E94A118A8
:1033400081110C9400000895FC01848DDF01A80F09
:10335000B11DA35ABF4F2C91848D90E001968F73BD
:103360009927848FA689B7892C93A089B1898C91DC
:1033700080648C93938D848D981306C00288F389A2
:10338000E02D80818F7D80830895CF93DF93EC01C2
:10339000888D8823C9F0EA89FB89808185FD05C075
:1033A000A889B9898C9186FD0FC00FB607FCF5CFAF
:1033B000808185FFF2CFA889B9898C9185FFEDCFF7
:1033C000CE010E94A419E7CFDF91CF910895CF924B
:1033D000DF92FF920F931F93CF93DF931F92CDB78E
:1033E000DEB76C01DC015B969C915B975C968C91DF
:1033F0005C97981307C05096ED91FC91519780818E
:1034000085FD32C0F601038D10E00F5F1F4F0F7373
:103410001127F02EF601848DF81211C00FB607FCAB
:10342000F9CFD6015096ED91FC915197808185FF9F
:10343000F1CFC60169830E94A4196981EBCF838D06
:10344000E80FF11DE35AFF4F6083D6015B960C93A2
:103450005B975296ED91FC915397808180628083B7
:1034600081E058968C930DC0D6015696ED91FC9153
:10347000579760835096ED91FC91519780818064BD
:10348000808381E090E00F90DF91CF911F910F91A9
:10349000FF90DF90CF900895BF92CF92DF92EF928E
:1034A000FF92CF93DF93EC016A017B01B22EE88992
:1034B000F98982E08083411581EE58076105710525
:1034C000A1F060E079E08DE390E0A70196010E9411
:1034D000E11C21503109410951095695479537950D
:1034E0002795211580E1380798F0E889F98910823D
:1034F00060E874E88EE190E0A70196010E94E11C6B
:10350000215031094109510956954795379527951D
:10351000EC85FD853083EE85FF852083188EEC8950
:10352000FD89B082EA89FB89808180618083EA8994
:10353000FB89808188608083EA89FB89808180683B
:103540008083EA89FB8980818F7D8083DF91CF91A1
:10355000FF90EF90DF90CF90BF900895FC01938D86
:10356000848D9813FCCFA289B3898C918F7E8C9324
:10357000A289B3898C91877F8C93A289B3898C911E
:103580008F778C93A289B3898C918F7D8C93828D58
:10359000818F08955058BB27AA270ED04DC13ED128
:1035A00030F043D120F031F49F3F11F41EF433C1C9
:1035B0000EF4E095E7FB29C1E92F4FD180F3BA174C
:1035C000620773078407950718F071F49EF567C1C9
:1035D0000EF4E0950B2EBA2FA02D0B01B90190012E
:1035E0000C01CA01A0011124FF27591B99F0593F72
:1035F00050F4503E68F11A16F040A22F232F342FBA
:103600004427585FF3CF469537952795A795F04007
:103610005395C9F77EF41F16BA0B620B730B840B1C
:10362000BAF09150A1F0FF0FBB1F661F771F881FD4
:10363000C2F70EC0BA0F621F731F841F48F487952C
:1036400077956795B795F7959E3F08F0B3CF93951B
:10365000880F08F09927EE0F9795879508950CD05D
:10366000EBC0E3D040F0DAD030F021F45F3F19F046
:10367000CCC0511115C1CFC0F0D098F39923C9F334
:103680005523B1F3951B550BBB27AA276217730768
:10369000840738F09F5F5F4F220F331F441FAA1F1C
:1036A000A9F333D00E2E3AF0E0E830D091505040DC
:1036B000E695001CCAF729D0FE2F27D0660F771F8A
:1036C000881FBB1F261737074807AB07B0E809F06C
:1036D000BB0B802DBF01FF2793585F4F2AF09E3F01
:1036E000510568F092C0DCC05F3FECF3983EDCF31C
:1036F000869577956795B795F7959F5FC9F7880F7A
:10370000911D9695879597F90895E1E0660F771FCB
:10371000881FBB1F621773078407BA0720F0621B5C
:10372000730B840BBA0BEE1F88F7E095089504D055
:103730006894B111B5C0089598D088F09F5790F063
:10374000B92F9927B751A0F0D1F0660F771F881FC6
:10375000991F1AF0BA95C9F712C0B13081F09FD005
:10376000B1E008959CC0672F782F8827B85F39F0A3
:10377000B93FCCF3869577956795B395D9F73EF425
:1037800090958095709561957F4F8F4F9F4F0895CD
:10379000E89409C097FB3EF49095809570956195EB
:1037A0007F4F8F4F9F4F9923A9F0F92F96E9BB27A1
:1037B0009395F695879577956795B795F111F8CF1D
:1037C000FAF4BB0F11F460FF1BC06F5F7F4F8F4F88
:1037D0009F4F16C0882311F096E911C0772321F07E
:1037E0009EE8872F762F05C0662371F096E8862F16
:1037F00070E060E02AF09A95660F771F881FDAF76D
:10380000880F9695879597F9089597F99F6780E8AF
:1038100070E060E008959FEF80EC089500240A9422
:103820001616170618060906089500240A9412169B
:103830001306140605060895092E0394000C11F4CE
:10384000882352F0BB0F40F4BF2B11F460FF04C07B
:103850006F5F7F4F8F4F9F4F089557FD9058440FD4
:10386000551F59F05F3F71F04795880F97FB991FDF
:1038700061F09F3F79F0879508951216130614069C
:10388000551FF2CF4695F1DF08C016161706180629
:10389000991FF1CF86957105610508940895E89404
:1038A000BB2766277727CB0197F908950BD0C4CFA4
:1038B000B5DF28F0BADF18F0952309F0A6CFABCF1B
:1038C0001124EECFCADFA0F3959FD1F3950F50E0FE
:1038D000551F629FF001729FBB27F00DB11D639FC2
:1038E000AA27F00DB11DAA1F649F6627B00DA11D68
:1038F000661F829F2227B00DA11D621F739FB00D0E
:10390000A11D621F839FA00D611D221F749F33277D
:10391000A00D611D231F849F600D211D822F762F16
:103920006A2F11249F5750408AF0E1F088234AF013
:10393000EE0FFF1FBB1F661F771F881F915050405F
:10394000A9F79E3F510570F060CFAACF5F3FECF31F
:10395000983EDCF3869577956795B795F795E7954B
:103960009F5FC1F7FE2B880F911D9695879597F95C
:103970000895AA1BBB1B51E107C0AA1FBB1FA617B6
:10398000B70710F0A61BB70B881F991F5A95A9F708
:1039900080959095BC01CD01089597FB072E16F4F4
:1039A000009407D077FD09D00E94B91C07FC05D010
:1039B0003EF4909581959F4F0895709561957F4F46
:1039C0000895A1E21A2EAA1BBB1BFD010DC0AA1F60
:1039D000BB1FEE1FFF1FA217B307E407F50720F078
:1039E000A21BB30BE40BF50B661F771F881F991FF3
:1039F0001A9469F760957095809590959B01AC013C
:103A0000BD01CF010895052E97FB1EF400940E947E
:103A10001A1D57FD07D00E94E11C07FC03D04EF48D
:103A20000C941A1D50954095309521953F4F4F4F5E
:103A30005F4F089590958095709561957F4F8F4F5A
:103A40009F4F08950E94721DA59F900DB49F900DE9
:103A5000A49F800D911D11240895B7FF0C94221D81
:103A60000E94221D821B930B08950F93083090F043
:103A7000982F872F762F652F542F432F322F2227F1
:103A80000850F4CF220F331F441F551F661F771FA6
:103A9000881F991F0A95B2F70F91089597FB10F8A8
:103AA000169400080F93083098F00850232F342FF5
:103AB000452F562F672F782F892F902DF4CF0594FF
:103AC0009795879577956795579547953795279556
:103AD0000A95AAF70F910895EE0FFF1F0590F49134
:103AE000E02D0994A29FB001B39FC001A39F700D68
:103AF000811D1124911DB29F700D811D1124911DF6
:103B00000895FB01DC0102C001900D92415050402C
:103B1000D8F70895F999FECF92BD81BDF89A9927FB
:103B200080B50895262FF999FECF1FBA92BD81BDA9
:103B300020BD0FB6F894FA9AF99A0FBE019608952F
:043B4000F894FFCF27
:103B44000000803F0000803F11001000C800060004
:103B5400060009000E00040008000700012000EE22
:103B6400FF00000000000012000000EF11F0FF0051
:103B7400000000000010000000EF11F2FF00000040
:103B8400009C0100000E000000EF11F4FF00000093
:103B940000AE0000000C000000EF11020000000065
:103BA400000000FEFF0000EF119B019B01A301AD8B
:103BB40001B701BF01C5016101670151015901410B
:103BC4000149013301390125012B011400120010B0
:103BD400000E000000020000000000E5040000FEEA
:103BE400FF0000EF11F2FFF4FFF2FF00002305F0E5
:103BF400FFF2FFF0FF00002305F0FFEEFF0000EEF0
:103C0400FFECFF000000000000AC0E7F0E250E2D1F
:103C14000E400E4F0E00000000EF11000000005F88
:103C240013571300000000E914111500000000E709
:0C3C340019FE18691982197419C51900CD
:00000001FF
