:100000000C9463000C948B000C948B000C948B006C
:100010000C948B000C948B000C948B000C948B0034
:100020000C948B000C948B000C948B000C948B0024
:100030000C948B000C948B000C948B000C948B0014
:100040000C94FA000C948B000C9410030C945E0337
:100050000C948B000C948B000C948B000C948B00F4
:100060000C948B000C948B000000000024002700EF
:100070002A0000000000250028002B0000000000DE
:1000800023002600290004040404040404040202DA
:100090000202020203030303030301020408102007
:1000A0004080010204081020010204081020000012
:1000B0000007000201000003040600000000000029
:1000C00000008D00CA0411241FBECFEFD8E0DEBFB0
:1000D000CDBF11E0A0E0B1E0E2E6FDE002C0059096
:1000E0000D92A031B107D9F712E0A0E1B1E001C053
:1000F0001D92A135B107E1F710E0C6ECD0E004C0D5
:100100002297FE010E94AB06C23CD107C9F70E94AC
:1001100020050C94AF060C94000080E191E06AE0A9
:1001200070E00E94B600089580E191E00E94BA005C
:1001300040911001509111016091120170911301D1
:100140008FE292E02AE030E00E94390664E670E037
:1001500080E090E00E94420108958FE292E040E842
:1001600055E260E070E00E9499030895FC017587F4
:10017000648708950F931F938C01FC01848561E0CF
:100180000E94E001F801848560E00E941F0282E085
:1001900090E00E949B01F801848561E00E941F02AB
:1001A00085E090E00E949B01F801848560E00E9458
:1001B0001F02F801848560E00E94E001F801848557
:1001C00061E020E432E44FE050E00E947302F80165
:1001D00060877187828793872AE330E040E050E0B0
:1001E0000E948E06F80120833183428353831F913E
:1001F0000F9108951F920F920FB60F9211242F9313
:100200003F938F939F93AF93BF93809122019091DF
:100210002301A0912401B09125013091260101967E
:10022000A11DB11D232F2D5F2D3720F02D570196D5
:10023000A11DB11D209326018093220190932301DB
:10024000A0932401B093250180911E0190911F017C
:10025000A0912001B09121010196A11DB11D8093B3
:100260001E0190931F01A0932001B0932101BF9123
:10027000AF919F918F913F912F910F900FBE0F9053
:100280001F9018959B01AC017FB7F89480911E01D7
:1002900090911F01A0912001B091210166B5A89B0A
:1002A00005C06F3F19F00196A11DB11D7FBFBA2F88
:1002B000A92F982F8827860F911DA11DB11D62E0DF
:1002C000880F991FAA1FBB1F6A95D1F7BC012DC0CB
:1002D000FFB7F89480911E0190911F01A091200119
:1002E000B0912101E6B5A89B05C0EF3F19F001963A
:1002F000A11DB11DFFBFBA2FA92F982F88278E0FE0
:10030000911DA11DB11DE2E0880F991FAA1FBB1FFF
:10031000EA95D1F7861B970B885E9340C8F221506F
:1003200030404040504068517C4F21153105410517
:10033000510571F60895019739F0880F991F880FBC
:10034000991F02970197F1F70895789484B5826018
:1003500084BD84B5816084BD85B5826085BD85B569
:10036000816085BDEEE6F0E0808181608083E1E818
:10037000F0E0108280818260808380818160808350
:10038000E0E8F0E0808181608083E1EBF0E0808153
:1003900084608083E0EBF0E0808181608083EAE725
:1003A000F0E08081846080838081826080838081AE
:1003B000816080838081806880831092C10008956D
:1003C000CF93DF93482F50E0CA0186569F4FFC0120
:1003D00034914A575F4FFA018491882369F190E084
:1003E000880F991FFC01E859FF4FA591B491FC01BA
:1003F000EE58FF4FC591D491662351F42FB7F8946E
:100400008C91932F909589238C93888189230BC09D
:10041000623061F42FB7F8948C91932F90958923D3
:100420008C938881832B88832FBF06C09FB7F89455
:100430008C91832B8C939FBFDF91CF910895482F90
:1004400050E0CA0182559F4FFC012491CA01865693
:100450009F4FFC0194914A575F4FFA013491332327
:1004600009F440C0222351F1233071F0243028F4E4
:100470002130A1F0223011F514C02630B1F0273020
:10048000C1F02430D9F404C0809180008F7703C07C
:10049000809180008F7D8093800010C084B58F771D
:1004A00002C084B58F7D84BD09C08091B0008F7774
:1004B00003C08091B0008F7D8093B000E32FF0E007
:1004C000EE0FFF1FEE58FF4FA591B4912FB7F89490
:1004D000662321F48C919095892302C08C91892BFD
:1004E0008C932FBF08958F929F92AF92BF92CF921D
:1004F000DF92EF92FF920F931F93CF93DF93A82F7A
:10050000B0E0CD0186569F4FFC018490AA57BF4FA3
:10051000FD018491662311F4992401C0982C6FEF9A
:10052000A62E6FEFB62E6FEFC62E6FE0D62EA2224C
:10053000B322C422D522682F70E0660F771F64585B
:100540007F4FEE24FF248701FB01A591B4910BC0DE
:10055000EA14FB040C051D0509F44EC00894E11CC7
:10056000F11C011D111D8C918821891589F30CC086
:10057000EA14FB040C051D0509F43EC00894E11CB7
:10058000F11C011D111D03C0FB01A591B4918C91BB
:100590008821891569F720E030E040E050E0FB0158
:1005A000C591D4910FC0DA01C9018E0D9F1DA01F06
:1005B000B11F8A159B05AC05BD05F1F02F5F3F4FBC
:1005C0004F4F5F4F88818821891569F3CA01B901AE
:1005D00025E130E040E050E00E944D069B01AC0177
:1005E000205F3F4F4F4F5F4F84E0569547953795BB
:1005F00027958A95D1F704C020E030E040E050E034
:10060000B901CA01DF91CF911F910F91FF90EF9037
:10061000DF90CF90BF90AF909F908F9008950895F6
:100620001F920F920FB60F9211242F933F934F9367
:100630008F939F93EF93FF938091C00082FD1DC025
:100640004091C6002091A7013091A8012F5F3F4F34
:100650002F7730708091A9019091AA01281739074E
:1006600071F0E091A701F091A801E95DFE4F408390
:100670003093A8012093A70102C08091C600FF918A
:10068000EF919F918F914F913F912F910F900FBEBE
:100690000F901F901895E0913B02F0913C02E058BA
:1006A000FF4F8191919120813181821B930B8F7734
:1006B0009070892B11F00E940F0308951F920F92E2
:1006C0000FB60F9211242F933F938F939F93EF9325
:1006D000FF9320912B0230912C0280912D0290915A
:1006E0002E022817390731F48091C1008F7D809345
:1006F000C10014C0E0912D02F0912E02E555FE4F8D
:10070000208180912D0290912E0201968F7790701A
:1007100090932E0280932D022093C600FF91EF91BB
:100720009F918F913F912F910F900FBE0F901F902F
:100730001895AF92BF92DF92EF92FF920F931F93A3
:10074000CF93DF93EC017A018B01DD24403081EE01
:10075000580780E0680780E0780711F0DD24D39423
:1007600091E0A92EB12CEC89FD89DD2069F0C5014D
:1007700008A002C0880F991F0A94E2F7808360E006
:1007800079E08DE390E005C0108260E874E88EE1C6
:1007900090E0A80197010E946C0621503040404033
:1007A0005040569547953795279580E1203038077A
:1007B00020F0DD2011F0DD24D6CFE889F9893083DF
:1007C000EA89FB89208319A2EE89FF89408121E013
:1007D00030E0C9010C8C02C0880F991F0A94E2F71F
:1007E000482B4083EE89FF894081C9010D8C02C0EE
:1007F000880F991F0A94E2F7482B4083EE89FF89FE
:100800004081C9010E8C02C0880F991F0A94E2F73B
:10081000482B4083EE89FF8980810F8C02C0220F14
:10082000331F0A94E2F7209528232083DF91CF918C
:100830001F910F91FF90EF90DF90BF90AF900895C0
:10084000DC011C96ED91FC911D97E058FF4F219122
:10085000319180819181281B390B2F773070C9012C
:100860000895DC011C96ED91FC911D97E058FF4F17
:1008700020813181E058F040DF01AE57BF4F8D91AC
:100880009C9111972817390719F42FEF3FEF07C0F4
:100890008D919C91E80FF91F8081282F30E0C901CC
:1008A0000895DC011C96ED91FC911D97E058FF4FD7
:1008B00020813181E058F040DF01AE57BF4F8D916C
:1008C0009C9111972817390719F42FEF3FEF10C0AB
:1008D0008D919C911197E80FF91F20818D919C912A
:1008E000119701968F77907011969C938E9330E0BC
:1008F000C9010895DC0191968C919197882339F074
:100900005496ED91FC915597808186FFF9CF919691
:100910001C920895CF93DF93EC01EE85FF85E0589C
:10092000FF4F20813181E058F0402F5F3F4F2F77FC
:100930003070DF01AE57BF4F8D919C9111972817F2
:100940003907D1F3E058FF4F80819181E058F040A2
:10095000E80FF91F6083EE85FF85E058FF4F318374
:100960002083EE89FF89208181E090E00F8C02C016
:10097000880F991F0A94E2F7282B208381E089A32E
:10098000EC89FD8980818064808381E090E0DF9143
:10099000CF910895109232021092310288EE93E0C6
:1009A000A0E0B0E08093330290933402A09335022C
:1009B000B093360284E091E09093300280932F024E
:1009C00087E291E090933C0280933B028BEA91E0B6
:1009D00090933E0280933D0285EC90E0909340021C
:1009E00080933F0284EC90E0909342028093410216
:1009F00080EC90E0909344028093430281EC90E07D
:100A0000909346028093450282EC90E090934802D6
:100A10008093470286EC90E090934A0280934902CB
:100A200084E080934B0283E080934C0287E08093C4
:100A30004D0285E080934E0281E080934F0208953D
:100A4000CF93DF930E94A5010E94AD00CBE4D3E0D9
:100A50000E9494002097E1F30E944B03F9CFCF92BC
:100A6000DF92EF92FF920F931F93CF93DF937C015E
:100A70006B018A01C0E0D0E00FC0D6016D916D011D
:100A8000D701ED91FC910190F081E02DC70109950E
:100A9000C80FD91F015010400115110571F7CE0183
:100AA000DF91CF911F910F91FF90EF90DF90CF904A
:100AB0000895EF92FF920F931F938C01DC01ED914B
:100AC000FC910190F081E02D6DE009957C01D80149
:100AD000ED91FC910190F081E02DC8016AE009954B
:100AE0009C012E0D3F1DC9011F910F91FF90EF90AA
:100AF0000895CF93DF93EC016115710519F420E09F
:100B000030E00FC0DB010D900020E9F71197A61B24
:100B1000B70BE881F9810280F381E02DAD010995E1
:100B20009C01C901DF91CF9108954F925F927F920E
:100B30008F929F92AF92BF92CF92DF92EF92FF92ED
:100B40000F931F93DF93CF93CDB7DEB7A1970FB667
:100B5000F894DEBF0FBECDBF2C01742ECB01223026
:100B600008F42AE019A231E2C32ED12CCC0EDD1EEE
:100B7000822E9924AA24BB24672D752FA5019401E8
:100B80000E946C0679018A01C801B701A501940190
:100B90000E944D06472D461B0894C108D1084A30D3
:100BA00014F4405D01C0495CF6014083E114F10496
:100BB0000105110521F07E2C5F2DC801DDCFC2019A
:100BC000B6010E947905A1960FB6F894DEBF0FBE5C
:100BD000CDBFCF91DF911F910F91FF90EF90DF90EC
:100BE000CF90BF90AF909F908F907F905F904F90ED
:100BF0000895CF92DF92EF92FF920F931F93CF93BE
:100C0000DF93EC016A017B012115310541F4E88194
:100C1000F9810190F081E02D642F09951FC02A30E1
:100C20003105D1F477FF17C0E881F9810190F08197
:100C3000E02D6DE209958C0144275527BA014C1926
:100C40005D096E097F09CE012AE00E949505980191
:100C5000280F391F04C02AE00E9495059C01C90194
:100C6000DF91CF911F910F91FF90EF90DF90CF9088
:100C70000895EF92FF920F931F937C010E94F90554
:100C80008C01C7010E9459059C01200F311FC90129
:100C90001F910F91FF90EF900895629FD001739F75
:100CA000F001829FE00DF11D649FE00DF11D929F08
:100CB000F00D839FF00D749FF00D659FF00D992747
:100CC000729FB00DE11DF91F639FB00DE11DF91F6B
:100CD000BD01CF0111240895A1E21A2EAA1BBB1B4E
:100CE000FD010DC0AA1FBB1FEE1FFF1FA217B307F8
:100CF000E407F50720F0A21BB30BE40BF50B661F0E
:100D0000771F881F991F1A9469F7609570958095D1
:100D100090959B01AC01BD01CF01089597FB092E71
:100D200005260ED057FD04D0D7DF0AD0001C38F4BA
:100D300050954095309521953F4F4F4F5F4F089507
:100D4000F6F790958095709561957F4F8F4F9F4FE7
:100D50000895EE0FFF1F0590F491E02D0994F8948B
:020D6000FFCFC3
:100D6200000000008A042F052004510431047A0493
:00000001FF
