:100000000C9464000C94300B0C945D0B0C948C00DD
:100010000C948C000C948C000C948C000C948C0030
:100020000C948C000C948C000C948C000C948C0020
:100030000C948C000C948C000C948C000C948C0010
:100040000C948A0B0C948C000C94560E0C94A40EF9
:100050000C948C000C948C000C948C000C948C00F0
:100060000C94D5070C948C0000000000240027009D
:100070002A0000000000250028002B0000000000DE
:1000800023002600290004040404040404040202DA
:100090000202020203030303030301020408102007
:1000A0004080010204081020010204081020000012
:1000B0000007000201000003040600000000000029
:1000C0000000AE001207761011241FBECFEFD8E05B
:1000D000DEBFCDBF11E0A0E0B1E0E4E3F6E202C094
:1000E00005900D92AC33B107D9F713E0ACE3B1E062
:1000F00001C01D92A93AB107E1F710E0C8ECD0E0C9
:1001000004C02297FE010E941413C23CD107C9F714
:100110000E94CC100C9418130C94000080917A016A
:1001200090917B01019690937B0180937A0181E00D
:1001300090E09093770180937601089580917C01FF
:1001400090917D01019690937D0180937C0181E0E7
:1001500090E0909379018093780108958CE391E089
:100160000E948409089580919E0190919F010297B9
:1001700001F58091A7019091A801FC01E056FE4F86
:10018000608101969093A8018093A70182EF91E08E
:100190000E945A078091A7019091A801029779F4D3
:1001A0001092A8011092A70110929F0110929E0137
:1001B000089582EF91E06091A5010E945A07089589
:1001C0000F931F9333C082EF91E00E94A70604971C
:1001D000C1F410929D0110929C0110929B0110920B
:1001E0009A0180918E0190918F01892B51F00E948C
:1001F000D20B60938601709387018093880190935E
:10020000890100919A0110919B0182EF91E00E9477
:10021000B006F801EE0FFF1FE057FE4F9183808379
:100220000F5F1F4F10939B0100939A0182EF91E0A3
:100230000E94A706892B39F61F910F910895892BEB
:1002400019F480910E0102C0809110010E94C60C29
:1002500008958091000161E00E94650D8091020186
:1002600061E00E94650D8091040161E00E94650DCE
:100270008091060161E00E94650D08958091000162
:1002800061E00E94650D8091020160E00E94650DB1
:100290008091040160E00E94650D8091060161E09B
:1002A0000E94650D08958091000161E00E94650D36
:1002B0008091020161E00E94650D8091040160E07F
:1002C0000E94650D8091060161E00E94650D089510
:1002D0008091000160E00E94650D8091020161E063
:1002E0000E94650D8091040161E00E94650D80917E
:1002F000060160E00E94650D08958091000160E0B4
:100300000E94650D8091020161E00E94650D80915F
:10031000040161E00E94650D8091060161E00E9488
:10032000650D08958091000161E00E94650D809146
:10033000020160E00E94650D8091040161E00E946D
:10034000650D8091060160E00E94650D0895809121
:10035000000160E00E94650D8091020161E00E9451
:10036000650D8091040160E00E94650D8091060199
:1003700061E00E94650D08950F931F9380E06EE881
:1003800070E043E050E00E94FA0A81E06EE970E01C
:1003900043E050E00E94FA0A8091000161E00E946F
:1003A000260D8091020161E00E94260D80910401DA
:1003B00061E00E94260D8091060161E00E94260DF9
:1003C0000CE311E0C80165E070E00E94DA0AC801A0
:1003D00068E978E00E94910902EF11E0C80168E045
:1003E00070E00E94A907C80160EE70E00E94080753
:1003F000C80163EB70E00E940D0780910C019091A1
:100400000D0190934701809346019093450180939D
:1004100044011F910F910895AF92BF92CF92DF9246
:10042000EF92FF920F931F936091440170914501E9
:10043000809108010E94C60C6091460170914701AD
:1004400080910A010E94C60C8091900190919101C7
:100450000A9791F58091760190917701019751F477
:1004600080E090E06FEF70E00E941F011092770132
:10047000109276018091780190917901019751F461
:1004800081E090E06FEF70E00E941F01109279010F
:100490001092780168EC70E080E090E00E94060C19
:1004A00080E090E060E070E00E941F0181E090E059
:1004B00060E070E00E941F01809190019091910195
:1004C0000B97E9F487E893E040E855E260E070E0DC
:1004D0000E94DF0E87E893E00E94CC0F892BD1F3B6
:1004E00087E893E00E94FD0F813629F487E893E0C6
:1004F0006BE60E94361087E893E00E94660F8091B9
:100500009001909191010C9789F4809192019091C2
:10051000930161E00E94260D8091920190919301D8
:1005200060919401709195010E94650D80919001F8
:10053000909191018737910541F0809190019091C0
:1005400091018337910509F0DFC380914A019091B1
:100550004B01892B71F48091460190914701909352
:1005600049018093480181E090E090934B01809392
:100570004A01C0907601D090770181E0C816D1047D
:1005800009F03FC08091500190915101892B79F47D
:10059000D0925101C09250010E94E00B60935A0129
:1005A00070935B0180935C0190935D0126C0109273
:1005B0005101109250010E94E00B60935E01709314
:1005C0005F01809360019093610120915A01309105
:1005D0005B0140915C0150915D01621B730B840BC8
:1005E000950B60936A0170936B0180936C019093FB
:1005F0006D01D0925501C092540110927701109272
:100600007601C0907801D090790181E0C816D104BC
:1006100009F03FC08091520190915301892B79F4E8
:10062000D0925301C09252010E94E00B609362018C
:1006300070936301809364019093650126C01092CA
:100640005301109252010E94E00B60936601709377
:100650006701809368019093690120916201309154
:1006600063014091640150916501621B730B840B1F
:10067000950B60936E0170936F018093700190935E
:100680007101D0925701C0925601109279011092D7
:1006900078018091560190915701019709F08DC022
:1006A000A0906A01B0906B01C0906C01D0906D0178
:1006B00081E1A81687E2B80680E0C80680E0D80687
:1006C00008F47BC060916E0170916F0180917001A0
:1006D000909171016A197B098C099D0960937201DF
:1006E0007093730180937401909375010E94A0111F
:1006F0002091160130911701409118015091190174
:100700000E942C127B018C01C601B5010E949E1132
:100710009B01AC01C801B7010E9405117B018C014E
:10072000609312017093130180931401909315014B
:1007300017FB109517F910956091440170914501D0
:10074000882777FD8095982F0E94A0119B01AC010E
:10075000C801B7010E942C120E946D119B01709379
:100760005901609358018091460190914701280FEB
:10077000391F2F3F310519F014F02FEF30E0B90188
:1007800037FF02C060E070E070934701609346015C
:100790001092570110925601109255011092540177
:1007A0000CC080914801909149019093470180933A
:1007B000460110924B0110924A0180919001909154
:1007C00091018437910561F4809144019091450134
:1007D000853F91051CF08FEF90E016C00A9614C07B
:1007E000809190019091910187369105E9F4809173
:1007F0004401909145018B3091052CF410924501F4
:100800001092440105C00A979093450180934401DA
:100810008091440190914501909347018093460156
:10082000109291011092900180919001909191010C
:100830008734910549F480919201909193019093AE
:100840004501809344010FC08091900190919101E6
:100850008634910561F48091920190919301909377
:10086000470180934601109291011092900180916E
:100870009001909191018737910541F0809190010D
:10088000909191018936910509F046C20E94A70115
:1008900059C10E947D0156C18091900190919101B2
:1008A0008236910519F40E9468014CC18091900133
:1008B000909191018337910541F080919001909141
:1008C00091018B36910509F030C20E9492013AC124
:1008D0000E94530137C180919001909191018E3611
:1008E000910519F40E943E012DC1809190019091D3
:1008F00091018837910519F40E94290123C1809143
:100900009001909191018637910581F480E00E94D9
:10091000A40C9C0190934D0180934C0160E071E028
:100920000E94AE126093A001C90140C08091900165
:10093000909191018537910509F049C0009192018C
:1009400010919301802F61E00E94260D802F60E0BE
:100950000E94650D82E090E00E945F0C802F61E0B4
:100960000E94650D85E090E00E945F0C802F60E0A2
:100970000E94650D802F60E00E94260D802F61E0AF
:1009800020E432E44FE050E00E94B90D2AE330E069
:1009900040E050E00E94E31289019A01C80160E042
:1009A00071E00E94AE126093A001C80160E071E0A6
:1009B0000E94AE128093A10182E090E090939F018B
:1009C00080939E011092910110929001BBC0809182
:1009D0009001909191018C36910559F4809192018A
:1009E0009091930160919401709195010E941F0173
:1009F000E9CF80919001909191018536910569F43C
:100A0000609192017091930170934F0160934E0138
:100A10008CE391E00E94990932C0809190019091FD
:100A20009101449721F48AE08093A001C5CF809181
:100A3000900190919101C39779F480E06EE870E0A5
:100A400043E050E00E94FA0A81E06EE970E043E082
:100A500050E00E94FA0AB6CF8091900190919101E6
:100A6000C49739F481E00E941D0B80E00E941D0BA9
:100A7000A9CF8091900190919101CD9739F481E0B7
:100A800090E09093A4018093A3019CCF809190016A
:100A900090919101CC9729F41092A4011092A30196
:100AA00091CF80919001909191018035910569F5E8
:100AB0008091920190919301209194013091950140
:100AC000982F8827820F931FAA2797FDA095BA2FEA
:100AD00080938A0190938B01A0938C01B0938D0138
:100AE00010929101109290010E94D20B60938601A6
:100AF00070938701809388019093890181E090E051
:100B000090938F0180938E011DC0809190019091F0
:100B1000910181359105B1F41092910110929001EB
:100B20000E94D20B609386017093870180938801A5
:100B30009093890110928F0110928E0110927F0183
:100B400010927E0180918E0190918F01892B29F165
:100B50000E94D20B2091860130918701409188013B
:100B600050918901621B730B840B950B20918A01B4
:100B700030918B0140918C0150918D0126173707E0
:100B80004807590750F40E942901109291011092D0
:100B9000900110928F0110928E018091900190919E
:100BA0009101C29739F080917E0190917F01019768
:100BB00009F07FC08091900190919101C297F1F569
:100BC000109291011092900181E090E090937F014A
:100BD00080937E01809192019091930162E070E098
:100BE0000E94AE1270938101609380018091920106
:100BF0009091930162E070E00E94AE1290938301A5
:100C000080938201809194019091950120919601A9
:100C100030919701982F8827820F931F9093850119
:100C20008093840110927D0110927C0180917C015F
:100C300090917D0190937B0180937A018091800156
:100C4000909181014091820150918301892B59F04B
:100C50002091840130918501452B99F480917A018E
:100C600090917B0119C0452B21F120917C0130919D
:100C70007D01809184019091850128173907CCF07E
:100C80000EC080917A0190917B01821793078CF0BE
:100C900080917C0190917D018217930754F010920E
:100CA0009101109290010E94290110927F011092EF
:100CB0007E0180917E0190917F012091A50130916C
:100CC000A601892B11F0216001C02E7F3093A6016F
:100CD0002093A50180918E0190918F012091A50113
:100CE0003091A601892B11F0226001C02D7F309335
:100CF000A6012093A5018091A3019091A401892BC5
:100D0000E9F00E94E0091AC080914A0190914B01DC
:100D1000892B09F046CD51CD8091900190919101A0
:100D20008136910509F0B8CDB4CD809190019091B4
:100D300091018436910509F0CECDCACD1F910F9156
:100D4000FF90EF90DF90CF90BF90AF9008952091EB
:100D5000CA0130E08091C901281B3109C9010895F9
:100D60004091C9018091CA01481718F02FEF3FEF59
:100D70000AC0E42FF0E0E755FE4F8081282F30E0D5
:100D80004F5F4093C901C9010895E091C901809165
:100D9000CA01E81718F0EFEFFFEF06C0F0E0E755E3
:100DA000FE4F8081E82FF0E0CF0108950895AC0157
:100DB0002091F0013091F10121153105E1F0909180
:100DC000C9018091CA019817B0F090E008C0FA01FB
:100DD000EA0FFB1F8081A755BE4F8C939F5FA92F01
:100DE000B0E0A617B7079CF31092C9016093CA013F
:100DF000CB01F90109950895E091EE01F091EF0121
:100E0000309729F01092EB011092EC0109950895AA
:100E10007093F1016093F00108957093EF01609376
:100E2000EE0108951092F5011092F40188EE93E01E
:100E3000A0E0B0E08093F6019093F701A093F80151
:100E4000B093F9018FE191E09093F3018093F20167
:100E50000895CF92DF92EF92FF920F931F93CF935B
:100E6000DF937C016B018A018091ED018823A1F061
:100E7000C0E0D0E00DC0D701ED91FC91D601AC0FE0
:100E8000BD1F0190F081E02DC7016C91099521965D
:100E9000C017D10780F304C0CB01642F0E94B007B4
:100EA000C801DF91CF911F910F91FF90EF90DF90DC
:100EB000CF900895DF93CF930F92CDB7DEB7FC01AB
:100EC00069838091ED018823C9F08091EC01803223
:100ED00038F081E090E09383828320E030E015C019
:100EE0008091EB01E82FF0E0E553FE4F998190836C
:100EF0008F5F8093EB018093EC0105C0CE010196DA
:100F000061E00E94B00721E030E0C9010F90CF916D
:100F1000DF9108951092C9011092CA011092EB015D
:100F20001092EC010E94660908950F931F938C01A3
:100F3000862F0E94AC078CEF96E00E94D00787EDC9
:100F400096E00E94CB07C8010E948A071F910F916B
:100F500008950E9495070895880F8093BA00089518
:100F6000482F613210F081E008958091FE018430B5
:100F700011F082E0089560934902A8E2B2E0842F64
:100F80009C01F90102C081918D938E2F841B8617DD
:100F9000D0F380E0089590930502809304020895B1
:100FA000909303028093020208951F920F920FB64E
:100FB0000F9211242F933F934F935F936F937F93DF
:100FC0008F939F93AF93BF93EF93FF938091B9005B
:100FD00090E0887F90708036910509F4F2C08136E8
:100FE0009105CCF58832910509F47BC089329105D1
:100FF000B4F48031910509F46FC0813191053CF45E
:10100000009709F447C1089709F04FC165C08831BE
:10101000910509F466C0809709F047C182C0803409
:10102000910509F4A4C08134910544F480339105FD
:1010300009F482C0C89709F038C189C0803591058C
:1010400009F489C08835910509F496C08834910562
:1010500009F02BC1AEC08839910509F413C1893953
:101060009105ECF48837910509F4ABC089379105F7
:101070004CF48836910509F4A4C08037910509F035
:1010800014C19FC08838910509F4FCC080399105CE
:1010900009F49DC08038910509F007C198C0803BD4
:1010A000910509F4C6C0813B91054CF4803A910545
:1010B00009F49FC0883A910509F0F7C0BAC0803C96
:1010C000910509F4E3C0883C910509F4DFC0883B31
:1010D000910509F0EAC0C2C08091FF018093BB0076
:1010E000CFC09091260280912702981768F49091C2
:1010F0002602E92FF0E0EA5FFD4F80818093BB007C
:101100009F5F90932602BCC080910002882309F45F
:101110004BC085ED8093BC008091BC0084FDFCCF6A
:10112000C2C080E280936B0285ED8093BC00809109
:10113000BC0084FDFCCFB7C080E380936B0285EDDB
:101140008093BC008091BC0084FDFCCFACC088E3E0
:1011500080936B029BC0809126029091BB00E82F88
:10116000F0E0EA5FFD4F90838F5F809326029091BD
:1011700026028091270282C0809126029091BB00B6
:10118000E82FF0E0EA5FFD4F90838F5F80932602A7
:1011900080910002882341F085ED8093BC0080910E
:1011A000BC0084FDFCCF7FC081E08093010284EA13
:1011B0006EC085ED8093BC008091BC0084FDFCCFA7
:1011C00072C083E08093FE0110926A0259C0809140
:1011D0006A02803208F056C080916A029091BB008A
:1011E000E82FF0E0E65BFD4F90838F5F80936A020B
:1011F00047C080916A02803230F4E0916A02F0E0E8
:10120000E65BFD4F108285ED8093BC008091BC00B1
:1012100084FDFCCF1092FE0160916A02E09104020D
:10122000F09105028AE492E070E0099510926A025A
:101230002DC084E08093FE01109248021092490272
:10124000E0910202F09103020995809149028823FE
:1012500029F481E08093490210922802909148027B
:10126000E92FF0E0E85DFD4F80818093BB009F5F38
:10127000909348029091480280914902981710F487
:1012800085EC01C085E88093BC000FC085EC80939D
:10129000BC0009C010926B0285ED8093BC00809168
:1012A000BC0084FDFCCF1092FE01FF91EF91BF9135
:1012B000AF919F918F917F916F915F914F913F91EE
:1012C0002F910F900FBE0F901F9018951092FE0156
:1012D00081E0809300021092010282E161E00E94AD
:1012E000650D83E161E00E94650DE9EBF0E080812E
:1012F0008E7F808380818D7F808388E48093B80097
:1013000085E48093BC000895FC0110828FEF8183F7
:101310001382128282E2848386E985831782168291
:10132000089534E0769567953A95E1F7FC01658379
:101330000895EF92FF920F931F93CF93DF93EC01E9
:101340009B0177FF03C020E030E005C0653B7105DD
:1013500014F024EB30E02983EC806D8170E06E198D
:101360007109882777FD8095982F982F872F762FE2
:10137000662730E040E050E00E948F1224EB30E01E
:1013800040E050E00E94E312FF2400E010E0102F44
:101390000F2DFE2CEE24E20EF31E041F151FC801B4
:1013A000B70120E430E040E050E00E94E3123B83CC
:1013B0002A83DF91CF911F910F91FF90EF900895B5
:1013C0005F926F927F928F929F92AF92BF92CF92D5
:1013D000DF92EF92FF920F931F93DF93CF93CDB7DE
:1013E000DEB76DB67EB6ADB65EB60E94D20B20916A
:1013F0006E0230916F02409170025091710262173B
:1014000073078407950750F02C5E3F4F4F4F5F4F97
:10141000621773078407950708F4AFC060936E02E4
:1014200070936F028093700290937102E0916C024E
:10143000F0916D02BB2408C082819381892B09F051
:10144000B3940680F781E02D3097B1F7BB2009F403
:1014500094C08B2D90E0880F991F2DB73EB7281BA5
:10146000390B0FB6F8943EBF0FBE2DBFCDB6DEB61A
:101470000894C11CD11CA0916C02B0916D0220E0B7
:1014800013C012968D919C911397892B49F0E22FEE
:10149000F0E0EE0FFF1FEC0DFD1DB183A0832F5F69
:1014A00016960D90BC91A02D109759F72CC0812F46
:1014B00090E07C01EE0CFF1CEC0CFD1CD7016D9143
:1014C0007C91FC013197EE0FFF1FEC0DFD1D40815B
:1014D0005181DB0112962D913C911397DA011296FE
:1014E0008D919C9113972817390730F4D7014D93AC
:1014F0005C937183608301E01F5F1B15C0F20023C2
:1015000011F410E011C011E000E0F7CFE12FF0E09E
:10151000EE0FFF1FEC0DFD1D0190F081E02D80818D
:1015200061E00E94650D1F5F1B1580F3F6B4EE2489
:1015300000E010E08F2C99241EC0EE2DF0E0EE0F9D
:10154000FF1FEC0DFD1D0190F081E02D2281338104
:10155000280D391D86B58F1510F400501F4FF82E39
:10156000C8018F0D911D28173907A0F7808160E011
:101570000E94650DE394EB1400F38A2D952D9C01D8
:101580000FB6F8943EBF0FBE2DBF0FB6F8947EBEC7
:101590000FBE6DBECF91DF911F910F91FF90EF9025
:1015A000DF90CF90BF90AF909F908F907F906F9083
:1015B0005F9008950F931F938C01FC0160838FEF60
:1015C00081831382128280916C0290916D029783C5
:1015D000868310936D0200936C02808160E00E940C
:1015E000650DF801808161E00E94260D81E01F9168
:1015F0000F910895823000F5E82FF0E0EE0FFF1F05
:10160000EE58FD4F71836083882319F08130A1F477
:1016100008C0809169008C7F842B80936900E89AD0
:10162000089580916900440F551F440F551F837F13
:10163000842B80936900E99A0895823080F488238E
:1016400019F0813021F402C0E89801C0E998E82F30
:10165000F0E0EE0FFF1FEE58FD4F1182108208954B
:101660001F920F920FB60F9211242F933F934F9317
:101670005F936F937F938F939F93AF93BF93EF93FA
:10168000FF938091720290917302892B29F0E0916F
:101690007202F09173020995FF91EF91BF91AF91A2
:1016A0009F918F917F916F915F914F913F912F917A
:1016B0000F900FBE0F901F9018951F920F920FB6AC
:1016C0000F9211242F933F934F935F936F937F93C8
:1016D0008F939F93AF93BF93EF93FF938091740287
:1016E00090917502892B29F0E0917402F0917502B6
:1016F0000995FF91EF91BF91AF919F918F917F914C
:101700006F915F914F913F912F910F900FBE0F906E
:101710001F9018951F920F920FB60F9211242F93BE
:101720003F938F939F93AF93BF9380917A02909151
:101730007B02A0917C02B0917D0230917E020196E5
:10174000A11DB11D232F2D5F2D3720F02D570196A0
:10175000A11DB11D20937E0280937A0290937B029B
:10176000A0937C02B0937D028091760290917702E3
:10177000A0917802B09179020196A11DB11D8093CC
:10178000760290937702A0937802B0937902BF918A
:10179000AF919F918F913F912F910F900FBE0F901E
:1017A0001F9018958FB7F89420917A0230917B02A0
:1017B00040917C0250917D028FBFB901CA0108950A
:1017C0009FB7F89420917602309177024091780289
:1017D0005091790286B5A89B06C08F3F21F02F5FFC
:1017E0003F4F4F4F5F4F9FBF542F432F322F222722
:1017F000280F311D411D511D82E0220F331F441F50
:10180000551F8A95D1F7B901CA0108959B01AC0112
:101810007FB7F8948091760290917702A091780238
:10182000B091790266B5A89B05C06F3F19F001968B
:10183000A11DB11D7FBFBA2FA92F982F8827860F12
:10184000911DA11DB11D62E0880F991FAA1FBB1F2A
:101850006A95D1F7BC012DC0FFB7F894809176024C
:1018600090917702A0917802B0917902E6B5A89B99
:1018700005C0EF3F19F00196A11DB11DFFBFBA2FA2
:10188000A92F982F88278E0F911DA11DB11DE2E071
:10189000880F991FAA1FBB1FEA95D1F7861B970BCC
:1018A000885E9340C8F2215030404040504068511B
:1018B0007C4F211531054105510571F608950197B9
:1018C00039F0880F991F880F991F02970197F1F738
:1018D0000895789484B5826084BD84B5816084BDA8
:1018E00085B5826085BD85B5816085BDEEE6F0E099
:1018F000808181608083E1E8F0E0108280818260F5
:101900008083808181608083E0E8F0E08081816075
:101910008083E1EBF0E0808184608083E0EBF0E0A5
:10192000808181608083EAE7F0E080818460808349
:1019300080818260808380818160808380818068F3
:1019400080831092C1000895982F8E3008F09E5029
:10195000977080911A018295880F880F807C892B5F
:1019600080937C0080917A00806480937A008091DB
:101970007A0086FDFCCF2091780040917900942F69
:1019800080E030E0282B392BC90108951F93CF93B5
:10199000DF93182FEB0161E00E94260D209709F4D8
:1019A0004AC0CF3FD10509F449C0E12FF0E0E2552C
:1019B000FF4F84918330C1F0843028F4813051F09E
:1019C0008230B1F50CC0863019F1873049F184308E
:1019D00079F514C084B5806884BDC7BD33C084B5B3
:1019E000806284BDC8BD2EC08091800080688093D5
:1019F0008000D0938900C093880024C0809180002B
:101A0000806280938000D0938B00C0938A001AC0BC
:101A10008091B00080688093B000C093B30012C082
:101A20008091B00080628093B000C093B4000AC07F
:101A3000C038D1051CF4812F60E002C0812F61E025
:101A40000E94650DDF91CF911F910895CF93DF9391
:101A5000482F50E0CA0186569F4FFC0134914A57E7
:101A60005F4FFA018491882369F190E0880F991FF4
:101A7000FC01E859FF4FA591B491FC01EE58FF4FCE
:101A8000C591D491662351F42FB7F8948C91932F7C
:101A9000909589238C93888189230BC0623061F4EF
:101AA0002FB7F8948C91932F909589238C938881EC
:101AB000832B88832FBF06C09FB7F8948C91832B0C
:101AC0008C939FBFDF91CF910895482F50E0CA01BA
:101AD00082559F4FFC012491CA0186569F4FFC01FD
:101AE00094914A575F4FFA013491332309F440C06F
:101AF000222351F1233071F0243028F42130A1F059
:101B0000223011F514C02630B1F02730C1F0243056
:101B1000D9F404C0809180008F7703C08091800049
:101B20008F7D8093800010C084B58F7702C084B50C
:101B30008F7D84BD09C08091B0008F7703C08091F4
:101B4000B0008F7D8093B000E32FF0E0EE0FFF1F19
:101B5000EE58FF4FA591B4912FB7F894662321F466
:101B60008C919095892302C08C91892B8C932FBFE7
:101B700008958F929F92AF92BF92CF92DF92EF9291
:101B8000FF920F931F93CF93DF93A82FB0E0CD0167
:101B900086569F4FFC018490AA57BF4FFD01849148
:101BA000662311F4992401C0982C6FEFA62E6FEFD5
:101BB000B62E6FEFC62E6FE0D62EA222B322C4221D
:101BC000D522682F70E0660F771F64587F4FEE2490
:101BD000FF248701FB01A591B4910BC0EA14FB041B
:101BE0000C051D0509F44EC00894E11CF11C011DF3
:101BF000111D8C918821891589F30CC0EA14FB040E
:101C00000C051D0509F43EC00894E11CF11C011DE2
:101C1000111D03C0FB01A591B4918C9188218915F8
:101C200069F720E030E040E050E0FB01C591D4913D
:101C30000FC0DA01C9018E0D9F1DA01FB11F8A15AB
:101C40009B05AC05BD05F1F02F5F3F4F4F4F5F4F38
:101C500088818821891569F3CA01B90125E130E03D
:101C600040E050E00E948F129B01AC01205F3F4F8B
:101C70004F4F5F4F84E056954795379527958A9546
:101C8000D1F704C020E030E040E050E0B901CA01E3
:101C9000DF91CF911F910F91FF90EF90DF90CF9048
:101CA000BF90AF909F908F90089508951F920F92CC
:101CB0000FB60F9211242F933F934F938F939F93BF
:101CC000EF93FF938091C00082FD1DC04091C6003C
:101CD0002091FF02309100032F5F3F4F2F7730702C
:101CE00080910103909102032817390771F0E09168
:101CF000FF02F0910003E158FD4F40833093000351
:101D00002093FF0202C08091C600FF91EF919F9146
:101D10008F914F913F912F910F900FBE0F901F9079
:101D20001895E0919303F0919403E058FF4F81914F
:101D3000919120813181821B930B8F779070892B39
:101D400011F00E94550E08951F920F920FB60F9238
:101D500011242F933F938F939F93EF93FF932091A1
:101D60008303309184038091850390918603281723
:101D7000390731F48091C1008F7D8093C10014C078
:101D8000E0918503F0918603ED5FFC4F2081809107
:101D900085039091860301968F77907090938603C8
:101DA000809385032093C600FF91EF919F918F91BF
:101DB0003F912F910F900FBE0F901F901895AF92EB
:101DC000BF92DF92EF92FF920F931F93CF93DF9317
:101DD000EC017A018B01DD24403081EE580780E070
:101DE000680780E0780711F0DD24D39491E0A92EF4
:101DF000B12CEC89FD89DD2069F0C50108A002C085
:101E0000880F991F0A94E2F7808360E079E08DE300
:101E100090E005C0108260E874E88EE190E0A801CF
:101E200097010E94C11221503040404050405695C9
:101E300047953795279580E12030380720F0DD2041
:101E400011F0DD24D6CFE889F9893083EA89FB894E
:101E5000208319A2EE89FF89408121E030E0C90189
:101E60000C8C02C0880F991F0A94E2F7482B40831C
:101E7000EE89FF894081C9010D8C02C0880F991F2E
:101E80000A94E2F7482B4083EE89FF894081C9011B
:101E90000E8C02C0880F991F0A94E2F7482B4083EA
:101EA000EE89FF8980810F8C02C0220F331F0A94B4
:101EB000E2F7209528232083DF91CF911F910F9186
:101EC000FF90EF90DF90BF90AF900895CF93DF9396
:101ED000DC011E968D919C911F97EC01C058DF4F3D
:101EE000FC01EE57FF4F28813981808191812817AD
:101EF0003907C9F75696ED91FC915797408121E03B
:101F000030E0C9015C960C905C9702C0880F991F65
:101F10000A94E2F78095842380835696ED91FC9194
:101F200057974081C9015D960C905D9702C0880F5C
:101F3000991F0A94E2F78095842380835696ED9149
:101F4000FC9157974081C9015E960C905E9702C044
:101F5000880F991F0A94E2F7809584238083569610
:101F6000ED91FC91579780815F960C905F9702C02E
:101F7000220F331F0A94E2F72095282320831C9612
:101F8000ED91FC911D97EE57FF4F808191819293C7
:101F90008293DF91CF910895DC011C96ED91FC9125
:101FA0001D97E058FF4F2191319180819181281B2D
:101FB000390B2F773070C9010895DC011C96ED9123
:101FC000FC911D97E058FF4F20813181E058F0408F
:101FD000DF01AE57BF4F8D919C911197281739079C
:101FE00019F42FEF3FEF07C08D919C91E80FF91F77
:101FF0008081282F30E0C9010895DC011C96ED9105
:10200000FC911D97E058FF4F20813181E058F0404E
:10201000DF01AE57BF4F8D919C911197281739075B
:1020200019F42FEF3FEF10C08D919C911197E80F9D
:10203000F91F20818D919C91119701968F77907057
:1020400011969C938E9330E0C9010895DC0191961E
:102050008C919197882339F05496ED91FC91559786
:10206000808186FFF9CF91961C920895CF93DF93DC
:10207000EC01EE85FF85E058FF4F20813181E0586B
:10208000F0402F5F3F4F2F773070DF01AE57BF4FCB
:102090008D919C91119728173907D1F3E058FF4F84
:1020A00080819181E058F040E80FF91F6083EE8550
:1020B000FF85E058FF4F31832083EE89FF8920811F
:1020C00081E090E00F8C02C0880F991F0A94E2F71C
:1020D000282B208381E089A3EC89FD89808180649D
:1020E000808381E090E0DF91CF91089510928A0380
:1020F0001092890388EE93E0A0E0B0E080938B0318
:1021000090938C03A0938D03B0938E038FE291E0A4
:1021100090938803809387038FE792E090939403D2
:102120008093930383E093E09093960380939503C9
:1021300085EC90E0909398038093970384EC90E073
:1021400090939A038093990380EC90E090939C0382
:1021500080939B0381EC90E090939E0380939D037A
:1021600082EC90E09093A00380939F0386EC90E034
:102170009093A2038093A10384E08093A30383E060
:102180008093A40387E08093A50385E08093A60352
:1021900081E08093A7030895CF93DF930E94690C99
:1021A0000E94BC01C1E9DEE00E940C022097E1F32D
:1021B0000E94910EF9CFCF92DF92EF92FF920F9390
:1021C0001F93CF93DF937C016B018A01C0E0D0E0C5
:1021D0000FC0D6016D916D01D701ED91FC91019079
:1021E000F081E02DC7010995C80FD91F015010409B
:1021F0000115110571F7CE01DF91CF911F910F915C
:10220000FF90EF90DF90CF9008950CD0EBC0E3D01B
:1022100040F0DAD030F021F45F3F19F0CCC051111A
:1022200015C1CFC0F0D098F39923C9F35523B1F36A
:10223000951B550BBB27AA2762177307840738F035
:102240009F5F5F4F220F331F441FAA1FA9F333D094
:102250000E2E3AF0E0E830D091505040E695001C48
:10226000CAF729D0FE2F27D0660F771F881FBB1F04
:10227000261737074807AB07B0E809F0BB0B802DDE
:10228000BF01FF2793585F4F2AF09E3F510568F02A
:1022900092C0DCC05F3FECF3983EDCF38695779507
:1022A0006795B795F7959F5FC9F7880F911D96952C
:1022B000879597F90895E1E0660F771F881FBB1F88
:1022C000621773078407BA0720F0621B730B840B35
:1022D000BA0BEE1F88F7E095089504D06894B11109
:1022E000B5C0089598D088F09F5790F0B92F9927DE
:1022F000B751A0F0D1F0660F771F881F991F1AF011
:10230000BA95C9F712C0B13081F09FD0B1E00895FD
:102310009CC0672F782F8827B85F39F0B93FCCF37E
:10232000869577956795B395D9F73EF49095809506
:10233000709561957F4F8F4F9F4F0895E89409C026
:1023400097FB3EF490958095709561957F4F8F4FE8
:102350009F4F9923A9F0F92F96E9BB279395F695FE
:10236000879577956795B795F111F8CFFAF4BB0F7C
:1023700011F460FF1BC06F5F7F4F8F4F9F4F16C0E0
:10238000882311F096E911C0772321F09EE8872F6A
:10239000762F05C0662371F096E8862F70E060E026
:1023A0002AF09A95660F771F881FDAF7880F96959F
:1023B000879597F9089597F99F6780E870E060E046
:1023C00008959FEF80EC089500240A9416161706CE
:1023D00018060906089500240A9412161306140616
:1023E00005060895092E0394000C11F4882352F079
:1023F000BB0F40F4BF2B11F460FF04C06F5F7F4F31
:102400008F4F9F4F089557FD9058440F551F59F017
:102410005F3F71F04795880F97FB991F61F09F3FD1
:1024200079F087950895121613061406551FF2CFFA
:102430004695F1DF08C0161617061806991FF1CF4A
:1024400086957105610508940895E894BB27662771
:102450007727CB0197F908950BD0C4CFB5DF28F0CB
:10246000BADF18F0952309F0A6CFABCF1124EECF39
:10247000CADFA0F3959FD1F3950F50E0551F629FDF
:10248000F001729FBB27F00DB11D639FAA27F00DCD
:10249000B11DAA1F649F6627B00DA11D661F829FF4
:1024A0002227B00DA11D621F739FB00DA11D621FD9
:1024B000839FA00D611D221F749F3327A00D611DF6
:1024C000231F849F600D211D822F762F6A2F1124D8
:1024D0009F5750408AF0E1F088234AF0EE0FFF1F2B
:1024E000BB1F661F771F881F91505040A9F79E3F62
:1024F000510570F060CFAACF5F3FECF3983EDCF35C
:10250000869577956795B795F795E7959F5FC1F79E
:10251000FE2B880F911D9695879597F90895629FD8
:10252000D001739FF001829FE00DF11D649FE00DCB
:10253000F11D929FF00D839FF00D749FF00D659F2C
:10254000F00D9927729FB00DE11DF91F639FB00D2B
:10255000E11DF91FBD01CF011124089597FB092E3C
:1025600007260AD077FD04D049D006D000201AF4FF
:10257000709561957F4F0895F6F7909581959F4FDF
:102580000895A1E21A2EAA1BBB1BFD010DC0AA1FB4
:10259000BB1FEE1FFF1FA217B307E407F50720F0CC
:1025A000A21BB30BE40BF50B661F771F881F991F47
:1025B0001A9469F760957095809590959B01AC0190
:1025C000BD01CF01089597FB092E05260ED057FDBA
:1025D00004D0D7DF0AD0001C38F4509540953095D0
:1025E00021953F4F4F4F5F4F0895F6F79095809597
:1025F000709561957F4F8F4F9F4F0895AA1BBB1B0E
:1026000051E107C0AA1FBB1FA617B70710F0A61BF2
:10261000B70B881F991F5A95A9F780959095BC0113
:10262000CD010895EE0FFF1F0590F491E02D099460
:04263000F894FFCF4C
:102634000700080004000D0009000600C80005009A
:102644000A000000803F0000803F01000000005AA3
:10265400072907A706B006C506D6060000000036FF
:0C26640010DB10CC0FFD0FDD0F26100066
:00000001FF
