:100000000C9464000C944C0D0C94790D0C948C00A1
:100010000C948C000C948C000C948C000C948C0030
:100020000C948C000C948C000C948C000C948C0020
:100030000C948C000C948C000C948C000C948C0010
:100040000C942E0C0C948C000C94770E0C94B30E24
:100050000C948C000C948C000C948C000C948C00F0
:100060000C94E9070C948C000000000700020100CA
:100070000003040600000000000000000102040864
:100080001020408001020408102001020408102002
:10009000040404040404040402020202020203032E
:1000A00003030303000000002300260029000000D2
:1000B0000000250028002B0000000000240027007D
:1000C0002A0098069007BF0F11241FBECFEFD8E07B
:1000D000DEBFCDBF11E0A0E0B1E0ECE4F4E202C08D
:1000E00005900D92AE33B107D9F713E0AEE3B1E05E
:1000F00001C01D92A632B107E1F710E0C8ECD0E0D4
:1001000004C02297FE010E942012C23CD107C9F709
:100110000E94CE0D0C9424120C9400008091690171
:1001200090916A01019690936A018093690181E040
:1001300090E090936E0180936D0108958091670126
:10014000909168010196909368018093670181E026
:1001500090E090936C0180936B010895CF93DF93AF
:1001600032C089EA91E00E949C060497C1F4109283
:1001700048011092470110924A0110924901809162
:10018000550190915601892B51F00E94780C609393
:100190005B0170935C0180935D0190935E01C0915F
:1001A0004901D0914A0189EA91E00E94A506FE0129
:1001B000EE0FFF1FE55BFE4F918380832196D09366
:1001C0004A01C093490189EA91E00E949C06892B6B
:1001D00041F6DF91CF9108958091450190914601BC
:1001E000029701F580913E0190913F01FC01EE5B89
:1001F000FE4F6081019690933F0180933E0189EA12
:1002000091E00E94270780913E0190913F01029763
:10021000A9F410923F0110923E01109246011092F3
:1002200045010895E091A901F091AA010190F081A2
:10023000E02D6091400189EA91E00994089560E021
:1002400080911A010E945B0B61E0809118010E946D
:100250005B0B60E0809116010E945B0B61E0809176
:1002600014010C945B0B61E080911A010E945B0BFE
:1002700060E0809118010E945B0B61E080911601A3
:100280000E945B0B60E0809114010C945B0B60E0BA
:1002900080911A010E945B0B61E0809118010E941D
:1002A0005B0B61E0809116010E945B0B61E0809125
:1002B00014010C945B0B60E080911A010E945B0BAF
:1002C00061E0809118010E945B0B61E08091160152
:1002D0000E945B0B60E0809114010C945B0B61E069
:1002E00080911A010E945B0B61E0809118010E94CD
:1002F0005B0B60E0809116010E945B0B61E08091D6
:1003000014010C945B0B61E080911A010E945B0B5D
:1003100060E0809118010E945B0B60E08091160103
:100320000E945B0B61E0809114010C945B0B61E017
:1003300080911A010E945B0B61E0809118010E947C
:100340005B0B61E0809116010E945B0B61E0809184
:1003500014010C945B0B892B19F480910C0102C0E1
:1003600080910A010C94980A43E050E06EE870E036
:1003700080E00E941C0D43E050E06EE970E081E0F7
:100380000E941C0D61E080911A010E94230B61E024
:10039000809118010E94230B61E0809116010E9458
:1003A000230B61E0809114010E94230B65E070E053
:1003B00081EA91E00E94260968E070E089EA91E014
:1003C0000E9484076EEA70E089EA91E00E94860745
:1003D0006CEE70E089EA91E00E948B0780910E013B
:1003E00090910F0190939E0180939D019093A001A5
:1003F00080939F0108958F929F92AF92BF92CF9268
:10040000DF92EF92FF9260919F017091A001809125
:1004100012010E94980A60919D0170919E01809145
:1004200010010E94980A80914B0190914C010A970B
:1004300091F580916D0190916E01019751F46FEFEC
:1004400070E080910C010E94980A10926E01109247
:100450006D0180916B0190916C01019751F46FEFE8
:1004600070E081E090E00E94AB0110926C0110926C
:100470006B0168EC70E080E090E00E94B40C60E0FA
:1004800070E080910C010E94980A60E070E081E0C9
:1004900090E00E94AB0180914B0190914C010B9731
:1004A000E9F440E855E260E070E08FE792E00E94F6
:1004B000EE0E8FE792E00E94DB0D892BD1F38FE7E0
:1004C00092E00E940A0E813629F46BE68FE792E0F3
:1004D0000E94400E8FE792E00E94680F80914B01CE
:1004E00090914C010C9789F480914D0190914E01AF
:1004F00061E00E94230B60914F0170915001809147
:100500004D0190914E010E945B0B20914B01309167
:100510004C018091990190919A012737310509F496
:10052000CFC320914B0130914C012337310509F0A5
:10053000C3C3C6C380919D0190919E0190939C017D
:1005400080939B0181E090E090939A0180939901C0
:10055000E0906D01F0906E0181E0E816F10409F081
:1005600041C08091930190919401892B79F4F0928C
:100570009401E09293010E948A0C6093870170932A
:1005800088018093890190938A0128C01092940178
:10059000109293010E948A0C6093830170938401EE
:1005A00080938501909386018090870190908801C7
:1005B000A0908901B0908A01DC01CB0188199909CA
:1005C000AA09BB098093770190937801A0937901E0
:1005D000B0937A01F0928E01E0928D0110926E013B
:1005E00010926D01E0906B01F0906C0181E0E816D3
:1005F000F10409F041C08091910190919201892B01
:1006000079F4F0929201E09291010E948A0C609339
:100610007F0170938001809381019093820128C0B3
:1006200010929201109291010E948A0C60937B01BA
:1006300070937C0180937D0190937E0180907F0177
:1006400090908001A0908101B0908201DC01CB01EB
:1006500088199909AA09BB098093730190937401C1
:10066000A0937501B0937601F0929001E0928F0112
:1006700010926C0110926B0180918F01909190010A
:10068000019709F08CC0C0907701D0907801E0907C
:100690007901F0907A0181E1C81687E2D806E10479
:1006A000F10408F47CC06091730170917401809131
:1006B0007501909176016C197D098E099F096093EF
:1006C0006F017093700180937101909372010E9489
:1006D000AA10209102013091030140910401509130
:1006E00005010E9436114B015C01C701B6010E9451
:1006F000A8109B01AC01C501B4010E940F10AB0111
:10070000BC01409306015093070160930801709368
:1007100009016A017B01F7FAF094F7F8F09460910F
:100720009F017091A001882777FD8095982F0E94E6
:10073000AA109B01AC01C701B6010E9436110E94AC
:1007400077109B0170938C0160938B0180919D01C8
:1007500090919E01820F931F8F3F910519F014F025
:100760008FEF90E097FF02C080E090E090939E01B1
:1007700080939D011092900110928F0110928E0132
:1007800010928D010CC080919B0190919C019093DF
:100790009E0180939D0110929A011092990180917F
:1007A0004B0190914C018437910561F480919F0138
:1007B0009091A001853F91051CF08FEF90E016C04D
:1007C0000A9614C080914B0190914C018736910597
:1007D000E9F480919F019091A0018B3091052CF458
:1007E0001092A00110929F0105C00A979093A0015A
:1007F00080939F0180919F019091A00190939E0111
:1008000080939D0110924C0110924B0180914B01FD
:1008100090914C018734910549F480914D0190915C
:100820004E019093A00180939F010FC080914B01D6
:1008300090914C018634910561F480914D01909125
:100840004E0190939E0180939D0110924C01109255
:100850004B0180914B0190914C018737910509F430
:100860003CC280914B0190914C018936910509F071
:100870002BC233C20E9447014AC180914B01909123
:100880004C018236910519F40E945B0140C18091B0
:100890004B0190914C018337910509F421C280915D
:1008A0004B0190914C018B36910509F01CC218C286
:1008B0000E946F012CC180914B0190914C018E36AA
:1008C000910519F40E94830122C180914B019091FE
:1008D0004C018837910519F40E94970118C1809145
:1008E0004B0190914C018637910549F480E00E94BC
:1008F000770A90939801809397019C0136C080916C
:100900004B0190914C0185379105E1F5E0904D0147
:10091000F0904E0161E08E2D0E94230B60E08E2D41
:100920000E945B0B82E090E00E94DA0C61E08E2D69
:100930000E945B0B85E090E00E94DA0C60E08E2D57
:100940000E945B0B60E08E2D0E94230B20E432E4BA
:100950004FE050E061E08E2D0E94920B2AE330E0E0
:1009600040E050E00E94E211C90197FF02C021500F
:100970003F4F3093420160E071E00E94AC118093E0
:10098000430133C080914B0190914C018C3691050D
:1009900079F460914F017091500180914D019091D7
:1009A0004E010E94AB0110924C0110924B01AFC05E
:1009B00080914B0190914C018536910569F46091CD
:1009C0004D0170914E01709396016093950181EAFB
:1009D00091E00E94440938C080914B0190914C01F4
:1009E000449751F48BE08093420182E090E0909331
:1009F000460180934501D7CF80914B0190914C01E6
:100A0000C39779F443E050E06EE870E080E00E9424
:100A10001C0D43E050E06EE970E081E00E941C0D87
:100A2000C2CF80914B0190914C01C49739F481E081
:100A30000E943C0D80E00E943C0DB5CF80914B019F
:100A400090914C01CD9739F481E090E090930101B1
:100A500080930001A8CF80914B0190914C01CC97DD
:100A600029F410920101109200019DCF80914B0159
:100A700090914C018035910569F580914D019091DF
:100A80004E0120914F0130915001982F8827820FFD
:100A9000931FAA2797FDA095BA2F80935701909393
:100AA0005801A0935901B0935A0110924C01109231
:100AB0004B010E94780C60935B0170935C01809302
:100AC0005D0190935E0181E090E0909356018093E8
:100AD00055011DC080914B0190914C0181359105CC
:100AE000B1F410924C0110924B010E94780C60936B
:100AF0005B0170935C0180935D0190935E011092A5
:100B00005601109255011092660110926501809174
:100B1000550190915601892B29F10E94780CC090C3
:100B20005B01D0905C01E0905D01F0905E016C197A
:100B30007D098E099F09C0905701D0905801E0901F
:100B40005901F0905A01C616D706E806F90650F486
:100B50000E94970110924C0110924B011092560185
:100B60001092550180914B0190914C01C29709F46C
:100B7000C3C08091650190916601019709F06AC038
:100B8000BBC010924C0110924B0181E090E0909319
:100B900066018093650180914D0190914E0197FD12
:100BA0000196959587959093640180936301809158
:100BB0004D0190914E0162E070E00E94AC11909363
:100BC00062018093610180914F01909150012091C9
:100BD000510130915201982F8827820F931F9093D3
:100BE000600180935F01109268011092670110927A
:100BF0006A011092690180916301909164012091D2
:100C0000610130916201892B59F080915F019091CF
:100C10006001232B81F42091690130916A0116C093
:100C2000232BC1F0209167013091680180915F0111
:100C3000909160010BC02091690130916A012817E1
:100C4000390744F02091670130916801281739076E
:100C50000CF05AC0209165013091660180914001ED
:100C600090914101232B11F0816001C08E7F909300
:100C700041018093400120915501309156018091AE
:100C8000400190914101232B11F0826001C08D7FC2
:100C90009093410180934001809100019091010166
:100CA000892BE9F1FF90EF90DF90CF90BF90AF904C
:100CB0009F908F900C948F09892B09F064CD6FCD94
:100CC000892B09F437CC44CC80914B0190914C0195
:100CD0008136910509F0D1CDCDCD0E941F0117CFEE
:100CE0000E94330114CF80914B0190914C018436C6
:100CF000910509F0E0CDDCCD80914B0190914C0144
:100D0000C29709F078CF3DCF10924C0110924B0161
:100D10000E94970110926601109265019BCFFF908F
:100D2000EF90DF90CF90BF90AF909F908F900895FD
:100D300081EA91E00C9419092091DC0130E0809166
:100D4000DD01281B3109C90108958091DD019091D1
:100D5000DC01891750F4E82FF0E0E252FE4F2081C9
:100D600030E08F5F8093DD0102C02FEF3FEFC901BC
:100D70000895E091DD018091DC01E81730F4F0E0A6
:100D8000E252FE4F208130E002C02FEF3FEFC90159
:100D900008950895E091B501F091B6013097E1F022
:100DA0003091DD012091DC013217B0F040E009C044
:100DB000DC01A20FB31F5C91D901A252BE4F5C931C
:100DC0004F5F242F30E02617370794F31092DD0190
:100DD0006093DC01CB0109940895E091B701F09193
:100DE000B801309729F01092BB011092BA01099412
:100DF0000895CF92DF92EF92FF920F931F93CF93BC
:100E0000DF937C01CB018A012091B901222391F06B
:100E1000EB016B01C40ED51E09C06991D701ED919C
:100E2000FC910190F081E02DC7010995CC15DD05FD
:100E3000A1F703C0642F0E94B607C801DF91CF91CC
:100E40001F910F91FF90EF90DF90CF900895CF9377
:100E5000DF931F92CDB7DEB769832091B9012223BA
:100E6000D1F02091BA01203240F021E030E0FC01C5
:100E70003383228320E030E015C08091BB01E82F4E
:100E8000F0E0E454FE4F998190838F5F8093BB0123
:100E90008093BA0105C061E0CE0101960E94B607B9
:100EA00021E030E0C9010F90DF91CF910895FC015E
:100EB0001382128248EE53E060E070E04483558371
:100EC0006683778381E291E0918380830895109215
:100ED000DD011092DC011092BB011092BA010C945A
:100EE0009407CF93DF93EC01862F0E94B2078DEE1B
:100EF00096E00E94D4078AEC96E00E94CF07CE01CC
:100F0000DF91CF910C9467070C9471077093B60131
:100F10006093B50108957093B8016093B701089587
:100F200089EA91E00C9457071092070281E08093C0
:100F300005021092040261E082E10E945B0B61E015
:100F400083E10E945B0BE9EBF0E080818E7F808380
:100F500080818D7F808382E08093B80085E48093D8
:100F6000BC000895880F8093BA000895613298F408
:100F700020910702243089F460930002FC0188E28A
:100F800092E0DC0102C021912D932A2F281B261705
:100F9000D0F380E0089581E0089582E00895909371
:100FA000490280934802089590934B0280934A022D
:100FB000089585ED8093BC008091BC0084FDFCCF3A
:100FC00010920702089585EC8093BC0010920702EE
:100FD00008951F920F920FB60F9211242F933F93F3
:100FE0004F935F936F937F938F939F93AF93BF9331
:100FF000EF93FF938091B900887F803609F49FC0FA
:1010000058F5883209F45BC090F4803109F452C07D
:1010100038F4882309F4F8C0883009F0F9C04AC0D0
:10102000883109F44CC0803209F0F2C05CC08034D1
:1010300009F46BC038F4803309F455C0883309F0E3
:10104000E7C054C0803509F454C0883509F462C043
:10105000883409F0DDC0DAC0883909F4CBC0A8F4BF
:10106000883709F46CC038F4883609F468C08037D2
:1010700009F0CEC064C0883809F4BCC0803909F4D6
:1010800064C0803809F0C4C060C0803B09F48AC0E5
:1010900038F4803A09F46BC0883A09F0B9C082C0CC
:1010A000803C09F4ABC0883C09F4A8C0883B09F037
:1010B000AFC08DC0809106028093BB0012C090919A
:1010C000030280910202981788F580910302E82FAD
:1010D000F0E0E85FFD4F90819093BB008F5F8093BD
:1010E000030285EC88C08093FE0190C08093FE01CE
:1010F00056C0809103029091BB00E82FF0E0E85FBA
:10110000FD4F90838F5F8093030290910302809143
:1011100002026DC0809103029091BB00E82FF0E0C5
:10112000E85FFD4F90838F5F8093030280910502FB
:1011300081116CC081E08093040284EA60C083E086
:10114000809307021092FF01CCCF8091FF01803283
:1011500008F050C08091FF019091BB00E82FF0E0B3
:10116000E45BFD4F90838F5F8093FF01BACF809146
:10117000FF01803230F4E091FF01F0E0E45BFD4FCD
:1011800010820E94D9076091FF01E0914802F0911E
:10119000490270E08CE492E009951092FF010E94F0
:1011A000E30736C084E08093070210920102109298
:1011B0000002E0914A02F0914B02099580910002F1
:1011C000811105C081E08093000210922802809175
:1011D0000102E82FF0E0E85DFD4F90819093BB00A5
:1011E0008F5F809301029091010280910002981715
:1011F00008F477CF85E88093BC000AC085EC809323
:10120000BC001092070204C01092FE010E94D90790
:10121000FF91EF91BF91AF919F918F917F916F91CE
:101220005F914F913F912F910F900FBE0F901F90A4
:101230001895FC0110828FEF81831382128282E263
:10124000848386E98583178216820895CF93DF937E
:10125000EC01862F68839FEF99831B821A8220916D
:101260006C0230916D023F832E83D0936D02C09348
:101270006C0260E00E945B0B61E088810E94230B9E
:1012800081E0DF91CF910895CF92DF92EF92FF92AC
:10129000CF93DF93EC0177FD04C0653B710524F427
:1012A00005C060E070E002C064EB70E06983CC8050
:1012B0002D8130E0D12C2C193D09E12CF12C45E099
:1012C000CC0CDD1CEE1CFF1C4A95D1F7442737FDE2
:1012D0004095542FE5E0220F331F441F551FEA9518
:1012E000D1F7DB010E94A41124EB30E040E050E094
:1012F0000E94E211C20ED31EE41EF51EC701B60104
:1013000020E430E040E050E00E94E2113B832A8379
:10131000DF91CF91FF90EF90DF90CF9008955F9293
:101320006F927F928F929F92AF92BF92CF92DF92F5
:10133000EF92FF920F931F93CF93DF93CDB7DEB75A
:101340000DB71EB7ADB6BEB60E94780CC0906E0247
:10135000D0906F02E0907002F09071026C157D05E4
:101360008E059F0558F024E1C20ED11CE11CF11C32
:101370006C157D058E059F0508F49DC060936E0277
:1013800070936F028093700290937102E0916C02EF
:10139000F0916D02DF01D12C0BC012968D919C91C2
:1013A0001397892B09F0D39416960D90BC91A02D1C
:1013B000109799F7DD2009F47EC08DB79EB7A2E0A3
:1013C000DA9E8019910911240FB6F8949EBF0FBEC2
:1013D0008DBF019640E00FC022813381232B41F065
:1013E000DC01A40FB11DA40FB11DED93FC934F5F61
:1013F0000680F781E02D309779F727C0EC2DF0E0DB
:101400003F01660C771C680E791ED3012D913C912B
:101410003197EE0FFF1FE80FF91F40815181D9016D
:101420001296ED90FC901397DA0112966D917C91D3
:101430001397E616F70638F4D3014D935C93318386
:10144000208399249394C39403C0912CCC24C394F7
:10145000CD14A0F29110F9CF7C014C01C12CD40124
:10146000ED91FD914D0161E080810E945B0BC39481
:10147000CD10F5CF46B5812C912C512C642E712CBA
:10148000D701ED91FD917D0182819381860D971D9C
:10149000C6B4C41608F493944C2D94012C0D311D40
:1014A00082179307A8F760E080810E945B0B53943A
:1014B0004C2D5D10E5CF8A2D9B2D0FB6F8949EBF65
:1014C0000FBE8DBF0FB6F8941EBF0FBE0DBFDF91CC
:1014D000CF911F910F91FF90EF90DF90CF90BF9031
:1014E000AF909F908F907F906F905F9008958E3017
:1014F00008F08E50877020911C0140E4249F9001D9
:101500001124822B80937C0080917A0080648093E8
:101510007A0080917A0086FDFCCF2091780030918E
:101520007900932F80E0AC01422B9A01C901089504
:101530001F93CF93DF93182FEB0161E00E94230BE1
:10154000209711F460E004C0CF3FD10539F461E089
:10155000812FDF91CF911F910C945B0BE12FF0E075
:10156000E859FF4FE491E330B9F028F4E13051F04D
:10157000E230B1F50CC0E63019F1E73049F1E43062
:1015800079F514C084B5806884BDC7BD2EC084B50C
:10159000806284BDC8BD29C080918000806880932E
:1015A0008000D0938900C09388001FC08091800084
:1015B000806280938000D0938B00C0938A0015C016
:1015C0008091B00080688093B000C093B3000DC0DC
:1015D0008091B00080628093B000C093B40005C0D9
:1015E000C038D1050CF0B3CFADCFDF91CF911F91B3
:1015F0000895833069F028F48130A1F0823011F52C
:1016000014C08630B1F08730C1F08430D9F404C002
:10161000809180008F7703C0809180008F7D8093C0
:101620008000089584B58F7702C084B58F7D84BD16
:1016300008958091B0008F7703C08091B0008F7DB6
:101640008093B0000895CF93DF9390E0FC01E458BD
:10165000FF4F4491FC01E057FF4F8491882341F1F3
:1016600090E0880F991FFC01E854FF4F25913491B9
:10167000D90182559F4FFC0185919491C82FD92F94
:101680009FB7F8948C91611106C0409584238C9388
:101690008881842308C0623041F4242F209582235E
:1016A0008C938881842B888302C0842B8C939FBF6A
:1016B000DF91CF9108950F931F93CF93DF931F92E4
:1016C000CDB7DEB7282F30E0F901E859FF4F8491FC
:1016D000F901E458FF4F1491F901E057FF4F0491CD
:1016E0000023D1F0882321F069830E94F90A6981DF
:1016F000E02FF0E0EE0FFF1FE255FF4F8591949130
:10170000DC019FB7F8948C91611103C0109581237F
:1017100001C0812B8C939FBF0F90DF91CF911F91C0
:101720000F9108958F929F92AF92BF92CF92DF92C6
:10173000EF92FF920F931F93CF93DF9390E0FC0102
:10174000E458FF4FD491FC01E057FF4F74916111B1
:1017500002C0C0E001C0CD2FDA01C901880F991F76
:10176000AA1FBB1F54E0B695A795979587955A95E4
:10177000D1F7672F70E0660F771F6C557F4F812C74
:10178000912C5401FB010591149110C0C12CD12C56
:101790007601C394C80CD91CEA1CFB1C8816990658
:1017A000AA06BB0609F448C046015701F801E081CA
:1017B000ED23EC1759F310C0C12CD12C7601C39442
:1017C000C80CD91CEA1CFB1C88169906AA06BB0685
:1017D00099F14601570103C0FB0105911491F801ED
:1017E000E081ED23EC13E8CF88199909AA09BB0918
:1017F00020E030E0A901FB016591749109C0281730
:1018000039074A075B07C1F02F5F3F4F4F4F5F4FCC
:10181000FB01E081ED23EC1791F3A5E1B0E00E941C
:1018200099118B019C01005F1F4F2F4F3F4F369541
:1018300027951795079503C000E010E09801B801BF
:10184000C901DF91CF911F910F91FF90EF90DF9031
:10185000CF90BF90AF909F908F9008951F920F925E
:101860000FB60F9211242F933F938F939F93AF93B3
:10187000BF938091720290917302A0917402B09113
:10188000750230917A02232F285E2D3720F40896B6
:10189000A11DB11D05C0232F25560996A11DB11DFF
:1018A00020937A028093720290937302A093740241
:1018B000B09375028091760290917702A0917802A0
:1018C000B09179020196A11DB11D8093760290938B
:1018D0007702A0937802B0937902BF91AF919F9164
:1018E0008F913F912F910F900FBE0F901F901895E1
:1018F0000F931F938FB7F8940091720210917302A7
:1019000020917402309175028FBFB801C9011F91F7
:101910000F9108950F931F939FB7F894009176024B
:1019200010917702209178023091790286B5A89BB8
:1019300006C08F3F21F00F5F1F4F2F4F3F4F9FBFBC
:10194000322F212F102F0027080F111D211D311DAF
:1019500045E0000F111F221F331F4A95D1F7B80130
:10196000C9011F910F910895CF92DF92EF92FF92DC
:10197000CF93DF936B017C010E948A0CEB010EC0B8
:101980000E948A0C6C1B7D0B683E734038F081E02E
:10199000C81AD108E108F108C851DC4FC114D104BC
:1019A000E104F10469F7DF91CF91FF90EF90DF90B0
:1019B000CF900895019739F0019729F0880F991F6A
:1019C00001970197F1F70895789484B5826084BDFA
:1019D00084B5816084BD85B5826085BD85B5816033
:1019E00085BDEEE6F0E0808181608083E1E8F0E093
:1019F0001082808182608083E0E8F0E080818160F5
:101A00008083E1EBF0E0808184608083E0EBF0E0B4
:101A1000808181608083EAE7F0E080818460808358
:101A20008081826080838081816080838081806802
:101A300080831092C10008958230E8F4E82FF0E02E
:101A4000EE0FFF1FE558FD4F71836083813041F039
:101A5000809169008C7F842B80936900E89A0895B7
:101A600080916900440F551F440F551F837F842BBD
:101A700080936900E99A0895823068F4813011F00A
:101A8000E89801C0E998E82FF0E0EE0FFF1FE55855
:101A9000FD4F1182108208951F920F920FB60F9280
:101AA00011242F933F934F935F936F937F938F9363
:101AB0009F93AF93BF93EF93FF9380917B0290919D
:101AC0007C02892B29F0E0917B02F0917C02099540
:101AD000FF91EF91BF91AF919F918F917F916F9106
:101AE0005F914F913F912F910F900FBE0F901F90DC
:101AF00018951F920F920FB60F9211242F933F93B8
:101B00004F935F936F937F938F939F93AF93BF9305
:101B1000EF93FF9380917D0290917E02892B29F0B3
:101B2000E0917D02F0917E020995FF91EF91BF91C6
:101B3000AF919F918F917F916F915F914F913F9165
:101B40002F910F900FBE0F901F901895CF92DF929C
:101B5000EF92FF920F931F93CF93DF936C01EB01F2
:101B60007A01E60EF71E00E010E00BC06991D60185
:101B7000ED91FC910190F081E02DC6010995080FCF
:101B8000191FCE15DF0591F7C801DF91CF911F9185
:101B90000F91FF90EF90DF90CF9008950E94E40C9A
:101BA0000E94B401CAEADEE00E94FB012097E1F343
:101BB0000E94AA0EF9CFFC0184859585FC01E05CAA
:101BC000FF4F20813181FC01EE5BFF4F80819181CD
:101BD000281B390B2F733327C9010895FC01848515
:101BE0009585FC01E05CFF4F40815181FC01EE5B7B
:101BF000FF4F208131814217530741F00190F0815E
:101C0000E02DE80FF91F208130E002C02FEF3FEFF9
:101C1000C9010895FC0184859585FC01E05CFF4FB6
:101C200040815181FC01EE5BFF4F208131814217E1
:101C3000530781F0A081B181A80FB91F8C91208139
:101C400031812F5F3F4F2F73332731832083282F1C
:101C500030E002C02FEF3FEFC9010895FC018685F7
:101C60009785FC01E05CFF4FDC01AE5BBF4F40811C
:101C700051812D913C91119742175307C1F7089557
:101C8000CF93DF93FC0186859785DC01A05CBF4F75
:101C90002D913C9111972F5F3F4F2F733327EC010C
:101CA000CE5BDF4F4881598124173507D9F30D905A
:101CB000BC91A02DA80FB91F6C93A685B785A05C19
:101CC000BF4F11963C932E93A689B7892C9181E042
:101CD00090E0058C02C0880F991F0A94E2F7282B28
:101CE0002C9381E090E0DF91CF91089508951F92A9
:101CF0000F920FB60F9211242F933F934F938F9310
:101D00009F93EF93FF934091C6008091220390919F
:101D1000230301968F739927209124033091250383
:101D20008217930759F0E0912203F0912303EE51BB
:101D3000FD4F40839093230380932203FF91EF9103
:101D40009F918F914F913F912F910F900FBE0F90C8
:101D50001F9018958FE792E00E94DB0D892B11F000
:101D60000C94760E08951F920F920FB60F921124C5
:101D70002F933F938F939F93EF93FF932091DE02D6
:101D80003091DF028091E0029091E102281739073B
:101D900031F48091C1008F7D8093C10014C0E09127
:101DA000E002F091E102E256FD4F20818091E002D5
:101DB0009091E10201968F7399279093E1028093AD
:101DC000E0022093C600FF91EF919F918F913F9188
:101DD0002F910F900FBE0F901F901895CF92DF920A
:101DE000EF92FF92CF93DF93EC016A017B01EC89C4
:101DF000FD8981E090E00E8C02C0880F991F0A9443
:101E0000E2F7808360E271EA87E090E0A701960143
:101E10000E94C01121503109410951095695479539
:101E200037952795211580E1380798F0EC89FD89D1
:101E3000108260E970ED83E090E0A70196010E94B6
:101E4000C0112150310941095109569547953795DF
:101E50002795E889F9893083EA89FB892083EE890F
:101E6000FF89408181E090E09C010A8C02C0220F32
:101E7000331F0A94E2F7422B4083EE89FF894081A9
:101E80009C010B8C02C0220F331F0A94E2F7422BF5
:101E90004083EE89FF8940819C010C8C02C0220F97
:101EA000331F0A94E2F7422B4083EE89FF89208199
:101EB0000D8C02C0880F991F0A94E2F78095822347
:101EC0008083DF91CF91FF90EF90DF90CF900895C6
:101ED000CF93DF93FC0186859785DC01A05CBF4F23
:101EE000EC01CE5BDF4F4D915C91119728813981D8
:101EF00042175307C1F7A689B7894C9181E090E05A
:101F00009C01028C02C0220F331F0A94E2F7209535
:101F100024232C93A689B7894C919C01038C02C081
:101F2000220F331F0A94E2F7209524232C93A689CD
:101F3000B7894C919C01048C02C0220F331F0A9474
:101F4000E2F7209524232C93A689B7892C91058C40
:101F500002C0880F991F0A94E2F7809582238C9320
:101F600084859585FC01EE5BFF4F20813181FC016A
:101F7000E05CFF4F31832083DF91CF910895109271
:101F800082021092810288EE93E0A0E0B0E080939C
:101F9000830290938402A0938502B093860281E32A
:101FA00091E09093800280937F0282EE92E0909382
:101FB0008C0280938B028EE992E090938E02809344
:101FC0008D0285EC90E09093900280938F0284ECD8
:101FD00090E0909392028093910280EC90E0909335
:101FE00094028093930281EC90E090939602809308
:101FF000950286EC90E0909398028093970284E09B
:102000008093990283E080939A0287E080939B02F9
:1020100085E080939C0281E080939D0208950CD01E
:10202000EBC0E3D040F0DAD030F021F45F3F19F09C
:10203000CCC0511115C1CFC0F0D098F39923C9F38A
:102040005523B1F3951B550BBB27AA2762177307BE
:10205000840738F09F5F5F4F220F331F441FAA1F72
:10206000A9F333D00E2E3AF0E0E830D09150504032
:10207000E695001CCAF729D0FE2F27D0660F771FE0
:10208000881FBB1F261737074807AB07B0E809F0C2
:10209000BB0B802DBF01FF2793585F4F2AF09E3F57
:1020A000510568F092C0DCC05F3FECF3983EDCF372
:1020B000869577956795B795F7959F5FC9F7880FD0
:1020C000911D9695879597F90895E1E0660F771F22
:1020D000881FBB1F621773078407BA0720F0621BB3
:1020E000730B840BBA0BEE1F88F7E095089504D0AC
:1020F0006894B111B5C0089598D088F09F5790F0BA
:10210000B92F9927B751A0F0D1F0660F771F881F1C
:10211000991F1AF0BA95C9F712C0B13081F09FD05B
:10212000B1E008959CC0672F782F8827B85F39F0F9
:10213000B93FCCF3869577956795B395D9F73EF47B
:1021400090958095709561957F4F8F4F9F4F089523
:10215000E89409C097FB3EF4909580957095619541
:102160007F4F8F4F9F4F9923A9F0F92F96E9BB27F7
:102170009395F695879577956795B795F111F8CF73
:10218000FAF4BB0F11F460FF1BC06F5F7F4F8F4FDE
:102190009F4F16C0882311F096E911C0772321F0D4
:1021A0009EE8872F762F05C0662371F096E8862F6C
:1021B00070E060E02AF09A95660F771F881FDAF7C3
:1021C000880F9695879597F9089597F99F6780E806
:1021D00070E060E008959FEF80EC089500240A9479
:1021E0001616170618060906089500240A941216F2
:1021F0001306140605060895092E0394000C11F425
:10220000882352F0BB0F40F4BF2B11F460FF04C0D1
:102210006F5F7F4F8F4F9F4F089557FD9058440F2A
:10222000551F59F05F3F71F04795880F97FB991F35
:1022300061F09F3F79F087950895121613061406F2
:10224000551FF2CF4695F1DF08C01616170618067F
:10225000991FF1CF86957105610508940895E8945A
:10226000BB2766277727CB0197F908950BD0C4CFFA
:10227000B5DF28F0BADF18F0952309F0A6CFABCF71
:102280001124EECFCADFA0F3959FD1F3950F50E054
:10229000551F629FF001729FBB27F00DB11D639F18
:1022A000AA27F00DB11DAA1F649F6627B00DA11DBE
:1022B000661F829F2227B00DA11D621F739FB00D64
:1022C000A11D621F839FA00D611D221F749F3327D4
:1022D000A00D611D231F849F600D211D822F762F6D
:1022E0006A2F11249F5750408AF0E1F088234AF06A
:1022F000EE0FFF1FBB1F661F771F881F91505040B6
:10230000A9F79E3F510570F060CFAACF5F3FECF375
:10231000983EDCF3869577956795B795F795E795A1
:102320009F5FC1F7FE2B880F911D9695879597F9B2
:1023300008950E94FE11A59F900DB49F900DA49F3B
:10234000800D911D11240895B7FF0C9499110E94DE
:102350009911821B930B089597FB072E16F4009496
:1023600007D077FD09D00E940A1207FC05D03EF481
:10237000909581959F4F0895709561957F4F089531
:10238000A1E21A2EAA1BBB1BFD010DC0AA1FBB1F79
:10239000EE1FFF1FA217B307E407F50720F0A21BEB
:1023A000B30BE40BF50B661F771F881F991F1A9458
:1023B00069F760957095809590959B01AC01BD0182
:1023C000CF010895052E97FB16F4009407D057FD12
:1023D0000DD00E94C01107FC09D07EF49095809525
:1023E000709561957F4F8F4F9F4F08955095409501
:1023F000309521953F4F4F4F5F4F0895A29FB001F9
:10240000B39FC001A39F01D0B29F700D811D112405
:10241000911D0895AA1BBB1B51E107C0AA1FBB1F3A
:10242000A617B70710F0A61BB70B881F991F5A9560
:10243000A9F780959095BC01CD010895EE0FFF1F7F
:0C2440000590F491E02D0994F894FFCF72
:10244C0001000000803F0000803F0A000500C8002A
:10245C00060009000D000400080007000100000040
:10246C00002707F9069C06A506B906C90600000058
:0E247C0000400EA60DDB0D0A0EEE0D2E0E001A
:00000001FF
