:100000000C9464000C94FC0D0C94290E0C948C0040
:100010000C948C000C948C000C948C000C948C0030
:100020000C948C000C948C000C948C000C948C0020
:100030000C948C000C948C000C948C000C948C0010
:100040000C94DB0C0C948C000C944C100C948810C9
:100050000C948C000C948C000C948C000C948C00F0
:100060000C949A080C948C00000000070002010018
:100070000003040600000000000000000102040864
:100080001020408001020408102001020408102002
:10009000040404040404040402020202020203032E
:1000A00003030303000000002300260029000000D2
:1000B0000000250028002B0000000000240027007D
:1000C0002A00490741089A1111241FBECFEFD8E03A
:1000D000DEBFCDBF11E0A0E0B1E0E2E0F8E202C097
:1000E00005900D92A634B107D9F713E0A6E4B1E06C
:1000F00001C01D92AA32B107E1F710E0C8ECD0E0D0
:1001000004C02297FE010E94FB13C23CD107C9F72D
:100110000E94A30F0C94FF130C94000080917301B4
:10012000909174010196909374018093730181E022
:1001300090E0909378018093770108958091710108
:10014000909172010196909372018093710181E008
:1001500090E090937601809375010895CF93DF939B
:1001600032C08DEA91E00E944D070497C1F41092CD
:10017000520110925101109254011092530180913A
:100180005F0190916001892B51F00E94250D6093D1
:100190006501709366018093670190936801C09137
:1001A0005301D09154018DEA91E00E945607FE015F
:1001B000EE0FFF1FEB5AFE4F918380832196D09361
:1001C0005401C09353018DEA91E00E944D07892BA1
:1001D00041F6DF91CF91089580914F0190915001A8
:1001E000029701F58091460190914701FC01E45B83
:1001F000FE4F6081019690934701809346018DEAFE
:1002000091E00E94D80780914601909147010297A2
:10021000A9F41092470110924601109250011092D9
:100220004F010895E091AD01F091AE010190F08190
:10023000E02D609148018DEA91E00994089560E015
:10024000809118010E940F0C61E0809116010E94BC
:100250000F0C60E0809114010E940F0C61E080910E
:1002600012010C940F0C61E0809118010E940F0C98
:1002700060E0809116010E940F0C61E080911401F2
:100280000E940F0C60E0809112010C940F0C60E052
:10029000809118010E940F0C61E0809116010E946C
:1002A0000F0C61E0809114010E940F0C61E08091BD
:1002B00012010C940F0C60E0809118010E940F0C49
:1002C00061E0809116010E940F0C61E080911401A1
:1002D0000E940F0C60E0809112010C940F0C61E001
:1002E000809118010E940F0C61E0809116010E941C
:1002F0000F0C60E0809114010E940F0C61E080916E
:1003000012010C940F0C61E0809118010E940F0CF7
:1003100060E0809116010E940F0C60E08091140152
:100320000E940F0C61E0809112010C940F0C61E0AF
:10033000809118010E940F0C61E0809116010E94CB
:100340000F0C61E0809114010E940F0C61E080911C
:1003500012010C940F0C892B19F480910A0102C030
:10036000809108010C944C0B40E052EC61E070E08D
:1003700083E892E00E94C3106BE171E083E892E0B1
:100380000E948E0E43E050E06EE870E080E00E9434
:10039000CC0D43E050E06EE970E081E00E94CC0DAE
:1003A00061E0809118010E94D70B61E080911601F5
:1003B0000E94D70B61E0809114010E94D70B61E08D
:1003C000809112010E94D70B65E070E085EA91E010
:1003D0000E94DF0968E978E085EA91E00E94D70988
:1003E00068E070E08DEA91E00E9435086EEA70E006
:1003F0008DEA91E00E9437086CEE70E08DEA91E0A2
:100400000E943C0880910C0190910D019093A201F3
:100410008093A1019093A4018093A30108958F92EA
:100420009F92AF92BF92CF92DF92EF92FF92609134
:10043000A3017091A401809110010E944C0B609166
:10044000A1017091A20180910E010E944C0B80913C
:100450005501909156010A9791F5809177019091FD
:100460007801019751F46FEF70E080910A010E94CA
:100470004C0B109278011092770180917501909148
:100480007601019751F46FEF70E081E090E00E94F7
:10049000AB01109276011092750168EC70E080E07B
:1004A00090E00E94610D60E070E080910A010E947E
:1004B0004C0B60E070E081E090E00E94AB01809125
:1004C0005501909156010B97E9F440E855E260E040
:1004D00070E083E892E00E94C31083E892E00E94FB
:1004E000B00F892BD1F383E892E00E94DF0F8136B1
:1004F00029F46BE683E892E00E94151083E892E00D
:100500000E94431180915501909156010C9789F4F6
:10051000809157019091580161E00E94D70B609142
:10052000590170915A0180915701909158010E9490
:100530000F0C80915501909156018737910509F470
:100540006AC480915501909156018337910509F055
:100550000CC161C480919B0190919C01892B79F41D
:10056000F0929C01E0929B010E94370D60938D01F7
:1005700070938E0180938F019093900128C0109208
:100580009C0110929B010E94370D6093890170932A
:100590008A0180938B0190938C0180908D019090C3
:1005A0008E01A0908F01B0909001DC01CB018819E1
:1005B0009909AA09BB0980937D0190937E01A093BC
:1005C0007F01B0938001F0929601E0929501109224
:1005D000780110927701E0907501F090760181E04A
:1005E000E816F10409F041C08091990190919A01B7
:1005F000892B79F4F0929A01E09299010E94370DCB
:1006000060938501709386018093870190938801A0
:1006100028C010929A01109299010E94370D6093A0
:100620008101709382018093830190938401809073
:10063000850190908601A0908701B0908801DC012F
:10064000CB0188199909AA09BB0980937901909374
:100650007A01A0937B01B0937C01F0929801E09223
:1006600097011092760110927501809195019091F9
:100670009601019709F079C0C0907D01D0907E016C
:10068000E0907F01F090800181E1C81687E2D806F2
:10069000E104F10408F469C06091790170917A0174
:1006A0006C197D097093940160939301882777FDFD
:1006B0008095982F0E9485122091000130910101B0
:1006C00040910201509103010E9411134B015C0102
:1006D000C701B6010E9483129B01AC01C501B401A0
:1006E0000E94EA11AB01BC01409304015093050143
:1006F00060930601709307016A017B01F7FAF09499
:10070000F7F8F0946091A3017091A401882777FD18
:100710008095982F0E9485129B01AC01C701B601FC
:100720000E9411130E9452129B01709392016093D8
:1007300091018091A1019091A201820F931F8F3F9F
:10074000910519F014F08FEF90E097FF02C080E060
:1007500090E09093A2018093A101109298011092D1
:1007600097011092960110929501809155019091F8
:1007700056018437910561F48091A3019091A40101
:10078000853F91051CF08FEF90E016C00A9614C0CB
:10079000809155019091560187369105E9F4809139
:1007A000A3019091A4018B3091052CF41092A40127
:1007B0001092A30105C00A979093A4018093A3010E
:1007C0008091A3019091A4019093A2018093A10133
:1007D0001092560110925501809155019091560149
:1007E0008734910549F48091570190915801909375
:1007F000A4018093A3010FC08091550190915601EF
:100800008634910561F4809157019091580190933D
:10081000A2018093A101109256011092550180917E
:100820005501909156018737910509F4FEC28091D8
:100830005501909156018936910509F0F9C2F5C22A
:100840000E94470198C180915501909156018236CE
:10085000910519F40E945B018EC180915501909120
:1008600056018337910509F4ECC2809155019091AE
:1008700056018B36910509F0E7C2E3C20E946F0171
:100880007AC180915501909156018E36910519F4E7
:100890000E94830170C18091550190915601883763
:1008A000910519F40E94970166C1809155019091BC
:1008B000560186379105A9F480E00E942B0B909396
:1008C000A00180939F019C0197FF02C021503F4FE0
:1008D00030934C0160E071E00E94871380934D01DA
:1008E000B8C080915501909156018537910509F066
:1008F00077C0E0905701F090580161E271E083E821
:1009000092E00E948E0E4AE050E0B70183E892E048
:100910000E94810F61E08E2D0E94D70B60E08E2D2A
:100920000E940F0C82E090E00E94870D61E08E2D06
:100930000E940F0C85E090E00E94870D60E08E2DF4
:100940000E940F0C60E08E2D0E94D70B20E432E451
:100950004FE050E061E08E2D0E94460C2AE330E02B
:1009600040E050E00E94BD13F90137FF02C0215062
:100970003F4F30934C01CF0160E071E00E9487133C
:1009800080934D0182E090E09093500180934F015D
:100990004AE050E0BF0183E892E00E94810F63E2E9
:1009A00071E083E892E00E948E0E4AE050E0609190
:1009B0004C0183E892E00E94160F63E271E083E845
:1009C00092E00E948E0E4AE050E060914D0183E873
:1009D00092E00E941D0F1092560110925501CBC05B
:1009E00080915501909156018C36910559F4609192
:1009F000590170915A0180915701909158010E94BC
:100A0000AB01E9CF80915501909156018536910552
:100A1000B9F4609157017091580170939E016093F1
:100A20009D014AE050E083E892E00E94890F6091C6
:100A30009D0170919E0185EA91E00E94FD0938C0F8
:100A40008091550190915601449751F489E080932B
:100A50004C0182E090E09093500180934F01BBCF16
:100A60008091550190915601C39779F443E050E08D
:100A70006EE870E080E00E94CC0D43E050E06EE94B
:100A800070E081E00E94CC0DA6CF8091550190913D
:100A90005601C49739F481E00E94EC0D80E00E9479
:100AA000EC0D99CF8091550190915601CD9739F475
:100AB00081E090E090934B0180934A018CCF80912C
:100AC000550190915601CC9729F410924B01109248
:100AD0004A0181CF80915501909156018035910551
:100AE00069F58091570190915801209159013091F9
:100AF0005A01982F8827820F931FAA2797FDA09548
:100B0000BA2F8093610190936201A0936301B09327
:100B1000640110925601109255010E94250D6093B8
:100B2000650170936601809367019093680181E08D
:100B300090E09093600180935F011DC0809155010A
:100B40009091560181359105B1F4109256011092A1
:100B500055010E94250D6093650170936601809395
:100B60006701909368011092600110925F011092EA
:100B7000700110926F0180915F0190916001892B4B
:100B800029F10E94250DC0906501D0906601E0908A
:100B90006701F09068016C197D098E099F09C0906A
:100BA0006101D0906201E0906301F0906401C6168B
:100BB000D706E806F90650F40E94970110925601F4
:100BC000109255011092600110925F0180915501C1
:100BD00090915601C29709F440C180916F019091A4
:100BE0007001019709F0E4C038C1109256011092CB
:100BF000550181E090E09093700180936F018091A6
:100C000057019091580197FD01969595879590937E
:100C10006E0180936D01809157019091580162E0BF
:100C200070E00E94871390936C0180936B01809118
:100C3000590190915A0120915B0130915C01982FEC
:100C40008827820F931F90936A0180936901109205
:100C500072011092710110927401109273018091CF
:100C60006D0190916E0120916B0130916C01892B87
:100C700059F08091690190916A01232B81F42091B0
:100C800073013091740116C0232BC1F020917101C2
:100C9000309172018091690190916A010BC020919D
:100CA0007301309174012817390744F020917101C4
:100CB00030917201281739070CF0D7C060915701A5
:100CC000709158014AE050E083E892E00E94810F61
:100CD00063E271E083E892E00E948E0E6091590118
:100CE00070915A014AE050E083E892E00E94810F3F
:100CF00063E271E083E892E00E948E0E60915B01F6
:100D000070915C014AE050E083E892E00E94810F1C
:100D100063E271E083E892E00E948E0E60917301BD
:100D2000709174014AE050E083E892E00E94810FE4
:100D300063E271E083E892E00E948E0E609171019F
:100D4000709172014AE050E083E892E00E94810FC6
:100D500063E271E083E892E00E948E0E60914F01A1
:100D6000709150014AE050E083E892E00E94810FC8
:100D700063E271E083E892E00E948E0E60916F0161
:100D8000709170014AE050E083E892E00E94810F88
:100D900063E271E083E892E00E948E0E6091690147
:100DA00070916A014AE050E083E892E00E94890F66
:100DB00020916F013091700180914801909149011B
:100DC000232B11F0816001C08E7F909349018093A5
:100DD000480120915F01309160018091480190911C
:100DE0004901232B11F0826001C08D7F909349014E
:100DF0008093480180914A0190914B01892B09F41D
:100E00003FC0FF90EF90DF90CF90BF90AF909F904A
:100E10008F900C94430AE0907701F090780181E084
:100E2000E816F10409F0D7CB95CB0E941F01A3CEA1
:100E300080915501909156018136910509F003CDBD
:100E4000FFCC0E94330197CE8091550190915601BD
:100E50008436910509F015CD11CD80915501909101
:100E60005601C29709F0FBCEC0CE109256011092E7
:100E700055010E9497011092700110926F011ECFD0
:100E8000FF90EF90DF90CF90BF90AF909F908F90AA
:100E9000089585EA91E00C94CA092091E00130E0C0
:100EA0008091E101281B3109C90108958091E10178
:100EB0009091E001891750F4E82FF0E0EE51FE4FD9
:100EC000208130E08F5F8093E10102C02FEF3FEF80
:100ED000C9010895E091E1018091E001E81730F443
:100EE000F0E0EE51FE4F208130E002C02FEF3FEFE7
:100EF000C90108950895E091B901F091BA013097C0
:100F0000E1F03091E1012091E0013217B0F040E0D2
:100F100009C0DC01A20FB31F5C91D901AE51BE4FD5
:100F20005C934F5F242F30E02617370794F310921D
:100F3000E1016093E001CB0109940895E091BB01C8
:100F4000F091BC01309729F01092BF011092BE01C0
:100F500009940895CF92DF92EF92FF920F931F931F
:100F6000CF93DF937C01CB018A012091BD01222325
:100F700091F0EB016B01C40ED51E09C06991D70138
:100F8000ED91FC910190F081E02DC7010995CC1500
:100F9000DD05A1F703C0642F0E946708C801DF9137
:100FA000CF911F910F91FF90EF90DF90CF90089518
:100FB000CF93DF931F92CDB7DEB769832091BD0138
:100FC0002223D1F02091BE01203240F021E030E018
:100FD000FC013383228320E030E015C08091BF0103
:100FE000E82FF0E0E054FE4F998190838F5F80936B
:100FF000BF018093BE0105C061E0CE0101960E9451
:10100000670821E030E0C9010F90DF91CF9108958A
:10101000FC011382128248EE53E060E070E04483EA
:1010200055836683778389E291E091838083089575
:101030001092E1011092E0011092BF011092BE01E6
:101040000C944508CF93DF93EC01862F0E94630830
:101050008EE997E00E9485088BE797E00E94800860
:10106000CE01DF91CF910C9418080C942208709354
:10107000BA016093B90108957093BC016093BB01FC
:1010800008958DEA91E00C94080810920B0281E01B
:10109000809309021092080261E082E10E940F0C25
:1010A00061E083E10E940F0CE9EBF0E080818E7F2C
:1010B000808380818D7F808388E48093B80085E47D
:1010C0008093BC000895880F8093BA000895613220
:1010D00098F420910B02243089F460930402FC01FF
:1010E0008CE292E0DC0102C021912D932A2F281B73
:1010F0002617D0F380E0089581E0089582E00895F6
:1011000090934D0280934C02089590934F028093E8
:101110004E02089585ED8093BC008091BC0084FD53
:10112000FCCF10920B02089585EC8093BC001092C6
:101130000B0208951F920F920FB60F9211242F9356
:101140003F934F935F936F937F938F939F93AF934F
:10115000BF93EF93FF938091B900887F803609F4A5
:101160009FC058F5883209F45BC090F4803109F4CF
:1011700052C038F4882309F4F8C0883009F0F9C067
:101180004AC0883109F44CC0803209F0F2C05CC01A
:10119000803409F46BC038F4803309F455C08833C7
:1011A00009F0E7C054C0803509F454C0883509F40B
:1011B00062C0883409F0DDC0DAC0883909F4CBC0D8
:1011C000A8F4883709F46CC038F4883609F468C08C
:1011D000803709F0CEC064C0883809F4BCC08039BB
:1011E00009F464C0803809F0C4C060C0803B09F4D1
:1011F0008AC038F4803A09F46BC0883A09F0B9C063
:1012000082C0803C09F4ABC0883C09F4A8C0883B8C
:1012100009F0AFC08DC080910A028093BB0012C05C
:101220009091070280910602981788F58091070235
:10123000E82FF0E0E45FFD4F90819093BB008F5F5B
:101240008093070285EC88C08093020290C080934F
:10125000020256C0809107029091BB00E82FF0E097
:10126000E45FFD4F90838F5F8093070290910702A8
:10127000809106026DC0809107029091BB00E82F1B
:10128000F0E0E45FFD4F90838F5F809307028091D1
:10129000090281116CC081E08093080284EA60C079
:1012A00083E080930B0210920302CCCF8091030263
:1012B000803208F050C0809103029091BB00E82F6B
:1012C000F0E0E05BFD4F90838F5F80930302BACF25
:1012D00080910302803230F4E0910302F0E0E05BA1
:1012E000FD4F10820E948A0860910302E0914C0237
:1012F000F0914D0270E080E592E0099510920302B2
:101300000E94940836C084E080930B02109205027C
:1013100010920402E0914E02F0914F0209958091E3
:101320000402811105C081E08093040210922C0216
:1013300080910502E82FF0E0E45DFD4F90819093ED
:10134000BB008F5F8093050290910502809104029B
:10135000981708F477CF85E88093BC000AC085EC25
:101360008093BC0010920B0204C0109202020E94F3
:101370008A08FF91EF91BF91AF919F918F917F91DB
:101380006F915F914F913F912F910F900FBE0F90F2
:101390001F901895FC0110828FEF818313821282B7
:1013A00082E2848386E9858317821682089534E079
:1013B000769567953A95E1F7FC0165830895CF939B
:1013C000DF93EC01862F68839FEF99831B821A823B
:1013D00020917002309171023F832E83D09371026D
:1013E000C093700260E00E940F0C61E088810E944F
:1013F000D70B81E0DF91CF910895CF92DF92EF92EA
:10140000FF92CF93DF93EC0177FD04C0653B71053C
:1014100024F405C060E070E002C064EB70E0698312
:10142000CC802D8130E02C193109D12CE12CF12C0C
:10143000FE2CED2CDC2CCC24C901AA2797FDA0950D
:10144000BA2F2227382F492F5A2FDB010E947F13F2
:1014500024EB30E040E050E00E94BD13C20ED31EEA
:10146000E41EF51EC701B60120E430E040E050E084
:101470000E94BD133B832A83DF91CF91FF90EF90B1
:10148000DF90CF9008955F926F927F928F929F929C
:10149000AF92BF92CF92DF92EF92FF920F931F9382
:1014A000CF93DF93CDB7DEB70DB71EB7ADB6BEB6DF
:1014B0000E94250DC0907202D0907302E0907402D9
:1014C000F09075026C157D058E059F0558F024E19E
:1014D000C20ED11CE11CF11C6C157D058E059F050B
:1014E00008F49DC06093720270937302809374023B
:1014F00090937502E0917002F0917102DF01D12C9E
:101500000BC012968D919C911397892B09F0D3945F
:1015100016960D90BC91A02D109799F7DD2009F437
:101520007EC08DB79EB7A2E0DA9E80199109112482
:101530000FB6F8949EBF0FBE8DBF019640E00FC05E
:1015400022813381232B41F0DC01A40FB11DA40FB4
:10155000B11DED93FC934F5F0680F781E02D30972E
:1015600079F727C0EC2DF0E03F01660C771C680E80
:10157000791ED3012D913C913197EE0FFF1FE80F9B
:10158000F91F40815181D9011296ED90FC9013977B
:10159000DA0112966D917C911397E616F70638F4EE
:1015A000D3014D935C933183208399249394C39406
:1015B00003C0912CCC24C394CD14A0F29110F9CF88
:1015C0007C014C01C12CD401ED91FD914D0161E0F4
:1015D00080810E940F0CC394CD10F5CF46B5812CAD
:1015E000912C512C642E712CD701ED91FD917D0130
:1015F00082819381860D971DC6B4C41608F4939416
:101600004C2D94012C0D311D82179307A8F760E033
:1016100080810E940F0C53944C2D5D10E5CF8A2DD4
:101620009B2D0FB6F8949EBF0FBE8DBF0FB6F894DA
:101630001EBF0FBE0DBFDF91CF911F910F91FF9085
:10164000EF90DF90CF90BF90AF909F908F907F9062
:101650006F905F9008958E3008F08E5087702091C3
:101660001A0140E4249F90011124822B80937C0076
:1016700080917A00806480937A0080917A0086FD60
:10168000FCCF2091780030917900932F80E0AC015D
:10169000422B9A01C90108951F93CF93DF93182F0E
:1016A000EB0161E00E94D70B209711F460E004C0C9
:1016B000CF3FD10539F461E0812FDF91CF911F91A8
:1016C0000C940F0CE12FF0E0E859FF4FE491E33068
:1016D000B9F028F4E13051F0E230B1F50CC0E63059
:1016E00019F1E73049F1E43079F514C084B5806828
:1016F00084BDC7BD2EC084B5806284BDC8BD29C06D
:1017000080918000806880938000D0938900C0938E
:1017100088001FC080918000806280938000D093F9
:101720008B00C0938A0015C08091B00080688093C0
:10173000B000C093B3000DC08091B0008062809370
:10174000B000C093B40005C0C038D1050CF0B3CFD1
:10175000ADCFDF91CF911F910895833069F028F4C8
:101760008130A1F0823011F514C08630B1F087309D
:10177000C1F08430D9F404C0809180008F7703C019
:10178000809180008F7D80938000089584B58F774D
:1017900002C084B58F7D84BD08958091B0008F779D
:1017A00003C08091B0008F7D8093B0000895CF93E7
:1017B000DF9390E0FC01E458FF4F4491FC01E057B7
:1017C000FF4F8491882341F190E0880F991FFC011D
:1017D000E854FF4F25913491D90182559F4FFC0168
:1017E00085919491C82FD92F9FB7F8948C9161114E
:1017F00006C0409584238C938881842308C062307E
:1018000041F4242F209582238C938881842B888314
:1018100002C0842B8C939FBFDF91CF9108950F93CB
:101820001F93CF93DF931F92CDB7DEB7282F30E001
:10183000F901E859FF4F8491F901E458FF4F1491E1
:10184000F901E057FF4F04910023D1F0882321F0E4
:1018500069830E94AD0B6981E02FF0E0EE0FFF1F5E
:10186000E255FF4F85919491DC019FB7F8948C91DC
:10187000611103C01095812301C0812B8C939FBF00
:101880000F90DF91CF911F910F9108958F929F92AA
:10189000AF92BF92CF92DF92EF92FF920F931F937E
:1018A000CF93DF9390E0FC01E458FF4FD491FC010B
:1018B000E057FF4F7491611102C0C0E001C0CD2F0D
:1018C000DA01C901BF70672F70E0660F771F6C5592
:1018D0007F4F812C912C5401FB010591149110C074
:1018E000C12CD12C7601C394C80CD91CEA1CFB1C5A
:1018F00088169906AA06BB0609F44BC04601570193
:10190000F801E081ED23EC1759F310C0C12CD12C64
:101910007601C394C80CD91CEA1CFB1C88169906D6
:10192000AA06BB06B1F14601570103C0FB010591B0
:101930001491F801E081ED23EC13E8CF881999099F
:10194000AA09BB0920E030E0A901FB01659174916F
:1019500009C0281739074A075B07D9F02F5F3F4FA7
:101960004F4F5F4FFB01E081ED23EC1791F3A5E1B1
:10197000B0E00E9474138B019C01005F1F4F2F4F3A
:101980003F4F84E036952795179507958A95D1F7AF
:1019900003C000E010E09801B801C901DF91CF91C8
:1019A0001F910F91FF90EF90DF90CF90BF90AF907D
:1019B0009F908F9008951F920F920FB60F9211244F
:1019C0002F933F938F939F93AF93BF938091760212
:1019D00090917702A0917802B091790230917E02C5
:1019E000232F2D5F2D3720F40196A11DB11D05C0B9
:1019F000232F2A570296A11DB11D20937E028093AA
:101A0000760290937702A0937802B0937902809146
:101A10007A0290917B02A0917C02B0917D020196A6
:101A2000A11DB11D80937A0290937B02A0937C024A
:101A3000B0937D02BF91AF919F918F913F912F9174
:101A40000F900FBE0F901F9018950F931F938FB795
:101A5000F8940091760210917702209178023091EB
:101A600079028FBFB801C9011F910F9108950F939B
:101A70001F939FB7F89400917A0210917B022091F6
:101A80007C0230917D0286B5A89B06C08F3F21F075
:101A90000F5F1F4F2F4F3F4F9FBF322F212F102F10
:101AA0000027080F111D211D311D42E0000F111FDD
:101AB000221F331F4A95D1F7B801C9011F910F9119
:101AC0000895CF92DF92EF92FF92CF93DF936B0155
:101AD0007C010E94370DEB010EC00E94370D6C1B7C
:101AE0007D0B683E734038F081E0C81AD108E108E8
:101AF000F108C851DC4FC114D104E104F10469F7C5
:101B0000DF91CF91FF90EF90DF90CF9008950197F4
:101B100039F0880F991F880F991F02970197F1F7E5
:101B20000895789484B5826084BD84B5816084BD55
:101B300085B5826085BD85B5816085BDEEE6F0E046
:101B4000808181608083E1E8F0E0108280818260A2
:101B50008083808181608083E0E8F0E08081816023
:101B60008083E1EBF0E0808184608083E0EBF0E053
:101B7000808181608083EAE7F0E0808184608083F7
:101B800080818260808380818160808380818068A1
:101B900080831092C10008958230E8F4E82FF0E0CD
:101BA000EE0FFF1FE158FD4F71836083813041F0DC
:101BB000809169008C7F842B80936900E89A089556
:101BC00080916900440F551F440F551F837F842B5C
:101BD00080936900E99A0895823068F4813011F0A9
:101BE000E89801C0E998E82FF0E0EE0FFF1FE158F8
:101BF000FD4F1182108208951F920F920FB60F921F
:101C000011242F933F934F935F936F937F938F9301
:101C10009F93AF93BF93EF93FF9380917F02909137
:101C20008002892B29F0E0917F02F09180020995D2
:101C3000FF91EF91BF91AF919F918F917F916F91A4
:101C40005F914F913F912F910F900FBE0F901F907A
:101C500018951F920F920FB60F9211242F933F9356
:101C60004F935F936F937F938F939F93AF93BF93A4
:101C7000EF93FF938091810290918202892B29F04A
:101C8000E0918102F09182020995FF91EF91BF915D
:101C9000AF919F918F917F916F915F914F913F9104
:101CA0002F910F900FBE0F901F901895CF92DF923B
:101CB000EF92FF920F931F93CF93DF936C01EB0191
:101CC0007A01E60EF71E00E010E00BC06991D60124
:101CD000ED91FC910190F081E02DC6010995080F6E
:101CE000191FCE15DF0591F7C801DF91CF911F9124
:101CF0000F91FF90EF90DF90CF900895DB010D9052
:101D00000020E9F7AD0141505109461B570BDC019A
:101D1000ED91FC910280F381E02D09940C947E0EEC
:101D2000DC01ED91FC910190F081E02D09940F937D
:101D30001F93CF93DF93EC016DE00E94900E8C0116
:101D40006AE0CE010E94900E9C01200F311FC90154
:101D5000DF91CF911F910F9108954F925F926F92F3
:101D60007F929F92AF92BF92CF92DF92EF92FF92BB
:101D70000F931F93CF93DF93CDB7DEB7A1970FB625
:101D8000F894DEBF0FBECDBF5C016A017B01922ECD
:101D900019A281E0821710F08AE0982E8E010F5D63
:101DA0001F4F492C512C612C712CC701B601A30186
:101DB00092010E949B138C2D929E80191124015038
:101DC00011098A3014F4805D01C0895CF8018083B8
:101DD00069017A01C114D104E104F10431F7B801B9
:101DE000C5010E947E0EA1960FB6F894DEBF0FBE0D
:101DF000CDBFDF91CF911F910F91FF90EF90DF90BA
:101E0000CF90BF90AF909F907F906F905F904F90DA
:101E100008952115310541F4DC01ED91FC9101900B
:101E2000F081E02D642F09940C94AD0E9A01462F99
:101E300050E060E070E00C94090F0F931F93CF9374
:101E4000DF93EC019A01462F50E060E070E00E94C1
:101E5000090F8C01CE010E94970E9801280F391F9F
:101E6000C901DF91CF911F910F910895CF92DF9219
:101E7000EF92FF920F931F93CF93DF93EC016A01D0
:101E80007B012115310579F4E881F9810190F08118
:101E9000E02D642FDF91CF911F910F91FF90EF9074
:101EA000DF90CF9009942A30310519F477FD0EC0E8
:101EB0002AE0B701A601CE01DF91CF911F910F91CA
:101EC000FF90EF90DF90CF900C94AD0E6DE20E94EA
:101ED000900E8C0144275527BA014C195D096E09F3
:101EE0007F092AE0CE010E94AD0E080F191FC8011C
:101EF000DF91CF911F910F91FF90EF90DF90CF90E6
:101F000008959A01AB01662757FD6095762F0C94D2
:101F1000360F0F931F93CF93DF93EC019A01AB0120
:101F2000662757FD6095762F0E94360F8C01CE01F3
:101F30000E94970E9801280F391FC901DF91CF9198
:101F40001F910F9108950E94910D0E94B401CFE757
:101F5000D0E10E940F022097E1F30E947F10F9CF99
:101F6000FC0184859585FC01E05CFF4F2081318177
:101F7000FC01EE5BFF4F80819181281B390B2F7391
:101F80003327C9010895FC0184859585FC01E05C37
:101F9000FF4F40815181FC01EE5BFF4F2081318179
:101FA0004217530741F00190F081E02DE80FF91F2F
:101FB000208130E002C02FEF3FEFC9010895FC01FE
:101FC00084859585FC01E05CFF4F40815181FC01D7
:101FD000EE5BFF4F208131814217530781F0A081D2
:101FE000B181A80FB91F8C91208131812F5F3F4FA4
:101FF0002F73332731832083282F30E002C02FEF47
:102000003FEFC9010895FC0186859785FC01E05CDE
:10201000FF4FDC01AE5BBF4F408151812D913C9160
:10202000119742175307C1F70895CF93DF93FC012F
:1020300086859785DC01A05CBF4F2D913C9111975F
:102040002F5F3F4F2F733327EC01CE5BDF4F48816B
:10205000598124173507D9F30D90BC91A02DA80FF5
:10206000B91F6C93A685B785A05CBF4F11963C93B2
:102070002E93A689B7892C9181E090E0058C02C04F
:10208000880F991F0A94E2F7282B2C9381E090E0A7
:10209000DF91CF91089508951F920F920FB60F927E
:1020A00011242F933F934F938F939F93EF93FF931D
:1020B0004091C600809126039091270301968F736B
:1020C000992720912803309129038217930759F00B
:1020D000E0912603F0912703EA51FD4F408390934E
:1020E000270380932603FF91EF919F918F914F914A
:1020F0003F912F910F900FBE0F901F90189583E87E
:1021000092E00E94B00F892B11F00C944B100895AF
:102110001F920F920FB60F9211242F933F938F931C
:102120009F93EF93FF932091E2023091E30280911D
:10213000E4029091E5022817390731F48091C1003B
:102140008F7D8093C10014C0E091E402F091E5021C
:10215000EE55FD4F20818091E4029091E5020196B9
:102160008F7399279093E5028093E4022093C60031
:10217000FF91EF919F918F913F912F910F900FBE03
:102180000F901F901895CF92DF92EF92FF92CF930E
:10219000DF93EC016A017B01411581EE580761056F
:1021A0007105F9F0EC89FD8981E090E00E8C02C0A8
:1021B000880F991F0A94E2F7808360E079E08DE34D
:1021C00090E0A70196010E949B132150310941091B
:1021D00051095695479537952795211580E1380780
:1021E00098F0EC89FD89108260E874E88EE190E057
:1021F000A70196010E949B13215031094109510901
:102200005695479537952795E889F9893083EA8966
:10221000FB892083EE89FF89408181E090E09C0169
:102220000A8C02C0220F331F0A94E2F7422B40832C
:10223000EE89FF8940819C010B8C02C0220F331F65
:102240000A94E2F7422B4083EE89FF8940819C018A
:102250000C8C02C0220F331F0A94E2F7422B4083FA
:10226000EE89FF8920810D8C02C0880F991F0A9486
:10227000E2F7809582238083DF91CF91FF90EF90EA
:10228000DF90CF900895CF93DF93FC0186859785EB
:10229000DC01A05CBF4FEC01CE5BDF4F4D915C9148
:1022A00011972881398142175307C1F7A689B78949
:1022B0004C9181E090E09C01028C02C0220F331F00
:1022C0000A94E2F7209524232C93A689B7894C9190
:1022D0009C01038C02C0220F331F0A94E2F7209561
:1022E00024232C93A689B7894C919C01048C02C0AD
:1022F000220F331F0A94E2F7209524232C93A689FA
:10230000B7892C91058C02C0880F991F0A94E2F7B7
:10231000809582238C9384859585FC01EE5BFF4F2D
:1023200020813181FC01E05CFF4F31832083DF910C
:10233000CF910895109286021092850288EE93E064
:10234000A0E0B0E08093870290938802A093890276
:10235000B0938A0289E391E0909384028093830290
:1023600086EE92E09093900280938F0282EA92E050
:10237000909392028093910285EC90E09093940266
:102380008093930284EC90E0909396028093950260
:1023900080EC90E0909398028093970281EC90E01B
:1023A00090939A028093990286EC90E090939C021D
:1023B00080939B0284E080939D0283E080939E0241
:1023C00087E080939F0285E08093A00281E0809364
:1023D000A10208950CD0EBC0E3D040F0DAD030F089
:1023E00021F45F3F19F0CCC0511115C1CFC0F0D01E
:1023F00098F39923C9F35523B1F3951B550BBB27CC
:10240000AA2762177307840738F09F5F5F4F220F78
:10241000331F441FAA1FA9F333D00E2E3AF0E0E871
:1024200030D091505040E695001CCAF729D0FE2FBD
:1024300027D0660F771F881FBB1F2617370748074F
:10244000AB07B0E809F0BB0B802DBF01FF27935805
:102450005F4F2AF09E3F510568F092C0DCC05F3F9D
:10246000ECF3983EDCF3869577956795B795F795ED
:102470009F5FC9F7880F911D9695879597F90895E5
:10248000E1E0660F771F881FBB1F62177307840781
:10249000BA0720F0621B730B840BBA0BEE1F88F790
:1024A000E095089504D06894B111B5C0089598D00E
:1024B00088F09F5790F0B92F9927B751A0F0D1F02D
:1024C000660F771F881F991F1AF0BA95C9F712C0B7
:1024D000B13081F09FD0B1E008959CC0672F782F74
:1024E0008827B85F39F0B93FCCF386957795679523
:1024F000B395D9F73EF490958095709561957F4F8F
:102500008F4F9F4F0895E89409C097FB3EF4909534
:102510008095709561957F4F8F4F9F4F9923A9F0BC
:10252000F92F96E9BB279395F6958795779567954B
:10253000B795F111F8CFFAF4BB0F11F460FF1BC08F
:102540006F5F7F4F8F4F9F4F16C0882311F096E922
:1025500011C0772321F09EE8872F762F05C06623D0
:1025600071F096E8862F70E060E02AF09A95660F89
:10257000771F881FDAF7880F9695879597F9089542
:1025800097F99F6780E870E060E008959FEF80EC26
:10259000089500240A9416161706180609060895C9
:1025A00000240A9412161306140605060895092E2F
:1025B0000394000C11F4882352F0BB0F40F4BF2B9E
:1025C00011F460FF04C06F5F7F4F8F4F9F4F0895DE
:1025D00057FD9058440F551F59F05F3F71F04795D4
:1025E000880F97FB991F61F09F3F79F087950895B9
:1025F000121613061406551FF2CF4695F1DF08C0D8
:10260000161617061806991FF1CF869571056105F4
:1026100008940895E894BB2766277727CB0197F99C
:1026200008950BD0C4CFB5DF28F0BADF18F095239A
:1026300009F0A6CFABCF1124EECFCADFA0F3959F50
:10264000D1F3950F50E0551F629FF001729FBB2799
:10265000F00DB11D639FAA27F00DB11DAA1F649F45
:102660006627B00DA11D661F829F2227B00DA11DF8
:10267000621F739FB00DA11D621F839FA00D611D7E
:10268000221F749F3327A00D611D231F849F600D9F
:10269000211D822F762F6A2F11249F5750408AF0D8
:1026A000E1F088234AF0EE0FFF1FBB1F661F771F64
:1026B000881F91505040A9F79E3F510570F060CFA0
:1026C000AACF5F3FECF3983EDCF38695779567954C
:1026D000B795F795E7959F5FC1F7FE2B880F911D82
:1026E0009695879597F908950E94D913A59F900D07
:1026F000B49F900DA49F800D911D11240895B7FFE4
:102700000C9474130E947413821B930B089597FB0F
:10271000072E16F4009407D077FD09D00E94E51328
:1027200007FC05D03EF4909581959F4F08957095D4
:1027300061957F4F0895A1E21A2EAA1BBB1BFD01D4
:102740000DC0AA1FBB1FEE1FFF1FA217B307E40790
:10275000F50720F0A21BB30BE40BF50B661F771FE8
:10276000881F991F1A9469F76095709580959095C8
:102770009B01AC01BD01CF010895052E97FB16F416
:10278000009407D057FD0DD00E949B1307FC09D081
:102790007EF490958095709561957F4F8F4F9F4FF8
:1027A000089550954095309521953F4F4F4F5F4F7D
:1027B0000895A29FB001B39FC001A39F01D0B29F13
:1027C000700D811D1124911D0895AA1BBB1B51E1A1
:1027D00007C0AA1FBB1FA617B70710F0A61BB70B91
:1027E000881F991F5A95A9F780959095BC01CD0136
:1027F0000895EE0FFF1F0590F491E02D0994F894D1
:02280000FFCF08
:102802000000803F0000803F0A000500C80006006B
:1028120009000D0004000800070001526561647997
:10282200005553200000000000D807AA074D0756A4
:10283200076A077A07000000001510560EB00FDF76
:062842000FC30F0310009C
:00000001FF
