:100000000C9464000C94AF0E0C94DC0E0C948C00D9
:100010000C948C000C948C000C948C000C948C0030
:100020000C948C000C948C000C948C000C948C0020
:100030000C948C000C948C000C948C000C948C0010
:100040000C94F50C0C948C000C94E9100C94251174
:100050000C948C000C948C000C948C000C948C00F0
:100060000C94BE0B0C948C000000000700020100F1
:100070000003040600000000000000000102040864
:100080001020408001020408102001020408102002
:10009000040404040404040402020202020203032E
:1000A00003030303000000002300260029000000D2
:1000B0000000250028002B0000000000240027007D
:1000C0002A000F09650B311211241FBECFEFD8E0B3
:1000D000DEBFCDBF11E0A0E0B1E0E2E1FBE202C093
:1000E00005900D92A034B107D9F713E0A0E4B1E078
:1000F00001C01D92AA34B107E1F710E0C8ECD0E0CE
:1001000004C02297FE010E946D15C23CD107C9F7B9
:100110000E94EA120C9487150C94000080918C01C7
:1001200090918D01019690938D0180938C0181E0D7
:1001300090E09093910180939001089580918A01BD
:1001400090918B01019690938B0180938A0181E0BD
:1001500090E090938F0180938E010895CF93DF9369
:100160002EC082ED91E00E94710A0497A1F41092D2
:100170006D0110926C018091780190917901892B29
:1001800051F00E943F0D60937E0170937F01809338
:10019000800190938101C0916C01D0916D0182ED3D
:1001A00091E00E947A0AFE01EE0FFF1FE259FE4F16
:1001B000918380832196D0936D01C0936C0182ED71
:1001C00091E00E94710A892B61F6DF91CF91089529
:1001D00080916A0190916B010297E1F48091400156
:1001E00090914101FC01EB5AFE4F60810196909382
:1001F00041018093400182ED91E00E94FC0A8091D0
:10020000400190914101029721F510924101109215
:1002100040010EC080916A0190916B01449769F48E
:1002200044E150E065E571E082ED91E00E94CE0A84
:1002300010926B0110926A010895E091D201F09141
:10024000D3010190F081E02D60914B0182ED91E0AE
:10025000099408957093C3016093C201892B39F00A
:1002600060E080911A010E946B0F61E006C061E0BE
:1002700080911A010E946B0F60E0809118010C942C
:100280006B0F7093C1016093C001892B39F060E05E
:10029000809116010E946B0F61E006C061E08091C1
:1002A00016010E946B0F60E0809114010C946B0F9B
:1002B00060E080911A010E946B0F61E0809118014B
:1002C0000E946B0F60E0809116010E946B0F61E04D
:1002D000809114010C946B0F61E080911A010E94CF
:1002E0006B0F60E0809118010E946B0F61E08091BC
:1002F00016010E946B0F60E0809114010C946B0F4B
:1003000060E080911A010E946B0F61E080911801FA
:100310000E946B0F61E0809116010E946B0F61E0FB
:10032000809114010C946B0F60E080911A010E947F
:100330006B0F61E0809118010E946B0F61E080916A
:1003400016010E946B0F60E0809114010C946B0FFA
:1003500061E080911A010E946B0F61E080911801A9
:100360000E946B0F60E0809116010E946B0F61E0AC
:10037000809114010C946B0F61E080911A010E942E
:100380006B0F60E0809118010E946B0F60E080911C
:1003900016010E946B0F61E0809114010C946B0FA9
:1003A00061E080911A010E946B0F61E08091180159
:1003B0000E946B0F61E0809116010E946B0F61E05B
:1003C000809114010C946B0F892B19F480910A0110
:1003D00002C0809108010C946B0FCF93DF93CAE0A9
:1003E000D0E087E00E94CB0F9093430180934201BD
:1003F0002197B9F786319340B4F48DE090E0909363
:1004000015018093140185E090E090930B01809397
:100410000A018AE090E0909309018093080110920C
:100420000F0110920E0143E050E06EE870E080E0B2
:100430000E947F0E43E050E06EE970E081E00E9490
:100440007F0E61E080911A010E94330F61E080917C
:1004500018010E94330F61E0809116010E94330F52
:1004600061E0809114010E94330F65E070E084EC3C
:1004700091E00E94200968E070E082ED91E00E9426
:10048000590B6EEA70E082ED91E00E945B0B68EE22
:1004900070E082ED91E00E94600B80910C019091E0
:1004A0000D019093C1018093C0019093C30180938B
:1004B000C20160E070E085E992E00E94EE0C80935A
:1004C000460161E070E085E992E00E94EE0C8093C5
:1004D000450162E070E085E992E00E94EE0C8093B5
:1004E0004401909146019E3D49F49091450194311B
:1004F00029F48093490110924A0106C084E690E0F5
:1005000090934A0180934901DF91CF9108958F9292
:100510009F92AF92BF92CF92DF92EF92FF92609143
:10052000C0017091C101882777FD8095982F0E94A6
:10053000F7136B017C016091490170914A01645687
:100540007109882777FD8095982F0E94F7139B01EA
:10055000AC01C701B6010E94831420E030E048ECF2
:1005600052E40E945C139B01AC01C701B6010E94DA
:10057000F8120E94C4136F3F710541F03CF08FEFF9
:1005800090E090934801809347010BC077FD05C030
:10059000709348016093470104C010924801109283
:1005A00047016091C2017091C301809112010E94C4
:1005B000EC0F6091470170914801809110010E94F9
:1005C000EC0F80916E0190916F010A9781F58091F7
:1005D000900190919101019749F461E080910A01A5
:1005E0000E946B0F109291011092900180918E01E8
:1005F00090918F01019751F461E070E081E090E00B
:100600000E94E40110928F0110928E0168EC70E05C
:1006100080E090E00E947B0D60E080910A010E94E2
:100620006B0F60E070E081E090E00E94E401809157
:100630006E0190916F010B97E9F440E855E260E09C
:1006400070E083EA92E00E94601183EA92E00E94E7
:100650004D10892BD1F383EA92E00E947C10813601
:1006600029F46BE683EA92E00E94B21083EA92E0FA
:100670000E94DA1180916E0190916F010C97A9F49C
:10068000809170019091710161E00E94330F60913F
:1006900072017091730180917001909171010E94BB
:1006A0006B0F10926F0110926E0180916E0190910C
:1006B0006F010D97D9F4809170019091710160E004
:1006C0000E94330F80917001909171010E94A20FDE
:1006D000809355011092560182E090E090936B0157
:1006E00080936A0110926F0110926E0180916E01E9
:1006F00090916F010E9709F58091700190917101B1
:100700000E94CB0F90935401809353019C0197FF5B
:1007100002C021503F4F3093550160E071E00E94CC
:10072000F9148093560182E090E090936B018093DE
:100730006A0110926F0110926E0180916E0190918A
:100740006F010F9771F46091720170917301809144
:100750007001909171010E94EC0F10926F01109244
:100760006E0180916E0190916F014097E9F4809144
:10077000720190917301892B31F4809170019091F5
:10078000710160E00BC0809172019091730101973B
:1007900039F4809170019091710161E00E94330FF2
:1007A00010926F0110926E0120916E0130916F01D5
:1007B0008091BC019091BD012737310509F4F3C444
:1007C00020916E0130916F012337310509F0EFC49C
:1007D000EAC48091C0019091C1019093BF018093C0
:1007E000BE0181E090E09093BD018093BC01E09058
:1007F0009001F090910121E0E216F10409F041C06E
:100800008091B6019091B701892B79F4F092B701EC
:10081000E092B6010E94510D6093AA017093AB0162
:100820008093AC019093AD0128C01092B701109253
:10083000B6010E94510D6093A6017093A7018093A9
:10084000A8019093A9018090AA019090AB01A0907B
:10085000AC01B090AD01DC01CB0188199909AA095E
:10086000BB0980939A0190939B01A0939C01B09344
:100870009D01F092B101E092B001109291011092AD
:100880009001E0908E01F0908F0181E0E816F10474
:1008900009F041C08091B4019091B501892B79F4A0
:1008A000F092B501E092B4010E94510D6093A20153
:1008B0007093A3018093A4019093A50128C0109286
:1008C000B5011092B4010E94510D60939E01709386
:1008D0009F018093A0019093A1018090A20190902C
:1008E000A301A090A401B090A501DC01CB0188195F
:1008F0009909AA09BB098093960190939701A09347
:100900009801B0939901F092B301E092B201109274
:100910008F0110928E018091B2019091B3010197E5
:1009200009F08CC0C0909A01D0909B01E0909C018E
:10093000F0909D0121E1C21627E2D206E104F10404
:1009400008F47CC0609196017091970180919801A4
:10095000909199016C197D098E099F09609392010C
:100960007093930180939401909395010E94F713E3
:100970002091000130910101409102015091030149
:100980000E9483144B015C01C701B6010E94F5135C
:100990009B01AC01C501B4010E945C13AB01BC0119
:1009A0004093040150930501609306017093070181
:1009B0006A017B01F7FAF094F7F8F0946091C201B4
:1009C0007091C301882777FD8095982F0E94F713B7
:1009D0009B01AC01C701B6010E9483140E94C4139D
:1009E0009B017093AF016093AE018091C001909123
:1009F000C101820F931F8F3F910519F014F08FEF03
:100A000090E097FF02C080E090E09093C101809356
:100A1000C0011092B3011092B2011092B101109274
:100A2000B0010CC08091BE019091BF019093C101B3
:100A30008093C0011092BD011092BC0180916E01A3
:100A400090916F018437910561F48091C20190917A
:100A5000C301853F91051CF08FEF90E016C00A9608
:100A600014C080916E0190916F0187369105E9F471
:100A70008091C2019091C3018B3091052CF41092AA
:100A8000C3011092C20105C00A979093C3018093DD
:100A9000C2018091C2019091C3019093C1018093E2
:100AA000C00110926F0110926E0180916E019091C1
:100AB0006F018734910549F4809170019091710123
:100AC0009093C3018093C2010FC080916E019091F9
:100AD0006F018634910561F48091700190917101EC
:100AE0009093C1018093C00110926F0110926E012A
:100AF00080916E0190916F018737910509F45BC376
:100B000080916E0190916F018936910509F056C36D
:100B100052C30E948001A7C180916E0190916F0124
:100B20008236910519F40E9494019DC180916E0155
:100B300090916F018337910509F449C380916E014B
:100B400090916F018B36910509F044C340C30E9418
:100B5000A80189C180916E0190916F018E36910537
:100B600019F40E94BC017FC180916E0190916F01C8
:100B70008837910519F40E94D00175C180916E01EA
:100B800090916F018F36910559F4609172017091C7
:100B9000730180917001909171010E942A0163C1DB
:100BA00080916E0190916F018037910559F46091A9
:100BB00072017091730180917001909171010E9496
:100BC000410151C180916E0190916F01863791056D
:100BD00051F480910E010E94CB0F9093BB01809342
:100BE000BA019C0136C080916E0190916F018537EA
:100BF0009105D1F5E0907001F090710161E08E2DCA
:100C00000E94330F60E08E2D0E946B0F82E090E017
:100C10000E94A10D61E08E2D0E946B0F85E090E097
:100C20000E94A10D60E08E2D0E946B0F60E08E2D62
:100C30000E94330F20E432E44FE050E061E08E2D5B
:100C40000E94E30D2AE330E040E050E00E942F15BF
:100C5000C90197FF02C021503F4F3093550160E01A
:100C600071E00E94F9140DC080916E0190916F01A6
:100C70008237910549F48091C2018093550180919A
:100C8000C00180935601E5C080916E0190916F0183
:100C9000469709F4E4C080916E0190916F014597E9
:100CA00039F46DE171E083EA92E00E94D612D7C078
:100CB00080916E0190916F018C36910559F460918D
:100CC00072017091730180917001909171010E9485
:100CD000E401C5C080916E0190916F018536910548
:100CE000B9F460917001709171017093B9016093D2
:100CF000B80184EC91E00E943E090E943F0D609390
:100D00004D0170934E0180934F019093500132C07A
:100D100080916E0190916F01449721F480E180935E
:100D2000550197C080916E0190916F01C39779F43E
:100D300043E050E06EE870E080E00E947F0E43E008
:100D400050E06EE970E081E00E947F0E88C08091E3
:100D50006E0190916F01C49739F481E00E949F0E5B
:100D600080E00E949F0E7BC080916E0190916F0188
:100D7000CD9739F481E090E0909352018093510136
:100D80006EC080916E0190916F01CC9729F4109202
:100D900052011092510163C080916E0190916F01D8
:100DA0008035910569F580917001909171012091D4
:100DB000720130917301982F8827820F931FAA2701
:100DC00097FDA095BA2F80937A0190937B01A09311
:100DD0007C01B0937D0110926F0110926E010E9410
:100DE0003F0D60937E0170937F018093800190930B
:100DF000810181E090E0909379018093780133C084
:100E000080916E0190916F0181359105B9F4109236
:100E10006F0110926E010E943F0D60937E017093EE
:100E20007F0180938001909381011092790110924B
:100E30007801109289011092880115C080916E018D
:100E400090916F01499779F482E080935501109257
:100E5000560182E090E090936B0180936A011092BA
:100E60006F0110926E018091780190917901892B28
:100E700029F10E943F0DC0907E01D0907F01E0904B
:100E80008001F09081016C197D098E099F09C09045
:100E90007A01D0907B01E0907C01F0907D01C61634
:100EA000D706E806F90650F40E94D00110926F01AF
:100EB00010926E01109279011092780180916E016A
:100EC00090916F01C29709F48EC180918801909131
:100ED0008901019709F06AC086C110926F011092D2
:100EE0006E0181E090E09093890180938801809168
:100EF00070019091710197FD01969595879590935A
:100F0000870180938601809170019091710162E068
:100F100070E00E94F9149093850180938401809180
:100F20007201909173012091740130917501982F95
:100F30008827820F931F90938301809382011092E0
:100F40008B0110928A0110928D0110928C01809178
:100F50008601909187012091840130918501892B30
:100F600059F08091820190918301232B81F420918B
:100F70008C0130918D0116C0232BC1F020918A0184
:100F800030918B0180918201909183010BC020915F
:100F90008C0130918D012817390744F020918A0186
:100FA00030918B01281739070CF025C12091880159
:100FB0003091890180914B0190914C01232B11F0CC
:100FC000816001C08E7F90934C0180934B012091F2
:100FD00078013091790180914B0190914C01232B44
:100FE00011F0826001C08D7F90934C0180934B0182
:100FF00080916E0190916F01C59771F5809170019C
:1010000090917101892B29F480918C0190918D012F
:1010100004C080918A0190918B0190935401809338
:10102000530180915301909154019C0197FF02C09C
:1010300021503F4F3093550160E071E00E94F91458
:101040008093560182E090E090936B0180936A0157
:1010500010926F0110926E0180916E0190916F015C
:101060004E9761F4809170019091710190934A01C3
:101070008093490110926F0110926E0180916E0170
:1010800090916F01809709F046C060E070E085E9BB
:1010900092E00E94EE0C8093460161E070E085E9E9
:1010A00092E00E94EE0C8093450162E070E085E9D9
:1010B00092E00E94EE0C80934401909146019E3D87
:1010C00049F490914501943129F480935301109291
:1010D000540106C08FEF9FEF90935401809353010A
:1010E00080915301909154019C0197FF02C02150BF
:1010F0003F4F3093550160E071E00E94F9148093F6
:10110000560182E090E090936B0180936A01109207
:101110006F0110926E0180916E0190916F014F9757
:1011200011F5809170019091710190934A01809323
:1011300049014EED60E070E085E992E00E94F10C1B
:1011400044E161E070E085E992E00E94F10C409199
:10115000490162E070E085E992E00E94F10C109292
:101160006F0110926E018091510190915201892B73
:1011700011F00E9489090E943F0DC0904D01D0904E
:101180004E01E0904F01F09050016C197D098E09DD
:101190009F096131774281059105C0F1109252019A
:1011A0001092510133C0892B09F413CB20CB892B2A
:1011B00009F038CC43CC0E94580155CE80916E0185
:1011C00090916F018136910509F0A6CCA2CC0E94C6
:1011D0006C0149CE80916E0190916F01843691052A
:1011E00009F0B8CCB4CC80916E0190916F01C29798
:1011F00009F0ADCE72CE10926F0110926E010E9476
:10120000D0011092890110928801D0CEFF90EF900A
:10121000DF90CF90BF90AF909F908F90089584EC17
:1012200091E00C941309FC0110828FEF81831382EB
:10123000128282E2848386E985831782168208956A
:10124000CF93DF93EC01862F68839FEF99831B82F6
:101250001A822091CC013091CD013F832E83D0930F
:10126000CD01C093CC0160E00E946B0F61E08881EA
:101270000E94330F81E0DF91CF910895CF92DF92EA
:10128000EF92FF92CF93DF93EC0177FD04C0653BB3
:10129000710524F405C060E070E002C064EB70E00A
:1012A0006983CC802D8130E0D12C2C193D09E12CB3
:1012B000F12C45E0CC0CDD1CEE1CFF1C4A95D1F74F
:1012C000442737FD4095542FE5E0220F331F441F7C
:1012D000551FEA95D1F7DB010E94F11424EB30E0B1
:1012E00040E050E00E942F15C20ED31EE41EF51EF2
:1012F000C701B60120E430E040E050E00E942F1525
:101300003B832A83DF91CF91FF90EF90DF90CF90C6
:1013100008955F926F927F928F929F92AF92BF9249
:10132000CF92DF92EF92FF920F931F93CF93DF93B1
:10133000CDB7DEB70DB71EB7ADB6BEB60E943F0D36
:10134000C090CE01D090CF01E090D001F090D101BB
:101350006C157D058E059F0558F024E1C20ED11C49
:10136000E11CF11C6C157D058E059F0508F49DC0E0
:101370006093CE017093CF018093D0019093D101FF
:10138000E091CC01F091CD01DF01D12C0BC0129680
:101390008D919C911397892B09F0D39416960D90FB
:1013A000BC91A02D109799F7DD2009F47EC08DB770
:1013B0009EB7A2E0DA9E8019910911240FB6F89425
:1013C0009EBF0FBE8DBF019640E00FC022813381CA
:1013D000232B41F0DC01A40FB11DA40FB11DED932F
:1013E000FC934F5F0680F781E02D309779F727C097
:1013F000EC2DF0E03F01660C771C680E791ED301DE
:101400002D913C913197EE0FFF1FE80FF91F40819E
:101410005181D9011296ED90FC901397DA01129642
:101420006D917C911397E616F70638F4D3014D932E
:101430005C933183208399249394C39403C0912CAB
:10144000CC24C394CD14A0F29110F9CF7C014C01AF
:10145000C12CD401ED91FD914D0161E080810E948C
:101460006B0FC394CD10F5CF46B5812C912C512C28
:10147000642E712CD701ED91FD917D0182819381C4
:10148000860D971DC6B4C41608F493944C2D940190
:101490002C0D311D82179307A8F760E080810E9410
:1014A0006B0F53944C2D5D10E5CF8A2D9B2D0FB6FD
:1014B000F8949EBF0FBE8DBF0FB6F8941EBF0FBE2F
:1014C0000DBFDF91CF911F910F91FF90EF90DF90B3
:1014D000CF90BF90AF909F908F907F906F905F90D4
:1014E00008952091050230E080910602281B310901
:1014F000C90108958091060290910502891750F460
:10150000E82FF0E0E95FFD4F208130E08F5F8093AE
:10151000060202C02FEF3FEFC9010895E0910602D5
:1015200080910502E81730F4F0E0E95FFD4F20817B
:1015300030E002C02FEF3FEFC90108950895E09118
:10154000DE01F091DF013097E1F030910602209149
:1015500005023217B0F040E009C0DC01A20FB31F52
:101560005C91D901A95FBD4F5C934F5F242F30E0A0
:101570002617370794F31092060260930502CB01F9
:1015800009940895E091E001F091E101309729F08C
:101590001092E4011092E30109940895CF92DF9232
:1015A000EF92FF920F931F93CF93DF937C01CB01B8
:1015B0008A012091E201222391F0EB016B01C40E1C
:1015C000D51E09C06991D701ED91FC910190F08180
:1015D000E02DC7010995CC15DD05A1F703C0642FE7
:1015E0000E948B0BC801DF91CF911F910F91FF904B
:1015F000EF90DF90CF900895CF93DF931F92CDB7F8
:10160000DEB769832091E2012223D1F02091E3012A
:10161000203240F021E030E0FC013383228320E0DF
:1016200030E015C08091E401E82FF0E0EB51FE4F6F
:10163000998190838F5F8093E4018093E30105C0DB
:1016400061E0CE0101960E948B0B21E030E0C901E0
:101650000F90DF91CF910895FC011382128248EE22
:1016600053E060E070E0448355836683778383E2D0
:1016700091E09183808308951092060210920502F2
:101680001092E4011092E3010C94690BCF93DF9365
:10169000EC01862F0E94870B82EC9AE00E94A90B36
:1016A0008FE99AE00E94A40BCE01DF91CF910C94B8
:1016B0003C0B0C94460B7093DF016093DE010895A0
:1016C0007093E1016093E001089582ED91E00C9444
:1016D0002C0B1092300281E080932E0210922D028A
:1016E00061E082E10E946B0F61E083E10E946B0F79
:1016F000E9EBF0E080818E7F808380818D7F808325
:1017000082E08093B80085E48093BC000895880F40
:101710008093BA000895613298F420913002243009
:1017200089F460932902FC0181E592E0DC0102C0AA
:1017300021912D932A2F281B2617D0F380E008959E
:1017400081E0089582E0089590937202809371027F
:1017500008959093740280937302089585ED8093A9
:10176000BC008091BC0084FDFCCF10923002089533
:1017700085EC8093BC001092300208951F920F9266
:101780000FB60F9211242F933F934F935F936F9354
:101790007F938F939F93AF93BF93EF93FF9380912A
:1017A000B900887F803609F49FC058F5883209F463
:1017B0005BC090F4803109F452C038F4882309F4F6
:1017C000F8C0883009F0F9C04AC0883109F44CC02B
:1017D000803209F0F2C05CC0803409F46BC038F488
:1017E000803309F455C0883309F0E7C054C0803510
:1017F00009F454C0883509F462C0883409F0DDC0AA
:10180000DAC0883909F4CBC0A8F4883709F46CC071
:1018100038F4883609F468C0803709F0CEC064C057
:10182000883809F4BCC0803909F464C0803809F0F4
:10183000C4C060C0803B09F48AC038F4803A09F41F
:101840006BC0883A09F0B9C082C0803C09F4ABC0D3
:10185000883C09F4A8C0883B09F0AFC08DC08091D6
:101860002F028093BB0012C090912C0280912B021A
:10187000981788F580912C02E82FF0E0EF5CFD4F7F
:1018800090819093BB008F5F80932C0285EC88C081
:101890008093270290C08093270256C080912C022B
:1018A0009091BB00E82FF0E0EF5CFD4F90838F5FDD
:1018B00080932C0290912C0280912B026DC080911C
:1018C0002C029091BB00E82FF0E0EF5CFD4F90837D
:1018D0008F5F80932C0280912E0281116CC081E079
:1018E00080932D0284EA60C083E0809330021092DE
:1018F0002802CCCF80912802803208F050C080911D
:1019000028029091BB00E82FF0E0EB58FD4F908348
:101910008F5F80932802BACF80912802803230F402
:10192000E0912802F0E0EB58FD4F10820E94AE0BD0
:1019300060912802E0917102F091720270E085E7F7
:1019400092E00995109228020E94B80B36C084E0FC
:101950008093300210922A0210922902E0917302C1
:10196000F0917402099580912902811105C081E0EE
:10197000809329021092510280912A02E82FF0E010
:10198000EF5AFD4F90819093BB008F5F80932A02A6
:1019900090912A0280912902981708F477CF85E860
:1019A0008093BC000AC085EC8093BC00109230028A
:1019B00004C0109227020E94AE0BFF91EF91BF91DD
:1019C000AF919F918F917F916F915F914F913F91D7
:1019D0002F910F900FBE0F901F901895CB010C9474
:1019E0007115CB01642F0C9479151F920F920FB6CD
:1019F0000F9211242F933F938F939F93AF93BF9395
:101A00008091960290919702A0919802B0919902CC
:101A100030919E02232F285E2D3720F40896A11DB9
:101A2000B11D05C0232F25560996A11DB11D209378
:101A30009E028093960290939702A0939802B0938F
:101A4000990280919A0290919B02A0919C02B09180
:101A50009D020196A11DB11D80939A0290939B0255
:101A6000A0939C02B0939D02BF91AF919F918F91E3
:101A70003F912F910F900FBE0F901F9018950F93CD
:101A80001F938FB7F89400919602109197022091BE
:101A90009802309199028FBFB801C9011F910F912F
:101AA00008950F931F939FB7F89400919A02109195
:101AB0009B0220919C0230919D0286B5A89B06C096
:101AC0008F3F21F00F5F1F4F2F4F3F4F9FBF322F90
:101AD000212F102F0027080F111D211D311D45E05A
:101AE000000F111F221F331F4A95D1F7B801C901FA
:101AF0001F910F910895CF92DF92EF92FF92CF93B3
:101B0000DF936B017C010E94510DEB010EC00E941E
:101B1000510D6C1B7D0B683E734038F081E0C81A94
:101B2000D108E108F108C851DC4FC114D104E10427
:101B3000F10469F7DF91CF91FF90EF90DF90CF90A4
:101B40000895019739F0019729F0880F991F01979F
:101B50000197F1F70895789484B5826084BD84B5C7
:101B6000816084BD85B5826085BD85B5816085BD98
:101B7000EEE6F0E0808181608083E1E8F0E01082B1
:101B8000808182608083E0E8F0E0808181608083F2
:101B9000E1EBF0E0808184608083E0EBF0E0808125
:101BA00081608083EAE7F0E08081846080838081C7
:101BB000826080838081816080838081806880836F
:101BC0001092C10008958F929F92AF92BF92CF92D0
:101BD000DF92EF92FF920F931F93CF93DF9390E0EA
:101BE000FC01E458FF4FD491FC01E057FF4F749182
:101BF000611102C0C0E001C0CD2FDA01C901880F18
:101C0000991FAA1FBB1F54E0B695A7959795879576
:101C10005A95D1F7672F70E0660F771F6C557F4F8D
:101C2000812C912C5401FB010591149110C0C12C01
:101C3000D12C7601C394C80CD91CEA1CFB1C881655
:101C40009906AA06BB0609F448C046015701F801E7
:101C5000E081ED23EC1759F310C0C12CD12C760193
:101C6000C394C80CD91CEA1CFB1C88169906AA064A
:101C7000BB0699F14601570103C0FB010591149180
:101C8000F801E081ED23EC13E8CF88199909AA093E
:101C9000BB0920E030E0A901FB016591749109C006
:101CA000281739074A075B07C1F02F5F3F4F4F4F97
:101CB0005F4FFB01E081ED23EC1791F3A5E1B0E06C
:101CC0000E94E6148B019C01005F1F4F2F4F3F4F76
:101CD000369527951795079503C000E010E0980109
:101CE000B801C901DF91CF911F910F91FF90EF9043
:101CF000DF90CF90BF90AF909F908F9008958230EB
:101D0000E8F4E82FF0E0EE0FFF1FE156FD4F71837E
:101D10006083813041F0809169008C7F842B8093B7
:101D20006900E89A089580916900440F551F440F97
:101D3000551F837F842B80936900E99A0895823030
:101D400068F4813011F0E89801C0E998E82FF0E0DC
:101D5000EE0FFF1FE156FD4F1182108208951F9272
:101D60000F920FB60F9211242F933F934F935F93CF
:101D70006F937F938F939F93AF93BF93EF93FF9353
:101D800080919F029091A002892B29F0E0919F02FF
:101D9000F091A0020995FF91EF91BF91AF919F91B2
:101DA0008F917F916F915F914F913F912F910F9004
:101DB0000FBE0F901F9018951F920F920FB60F92A3
:101DC00011242F933F934F935F936F937F938F9340
:101DD0009F93AF93BF93EF93FF938091A102909154
:101DE000A202892B29F0E091A102F091A2020995AB
:101DF000FF91EF91BF91AF919F918F917F916F91E3
:101E00005F914F913F912F910F900FBE0F901F90B8
:101E10001895833069F028F48130A1F0823011F5F3
:101E200014C08630B1F08730C1F08430D9F404C0DA
:101E3000809180008F7703C0809180008F7D809398
:101E40008000089584B58F7702C084B58F7D84BDEE
:101E500008958091B0008F7703C08091B0008F7D8E
:101E60008093B0000895CF93DF9390E0FC01E45895
:101E7000FF4F4491FC01E057FF4F8491882341F1CB
:101E800090E0880F991FFC01E854FF4F2591349191
:101E9000D90182559F4FFC0185919491C82FD92F6C
:101EA0009FB7F8948C91611106C0409584238C9360
:101EB0008881842308C0623041F4242F2095822336
:101EC0008C938881842B888302C0842B8C939FBF42
:101ED000DF91CF9108950F931F93CF93DF931F92BC
:101EE000CDB7DEB7282F30E0F901E859FF4F8491D4
:101EF000F901E458FF4F1491F901E057FF4F0491A5
:101F00000023D1F0882321F069830E94090F6981A1
:101F1000E02FF0E0EE0FFF1FE255FF4F8591949107
:101F2000DC019FB7F8948C91611103C01095812357
:101F300001C0812B8C939FBF0F90DF91CF911F9198
:101F40000F910895CF93DF93282F30E0F901E859DE
:101F5000FF4F8491F901E458FF4FD491F901E05704
:101F6000FF4FC491CC2389F081110E94090FEC2FFF
:101F7000F0E0EE0FFF1FEC55FF4F85919491DC01CF
:101F80008C918D2321E030E011F420E030E0C90194
:101F9000DF91CF9108958E3008F08E508770209198
:101FA0001C0140E4249F90011124822B80937C002B
:101FB00080917A00806480937A0080917A0086FD17
:101FC000FCCF2091780030917900932F80E0AC0114
:101FD000422B9A01C90108951F93CF93DF93182FC5
:101FE000EB0161E00E94330F209711F460E004C020
:101FF000CF3FD10539F461E0812FDF91CF911F915F
:102000000C946B0FE12FF0E0E859FF4FE491E330BF
:10201000B9F028F4E13051F0E230B1F50CC0E6300F
:1020200019F1E73049F1E43079F514C084B58068DE
:1020300084BDC7BD2EC084B5806284BDC8BD29C023
:1020400080918000806880938000D0938900C09345
:1020500088001FC080918000806280938000D093B0
:102060008B00C0938A0015C08091B0008068809377
:10207000B000C093B3000DC08091B0008062809327
:10208000B000C093B40005C0C038D1050CF0B3CF88
:10209000ADCFDF91CF911F910895FC018485958587
:1020A000FC01E05CFF4F20813181FC01EE5BFF4FC2
:1020B00080819181281B390B2F733327C901089523
:1020C000FC0184859585FC01E05CFF4F40815181D6
:1020D000FC01EE5BFF4F208131814217530741F035
:1020E0000190F081E02DE80FF91F208130E002C05F
:1020F0002FEF3FEFC9010895FC0184859585FC0110
:10210000E05CFF4F40815181FC01EE5BFF4F20817D
:1021100031814217530781F0A081B181A80FB91F07
:102120008C91208131812F5F3F4F2F733327318373
:102130002083282F30E002C02FEF3FEFC901089520
:10214000FC0186859785FC01E05CFF4FDC01AE5BFE
:10215000BF4F408151812D913C91119742175307F8
:10216000C1F70895CF93DF93FC0186859785DC0145
:10217000A05CBF4F2D913C9111972F5F3F4F2F7364
:102180003327EC01CE5BDF4F488159812417350797
:10219000D9F30D90BC91A02DA80FB91F6C93A68503
:1021A000B785A05CBF4F11963C932E93A689B78943
:1021B0002C9181E090E0058C02C0880F991F0A9451
:1021C000E2F7282B2C9381E090E0DF91CF910895E6
:1021D00008951F920F920FB60F9211242F933F93E1
:1021E0004F938F939F93EF93FF934091C6008091FD
:1021F00046039091470301968F73992720914803D6
:10220000309149038217930759F0E0914603F0910A
:102210004703EA5FFC4F4083909347038093460354
:10222000FF91EF919F918F914F913F912F910F903F
:102230000FBE0F901F90189583EA92E00E944D10F8
:10224000892B11F00C94E81008951F920F920FB68D
:102250000F9211242F933F938F939F93EF93FF93AC
:1022600020910203309103038091040390910503B0
:102270002817390731F48091C1008F7D8093C10008
:1022800014C0E0910403F0910503EE53FD4F20814B
:10229000809104039091050301968F739927909381
:1022A0000503809304032093C600FF91EF919F9153
:1022B0008F913F912F910F900FBE0F901F90189507
:1022C000CF92DF92EF92FF92CF93DF93EC016A01FE
:1022D0007B01EC89FD8981E090E00E8C02C0880FC3
:1022E000991F0A94E2F7808360E271EA87E090E048
:1022F000A70196010E940D1521503109410951098C
:102300005695479537952795211580E1380798F020
:10231000EC89FD89108260E970ED83E090E0A7010F
:1023200096010E940D152150310941095109569518
:10233000479537952795E889F9893083EA89FB899C
:102340002083EE89FF89408181E090E09C010A8C26
:1023500002C0220F331F0A94E2F7422B4083EE891A
:10236000FF8940819C010B8C02C0220F331F0A940D
:10237000E2F7422B4083EE89FF8940819C010C8C5F
:1023800002C0220F331F0A94E2F7422B4083EE89EA
:10239000FF8920810D8C02C0880F991F0A94E2F7F3
:1023A000809582238083DF91CF91FF90EF90DF9023
:1023B000CF900895CF93DF93FC0186859785DC014C
:1023C000A05CBF4FEC01CE5BDF4F4D915C9111974C
:1023D0002881398142175307C1F7A689B7894C91E3
:1023E00081E090E09C01028C02C0220F331F0A940E
:1023F000E2F7209524232C93A689B7894C919C0160
:10240000038C02C0220F331F0A94E2F72095242385
:102410002C93A689B7894C919C01048C02C0220F91
:10242000331F0A94E2F7209524232C93A689B789B9
:102430002C91058C02C0880F991F0A94E2F78095B1
:1024400082238C9384859585FC01EE5BFF4F208170
:102450003181FC01E05CFF4F31832083DF91CF911C
:1024600008951092A6021092A50288EE93E0A0E0D3
:10247000B0E08093A7029093A802A093A902B09322
:10248000AA0283E391E09093A4028093A30286E0E2
:1024900093E09093B0028093AF0282EC92E090932D
:1024A000B2028093B10285EC90E09093B4028093E5
:1024B000B30284EC90E09093B6028093B50280EC76
:1024C00090E09093B8028093B70281EC90E09093F3
:1024D000BA028093B90286EC90E09093BC0280939C
:1024E000BB0284E08093BD0283E08093BE0287E05C
:1024F0008093BF0285E08093C00281E08093C10297
:102500000895CF92DF92EF92FF920F931F93CF9394
:10251000DF936C01EB017A01E60EF71E00E010E09C
:102520000BC06991D601ED91FC910190F081E02DF5
:10253000C6010995080F191FCE15DF0591F7C801CF
:10254000DF91CF911F910F91FF90EF90DF90CF908F
:102550000895DB010D900020E9F7AD0141505109CC
:10256000461B570BDC01ED91FC910280F381E02DBD
:102570000994DC01ED91FC910190F081E02D09942A
:102580000F931F93CF93DF93EC016DE00E94B9127C
:102590008C016AE0CE010E94B9129C01200F311F0C
:1025A000C901DF91CF911F910F9108950F931F9350
:1025B000CF93DF93EC010E94A9128C01CE010E94FF
:1025C000C0129801280F391FC901DF91CF911F91C7
:1025D0000F9108950E94AB0D0E94ED01CCE1D1E175
:1025E0000E9487022097E1F30E941C11F9CF5058F6
:1025F000BB27AA270ED04DC13ED130F043D120F0E9
:1026000031F49F3F11F41EF433C10EF4E095E7FB63
:1026100029C1E92F4FD180F3BA17620773078407E6
:10262000950718F071F49EF567C10EF4E0950B2E36
:10263000BA2FA02D0B01B90190010C01CA01A00114
:102640001124FF27591B99F0593F50F4503E68F16F
:102650001A16F040A22F232F342F4427585FF3CFB0
:10266000469537952795A795F0405395C9F77EF481
:102670001F16BA0B620B730B840BBAF09150A1F0CA
:10268000FF0FBB1F661F771F881FC2F70EC0BA0F50
:10269000621F731F841F48F4879577956795B795D8
:1026A000F7959E3F08F0B3CF9395880F08F09927D0
:1026B000EE0F9795879508950CD0EBC0E3D040F0CE
:1026C000DAD030F021F45F3F19F0CCC0511115C1C0
:1026D000CFC0F0D098F39923C9F35523B1F3951BDC
:1026E000550BBB27AA2762177307840738F09F5F33
:1026F0005F4F220F331F441FAA1FA9F333D00E2EA2
:102700003AF0E0E830D091505040E695001CCAF70E
:1027100029D0FE2F27D0660F771F881FBB1F2617D3
:1027200037074807AB07B0E809F0BB0B802DBF01A6
:10273000FF2793585F4F2AF09E3F510568F092C0E3
:10274000DCC05F3FECF3983EDCF3869577956795A8
:10275000B795F7959F5FC9F7880F911D9695879557
:1027600097F90895E1E0660F771F881FBB1F621776
:1027700073078407BA0720F0621B730B840BBA0B34
:10278000EE1F88F7E095089504D06894B111B5C0A4
:10279000089598D088F09F5790F0B92F9927B75196
:1027A000A0F0D1F0660F771F881F991F1AF0BA9515
:1027B000C9F712C0B13081F09FD0B1E008959CC03C
:1027C000672F782F8827B85F39F0B93FCCF386950B
:1027D00077956795B395D9F73EF490958095709568
:1027E00061957F4F8F4F9F4F0895E89409C097FBE5
:1027F0003EF490958095709561957F4F8F4F9F4FD8
:102800009923A9F0F92F96E9BB279395F69587951B
:1028100077956795B795F111F8CFFAF4BB0F11F4DE
:1028200060FF1BC06F5F7F4F8F4F9F4F16C0882385
:1028300011F096E911C0772321F09EE8872F762FBB
:1028400005C0662371F096E8862F70E060E02AF0FC
:102850009A95660F771F881FDAF7880F96958795E8
:1028600097F9089597F99F6780E870E060E0089510
:102870009FEF80EC089500240A9416161706180698
:102880000906089500240A94121613061406050674
:102890000895092E0394000C11F4882352F0BB0F05
:1028A00040F4BF2B11F460FF04C06F5F7F4F8F4F68
:1028B0009F4F089557FD9058440F551F59F05F3FA3
:1028C00071F04795880F97FB991F61F09F3F79F052
:1028D00087950895121613061406551FF2CF4695D4
:1028E000F1DF08C0161617061806991FF1CF869556
:1028F0007105610508940895E894BB27662777273A
:10290000CB0197F908950BD0C4CFB5DF28F0BADF1B
:1029100018F0952309F0A6CFABCF1124EECFCADF74
:10292000A0F3959FD1F3950F50E0551F629FF001E2
:10293000729FBB27F00DB11D639FAA27F00DB11D3B
:10294000AA1F649F6627B00DA11D661F829F2227C4
:10295000B00DA11D621F739FB00DA11D621F839F4B
:10296000A00D611D221F749F3327A00D611D231F21
:10297000849F600D211D822F762F6A2F11249F576F
:1029800050408AF0E1F088234AF0EE0FFF1FBB1F92
:10299000661F771F881F91505040A9F79E3F510531
:1029A00070F060CFAACF5F3FECF3983EDCF38695E2
:1029B00077956795B795F795E7959F5FC1F7FE2BDC
:1029C000880F911D9695879597F908950E944B154C
:1029D000A59F900DB49F900DA49F800D911D112473
:1029E0000895B7FF0C94E6140E94E614821B930B23
:1029F000089597FB072E16F4009407D077FD09D0B1
:102A00000E94571507FC05D03EF4909581959F4F85
:102A10000895709561957F4F0895A1E21A2EAA1B23
:102A2000BB1BFD010DC0AA1FBB1FEE1FFF1FA2177E
:102A3000B307E407F50720F0A21BB30BE40BF50B7B
:102A4000661F771F881F991F1A9469F76095709504
:102A5000809590959B01AC01BD01CF010895052E95
:102A600097FB16F4009407D057FD0DD00E940D156A
:102A700007FC09D07EF490958095709561957F4F05
:102A80008F4F9F4F089550954095309521953F4F1A
:102A90004F4F5F4F0895A29FB001B39FC001A39F06
:102AA00001D0B29F700D811D1124911D0895AA1BA4
:102AB000BB1B51E107C0AA1FBB1FA617B70710F029
:102AC000A61BB70B881F991F5A95A9F7809590955B
:102AD000BC01CD010895EE0FFF1F0590F491E02D8C
:102AE0000994F999FECF92BD81BDF89A992780B5D6
:102AF0000895262FF999FECF1FBA92BD81BD20BD42
:102B00000FB6F894FA9AF99A0FBE01960895F894C0
:022B1000FFCFF5
:102B12000000803F0000803F11001000C800060046
:102B2200060009000E000400080007000120000052
:102B3200000000FC0ACE0A710A7A0A8E0A9E0A0076
:102B4200000000B21081124D107C106010A0100025
:00000001FF
