:100000000C9464000C94C9110C94F6110C948C009F
:100010000C948C000C948C000C948C000C94280D87
:100020000C948C000C948C000C948C000C948C0020
:100030000C948C000C948C000C948C000C948C0010
:100040000C94AB100C948C000C94F4120C943013A0
:100050000C948C000C948C000C948C000C948C00F0
:100060000C946B0A0C948C00000000070002010045
:100070000003040600000000000000000102040864
:100080001020408001020408102001020408102002
:10009000040404040404040402020202020203032E
:1000A00003030303000000002300260029000000D2
:1000B0000000250028002B0000000000240027007D
:1000C0002A001A09120A3C1411241FBECFEFD8E0EF
:1000D000DEBFCDBF11E0A0E0B1E0ECE3FEE202C084
:1000E00005900D92AC33B107D9F715E0ACE3B1E060
:1000F00001C01D92AE3BB107E1F710E0C8ECD0E0C3
:1001000004C02297FE010E940217C23CD107C9F722
:100110000E944B120C941C170C94000080919F01BC
:100120009091A00101969093A00180939F0181E09E
:1001300090E09093A4018093A301089580919D0184
:1001400090919E01019690939E0180939D0181E084
:1001500090E09093A2018093A1010895CF93DF9343
:1001600032C08FED91E00E941E090497C1F41092F5
:100170007E0110927D011092800110927F0180918A
:100180008B0190918C01892B51F00E94F5106093A6
:100190009101709392018093930190939401C09187
:1001A0007F01D09180018FED91E00E942709FE012F
:1001B000EE0FFF1FEF57FE4F918380832196D09360
:1001C0008001C0937F018FED91E00E941E09892B71
:1001D00041F6DF91CF91089580917B0190917C0150
:1001E0000297E1F480913C0190913D01FC01EA59B4
:1001F000FE4F6081019690933D0180933C018FED0D
:1002000091E00E94A90980913C0190913D010297E3
:1002100021F510923D0110923C010EC080917B01AE
:1002200090917C01449769F444E150E066E671E006
:100230008FED91E00E947B0910927C0110927B016E
:100240000895E091DF01F091E0010190F081E02D4F
:10025000609145018FED91E0099408957093D60166
:100260006093D501892B39F060E0809118010E94DC
:10027000AF0F61E006C061E0809118010E94AF0FEE
:1002800060E0809116010C94AF0F7093D4016093DD
:10029000D301892B39F060E0809114010E94AF0FE7
:1002A00061E006C061E0809114010E94AF0F60E040
:1002B000809112010C94AF0F60E0809118010E94B0
:1002C000AF0F61E0809116010E94AF0F60E0809156
:1002D00014010E94AF0F61E0809112010C94AF0FE6
:1002E00061E0809118010E94AF0F60E080911601DB
:1002F0000E94AF0F61E0809114010E94AF0F60E097
:10030000809112010C94AF0F60E0809118010E945F
:10031000AF0F61E0809116010E94AF0F61E0809104
:1003200014010E94AF0F61E0809112010C94AF0F95
:1003300060E0809118010E94AF0F61E0809116018A
:100340000E94AF0F61E0809114010E94AF0F60E046
:10035000809112010C94AF0F61E0809118010E940E
:10036000AF0F61E0809116010E94AF0F60E08091B5
:1003700014010E94AF0F61E0809112010C94AF0F45
:1003800061E0809118010E94AF0F60E0809116013A
:100390000E94AF0F60E0809114010E94AF0F61E0F6
:1003A000809112010C94AF0F61E0809118010E94BE
:1003B000AF0F61E0809116010E94AF0F61E0809164
:1003C00014010E94AF0F61E0809112010C94AF0FF5
:1003D000892B19F480910A0102C0809108010C94C4
:1003E000AF0F43E050E06EE870E080E00E949911AA
:1003F00043E050E06EE970E081E00E94991161E015
:10040000809118010E94770F61E0809116010E948F
:10041000770F61E0809114010E94770F61E0809175
:1004200012010E94770F65E070E087ED91E00E9475
:10043000A80B68E070E08FED91E00E94060A6EEA7A
:1004400070E08FED91E00E94080A6CEE70E08FED95
:1004500091E00E940D0A80910C0190910D01909302
:10046000D4018093D3019093D6018093D50160E0AD
:1004700070E088EA92E00E94F90C8093400161E00C
:1004800070E088EA92E00E94F90C80933F0162E0FC
:1004900070E088EA92E00E94F90C80933E0190910E
:1004A00040019E3D49F490913F01943129F480939D
:1004B000430110924401089584E690E09093440132
:1004C0008093430108958F929F92AF92BF92CF92F3
:1004D000DF92EF92FF926091D3017091D40188274F
:1004E00077FD8095982F0E948C156B017C0160919F
:1004F00043017091440164567109882777FD809506
:10050000982F0E948C159B01AC01C701B6010E9477
:10051000181620E030E048EC52E40E94F1149B01F0
:10052000AC01C701B6010E948D140E9459156F3F9E
:10053000710541F03CF08FEF90E090934201809381
:1005400041010BC077FD05C07093420160934101EA
:1005500004C010924201109241016091D501709146
:10056000D601809110010E94EC0E609141017091C2
:10057000420180910E010E94EC0E809181019091C8
:1005800082010A9781F58091A3019091A4010197BE
:1005900049F461E080910A010E94AF0F1092A4011A
:1005A0001092A3018091A1019091A201019751F4B1
:1005B00061E070E081E090E00E94E8011092A20109
:1005C0001092A10168EC70E080E090E00E9431118F
:1005D00060E080910A010E94AF0F60E070E081E06E
:1005E00090E00E94E80180918101909182010B9737
:1005F000E9F440E855E260E070E087E195E00E94B0
:100600006B1387E195E00E945812892BD1F387E1A3
:1006100095E00E948712813629F46BE687E195E028
:100620000E94BD1287E195E00E94E513809181014F
:10063000909182010C97A9F480918301909184019B
:1006400061E00E94770F6091850170918601809131
:100650008301909184010E94AF0F10928201109249
:10066000810180918101909182010D97C9F480915F
:1006700083019091840160E00E94770F8091830153
:10068000909184010E94E60F8093660182E090E0E1
:1006900090937C0180937B011092820110928101E2
:1006A00080918101909182010E9709F580918301DB
:1006B000909184010E94CB0E9093500180934F0142
:1006C0009C0197FF02C021503F4F3093660160E0CC
:1006D00071E00E948E168093670182E090E0909313
:1006E0007C0180937B0110928201109281018091A4
:1006F0008101909182010F9771F460918501709151
:10070000860180918301909184010E94EC0E1092E9
:100710008201109281018091810190918201409724
:10072000C9F48091850190918601892B31F48091E3
:1007300083019091840160E00BC0809185019091CC
:100740008601892B39F4809183019091840161E0C5
:100750000E94770F20918101309182018091CF0119
:100760009091D0012737310509F428C520918101E6
:10077000309182012337310509F024C51FC58091CE
:10078000D3019091D4019093D2018093D10181E063
:1007900090E09093D0018093CF01E090A301F0907E
:1007A000A40121E0E216F10409F041C08091C901E1
:1007B0009091CA01892B79F4F092CA01E092C901A3
:1007C0000E9407116093BD017093BE018093BF0129
:1007D0009093C00128C01092CA011092C9010E94D2
:1007E00007116093B9017093BA018093BB01909394
:1007F000BC018090BD019090BE01A090BF01B0905F
:10080000C001DC01CB0188199909AA09BB098093B1
:10081000AD019093AE01A093AF01B093B001F092FF
:10082000C401E092C3011092A4011092A301E090D0
:10083000A101F090A20181E0E816F10409F041C0A5
:100840008091C7019091C801892B79F4F092C80179
:10085000E092C7010E9407116093B5017093B60141
:100860008093B7019093B80128C01092C8011092EC
:10087000C7010E9407116093B1017093B201809388
:10088000B3019093B4018090B5019090B601A0900F
:10089000B701B090B801DC01CB0188199909AA0908
:1008A000BB098093A9019093AA01A093AB01B093D7
:1008B000AC01F092C601E092C5011092A201109223
:1008C000A1018091C5019091C601019709F08CC0EA
:1008D000C090AD01D090AE01E090AF01F090B001BA
:1008E00021E1C21627E2D206E104F10408F47CC03B
:1008F0006091A9017091AA018091AB019091AC0126
:100900006C197D098E099F096093A5017093A6015A
:100910008093A7019093A8010E948C15209100015B
:100920003091010140910201509103010E9418167B
:100930004B015C01C701B6010E948A159B01AC0105
:10094000C501B4010E94F114AB01BC014093040144
:100950005093050160930601709307016A017B01C2
:10096000F7FAF094F7F8F0946091D5017091D60100
:10097000882777FD8095982F0E948C159B01AC01EC
:10098000C701B6010E9418160E9459159B01709369
:10099000C2016093C1018091D3019091D401820F73
:1009A000931F8F3F910519F014F08FEF90E097FFA0
:1009B00002C080E090E09093D4018093D301109224
:1009C000C6011092C5011092C4011092C3010CC05F
:1009D0008091D1019091D2019093D4018093D30161
:1009E0001092D0011092CF018091810190918201EB
:1009F0008437910561F48091D5019091D601853FAE
:100A000091051CF08FEF90E016C00A9614C08091FB
:100A100081019091820187369105E9F48091D50199
:100A20009091D6018B3091052CF41092D601109242
:100A3000D50105C00A979093D6018093D501809186
:100A4000D5019091D6019093D4018093D301109257
:100A500082011092810180918101909182018734FD
:100A6000910549F480918301909184019093D6017E
:100A70008093D5010FC080918101909182018634CD
:100A8000910561F480918301909184019093D40148
:100A90008093D30110928201109281018091810193
:100AA000909182018737910509F490C3809181016B
:100AB000909182018936910509F08BC387C30E940A
:100AC0008401DCC18091810190918201823691057F
:100AD00019F40E949801D2C1809181019091820104
:100AE0008337910509F47EC3809181019091820141
:100AF0008B36910509F079C375C30E94AC01BEC164
:100B000080918101909182018E36910519F40E94A5
:100B1000C001B4C180918101909182018837910513
:100B200019F40E94D401AAC180918101909182019F
:100B30008F36910559F460918501709186018091FD
:100B40008301909184010E942E0198C180918101BE
:100B5000909182018037910559F4609185017091DF
:100B6000860180918301909184010E94450186C194
:100B700080918101909182018637910549F486E048
:100B80000E94CB0E9093CE018093CD019C0136C084
:100B9000809181019091820185379105E1F5E09086
:100BA0008301F090840161E08E2D0E94770F60E058
:100BB0008E2D0E94AF0F82E090E00E94571161E0FD
:100BC0008E2D0E94AF0F85E090E00E94571160E0EB
:100BD0008E2D0E94AF0F60E08E2D0E94770F20E4D3
:100BE00032E44FE050E061E08E2D0E940F102AE3C6
:100BF00030E040E050E00E94C416C90197FF02C0F7
:100C000021503F4F3093660160E071E00E948E16E4
:100C10008093670165C08091810190918201459721
:100C200031F589EA92E00E94A70E882309F426C1D3
:100C300061E571E089EA92E00E94D30D80E090E0E6
:100C4000FC01EA59FE4FDC01AF5ABE4F2C912083C4
:100C5000019684319105A4F390934E0180934D0148
:100C600084E190E090937C0180937B0107C18091A7
:100C70008101909182018C36910559F46091850132
:100C80007091860180918301909184010E94E80116
:100C9000C8C0809181019091820185369105B9F497
:100CA00060918301709184017093CC016093CB01BA
:100CB00087ED91E00E94C60B0E94F51060934701FA
:100CC000709348018093490190934A0138C0809104
:100CD000810190918201449751F48EE080936601E6
:100CE00082E090E090937C0180937B019AC0809198
:100CF000810190918201C39779F443E050E06EE85E
:100D000070E080E00E94991143E050E06EE970E0ED
:100D100081E00E94991185C08091810190918201AA
:100D2000C49739F481E00E94B91180E00E94B911A2
:100D300078C08091810190918201CD9739F481E052
:100D400090E090934C0180934B016BC080918101A6
:100D500090918201CC9729F410924C0110924B0192
:100D600060C080918101909182018035910569F583
:100D700080918301909184012091850130918601B9
:100D8000982F8827820F931FAA2797FDA095BA2F27
:100D900080938D0190938E01A0938F01B093900169
:100DA00010928201109281010E94F51060939101CE
:100DB00070939201809393019093940181E090E06D
:100DC00090938C0180938B0159C080918101909107
:100DD000820181359105B9F410928201109281014E
:100DE0000E94F5106093910170939201809393019A
:100DF0009093940110928C0110928B0110929C019F
:100E000010929B013BC08091810190918201469795
:100E100069F4609183017091840189EA92E00E94F3
:100E2000180D109282011092810128C080918101D9
:100E300090918201459711F589EA92E00E94A70EF0
:100E40008823E1F061E571E089EA92E00E94D30D28
:100E500081E08093660180E090E009C0FC01EA59DE
:100E6000FE4FDC01AF5ABE4F2C9121830196843195
:100E70009105A4F390934E0180934D0180918B01D5
:100E800090918C01892B29F10E94F510C09091015D
:100E9000D0909201E0909301F09094016C197D093B
:100EA0008E099F09C0908D01D0908E01E0908F0136
:100EB000F0909001C616D706E806F90650F40E9495
:100EC000D401109282011092810110928C01109233
:100ED0008B018091810190918201C29709F48EC1AA
:100EE00080919B0190919C01019709F06AC086C195
:100EF000109282011092810181E090E090939C0118
:100F000080939B01809183019091840197FD0196CC
:100F10009595879590939A0180939901809183018B
:100F20009091840162E070E00E948E169093980187
:100F3000809397018091850190918601209187018E
:100F400030918801982F8827820F931F90939601E4
:100F50008093950110929E0110929D011092A00124
:100F600010929F018091990190919A01209197018F
:100F700030919801892B59F08091950190919601BB
:100F8000232B81F420919F013091A00116C0232BC7
:100F9000C1F020919D0130919E0180919501909129
:100FA00096010BC020919F013091A00128173907AD
:100FB00044F020919D0130919E01281739070CF0D3
:100FC00025C120919B0130919C0180914501909118
:100FD0004601232B11F0816001C08E7F9093460162
:100FE0008093450120918B0130918C0180914501C6
:100FF00090914601232B11F0826001C08D7F909368
:101000004601809345018091810190918201C597AD
:1010100071F58091830190918401892B29F480914D
:101020009F019091A00104C080919D0190919E012B
:101030009093500180934F0180914F019091500106
:101040009C0197FF02C021503F4F3093660160E042
:1010500071E00E948E168093670182E090E0909389
:101060007C0180937B01109282011092810180911A
:101070008101909182014E9761F48091830190915A
:101080008401909344018093430110928201109255
:1010900081018091810190918201809709F046C081
:1010A00060E070E088EA92E00E94F90C80934001D1
:1010B00061E070E088EA92E00E94F90C80933F01C1
:1010C00062E070E088EA92E00E94F90C80933E01B1
:1010D000909140019E3D49F490913F01943129F453
:1010E00080934F011092500106C08FEF9FEF9093B5
:1010F000500180934F0180914F01909150019C01CC
:1011000097FF02C021503F4F3093660160E071E0CD
:101110000E948E168093670182E090E090937C019C
:1011200080937B0110928201109281018091810154
:10113000909182014F9711F58091830190918401E4
:1011400090934401809343014EED60E070E088EAA3
:1011500092E00E94FC0C44E161E070E088EA92E0D9
:101160000E94FC0C4091430162E070E088EA92E04A
:101170000E94FC0C109282011092810180914B011F
:1011800090914C01892B11F00E94110C0E94F510D6
:10119000C0904701D0904801E0904901F0904A0189
:1011A0006C197D098E099F0961317742810591058E
:1011B000C0F110924C0110924B0133C0892B09F4FD
:1011C000DECAEBCA892B09F003CC0ECC0E945C016D
:1011D00055CE80918101909182018136910509F06F
:1011E00071CC6DCC0E94700149CE809181019091AB
:1011F00082018436910509F083CC7FCC80918101F6
:1012000090918201C29709F0ADCE72CE1092820108
:10121000109281010E94D40110929C0110929B01B6
:10122000D0CEFF90EF90DF90CF90BF90AF909F9087
:101230008F90089587ED91E00C949B0B2091120202
:1012400030E080911302281B3109C9010895809173
:10125000130290911202891750F4E82FF0E0EC5E2F
:10126000FD4F208130E08F5F8093130202C02FEF8B
:101270003FEFC9010895E091130280911202E8172F
:1012800030F4F0E0EC5EFD4F208130E002C02FEF43
:101290003FEFC90108950895E091EB01F091EC0151
:1012A0003097E1F030911302209112023217B0F022
:1012B00040E009C0DC01A20FB31F5C91D901AC5E14
:1012C000BD4F5C934F5F242F30E02617370794F310
:1012D0001092130260931202CB0109940895E091D9
:1012E000ED01F091EE01309729F01092F10110928A
:1012F000F00109940895CF92DF92EF92FF920F933D
:101300001F93CF93DF937C01CB018A012091EF01E2
:10131000222391F0EB016B01C40ED51E09C0699127
:10132000D701ED91FC910190F081E02DC701099565
:10133000CC15DD05A1F703C0642F0E94380AC8014F
:10134000DF91CF911F910F91FF90EF90DF90CF90A1
:101350000895CF93DF931F92CDB7DEB769832091B5
:10136000EF012223D1F02091F001203240F021E062
:1013700030E0FC013383228320E030E015C080910F
:10138000F101E82FF0E0EE50FE4F998190838F5FDE
:101390008093F1018093F00105C061E0CE010196D8
:1013A0000E94380A21E030E0C9010F90DF91CF910F
:1013B0000895FC011382128248EE53E060E070E071
:1013C00044835583668377838FE191E091838083A3
:1013D000089510921302109212021092F1011092CD
:1013E000F0010C94160ACF93DF93EC01862F0E9434
:1013F000340A8FE699E00E94560A8CE499E00E9434
:10140000510ACE01DF91CF910C94E9090C94F309B4
:101410007093EC016093EB0108957093EE0160937B
:10142000ED0108958FED91E00C94D90910923D02E1
:1014300081E080933B0210923A0261E082E10E94D7
:10144000AF0F61E083E10E94AF0FE9EBF0E0808134
:101450008E7F808380818D7F808382E08093B8003F
:1014600085E48093BC000895880F8093BA000895A6
:10147000613298F420913D02243089F46093360261
:10148000FC018EE592E0DC0102C021912D932A2F10
:10149000281B2617D0F380E0089581E0089582E0AC
:1014A000089590937F0280937E0208959093810225
:1014B00080938002089585ED8093BC008091BC00EC
:1014C00084FDFCCF10923D02089585EC8093BC0012
:1014D00010923D0208951F920F920FB60F921124A1
:1014E0002F933F934F935F936F937F938F939F932C
:1014F000AF93BF93EF93FF938091B900887F8036BD
:1015000009F49FC058F5883209F45BC090F480312B
:1015100009F452C038F4882309F4F8C0883009F07F
:10152000F9C04AC0883109F44CC0803209F0F2C0D9
:101530005CC0803409F46BC038F4803309F455C0C2
:10154000883309F0E7C054C0803509F454C08835A9
:1015500009F462C0883409F0DDC0DAC0883909F4C2
:10156000CBC0A8F4883709F46CC038F4883609F485
:1015700068C0803709F0CEC064C0883809F4BCC0A8
:10158000803909F464C0803809F0C4C060C0803B71
:1015900009F48AC038F4803A09F46BC0883A09F03B
:1015A000B9C082C0803C09F4ABC0883C09F4A8C033
:1015B000883B09F0AFC08DC080913C028093BB0096
:1015C00012C09091390280913802981788F5809165
:1015D0003902E82FF0E0E25CFD4F90819093BB0070
:1015E0008F5F8093390285EC88C08093340290C06D
:1015F0008093340256C0809139029091BB00E82F4D
:10160000F0E0E25CFD4F90838F5F80933902909110
:101610003902809138026DC0809139029091BB00EF
:10162000E82FF0E0E25CFD4F90838F5F80933902FA
:1016300080913B0281116CC081E080933A0284EA80
:1016400060C083E080933D0210923502CCCF809140
:101650003502803208F050C0809135029091BB0075
:10166000E82FF0E0EE57FD4F90838F5F80933502B7
:10167000BACF80913502803230F4E0913502F0E04B
:10168000EE57FD4F10820E945B0A60913502E09197
:101690007E02F0917F0270E082E892E0099510925C
:1016A00035020E94650A36C084E080933D021092A4
:1016B000370210923602E0918002F0918102099582
:1016C00080913602811105C081E08093360210922C
:1016D0005E0280913702E82FF0E0E25AFD4F9081E0
:1016E0009093BB008F5F8093370290913702809177
:1016F0003602981708F477CF85E88093BC000AC0BB
:1017000085EC8093BC0010923D0204C0109234021C
:101710000E945B0AFF91EF91BF91AF919F918F91D2
:101720007F916F915F914F913F912F910F900FBEDD
:101730000F901F901895FC0110828FEF8183138208
:10174000128282E2848386E9858317821682089555
:10175000CF93DF93EC01862F68839FEF99831B82E1
:101760001A822091A2023091A3023F832E83D0934C
:10177000A302C093A20260E00E94AF0F61E08881E3
:101780000E94770F81E0DF91CF910895CF92DF9291
:10179000EF92FF92CF93DF93EC0177FD04C0653B9E
:1017A000710524F405C060E070E002C064EB70E0F5
:1017B0006983CC802D8130E0D12C2C193D09E12C9E
:1017C000F12C45E0CC0CDD1CEE1CFF1C4A95D1F73A
:1017D000442737FD4095542FE5E0220F331F441F67
:1017E000551FEA95D1F7DB010E94861624EB30E005
:1017F00040E050E00E94C416C20ED31EE41EF51E47
:10180000C701B60120E430E040E050E00E94C41679
:101810003B832A83DF91CF91FF90EF90DF90CF90B1
:1018200008955F926F927F928F929F92AF92BF9234
:10183000CF92DF92EF92FF920F931F93CF93DF939C
:10184000CDB7DEB70DB71EB7ADB6BEB60E94F51068
:10185000C090A402D090A502E090A602F090A7024A
:101860006C157D058E059F0558F024E1C20ED11C34
:10187000E11CF11C6C157D058E059F0508F49DC0CB
:101880006093A4027093A5028093A6029093A7028E
:10189000E091A202F091A302DF01D12C0BC01296BD
:1018A0008D919C911397892B09F0D39416960D90E6
:1018B000BC91A02D109799F7DD2009F47EC08DB75B
:1018C0009EB7A2E0DA9E8019910911240FB6F89410
:1018D0009EBF0FBE8DBF019640E00FC022813381B5
:1018E000232B41F0DC01A40FB11DA40FB11DED931A
:1018F000FC934F5F0680F781E02D309779F727C082
:10190000EC2DF0E03F01660C771C680E791ED301C8
:101910002D913C913197EE0FFF1FE80FF91F408189
:101920005181D9011296ED90FC901397DA0112962D
:101930006D917C911397E616F70638F4D3014D9319
:101940005C933183208399249394C39403C0912C96
:10195000CC24C394CD14A0F29110F9CF7C014C019A
:10196000C12CD401ED91FD914D0161E080810E9477
:10197000AF0FC394CD10F5CF46B5812C912C512CCF
:10198000642E712CD701ED91FD917D0182819381AF
:10199000860D971DC6B4C41608F493944C2D94017B
:1019A0002C0D311D82179307A8F760E080810E94FB
:1019B000AF0F53944C2D5D10E5CF8A2D9B2D0FB6A4
:1019C000F8949EBF0FBE8DBF0FB6F8941EBF0FBE1A
:1019D0000DBFDF91CF911F910F91FF90EF90DF909E
:1019E000CF90BF90AF909F908F907F906F905F90BF
:1019F0000895CB010C940617CB01642F0C940E179D
:101A0000F89482E08093B00091E09093B10094E666
:101A10009093B3001092B2008093700078948093FA
:101A2000AE02109209058091AD0260E00C94770F30
:101A30006093AD020E94000D64E170E080E090E0F0
:101A40000E94311182E08093AE0210920905089540
:101A50001F920F920FB60F9211242F933F934F9323
:101A60005F936F937F938F939F93AF93BF93EF9306
:101A7000FF938091AD020E94E60F2091AF0230915A
:101A8000B0022F5F3F4F3093B0022093AF0290918E
:101A900009059091AE029330C1F020F4923009F024
:101AA00058C006C0943059F1953009F052C04BC06F
:101AB00081114FC08091AF029091B00284369105A0
:101AC00008F443C0109209051CC0813009F041C0E0
:101AD00020910905E22FF0E08091AF029091B002D1
:101AE000EE0FFF1FEF54FD4F918380832F5F2093F4
:101AF00009051092B0021092AF0284E021C081115A
:101B000017C020910905E22FF0E08091AF0290917B
:101B1000B002EE0FFF1FEF54FD4F918380832F5FC4
:101B2000209309051092B0021092AF0283E008C022
:101B30008091AF029091B0028536910550F085E01A
:101B40008093AE0206C0811104C01092B0021092C0
:101B5000AF02FF91EF91BF91AF919F918F917F91D4
:101B60006F915F914F913F912F910F900FBE0F900A
:101B70001F901895FB0181EB92E091838083809107
:101B80000905828313828091AE02853041F482E0A0
:101B90008093AE021092090521E030E002C020E0FF
:101BA00030E0C90108954F925F927F928F929F9289
:101BB000AF92BF92CF92DF92EF92FF920F931F935B
:101BC000CF93DF932C01FB01DC0112962D913C9108
:101BD00013974901B4E08B1A910897FE04C049019C
:101BE000CBE08C0E911CA4E095948794AA95E1F724
:101BF000D2010D911C9140E050E080E090E078012E
:101C0000B6E0EB0EF11CD701A40FB51F6D917C91CE
:101C1000860F971F4C5F5F4F48325105A1F76AE06E
:101C200070E00E948E167B015B01AA0CBB1CD801E0
:101C3000189640E050E060E070E080E090E08901BC
:101C40000950110901C0A9012D913C911197A216CB
:101C5000B30638F42D913C911197820F931F6F5F5B
:101C60007F4F6A30710549F014969A012E5F3F4FFD
:101C70004A5F5F4F4017510734F30E948E16762E4D
:101C8000DF01169648E050E020E030E0CC24C39419
:101C9000D12C2EC01C928A0187E090E0E20168817D
:101CA0007981600F711FEB0168817981A616B706F3
:101CB00048F4B601082E01C0660F0A94EAF77C9139
:101CC000762B09C0B601082E01C0660F0A94EAF708
:101CD00060957C9176237C9301970C5F1F4F8F3F1B
:101CE000DFEF9D07D9F62F5F3F4F1196405E5F4FA4
:101CF000281539057CF2882D8B5F8083E201A8814D
:101D0000B98112968D919C9113978183A881B98195
:101D100014968D919C9115978283E38274828582BB
:101D200082E08093AE021092090580818F5FDF917F
:101D3000CF911F910F91FF90EF90DF90CF90BF90C8
:101D4000AF909F908F907F905F904F900895CF932A
:101D5000DF93EC01BC010E94BA0D892BC1F08A818E
:101D60009B818034910534F004979C0127703327C0
:101D7000232B31F082E08093AE021092090507C058
:101D8000B4E095958795BA95E1F78A5F01C080E048
:101D9000DF91CF9108958E3008F08E50877020919A
:101DA0001A0140E4249F90011124822B80937C002F
:101DB00080917A00806480937A0080917A0086FD19
:101DC000FCCF2091780030917900932F80E0AC0116
:101DD000422B9A01C90108951F93CF93DF93182FC7
:101DE000EB0161E00E94770F209711F460E004C0DE
:101DF000CF3FD10539F461E0812FDF91CF911F9161
:101E00000C94AF0FE12FF0E0E859FF4FE491E3307D
:101E1000B9F028F4E13051F0E230B1F50CC0E63011
:101E200019F1E73049F1E43079F514C084B58068E0
:101E300084BDC7BD2EC084B5806284BDC8BD29C025
:101E400080918000806880938000D0938900C09347
:101E500088001FC080918000806280938000D093B2
:101E60008B00C0938A0015C08091B0008068809379
:101E7000B000C093B3000DC08091B0008062809329
:101E8000B000C093B40005C0C038D1050CF0B3CF8A
:101E9000ADCFDF91CF911F910895833069F028F481
:101EA0008130A1F0823011F514C08630B1F0873056
:101EB000C1F08430D9F404C0809180008F7703C0D2
:101EC000809180008F7D80938000089584B58F7706
:101ED00002C084B58F7D84BD08958091B0008F7756
:101EE00003C08091B0008F7D8093B0000895CF93A0
:101EF000DF9390E0FC01E458FF4F4491FC01E05770
:101F0000FF4F8491882341F190E0880F991FFC01D5
:101F1000E854FF4F25913491D90182559F4FFC0120
:101F200085919491C82FD92F9FB7F8948C91611106
:101F300006C0409584238C938881842308C0623036
:101F400041F4242F209582238C938881842B8883CD
:101F500002C0842B8C939FBFDF91CF9108950F9384
:101F60001F93CF93DF931F92CDB7DEB7282F30E0BA
:101F7000F901E859FF4F8491F901E458FF4F14919A
:101F8000F901E057FF4F04910023D1F0882321F09D
:101F900069830E944D0F6981E02FF0E0EE0FFF1F73
:101FA000E255FF4F85919491DC019FB7F8948C9195
:101FB000611103C01095812301C0812B8C939FBFB9
:101FC0000F90DF91CF911F910F910895CF93DF93E1
:101FD000282F30E0F901E859FF4F8491F901E458C6
:101FE000FF4FD491F901E057FF4FC491CC2389F002
:101FF00081110E944D0FEC2FF0E0EE0FFF1FEC550A
:10200000FF4F85919491DC018C918D2321E030E08C
:1020100011F420E030E0C901DF91CF9108958F9253
:102020009F92AF92BF92CF92DF92EF92FF920F9367
:102030001F93CF93DF9390E0FC01E458FF4FD491BE
:10204000FC01E057FF4F7491611102C0C0E001C074
:10205000CD2FDA01C901880F991FAA1FBB1F54E0B9
:10206000B695A795979587955A95D1F7672F70E004
:10207000660F771F6C557F4F812C912C5401FB010B
:102080000591149110C0C12CD12C7601C394C80CB9
:10209000D91CEA1CFB1C88169906AA06BB0609F483
:1020A00048C046015701F801E081ED23EC1759F3D0
:1020B00010C0C12CD12C7601C394C80CD91CEA1CC9
:1020C000FB1C88169906AA06BB0699F14601570122
:1020D00003C0FB0105911491F801E081ED23EC139D
:1020E000E8CF88199909AA09BB0920E030E0A901C5
:1020F000FB016591749109C0281739074A075B07EE
:10210000C1F02F5F3F4F4F4F5F4FFB01E081ED2349
:10211000EC1791F3A5E1B0E00E947B168B019C01C6
:10212000005F1F4F2F4F3F4F369527951795079507
:1021300003C000E010E09801B801C901DF91CF9120
:102140001F910F91FF90EF90DF90CF90BF90AF90D5
:102150009F908F9008951F920F920FB60F921124A7
:102160002F933F938F939F93AF93BF9380910A05D3
:1021700090910B05A0910C05B0910D0530911205C1
:10218000232F285E2D3720F40896A11DB11D05C010
:10219000232F25560996A11DB11D2093120580936A
:1021A0000A0590930B05A0930C05B0930D05809143
:1021B0000E0590910F05A0911005B09111050196A3
:1021C000A11DB11D80930E0590930F05A0931005DE
:1021D000B0931105BF91AF919F918F913F912F9136
:1021E0000F900FBE0F901F9018950F931F938FB7EE
:1021F000F89400910A0510910B0520910C0530917F
:102200000D058FBFB801C9011F910F9108950F935C
:102210001F939FB7F89400910E0510910F05209120
:1022200010053091110586B5A89B06C08F3F21F09F
:102230000F5F1F4F2F4F3F4F9FBF322F212F102F68
:102240000027080F111D211D311D45E0000F111F32
:10225000221F331F4A95D1F7B801C9011F910F9171
:102260000895CF92DF92EF92FF92CF93DF936B01AD
:102270007C010E940711EB010EC00E9407116C1B2C
:102280007D0B683E734038F081E0C81AD108E10840
:10229000F108C851DC4FC114D104E104F10469F71D
:1022A000DF91CF91FF90EF90DF90CF90089501974D
:1022B00039F0019729F0880F991F01970197F1F7DD
:1022C0000895789484B5826084BD84B5816084BDAE
:1022D00085B5826085BD85B5816085BDEEE6F0E09F
:1022E000808181608083E1E8F0E0108280818260FB
:1022F0008083E0E8F0E0808181608083E1EBF0E0C2
:10230000808184608083E0EBF0E080818160808365
:10231000EAE7F0E08081846080838081826080834E
:102320008081816080838081806880831092C10079
:1023300008958230E8F4E82FF0E0EE0FFF1FED5E25
:10234000FA4F71836083813041F0809169008C7F06
:10235000842B80936900E89A089580916900440F66
:10236000551F440F551F837F842B80936900E99A82
:102370000895823068F4813011F0E89801C0E9983E
:10238000E82FF0E0EE0FFF1FED5EFA4F1182108292
:1023900008951F920F920FB60F9211242F933F931F
:1023A0004F935F936F937F938F939F93AF93BF935D
:1023B000EF93FF938091130590911405892B29F0D9
:1023C000E0911305F09114050995FF91EF91BF91EC
:1023D000AF919F918F917F916F915F914F913F91BD
:1023E0002F910F900FBE0F901F9018951F920F9274
:1023F0000FB60F9211242F933F934F935F936F93D8
:102400007F938F939F93AF93BF93EF93FF938091AD
:10241000150590911605892B29F0E0911505F0918D
:1024200016050995FF91EF91BF91AF919F918F9103
:102430007F916F915F914F913F912F910F900FBEC0
:102440000F901F901895CF92DF92EF92FF920F930B
:102450001F93CF93DF936C01EB017A01E60EF71E19
:1024600000E010E00BC06991D601ED91FC91019064
:10247000F081E02DC6010995080F191FCE15DF0563
:1024800091F7C801DF91CF911F910F91FF90EF90CD
:10249000DF90CF9008950E9461110E94F101C7E280
:1024A000D3E10E9463022097E1F30E942713F9CF42
:1024B000FC0184859585FC01E05CFF4F2081318122
:1024C000FC01EE5BFF4F80819181281B390B2F733C
:1024D0003327C9010895FC0184859585FC01E05CE2
:1024E000FF4F40815181FC01EE5BFF4F2081318124
:1024F0004217530741F00190F081E02DE80FF91FDA
:10250000208130E002C02FEF3FEFC9010895FC01A8
:1025100084859585FC01E05CFF4F40815181FC0181
:10252000EE5BFF4F208131814217530781F0A0817C
:10253000B181A80FB91F8C91208131812F5F3F4F4E
:102540002F73332731832083282F30E002C02FEFF1
:102550003FEFC9010895FC0186859785FC01E05C89
:10256000FF4FDC01AE5BBF4F408151812D913C910B
:10257000119742175307C1F70895CF93DF93FC01DA
:1025800086859785DC01A05CBF4F2D913C9111970A
:102590002F5F3F4F2F733327EC01CE5BDF4F488116
:1025A000598124173507D9F30D90BC91A02DA80FA0
:1025B000B91F6C93A685B785A05CBF4F11963C935D
:1025C0002E93A689B7892C9181E090E0058C02C0FA
:1025D000880F991F0A94E2F7282B2C9381E090E052
:1025E000DF91CF91089508951F920F920FB60F9229
:1025F00011242F933F934F938F939F93EF93FF93C8
:102600004091C6008091BA059091BB0501968F73E9
:1026100099272091BC053091BD058217930759F089
:10262000E091BA05F091BB05E658FA4F40839093CC
:10263000BB058093BA05FF91EF919F918F914F91C8
:102640003F912F910F900FBE0F901F90189587E12B
:1026500095E00E945812892B11F00C94F312089502
:102660001F920F920FB60F9211242F933F938F93C7
:102670009F93EF93FF93209176053091770580919A
:102680007805909179052817390731F48091C100B8
:102690008F7D8093C10014C0E0917805F091790599
:1026A000EA5CFA4F20818091780590917905019636
:1026B0008F73992790937905809378052093C600AE
:1026C000FF91EF919F918F913F912F910F900FBEAE
:1026D0000F901F901895CF92DF92EF92FF92CF93B9
:1026E000DF93EC016A017B01EC89FD8981E090E0D8
:1026F0000E8C02C0880F991F0A94E2F7808360E273
:1027000071EA87E090E0A70196010E94A21621508D
:102710003109410951095695479537952795211556
:1027200080E1380798F0EC89FD89108260E970ED4E
:1027300083E090E0A70196010E94A2162150310982
:10274000410951095695479537952795E889F989A3
:102750003083EA89FB892083EE89FF89408181E00B
:1027600090E09C010A8C02C0220F331F0A94E2F70A
:10277000422B4083EE89FF8940819C010B8C02C073
:10278000220F331F0A94E2F7422B4083EE89FF8920
:1027900040819C010C8C02C0220F331F0A94E2F787
:1027A000422B4083EE89FF8920810D8C02C0880F67
:1027B000991F0A94E2F7809582238083DF91CF915D
:1027C000FF90EF90DF90CF900895CF93DF93FC01BF
:1027D00086859785DC01A05CBF4FEC01CE5BDF4FA7
:1027E0004D915C9111972881398142175307C1F7A8
:1027F000A689B7894C9181E090E09C01028C02C0CF
:10280000220F331F0A94E2F7209524232C93A689E4
:10281000B7894C919C01038C02C0220F331F0A948C
:10282000E2F7209524232C93A689B7894C919C012B
:10283000048C02C0220F331F0A94E2F72095242350
:102840002C93A689B7892C91058C02C0880F991FFB
:102850000A94E2F7809582238C9384859585FC0108
:10286000EE5BFF4F20813181FC01E05CFF4F318343
:102870002083DF91CF91089510921A0510921905C7
:1028800088EE93E0A0E0B0E080931B0590931C05D8
:10289000A0931D05B0931E058FE291E0909318055B
:1028A000809317058AE795E090932405809323058C
:1028B00086E395E0909326058093250585EC90E0CE
:1028C000909328058093270584EC90E090932A0547
:1028D0008093290580EC90E090932C0580932B0544
:1028E00081EC90E090932E0580932D0586EC90E08E
:1028F0009093300580932F0584E08093310583E029
:102900008093320587E08093330585E0809334051A
:1029100081E08093350508955058BB27AA270ED033
:102920004DC13ED130F043D120F031F49F3F11F43E
:102930001EF433C10EF4E095E7FB29C1E92F4FD116
:1029400080F3BA17620773078407950718F071F4CC
:102950009EF567C10EF4E0950B2EBA2FA02D0B014A
:10296000B90190010C01CA01A0011124FF27591BD4
:1029700099F0593F50F4503E68F11A16F040A22FDA
:10298000232F342F4427585FF3CF4695379527954B
:10299000A795F0405395C9F77EF41F16BA0B620B4A
:1029A000730B840BBAF09150A1F0FF0FBB1F661F91
:1029B000771F881FC2F70EC0BA0F621F731F841FD4
:1029C00048F4879577956795B795F7959E3F08F0FA
:1029D000B3CF9395880F08F09927EE0F97958795B9
:1029E00008950CD0EBC0E3D040F0DAD030F021F401
:1029F0005F3F19F0CCC0511115C1CFC0F0D098F392
:102A00009923C9F35523B1F3951B550BBB27AA276F
:102A100062177307840738F09F5F5F4F220F331FE1
:102A2000441FAA1FA9F333D00E2E3AF0E0E830D0AD
:102A300091505040E695001CCAF729D0FE2F27D0B0
:102A4000660F771F881FBB1F261737074807AB077E
:102A5000B0E809F0BB0B802DBF01FF2793585F4FF3
:102A60002AF09E3F510568F092C0DCC05F3FECF356
:102A7000983EDCF3869577956795B795F7959F5FB8
:102A8000C9F7880F911D9695879597F90895E1E00C
:102A9000660F771F881FBB1F621773078407BA076B
:102AA00020F0621B730B840BBA0BEE1F88F7E095C6
:102AB000089504D06894B111B5C0089598D088F0F5
:102AC0009F5790F0B92F9927B751A0F0D1F0660F1A
:102AD000771F881F991F1AF0BA95C9F712C0B13035
:102AE00081F09FD0B1E008959CC0672F782F882790
:102AF000B85F39F0B93FCCF3869577956795B39574
:102B0000D9F73EF490958095709561957F4F8F4FE2
:102B10009F4F0895E89409C097FB3EF490958095E7
:102B2000709561957F4F8F4F9F4F9923A9F0F92F93
:102B300096E9BB279395F695879577956795B79511
:102B4000F111F8CFFAF4BB0F11F460FF1BC06F5FF7
:102B50007F4F8F4F9F4F16C0882311F096E911C009
:102B6000772321F09EE8872F762F05C0662371F02A
:102B700096E8862F70E060E02AF09A95660F771F3E
:102B8000881FDAF7880F9695879597F9089597F932
:102B90009F6780E870E060E008959FEF80EC089503
:102BA00000240A941616170618060906089500242C
:102BB0000A9412161306140605060895092E0394A6
:102BC000000C11F4882352F0BB0F40F4BF2B11F41A
:102BD00060FF04C06F5F7F4F8F4F9F4F089557FD79
:102BE0009058440F551F59F05F3F71F04795880F7B
:102BF00097FB991F61F09F3F79F087950895121612
:102C000013061406551FF2CF4695F1DF08C01616BD
:102C100017061806991FF1CF86957105610508946E
:102C20000895E894BB2766277727CB0197F9089585
:102C30000BD0C4CFB5DF28F0BADF18F0952309F028
:102C4000A6CFABCF1124EECFCADFA0F3959FD1F36F
:102C5000950F50E0551F629FF001729FBB27F00D4A
:102C6000B11D639FAA27F00DB11DAA1F649F66279F
:102C7000B00DA11D661F829F2227B00DA11D621FEE
:102C8000739FB00DA11D621F839FA00D611D221FA8
:102C9000749F3327A00D611D231F849F600D211D8C
:102CA000822F762F6A2F11249F5750408AF0E1F02F
:102CB00088234AF0EE0FFF1FBB1F661F771F881F78
:102CC00091505040A9F79E3F510570F060CFAACFB8
:102CD0005F3FECF3983EDCF3869577956795B79563
:102CE000F795E7959F5FC1F7FE2B880F911D96958D
:102CF000879597F908950E94E016A59F900DB49FBF
:102D0000900DA49F800D911D11240895B7FF0C9480
:102D10007B160E947B16821B930B089597FB072E50
:102D200016F4009407D077FD09D00E94EC1607FC3A
:102D300005D03EF4909581959F4F089570956195CB
:102D40007F4F0895A1E21A2EAA1BBB1BFD010DC0E7
:102D5000AA1FBB1FEE1FFF1FA217B307E407F5074B
:102D600020F0A21BB30BE40BF50B661F771F881F27
:102D7000991F1A9469F760957095809590959B01BD
:102D8000AC01BD01CF010895052E97FB16F4009408
:102D900007D057FD0DD00E94A21607FC09D07EF483
:102DA00090958095709561957F4F8F4F9F4F0895B7
:102DB00050954095309521953F4F4F4F5F4F089567
:102DC000A29FB001B39FC001A39F01D0B29F700D1D
:102DD000811D1124911D0895AA1BBB1B51E107C041
:102DE000AA1FBB1FA617B70710F0A61BB70B881F9B
:102DF000991F5A95A9F780959095BC01CD0108952A
:102E0000EE0FFF1F0590F491E02D0994F999FECF84
:102E100092BD81BDF89A992780B50895262FF9991A
:102E2000FECF1FBA92BD81BD20BD0FB6F894FA9AAD
:0C2E3000F99A0FBE01960895F894FFCFA8
:102E3C000000803F0000803F11001000C800060019
:102E4C0009000E000400080007000100000000A9A2
:102E5C00097B091E0927093B094B0900000000BD2D
:0C2E6C00122312581287126B12AB1200D6
:00000001FF
