:100000000C9464000C94320D0C945F0D0C948C00D5
:100010000C948C000C948C000C948C000C948C0030
:100020000C948C000C948C000C948C000C948C0020
:100030000C948C000C948C000C948C000C948C0010
:100040000C948C0D0C948C000C9448110C947A1127
:100050000C948C000C948C000C948C000C948C00F0
:100060000C94D50B0C948C000000000800020100D9
:100070000003040700000000000000000102040863
:100080001020408001020408102001020408102002
:10009000040404040404040402020202020203032E
:1000A00003030303000000002300260029000000D2
:1000B0000000250028002B0000000000240027007D
:1000C0002A0023027C0BAA1111241FBECFEFD8E017
:1000D000DEBFCDBF11E0A0E0B1E0E4EDF9E202C087
:1000E00005900D92AE34B107D9F723E0AEE4B1E04C
:1000F00001C01D92AB34B207E1F710E0C8ECD0E0CC
:1001000004C02297FE010E94B414C23CD107C9F773
:100110000E94EE110C94E8140C940000CF92DF9230
:10012000EF92FF920F931F93E82FF92F05C0015014
:1001300011092109310961F1908196239417B9F3CE
:1001400005C0015011092109310911F1908196234F
:100150009413F7CFC12CD12CE12CF12C0AC08FEFD6
:10016000C81AD80AE80AF80A0C151D052E053F051D
:1001700079F080818623841791F36C2D7D2D8E2D4F
:100180009F2D1F910F91FF90EF90DF90CF900895DA
:1001900060E070E080E090E01F910F91FF90EF90A1
:1001A000DF90CF90089580919801909199010196E8
:1001B000909399018093980181E090E090939D0144
:1001C00080939C01089580919601909197010196EA
:1001D000909397018093960181E090E090939B012A
:1001E00080939A0108950C94D2147093CF01609378
:1001F000CE01892B39F060E0809118010E944E0FEA
:1002000061E006C061E0809118010E944E0F60E03D
:10021000809116010C944E0F7093CD016093CC0128
:10022000892B39F060E0809114010E944E0F61E04B
:1002300006C061E0809114010E944E0F60E0809141
:1002400012010C944E0F60E0809118010E944E0F35
:1002500061E0809116010E944E0F60E080911401D0
:100260000E944E0F61E0809112010C944E0F61E0EC
:10027000809118010E944E0F60E0809116010E944B
:100280004E0F61E0809114010E944E0F60E080915A
:1002900012010C944E0F60E0809118010E944E0FE5
:1002A00061E0809116010E944E0F61E0809114017F
:1002B0000E944E0F61E0809112010C944E0F60E09D
:1002C000809118010E944E0F61E0809116010E94FA
:1002D0004E0F61E0809114010E944E0F60E080910A
:1002E00012010C944E0F61E0809118010E944E0F94
:1002F00061E0809116010E944E0F60E08091140130
:100300000E944E0F61E0809112010C944E0F61E04B
:10031000809118010E944E0F60E0809116010E94AA
:100320004E0F60E0809114010E944E0F61E08091B9
:1003300012010C944E0F61E0809118010E944E0F43
:1003400061E0809116010E944E0F61E080911401DE
:100350000E944E0F61E0809112010C944E0F892B88
:1003600019F480910A0102C0809108010C944E0F8B
:10037000CF93DF9343E050E063ED70E080E00E94B4
:10038000020D43E050E063EE70E081E00E94020D58
:1003900061E0809118010E94150F61E080911601C3
:1003A0000E94150F61E0809114010E94150F61E019
:1003B000809112010E94150F65E070E080ED91E0E0
:1003C0000E94470968E070E08EED91E00E94700B9A
:1003D00060E978E08EED91E00E94720B6BEC78E0C2
:1003E0008EED91E00E94770B80910C0190910D01B0
:1003F0009093CD018093CC019093CF018093CE0157
:1004000080E090E00E94F300D82F8093520181E0B9
:1004100090E00E94F300C82F8093510182E090E0A9
:100420000E94F30080935001DE3D21F4C43111F4A9
:1004300090E002C084E690E09093560180935501CD
:10044000DF91CF91089580ED91E00C943A098F925D
:100450009F92AF92BF92CF92DF92EF92FF92CF9393
:10046000DF936091CC017091CD01882777FD809555
:10047000982F0E9452136B017C016091550170917D
:10048000560164567109882777FD8095982F0E9440
:1004900052139B01AC01C701B6010E94DE1320E09C
:1004A00030E048EC52E40E94B7129B01AC01C70156
:1004B000B6010E9453120E941F136F3F710541F055
:1004C0003CF08FEF90E090935401809353010BC068
:1004D00077FD05C0709354016093530104C01092DE
:1004E0005401109253016091CE017091CF0180911F
:1004F00010010E948D0E6091530170915401809102
:100500000E010E948D0E80917A0190917B010A97D5
:1005100081F580919C0190919D01019749F461E0E2
:1005200080910A010E944E0F10929D0110929C0131
:1005300080919A0190919B01019751F461E070E0E4
:1005400081E090E00E94AF0110929B0110929A010D
:1005500068EC70E080E090E00E94050E60E0809121
:100560000A010E944E0F60E070E081E090E00E947E
:10057000AF0180917A0190917B010B9721F526E0E4
:1005800040E855E260E070E08EEA92E00E94D01010
:100590008EEA92E00E94ED0F892BD1F38EEA92E071
:1005A0000E940610813659F4E091AE02F091AF023C
:1005B0000190F081E02D6BE68EEA92E009958EEADB
:1005C00092E00E942C1180917A0190917B010C970E
:1005D000A9F480917C0190917D0161E00E94150F4A
:1005E00060917E0170917F0180917C0190917D01ED
:1005F0000E944E0F10927B0110927A0180917A0135
:1006000090917B010D97D9F480917C0190917D01AF
:1006100060E00E94150F80917C0190917D010E9405
:10062000840F809361011092620182E090E09093C8
:1006300077018093760110927B0110927A0180916C
:100640007A0190917B010E9709F580917C01909140
:100650007D010E94700E9093600180935F019C0168
:1006600097FF02C021503F4F3093610160E071E07D
:100670000E9441148093620182E090E090937701A0
:100680008093760110927B0110927A0180917A0119
:1006900090917B010F9771F460917E0170917F01C1
:1006A00080917C0190917D010E948D0E10927B01C2
:1006B00010927A0180917A0190917B014097E9F440
:1006C00080917E0190917F01892B31F480917C0192
:1006D00090917D0160E00BC080917E0190917F013F
:1006E000019739F480917C0190917D0161E00E9435
:1006F000150F10927B0110927A0120917A013091AE
:100700007B018091C8019091C9012737310541F0E3
:1007100020917A0130917B012337310509F028C1FE
:10072000892B71F48091CC019091CD019093CB01F4
:100730008093CA0181E090E09093C9018093C80141
:10074000A0909C01B0909D0121E0A216B10409F097
:1007500041C08091C2019091C301892B79F4B0927C
:10076000C301A092C2010E94E20D6093B601709392
:10077000B7018093B8019093B90128C01092C301CA
:100780001092C2010E94E20D6093B2017093B30116
:100790008093B4019093B501C090B601D090B70199
:1007A000E090B801F090B901DC01CB018C199D09F2
:1007B000AE09BF098093A6019093A701A093A80159
:1007C000B093A901B092BD01A092BC0110929D010D
:1007D00010929C01A0909A01B0909B0181E0A81614
:1007E000B10409F041C08091C0019091C101892BF1
:1007F00079F4B092C101A092C0010E94E20D609311
:10080000AE017093AF018093B0019093B10128C005
:100810001092C1011092C0010E94E20D6093AA01E2
:100820007093AB018093AC019093AD01C090AE0189
:10083000D090AF01E090B001F090B101DC01CB01AC
:100840008C199D09AE09BF098093A2019093A30161
:10085000A093A401B093A501B092BF01A092BE01E4
:1008600010929B0110929A018091BE019091BF015C
:10087000019709F08BC0C090A601D090A701E0902D
:10088000A801F090A90121E1C21627E2D206E104F5
:10089000F10408F47BC06091A2017091A3018091E2
:1008A000A4019091A5016C197D098E099F0960939F
:1008B0009E0170939F018093A0019093A1010E94DB
:1008C0005213209100013091010140910201509199
:1008D00003010E94DE134B015C01C701B6010E94B7
:1008E00050139B01AC01C501B4010E94B712609383
:1008F00004017093050180930601909307016B0139
:100900007C01F7FAF094F7F8F0946091CE017091C1
:10091000CF01882777FD8095982F0E9452139B0165
:10092000AC01C701B6010E94DE130E941F13709331
:10093000BB016093BA012091CC013091CD01260F0B
:10094000371F2F3F310519F014F02FEF30E037FF3C
:1009500002C020E030E03093CD012093CC01109212
:10096000BF011092BE011092BD011092BC010EC0D9
:10097000892B61F08091CA019091CB019093CD01B8
:100980008093CC011092C9011092C80180917A0124
:1009900090917B018437910561F48091CE01909113
:1009A000CF01853F91051CF08FEF90E016C00A96AD
:1009B00014C080917A0190917B0187369105E9F40A
:1009C0008091CE019091CF018B3091052CF4109243
:1009D000CF011092CE0105C00A979093CF0180936A
:1009E000CE018091CE019091CF019093CD01809363
:1009F000CC0110927B0110927A0180917A01909142
:100A00007B018734910549F480917C0190917D01AF
:100A10009093CF018093CE010FC080917A01909185
:100A20007B018634910561F480917C0190917D0178
:100A30009093CD018093CC0110927B0110927A01AA
:100A400080917A0190917B018737910541F08091E7
:100A50007A0190917B018936910509F089C10E9444
:100A600023018091840190918501892B29F10E94B5
:100A7000D60DC0908A01D0908B01E0908C01F0904F
:100A80008D016C197D098E099F09C0908601D09057
:100A90008701E0908801F0908901C616D706E80624
:100AA000F90650F40E949B0110927B0110927A018A
:100AB000109285011092840180917A0190917B01BE
:100AC000C29739F08091940190919501019709F0B6
:100AD00063C080917A0190917B01C297D1F5109209
:100AE0007B0110927A0181E090E0909395018093D0
:100AF000940180917C0190917D0197FD01969595DF
:100B00008795909393018093920180917C019091BD
:100B10007D0162E070E00E94411490939101809306
:100B2000900180917E0190917F0120918001309110
:100B30008101982F8827820F931F90938F018093B4
:100B40008E011092970110929601109299011092C5
:100B500098018091920190919301209190013091A0
:100B60009101892B09F4B8C280918E0190918F0177
:100B7000232B09F0BDC220919801309199012817CB
:100B8000390754F010927B0110927A010E949B0168
:100B90001092950110929401209194013091950149
:100BA0008091570190915801232B11F0816001C071
:100BB0008E7F90935801809357012091840130914A
:100BC00085018091570190915801232B11F082608B
:100BD00001C08D7F909358018093570180917A01D5
:100BE00090917B01C59771F580917C0190917D0179
:100BF000892B29F4809198019091990104C08091EA
:100C00009601909197019093600180935F0180918C
:100C10005F01909160019C0197FF02C021503F4FFE
:100C20003093610160E071E00E94411480936201A1
:100C300082E090E0909377018093760110927B019F
:100C400010927A0180917A0190917B014E9761F424
:100C500080917C0190917D01909356018093550184
:100C600010927B0110927A0180917A0190917B0120
:100C70008097D9F580E090E00E94F300D82F809310
:100C8000520181E090E00E94F300C82F809351014F
:100C900082E090E00E94F30080935001DE3D21F459
:100CA000C43111F490E002C08FEF9FEF9093600188
:100CB00080935F0180915F01909160019C0197FF9B
:100CC00002C021503F4F3093610160E071E00E940B
:100CD00041148093620182E090E0909377018093C9
:100CE000760110927B0110927A0180917A019091A5
:100CF0007B014F97E1F480917C0190917D0190936D
:100D00005601809355016EED80E090E00E94DA1468
:100D100064E181E090E00E94DA146091550182E084
:100D200090E00E94DA1410927B0110927A01809177
:100D30005D0190915E01892B11F00E94AF090E9424
:100D4000D60DC0905901D0905A01E0905B01F0900F
:100D50005C016C197D098E099F096131774281051B
:100D6000910508F4D2C110925E0110925D01CDC1CF
:100D700080917A0190917B018136910519F40E944E
:100D80004B016FCE80917A0190917B018236910563
:100D900019F40E945F0165CE80917A0190917B01E8
:100DA0008337910539F080917A0190917B018B36E0
:100DB000910519F40E94370154CE80917A019091E7
:100DC0007B018436910519F40E9473014ACE80910B
:100DD0007A0190917B018E36910519F40E9487016A
:100DE00040CE80917A0190917B018837910519F46A
:100DF0000E949B0136CE80917A0190917B018F36C3
:100E0000910559F460917E0170917F0180917C0180
:100E100090917D010E94F50024CE80917A019091FD
:100E20007B018037910559F460917E0170917F01BB
:100E300080917C0190917D010E940C0112CE8091E5
:100E40007A0190917B018637910579F486E00E94C2
:100E5000700E9093C7018093C6019C0197FF02C05A
:100E600021503F4F309361013EC080917A019091B3
:100E70007B018537910509F047C0E0907C01F09037
:100E80007D0161E08E2D0E94150F60E08E2D0E9485
:100E90004E0F82E090E00E942D0E61E08E2D0E94A8
:100EA0004E0F85E090E00E942D0E60E08E2D0E9496
:100EB0004E0F60E08E2D0E94150F20E432E44FE0CB
:100EC00050E061E08E2D0E94AD0F2AE330E040E05B
:100ED00050E00E947714C901B90137FF02C0615088
:100EE0007F4F7093610160E071E00E944114809334
:100EF000620182E090E090937701809376011092F6
:100F00007B0110927A01ADCD80917A0190917B01A5
:100F10008237910539F48091CE01809361018091EF
:100F2000CC01E5CF80917A0190917B01469739F30E
:100F300080917A0190917B01459739F46BE171E0E2
:100F40008EEA92E00E943F12DACF80917A0190916E
:100F50007B018C36910559F460917E0170917F017F
:100F600080917C0190917D010E94AF01C8CF80915A
:100F70007A0190917B0185369105B9F460917C01ED
:100F800070917D017093C5016093C40180ED91E083
:100F90000E9465090E94D60D6093590170935A0111
:100FA00080935B0190935C0132C080917A019091B3
:100FB0007B01449721F48FE0809361019ACF809167
:100FC0007A0190917B01C39779F443E050E063ED9F
:100FD00070E080E00E94020D43E050E063EE70E0BC
:100FE00081E00E94020D8BCF80917A0190917B016C
:100FF000C49739F481E00E94220D80E00E94220D06
:101000007ECF80917A0190917B01CD9739F481E078
:1010100090E090935E0180935D0171CF80917A01A1
:1010200090917B01CC9729F410925E0110925D01A2
:1010300066CF80917A0190917B018035910569F5A9
:1010400080917C0190917D0120917E0130917F0102
:10105000982F8827820F931FAA2797FDA095BA2F54
:101060008093860190938701A0938801B0938901B2
:1010700010927B0110927A010E94D60D60938A0132
:1010800070938B0180938C0190938D0181E090E0AF
:101090009093850180938401E4CC80917A019091B2
:1010A0007B018135910509F0DCCC10927B01109217
:1010B0007A010E94D60D60938A0170938B01809310
:1010C0008C0190938D0110928501109284011092F1
:1010D000950110929401C5CC232B09F45DCD20918C
:1010E00096013091970180918E0190918F0147CDAB
:1010F0002091980130919901281739070CF44CCDB3
:1011000020919601309197013ACDDF91CF91FF90D8
:10111000EF90DF90CF90BF90AF909F908F90089509
:10112000CF93DF938EED91E00E948D0A892B81F1A0
:101130008EED91E00E948D0A0497A1F4109279013E
:10114000109278018091840190918501892B51F052
:101150000E94D60D60938A0170938B0180938C015D
:1011600090938D01C0917801D0917901CE010196C3
:1011700090937901809378018EED91E00E94950A19
:10118000FE01EE0FFF1FE658FE4F91838083CACF0A
:10119000DF91CF9108958091760190917701029728
:1011A000F9F480914E0190914F019C012F5F3F4FC8
:1011B00030934F0120934E01FC01EF59FE4F6081A7
:1011C0008EED91E00E94140B80914E0190914F01A1
:1011D000029709F04EC010924F0110924E010EC0BE
:1011E0008091760190917701449769F444E150E051
:1011F00061E671E08EED91E00E94E70A10927701BE
:10120000109276010895809176019091770145972B
:1012100021F580914E0190914F019C012F5F3F4F2E
:1012200030934F0120934E01FC01EF59FE4F608136
:101230008EED91E00E94140B80914E0190914F0130
:101240004597B9F410924F0110924E011092770118
:1012500010927601109261010895E091DE01F09103
:10126000DF010190F081E02D609157018EED91E05A
:1012700009940895FC0110828FEF818313821282FA
:1012800082E2848386E98583178216820895CF934C
:10129000DF93EC01862F68839FEF99831B821A826C
:1012A0002091DC013091DD013F832E83D093DD015D
:1012B000C093DC0160E00E944E0F61E088810E94D3
:1012C000150F81E0DF91CF910895CF92DF92EF92D9
:1012D000FF92CF93DF93EC0177FD06C0653B71056C
:1012E0002CF064EB70E002C060E070E06983CC80B9
:1012F0002D8130E0D12C2C193D09E12CF12C45E059
:10130000CC0CDD1CEE1CFF1C4A95D1F7442737FDA1
:101310004095542FE5E0220F331F441F551FEA95D7
:10132000D1F7DB010E94961424EB30E040E050E05E
:101330000E947714C20ED31EE41EF51EC701B6012B
:1013400020E430E040E050E00E9477143B832A83A1
:10135000DF91CF91FF90EF90DF90CF9008957F9233
:101360008F929F92AF92BF92CF92DF92EF92FF92B5
:101370000F931F93CF93DF93CDB7DEB70DB71EB793
:101380000E94D60DC090D801D090D901E090DA012A
:10139000F090DB016C157D058E059F0558F024E16A
:1013A000C20ED11CE11CF11C6C157D058E059F053C
:1013B00008F49BC06093D8017093D9018093DA013F
:1013C0009093DB01E091DC01F091DD01DF01B12CB4
:1013D000109761F012968D919C911397892B09F0CB
:1013E000B39416960D90BC91A02DF2CFBB2009F4BA
:1013F0007CC08DB79EB7A2E0BA9E801991091124D6
:101400000FB6F8949EBF0FBE8DBF01967C0120E001
:10141000309781F082819381892B41F0D701A20F0F
:10142000B11DA20FB11DED93FC932F5F0680F781D4
:10143000E02DEECFC12CDD24D394DB1438F5ED2D57
:10144000F0E04F01880C991C8E0C9F1CD4018D91EB
:101450009C913197EE0FFF1FEE0DFF1D2081318112
:10146000DC0112966D917C911397D90112964D91E2
:101470005C9113976417750738F4D4012D933C934E
:1014800091838083CC24C394D394D7CFC110D2CF7F
:101490006701A12CD601ED91FD916D0161E0808184
:1014A0000E944E0FA394AB10F5CFA6B4C12CD12C43
:1014B000712C8A2C912CD701ED91FD917D018281B7
:1014C0009381880D991D2A2DA6B4A21608F4D394F1
:1014D00096012A0D311D82179307A8F760E08081DD
:1014E0000E944E0F73947B10E6CF0FB6F8941EBF88
:1014F0000FBE0DBF0FB6F8941EBF0FBE0DBFDF911C
:10150000CF911F910F91FF90EF90DF90CF90BF9000
:10151000AF909F908F907F9008958091110290E0FE
:1015200020911202821B910908952091120280914C
:101530001102281750F4E22FF0E0ED5EFD4F80819C
:1015400090E02F5F2093120208958FEF9FEF089590
:10155000E091120280911102E81730F4F0E0ED5EA4
:10156000FD4F808190E008958FEF9FEF08950895DB
:10157000E091EA01F091EB013097E1F03091120235
:10158000209111023217B0F040E0242F30E02617EE
:10159000370754F4DC01A20FB31F5C91D901AD5E93
:1015A000BD4F5C934F5FF1CF109212026093110216
:1015B000CB0109940895E091EC01F091ED01309791
:1015C00029F01092F0011092EF0109940895CF9242
:1015D000DF92EF92FF920F931F93CF93DF937C01E3
:1015E000CB018A012091EE01222389F0EB016B01EE
:1015F000C40ED51ECC15DD0569F06991D701ED91BA
:10160000FC910190F081E02DC7010995F3CF642F83
:101610000E94A20BC801DF91CF911F910F91FF9003
:10162000EF90DF90CF900895CF93DF931F92CDB7C7
:10163000DEB769832091EE012223D1F02091EF01E2
:10164000203240F021E030E0FC013383228380E04F
:1016500090E015C08091F001E82FF0E0EF50FE4FD0
:10166000998190838F5F8093F0018093EF0105C093
:1016700061E0CE0101960E94A20B81E090E00F9004
:10168000DF91CF910895FC011382128248EE53E05E
:1016900060E070E0448355836683778381E291E064
:1016A0009183808308951092120210921102109279
:1016B000F0011092EF010C94800BCF93DF93EC01BB
:1016C000862F0E949E0B8BED9AE00E94C00B88EB48
:1016D0009AE00E94BB0BCE01DF91CF910C94530B8B
:1016E0000C945D0B7093EB016093EA010895709385
:1016F000ED016093EC0108958EED91E00C94430BA5
:101700001092A00281E080939E0210929D0261E0FF
:1017100082E10E944E0F61E083E10E944E0FE9EBEF
:10172000F0E080818E7F808380818D7F808382E066
:101730008093B80085E48093BC000895880F80935F
:10174000BA000895613298F42091A002243089F4FF
:1017500060935502FC0187E592E0DC012A2F281BEB
:10176000261718F421912D93F9CF80E0089581E098
:10177000089582E0089590939A02809399020895C3
:1017800090939C0280939B02089585ED8093BC000A
:101790008091BC0084FDFCCF1092A002089585ECDE
:1017A0008093BC001092A00208951F920F920FB672
:1017B0000F9211242F933F934F935F936F937F93D7
:1017C0008F939F93AF93BF93EF93FF938091B90053
:1017D000887F803609F49CC068F5883209F45BC0C4
:1017E00090F4803109F454C038F4882309F4F5C02A
:1017F000883009F44DC0F5C0883109F44CC08032FE
:1018000009F45DC0EEC0803409F468C048F4803348
:1018100009F455C0883309F0E4C080933302A8C0AE
:10182000803509F44FC0883509F45DC0883409F06B
:10183000D8C0D5C0883909F4C6C0A8F4883709F4DF
:1018400067C038F4883609F463C0803709F460C093
:10185000C8C0883809F4B7C0803909F45FC080383F
:1018600009F0BFC05BC0803B09F485C038F4803A02
:1018700009F466C0883A09F47EC0B3C0803C09F41C
:10188000A6C0883C09F4A3C0883B09F489C0A9C05C
:1018900080919F0210C090917802809177029817F2
:1018A00070F5E091780281E08E0F80937802F0E08D
:1018B000E758FD4F80818093BB0085EC85C0809305
:1018C00033028DC0E091780281E08E0F8093780220
:1018D0008091BB00F0E0E758FD4F80839091780243
:1018E000809177026DC0E091780281E08E0F809345
:1018F00078028091BB00F0E0E758FD4F8083809133
:101900009E0281116CC081E080939D0284EA60C0D8
:1019100083E08093A00210923402CFCF80913402F2
:10192000803208F050C0E091340281E08E0F809345
:1019300034028091BB00F0E0EB5CFD4F8083BDCFB3
:1019400080913402803230F4E0913402F0E0EB5CBC
:10195000FD4F10820E94C50B6091340270E0E0914F
:101960009902F0919A0285E392E00995109234026F
:101970000E94CF0B36C084E08093A00210925602E2
:1019800010925502E0919B02F0919C020995809182
:101990005502811105C081E08093550210925702D3
:1019A000E091560281E08E0F80935602F0E0E95AF2
:1019B000FD4F80818093BB0090915602809155022B
:1019C000981708F47ACF85E88093BC000AC085ECAC
:1019D0008093BC001092A00204C0109233020E94B7
:1019E000C50BFF91EF91BF91AF919F918F917F9127
:1019F0006F915F914F913F912F910F900FBE0F907C
:101A00001F9018958230E8F4E82FF0E0EE0FFF1FEA
:101A1000EF55FD4F71836083813041F08091690003
:101A20008C7F842B80936900E89A089580916900E7
:101A3000440F551F440F551F837F842B80936900EB
:101A4000E99A0895823068F4813011F0E89801C075
:101A5000E998E82FF0E0EE0FFF1FEF55FD4F1182E0
:101A6000108208951F920F920FB60F9211242F9398
:101A70003F934F935F936F937F938F939F93AF9316
:101A8000BF93EF93FF938091A1029091A202892BC3
:101A900029F0E091A102F091A2020995FF91EF9146
:101AA000BF91AF919F918F917F916F915F914F9176
:101AB0003F912F910F900FBE0F901F9018951F927E
:101AC0000F920FB60F9211242F933F934F935F9372
:101AD0006F937F938F939F93AF93BF93EF93FF93F6
:101AE0008091A3029091A402892B29F0E091A30296
:101AF000F091A4020995FF91EF91BF91AF919F9151
:101B00008F917F916F915F914F913F912F910F90A6
:101B10000FBE0F901F9018951F920F920FB60F9245
:101B200011242F933F938F939F93AF93BF938091F3
:101B3000A6029091A702A091A802B091A9023091AB
:101B4000A50228E1230F2D3720F40896A11DB11D11
:101B500005C02BE9230F0996A11DB11D2093A502F5
:101B60008093A6029093A702A093A802B093A90223
:101B70008091AA029091AB02A091AC02B091AD020B
:101B80000196A11DB11D8093AA029093AB02A09370
:101B9000AC02B093AD02BF91AF919F918F913F91F5
:101BA0002F910F900FBE0F901F9018952FB7F8949C
:101BB0006091A6027091A7028091A8029091A9025B
:101BC0002FBF08953FB7F8948091AA029091AB027D
:101BD000A091AC02B091AD0226B5A89B05C02F3FE5
:101BE00019F00196A11DB11D3FBF6627782F892FDF
:101BF0009A2F620F711D811D911D45E0660F771FA1
:101C0000881F991F4A95D1F70895CF92DF92EF92DE
:101C1000FF92CF93DF936B017C010E94E20DEB01F9
:101C2000C114D104E104F10489F00E9451120E9410
:101C3000E20D6C1B7D0B683E734090F381E0C81A87
:101C4000D108E108F108C851DC4FEACFDF91CF910C
:101C5000FF90EF90DF90CF9008958A31910538F092
:101C6000469796958795969587950197F1F70895EC
:101C7000789484B5826084BD84B5816084BD85B567
:101C8000826085BD85B5816085BDEEE6F0E080812E
:101C900081608083E1E8F0E010828081826080834F
:101CA000E0E8F0E0808181608083E1EBF0E080811A
:101CB00084608083E0EBF0E0808181608083EAE7EC
:101CC000F0E080818460808380818D7F808380814B
:101CD0008E7F80838081806880831092C100089508
:101CE0008E3008F08E50877020911A0190E4299F61
:101CF00090011124822B80937C0080917A00806473
:101D000080937A0080917A0086FDFCCF80917800E4
:101D10002091790090E0922B08951F93CF93DF9349
:101D2000182FEB0161E00E94150F209711F460E07D
:101D300004C0CF3FD10539F461E0812FDF91CF910D
:101D40001F910C944E0FE12FF0E0E859FF4FE49102
:101D5000E330F9F048F4E130B9F0E230A1F584B5B0
:101D6000806284BDC8BD34C0E730E9F0E83019F1C5
:101D7000E43049F580918000806280938000D093A8
:101D80008B00C0938A0024C084B5806884BDC7BD21
:101D90001FC080918000806880938000D09389006C
:101DA000C093880015C08091B00080688093B00017
:101DB000C093B3000DC08091B00080628093B000EA
:101DC000C093B40005C0C038D1050CF0B5CFAFCF7B
:101DD000DF91CF911F910895833081F028F48130F5
:101DE00099F08230A1F008958730A9F08830B9F0D9
:101DF0008430D1F4809180008F7D03C08091800079
:101E00008F7780938000089584B58F7702C084B562
:101E10008F7D84BD08958091B0008F7703C080913D
:101E2000B0008F7D8093B0000895CF93DF9390E052
:101E3000FC01E458FF4F2491FC01E057FF4F8491CF
:101E4000882349F190E0880F991FFC01E854FF4F67
:101E5000A591B49182559F4FFC01C591D4919FB734
:101E6000611108C0F8948C91209582238C9388810D
:101E700082230AC0623051F4F8948C91322F30954D
:101E800083238C938881822B888304C0F8948C915F
:101E9000822B8C939FBFDF91CF9108950F931F9357
:101EA000CF93DF931F92CDB7DEB7282F30E0F90133
:101EB000E859FF4F8491F901E458FF4F1491F9015B
:101EC000E057FF4F04910023C9F0882321F0698374
:101ED0000E94EC0E6981E02FF0E0EE0FFF1FE2554B
:101EE000FF4FA591B4919FB7F8948C91611103C0F5
:101EF0001095812301C0812B8C939FBF0F90DF91A0
:101F0000CF911F910F910895CF93DF93282F30E049
:101F1000F901E859FF4F8491F901E458FF4FD4913A
:101F2000F901E057FF4FC491CC2391F081110E9439
:101F3000EC0EEC2FF0E0EE0FFF1FEC55FF4FA591DC
:101F4000B4912C912D2381E090E021F480E002C037
:101F500080E090E0DF91CF9108950F931F93762F4B
:101F600090E0FC01E458FF4F6491FC01E057FF4F03
:101F7000E4917111762FF0E0EE0FFF1FEC55FF4F4B
:101F80008591949189019A01000F111F221F331F1F
:101F900044E036952795179507954A95D1F7472F31
:101FA0000E948E00611571058105910581F06F5FBA
:101FB0007F4F8F4F9F4F24E0660F771F881F991F19
:101FC0002A95D1F7969587957795679503C060E038
:101FD00070E0CB011F910F910895FC01818D228D3E
:101FE00090E0805C9F4F821B91098F739927089521
:101FF000FC01918D828D981731F0828DE80FF11DD3
:10200000858D90E008958FEF9FEF0895FC01918DED
:10201000828D981761F0828DDF01A80FB11D5D964A
:102020008C91928D9F5F9F73928F90E008958FEFB8
:102030009FEF089580EA91E1892B49F080E090E0DC
:10204000892B29F00E94A01181110C9400000895A1
:10205000FC01848DDF01A80FB11DA35ABF4F2C9145
:10206000848D90E001968F739927848FA689B78914
:102070002C93A089B1898C9180648C93938D848DED
:10208000981306C00288F389E02D80818F7D8083BC
:102090000895CF93DF93EC01888D8823C9F0EA89F6
:1020A000FB89808185FD05C0A889B9898C9186FD51
:1020B0000FC00FB607FCF5CF808185FFF2CFA8894E
:1020C000B9898C9185FFEDCFCE010E942810E7CF12
:1020D000DF91CF910895CF92DF92FF920F931F93DC
:1020E000CF93DF931F92CDB7DEB76C0181E0D601AD
:1020F00058968C9358975B969C915B975C968C91C5
:102100005C97981307C05096ED91FC915197808190
:1021100085FD2EC0F601038D10E00F5F1F4F0F737A
:102120001127F02EF601848DF81211C00FB607FCAE
:10213000F9CFD6015096ED91FC915197808185FFA2
:10214000F1CFC60169830E9428106981EBCF838D8E
:10215000E80FF11DE35AFF4F6083D6015B960C93A5
:102160005B975296ED91FC915397808180620CC0F1
:10217000D6015696ED91FC91579760835096ED915C
:10218000FC91519780818064808381E090E00F9082
:10219000DF91CF911F910F91FF90DF90CF90089525
:1021A000BF92CF92DF92EF92FF92CF93DF93EC0139
:1021B0006A017B01B22E60E271EA87E090E0A7013C
:1021C00096010E9455142150310941095109569533
:1021D000479537952795E889F98982E0808321150D
:1021E00080E1380798F0E889F989108260E970ED9C
:1021F00083E090E0A70196010E9455142150310917
:10220000410951095695479537952795EC85FD85E8
:102210003083EE85FF852083188EEC89FD89B0829E
:10222000EA89FB89808180618083EA89FB898081DA
:1022300088608083EA89FB89808180688083EA895D
:10224000FB8980818F7D8083DF91CF91FF90EF901C
:10225000DF90CF90BF900895FC01938D848D9813EB
:10226000FCCFA289B3898C918F7E8C93A289B3898C
:102270008C91877F8C93A289B3898C918F778C9373
:10228000A289B3898C918F7D8C93828D818F0895E3
:102290001F920F920FB60F9211242F938F939F933B
:1022A000EF93FF93E091BE02F091BF028081E09135
:1022B000C402F091C50282FD12C090818091C702D4
:1022C0008F5F8F732091C802821751F0E091C7028F
:1022D000F0E0E255FD4F958F8093C70201C08081E9
:1022E000FF91EF919F918F912F910F900FBE0F90C3
:1022F0001F9018951F920F920FB60F9211242F93D3
:102300003F934F935F936F937F938F939F93AF937D
:10231000BF93EF93FF938EEA92E00E942810FF9103
:10232000EF91BF91AF919F918F917F916F915F914D
:102330004F913F912F910F900FBE0F901F901895C6
:102340008EEA92E00E94ED0F21E0892B09F420E053
:10235000822F08951092B1021092B00288EE93E09D
:10236000A0E0B0E08093B2029093B302A093B402D5
:10237000B093B50281E391E09093AF028093AE02F7
:1023800085EC90E09093BB028093BA0284EC90E0DD
:102390009093BD028093BC0280EC90E09093BF02CA
:1023A0008093BE0281EC90E09093C1028093C002C2
:1023B00082EC90E09093C3028093C20286EC90E09E
:1023C0009093C5028093C4021092C7021092C80273
:1023D0001092C9021092CA02089508950E94380E00
:1023E0000E94ED110E94B801CAE1D0E10E942702CB
:1023F0002097E1F30E941A10F9CFCF92DF92EF926B
:10240000FF920F931F93CF93DF936C017A01EB013F
:10241000E60EF71E00E010E0CE15DF0561F06991D1
:10242000D601ED91FC910190F081E02DC601099556
:10243000080F191FF1CFC801DF91CF911F910F91A4
:10244000FF90EF90DF90CF9008956115710581F0B6
:10245000DB010D900020E9F7AD0141505109461B09
:10246000570BDC01ED91FC910280F381E02D099482
:1024700080E090E008956DE371E00C9425120F93D5
:102480001F93CF93DF93EC010E9425128C01CE01A4
:102490000E943B12800F911FDF91CF911F910F91EE
:1024A000089508955058BB27AA270ED04DC13ED19C
:1024B00030F043D120F031F49F3F11F41EF433C1CA
:1024C0000EF4E095E7FB29C1E92F4FD180F3BA174D
:1024D000620773078407950718F071F49EF567C1CA
:1024E0000EF4E0950B2EBA2FA02D0B01B90190012F
:1024F0000C01CA01A0011124FF27591B99F0593F73
:1025000050F4503E68F11A16F040A22F232F342FBA
:102510004427585FF3CF469537952795A795F04008
:102520005395C9F77EF41F16BA0B620B730B840B1D
:10253000BAF09150A1F0FF0FBB1F661F771F881FD5
:10254000C2F70EC0BA0F621F731F841F48F487952D
:1025500077956795B795F7959E3F08F0B3CF93951C
:10256000880F08F09927EE0F9795879508950CD05E
:10257000EBC0E3D040F0DAD030F021F45F3F19F047
:10258000CCC0511115C1CFC0F0D098F39923C9F335
:102590005523B1F3951B550BBB27AA276217730769
:1025A000840738F09F5F5F4F220F331F441FAA1F1D
:1025B000A9F333D00E2E3AF0E0E830D091505040DD
:1025C000E695001CCAF729D0FE2F27D0660F771F8B
:1025D000881FBB1F261737074807AB07B0E809F06D
:1025E000BB0B802DBF01FF2793585F4F2AF09E3F02
:1025F000510568F092C0DCC05F3FECF3983EDCF31D
:10260000869577956795B795F7959F5FC9F7880F7A
:10261000911D9695879597F90895E1E0660F771FCC
:10262000881FBB1F621773078407BA0720F0621B5D
:10263000730B840BBA0BEE1F88F7E095089504D056
:102640006894B111B5C0089598D088F09F5790F064
:10265000B92F9927B751A0F0D1F0660F771F881FC7
:10266000991F1AF0BA95C9F712C0B13081F09FD006
:10267000B1E008959CC0672F782F8827B85F39F0A4
:10268000B93FCCF3869577956795B395D9F73EF426
:1026900090958095709561957F4F8F4F9F4F0895CE
:1026A000E89409C097FB3EF49095809570956195EC
:1026B0007F4F8F4F9F4F9923A9F0F92F96E9BB27A2
:1026C0009395F695879577956795B795F111F8CF1E
:1026D000FAF4BB0F11F460FF1BC06F5F7F4F8F4F89
:1026E0009F4F16C0882311F096E911C0772321F07F
:1026F0009EE8872F762F05C0662371F096E8862F17
:1027000070E060E02AF09A95660F771F881FDAF76D
:10271000880F9695879597F9089597F99F6780E8B0
:1027200070E060E008959FEF80EC089500240A9423
:102730001616170618060906089500240A9412169C
:102740001306140605060895092E0394000C11F4CF
:10275000882352F0BB0F40F4BF2B11F460FF04C07C
:102760006F5F7F4F8F4F9F4F089557FD9058440FD5
:10277000551F59F05F3F71F04795880F97FB991FE0
:1027800061F09F3F79F0879508951216130614069D
:10279000551FF2CF4695F1DF08C01616170618062A
:1027A000991FF1CF86957105610508940895E89405
:1027B000BB2766277727CB0197F908950BD0C4CFA5
:1027C000B5DF28F0BADF18F0952309F0A6CFABCF1C
:1027D0001124EECFCADFA0F3959FD1F3950F50E0FF
:1027E000551F629FF001729FBB27F00DB11D639FC3
:1027F000AA27F00DB11DAA1F649F6627B00DA11D69
:10280000661F829F2227B00DA11D621F739FB00D0E
:10281000A11D621F839FA00D611D221F749F33277E
:10282000A00D611D231F849F600D211D822F762F17
:102830006A2F11249F5750408AF0E1F088234AF014
:10284000EE0FFF1FBB1F661F771F881F9150504060
:10285000A9F79E3F510570F060CFAACF5F3FECF320
:10286000983EDCF3869577956795B795F795E7954C
:102870009F5FC1F7FE2B880F911D9695879597F95D
:10288000089597FB072E16F4009407D077FD09D022
:102890000E949E1407FC05D03EF4909581959F4FB1
:1028A0000895709561957F4F0895A1E21A2EAA1B95
:1028B000BB1BFD010DC0AA1FBB1FEE1FFF1FA217F0
:1028C000B307E407F50720F0A21BB30BE40BF50BED
:1028D000661F771F881F991F1A9469F76095709576
:1028E000809590959B01AC01BD01CF010895052E07
:1028F00097FB1EF400940E948E1457FD07D00E948F
:10290000551407FC03D04EF40C948E14509540954A
:10291000309521953F4F4F4F5F4F0895909580958B
:10292000709561957F4F8F4F9F4F0895B7FF0C941F
:10293000B8140E94B814821B930B0895AA1BBB1BEA
:1029400051E107C0AA1FBB1FA617B70710F0A61BAF
:10295000B70B881F991F5A95A9F780959095BC01D0
:10296000CD010895EE0FFF1F0590F491E02D09941D
:102970000E94C314A59F900DB49F900DA49F800D3D
:10298000911D11240895A29FB001B39FC001A39F80
:10299000700D811D1124911DB29F700D811D112498
:1029A000911D0895F999FECF92BD81BDF89A99279E
:1029B00080B50895262FF999FECF1FBA92BD81BD2B
:1029C00020BD0FB6F894FA9AF99A0FBE01960895B1
:0429D000F894FFCFA9
:1029D4000000803F0000803F11001000C800060086
:1029E40009000E0004000800070001200000000098
:1029F40000140BE70A8D0A950AA80AB70A0000001A
:102A0400006B10FD11ED0F0610F80F49100D0A00B0
:0E2A14006E616E00696E66006F7666002E00C1
:00000001FF
