:100000000C9464000C948B0F0C94B80F0C948C001F
:100010000C948C000C948C000C948C000C948C0030
:100020000C948C000C948C000C948C000C948C0020
:100030000C948C000C948C000C948C000C948C0010
:100040000C946D0E0C948C000C94B6100C94F21061
:100050000C948C000C948C000C948C000C948C00F0
:100060000C94F8090C948C000000000700020100B9
:100070000003040600000000000000000102040864
:100080001020408001020408102001020408102002
:10009000040404040404040402020202020203032E
:1000A00003030303000000002300260029000000D2
:1000B0000000250028002B0000000000240027007D
:1000C0002A00A7089F09FE1111241FBECFEFD8E018
:1000D000DEBFCDBF11E0A0E0B1E0E0ECF9E202C08C
:1000E00005900D92AC33B107D9F713E0ACE3B1E062
:1000F00001C01D92A433B107E1F710E0C8ECD0E0D5
:1001000004C02297FE010E94C414C23CD107C9F763
:100110000E940D100C94DE140C9400008091760166
:10012000909177010196909377018093760181E019
:1001300090E090937B0180937A01089580917401FF
:10014000909175010196909375018093740181E0FF
:1001500090E090937901809378010895CF93DF9395
:1001600032C086EB91E00E94AB080497C1F4109274
:10017000550110925401109257011092560180912E
:10018000620190916301892B51F00E94B70E609338
:1001900068017093690180936A0190936B01C0912B
:1001A0005601D091570186EB91E00E94B408FE0100
:1001B000EE0FFF1FE85AFE4F918380832196D09364
:1001C0005701C093560186EB91E00E94AB08892B42
:1001D00041F6DF91CF9108958091520190915301A2
:1001E000029701F580913C0190913D01FC01E15B9A
:1001F000FE4F6081019690933D0180933C0186EB18
:1002000091E00E94360980913C0190913D01029756
:10021000A9F410923D0110923C01109253011092EA
:1002200052010895E091B601F091B7010190F0817B
:10023000E02D6091450186EB91E00994089570935B
:10024000AD016093AC01892B39F060E08091180119
:100250000E94710D61E006C061E0809118010E946A
:10026000710D60E0809116010C94710D7093AB01DB
:100270006093AA01892B39F060E0809114010E94FB
:10028000710D61E006C061E0809114010E94710D62
:1002900060E0809112010C94710D60E08091180172
:1002A0000E94710D61E0809116010E94710D60E065
:1002B000809114010E94710D61E0809112010C94F3
:1002C000710D61E0809118010E94710D60E08091D4
:1002D00016010E94710D61E0809114010E94710D60
:1002E00060E0809112010C94710D60E08091180122
:1002F0000E94710D61E0809116010E94710D61E014
:10030000809114010E94710D61E0809112010C94A2
:10031000710D60E0809118010E94710D61E0809183
:1003200016010E94710D61E0809114010E94710D0F
:1003300060E0809112010C94710D61E080911801D0
:100340000E94710D61E0809116010E94710D60E0C4
:10035000809114010E94710D61E0809112010C9452
:10036000710D61E0809118010E94710D60E0809133
:1003700016010E94710D60E0809114010E94710DC0
:1003800061E0809112010C94710D61E0809118017F
:100390000E94710D61E0809116010E94710D61E073
:1003A000809114010E94710D61E0809112010C9402
:1003B000710D892B19F480910A0102C08091080106
:1003C0000C94710D43E050E06EE870E080E00E9414
:1003D0005B0F43E050E06EE970E081E00E945B0F4C
:1003E00061E0809118010E94390D61E08091160151
:1003F0000E94390D61E0809114010E94390D61E085
:10040000809112010E94390D65E070E08EEA91E062
:100410000E94350B68E070E086EB91E00E94930942
:100420006EEA70E086EB91E00E9495096CEE70E058
:1004300086EB91E00E949A0980910C0190910D0148
:100440009093AB018093AA019093AD018093AC018E
:1004500060E070E08FE792E00E94860C809340019C
:1004600061E070E08FE792E00E94860C80933F018C
:1004700062E070E08FE792E00E94860C80933E017C
:10048000909140019E3D49F490913F01943129F4AF
:100490008093430110924401089584E690E0909384
:1004A00044018093430108958F929F92AF92BF922F
:1004B000CF92DF92EF92FF926091AA017091AB010F
:1004C000882777FD8095982F0E944E136B017C0141
:1004D000609143017091440164567109882777FD4A
:1004E0008095982F0E944E139B01AC01C701B60165
:1004F0000E94DA1320E030E048EC52E40E94B3128C
:100500009B01AC01C701B6010E944F120E941B1350
:100510006F3F710541F03CF08FEF90E09093420106
:10052000809341010BC077FD05C070934201609339
:10053000410104C010924201109241016091AC014E
:100540007091AD01809110010E94AE0C609141014B
:100550007091420180910E010E94AE0C8091580171
:10056000909159010A9781F580917A0190917B01D0
:10057000019749F461E080910A010E94710D109287
:100580007B0110927A018091780190917901019715
:1005900051F461E070E081E090E00E94D901109296
:1005A00079011092780168EC70E080E090E00E94A0
:1005B000F30E60E080910A010E94710D60E070E02E
:1005C00081E090E00E94D9018091580190915901F9
:1005D0000B97E9F440E855E260E070E08DE892E0C6
:1005E0000E942D118DE892E00E941A10892BD1F300
:1005F0008DE892E00E944910813629F46BE68DE87F
:1006000092E00E947F108DE892E00E94A7118091F5
:100610005801909159010C97A9F480915A01909139
:100620005B0161E00E94390D60915C0170915D0198
:1006300080915A0190915B010E94710D10925901B5
:100640001092580180915801909159010D97C9F469
:1006500080915A0190915B0160E00E94390D809178
:100660005A0190915B010E94A80D80934F0182E096
:1006700090E090935301809352011092590110928F
:10068000580180915801909159010E9709F5809178
:100690005A0190915B010E948D0C90934E018093C2
:1006A0004D019C0197FF02C021503F4F30934F01F5
:1006B00060E071E00E9450148093500182E090E06D
:1006C0009093530180935201109259011092580156
:1006D00080915801909159010F9771F460915C01DC
:1006E00070915D0180915A0190915B010E94AE0C66
:1006F000109259011092580180915801909159011E
:100700004097C9F480915C0190915D01892B31F48F
:1007100080915A0190915B0160E00BC080915C0177
:1007200090915D01892B39F480915A0190915B0180
:1007300061E00E94390D209158013091590180915A
:10074000A6019091A7012737310509F4C4C420916F
:100750005801309159012337310509F0C0C4BBC499
:100760008091AA019091AB019093A9018093A80177
:1007700081E090E09093A7018093A601E0907A0138
:10078000F0907B0121E0E216F10409F041C0809174
:10079000A0019091A101892B79F4F092A101E0923E
:1007A000A0010E94C90E60939401709395018093FB
:1007B00096019093970128C01092A1011092A00178
:1007C0000E94C90E609390017093910180939201F1
:1007D000909393018090940190909501A090960140
:1007E000B0909701DC01CB0188199909AA09BB09CE
:1007F0008093840190938501A0938601B093870133
:10080000F0929B01E0929A0110927B0110927A0182
:10081000E0907801F090790181E0E816F10409F0A8
:1008200041C080919E0190919F01892B79F4F092B3
:100830009F01E0929E010E94C90E60938C0170930B
:100840008D0180938E0190938F0128C010929F019B
:1008500010929E010E94C90E6093880170938901D5
:1008600080938A0190938B0180908C0190908D01F0
:10087000A0908E01B0908F01DC01CB0188199909FD
:10088000AA09BB098093800190938101A093820102
:10089000B0938301F0929D01E0929C011092790146
:1008A0001092780180919C0190919D01019709F02F
:1008B0008CC0C0908401D0908501E0908601F090BA
:1008C000870121E1C21627E2D206E104F10408F40F
:1008D0007CC0609180017091810180918201909132
:1008E00083016C197D098E099F0960937C017093C7
:1008F0007D0180937E0190937F010E944E13209191
:1009000000013091010140910201509103010E94C8
:10091000DA134B015C01C701B6010E944C139B0125
:10092000AC01C501B4010E94B312AB01BC014093FC
:1009300004015093050160930601709307016A0159
:100940007B01F7FAF094F7F8F0946091AC017091A4
:10095000AD01882777FD8095982F0E944E139B014B
:10096000AC01C701B6010E94DA130E941B139B0160
:1009700070939901609398018091AA019091AB01C5
:10098000820F931F8F3F910519F014F08FEF90E0C5
:1009900097FF02C080E090E09093AB018093AA01A2
:1009A00010929D0110929C0110929B0110929A014D
:1009B0000CC08091A8019091A9019093AB01809304
:1009C000AA011092A7011092A6018091580190915E
:1009D00059018437910561F48091AC019091AD018A
:1009E000853F91051CF08FEF90E016C00A9614C069
:1009F000809158019091590187369105E9F48091D1
:100A0000AC019091AD018B3091052CF41092AD01A9
:100A10001092AC0105C00A979093AD018093AC0190
:100A20008091AC019091AD019093AB018093AA01AC
:100A300010925901109258018091580190915901DA
:100A40008734910549F480915A0190915B0190930C
:100A5000AD018093AC010FC0809158019091590174
:100A60008634910561F480915A0190915B019093D5
:100A7000AB018093AA011092590110925801809104
:100A80005801909159018737910509F42CC3809141
:100A90005801909159018936910509F027C323C364
:100AA0000E94750178C18091580190915901823658
:100AB000910519F40E9489016EC1809158019091AD
:100AC00059018337910509F41AC380915801909117
:100AD00059018B36910509F015C311C30E949D0180
:100AE0005AC180915801909159018E36910519F49F
:100AF0000E94B10150C180915801909159018837ED
:100B0000910519F40E94C50146C180915801909148
:100B100059018F36910559F460915C0170915D0126
:100B200080915A0190915B010E941F0134C1809114
:100B30005801909159018037910559F460915C01F9
:100B400070915D0180915A0190915B010E94360184
:100B500022C180915801909159018637910549F43D
:100B600080E00E948D0C9093A5018093A4019C01CC
:100B700036C0809158019091590185379105E1F572
:100B8000E0905A01F0905B0161E08E2D0E94390DDA
:100B900060E08E2D0E94710D82E090E00E94190F9E
:100BA00061E08E2D0E94710D85E090E00E94190F8A
:100BB00060E08E2D0E94710D60E08E2D0E94390D37
:100BC00020E432E44FE050E061E08E2D0E94D10D30
:100BD0002AE330E040E050E00E948614C90197FF0C
:100BE00002C021503F4F30934F0160E071E00E94FE
:100BF0005014809350013DC080915801909159014B
:100C00008C36910579F460915C0170915D01809161
:100C10005A0190915B010E94D901109259011092E2
:100C20005801B9C0809158019091590185369105BC
:100C3000B9F460915A0170915B017093A3016093C4
:100C4000A2018EEA91E00E94530B0E94B70E6093BE
:100C50004701709348018093490190934A0138C03D
:100C60008091580190915901449751F48DE08093FF
:100C70004F0182E090E09093530180935201CDCFD9
:100C80008091580190915901C39779F443E050E065
:100C90006EE870E080E00E945B0F43E050E06EE998
:100CA00070E081E00E945B0FB8CF80915801909175
:100CB0005901C49739F481E00E947B0F80E00E94C3
:100CC0007B0FABCF8091580190915901CD9739F4AA
:100CD00081E090E090934C0180934B019ECF8091F6
:100CE000580190915901CC9729F410924C0110921F
:100CF0004B0193CF80915801909159018035910516
:100D000069F580915A0190915B0120915C013091CD
:100D10005D01982F8827820F931FAA2797FDA09522
:100D2000BA2F8093640190936501A0936601B093FC
:100D3000670110925901109258010E94B70E6093FA
:100D400068017093690180936A0190936B0181E05F
:100D500090E090936301809362011DC080915801DF
:100D60009091590181359105B1F410925901109279
:100D700058010E94B70E60936801709369018093D7
:100D80006A0190936B0110926301109262011092BC
:100D90007301109272018091620190916301892B1D
:100DA00029F10E94B70EC0906801D0906901E090CF
:100DB0006A01F0906B016C197D098E099F09C09042
:100DC0006401D0906501E0906601F0906701C6165D
:100DD000D706E806F90650F40E94C50110925901A1
:100DE0001092580110926301109262018091580193
:100DF00090915901C29709F48EC18091720190912E
:100E00007301019709F06AC086C1109259011092CE
:100E1000580181E090E0909373018093720180917A
:100E20005A0190915B0197FD019695958795909356
:100E300071018093700180915A0190915B0162E091
:100E400070E00E94501490936F0180936E01809126
:100E50005C0190915D0120915E0130915F01982FBE
:100E60008827820F931F90936D0180936C011092DD
:100E700075011092740110927701109276018091A1
:100E800070019091710120916E0130916F01892B59
:100E900059F080916C0190916D01232B81F4209188
:100EA00076013091770116C0232BC1F02091740197
:100EB0003091750180916C0190916D010BC0209172
:100EC0007601309177012817390744F02091740199
:100ED00030917501281739070CF025C12091720156
:100EE000309173018091450190914601232B11F0BF
:100EF000816001C08E7F90934601809345012091CF
:100F00006201309163018091450190914601232B4C
:100F100011F0826001C08D7F90934601809345015E
:100F20008091580190915901C59771F580915A01AE
:100F300090915B01892B29F4809176019091770142
:100F400004C0809174019091750190934E0180933B
:100F50004D0180914D0190914E019C0197FF02C07F
:100F600021503F4F30934F0160E071E00E945014D8
:100F70008093500182E090E090935301809352015E
:100F80001092590110925801809158019091590185
:100F90004E9761F480915A0190915B0190934401C6
:100FA0008093430110925901109258018091580189
:100FB00090915901809709F046C060E070E08FE79A
:100FC00092E00E94860C8093400161E070E08FE720
:100FD00092E00E94860C80933F0162E070E08FE710
:100FE00092E00E94860C80933E01909140019E3DCC
:100FF00049F490913F01943129F480934D0110926E
:101000004E0106C08FEF9FEF90934E0180934D01EC
:1010100080914D0190914E019C0197FF02C021509B
:101020003F4F30934F0160E071E00E945014809375
:10103000500182E090E0909353018093520110920E
:1010400059011092580180915801909159014F9780
:1010500011F580915A0190915B0190934401809326
:1010600043014EED60E070E08FE792E00E94890C52
:1010700044E161E070E08FE792E00E94890C4091CA
:10108000430162E070E08FE792E00E94890C1092C9
:1010900059011092580180914B0190914C01892B7C
:1010A00011F00E949E0B0E94B70EC0904701D09095
:1010B0004801E0904901F0904A016C197D098E09C0
:1010C0009F096131774281059105C0F110924C0171
:1010D00010924B0133C0892B09F442CB4FCB892BA3
:1010E00009F067CC72CC0E944D0155CE8091580119
:1010F000909159018136910509F0D5CCD1CC0E944F
:10110000610149CE80915801909159018436910531
:1011100009F0E7CCE3CC8091580190915901C29736
:1011200009F0ADCE72CE10925901109258010E9472
:10113000C5011092730110927201D0CEFF90EF9012
:10114000DF90CF90BF90AF909F908F9008958EEAE0
:1011500091E00C94280B2091E90130E08091EA01A4
:10116000281B3109C90108958091EA019091E90194
:10117000891750F4E82FF0E0E551FE4F208130E070
:101180008F5F8093EA0102C02FEF3FEFC9010895FE
:10119000E091EA018091E901E81730F4F0E0E551CF
:1011A000FE4F208130E002C02FEF3FEFC9010895CC
:1011B0000895E091C201F091C3013097E1F03091C0
:1011C000EA012091E9013217B0F040E009C0DC01EA
:1011D000A20FB31F5C91D901A551BE4F5C934F5F25
:1011E000242F30E02617370794F31092EA0160931A
:1011F000E901CB0109940895E091C401F091C50182
:10120000309729F01092C8011092C70109940895EF
:10121000CF92DF92EF92FF920F931F93CF93DF93C2
:101220007C01CB018A012091C601222391F0EB01C0
:101230006B01C40ED51E09C06991D701ED91FC91D7
:101240000190F081E02DC7010995CC15DD05A1F7CE
:1012500003C0642F0E94C509C801DF91CF911F917F
:101260000F91FF90EF90DF90CF900895CF93DF9391
:101270001F92CDB7DEB769832091C6012223D1F03A
:101280002091C701203240F021E030E0FC0133839F
:10129000228320E030E015C08091C801E82FF0E003
:1012A000E753FE4F998190838F5F8093C8018093AD
:1012B000C70105C061E0CE0101960E94C50921E089
:1012C00030E0C9010F90DF91CF910895FC011382A6
:1012D000128248EE53E060E070E0448355836683F9
:1012E00077838FE191E09183808308951092EA01E2
:1012F0001092E9011092C8011092C7010C94A30941
:10130000CF93DF93EC01862F0E94C1098CEF98E008
:101310000E94E30989ED98E00E94DE09CE01DF9189
:10132000CF910C9476090C9480097093C30160935B
:10133000C20108957093C5016093C401089586EBBE
:1013400091E00C9466091092140281E080931202DD
:101350001092110261E082E10E94710D61E083E16F
:101360000E94710DE9EBF0E080818E7F80838081A7
:101370008D7F808382E08093B80085E48093BC00F9
:101380000895880F8093BA000895613298F42091EF
:101390001402243089F460930D02FC0185E392E08D
:1013A000DC0102C021912D932A2F281B2617D0F390
:1013B00080E0089581E0089582E0089590935602B8
:1013C0008093550208959093580280935702089590
:1013D00085ED8093BC008091BC0084FDFCCF109211
:1013E0001402089585EC8093BC00109214020895B5
:1013F0001F920F920FB60F9211242F933F934F938A
:101400005F936F937F938F939F93AF93BF93EF936C
:10141000FF938091B900887F803609F49FC058F50A
:10142000883209F45BC090F4803109F452C038F47A
:10143000882309F4F8C0883009F0F9C04AC088311F
:1014400009F44CC0803209F0F2C05CC0803409F469
:101450006BC038F4803309F455C0883309F0E7C015
:1014600054C0803509F454C0883509F462C088340A
:1014700009F0DDC0DAC0883909F4CBC0A8F4883798
:1014800009F46CC038F4883609F468C0803709F074
:10149000CEC064C0883809F4BCC0803909F464C087
:1014A000803809F0C4C060C0803B09F48AC038F4B9
:1014B000803A09F46BC0883A09F0B9C082C0803C18
:1014C00009F4ABC0883C09F4A8C0883B09F0AFC060
:1014D0008DC0809113028093BB0012C090911002C6
:1014E00080910F02981788F580911002E82FF0E0A4
:1014F000EB5EFD4F90819093BB008F5F8093100255
:1015000085EC88C080930B0290C080930B0256C07C
:10151000809110029091BB00E82FF0E0EB5EFD4F50
:1015200090838F5F809310029091100280910F0240
:101530006DC0809110029091BB00E82FF0E0EB5E4F
:10154000FD4F90838F5F8093100280911202811172
:101550006CC081E08093110284EA60C083E08093D4
:10156000140210920C02CCCF80910C02803208F051
:1015700050C080910C029091BB00E82FF0E0E75A38
:10158000FD4F90838F5F80930C02BACF80910C0245
:10159000803230F4E0910C02F0E0E75AFD4F108207
:1015A0000E94E80960910C02E0915502F091560208
:1015B00070E089E592E0099510920C020E94F20910
:1015C00036C084E08093140210920E0210920D0235
:1015D000E0915702F0915802099580910D02811116
:1015E00005C081E080930D021092350280910E02B9
:1015F000E82FF0E0EB5CFD4F90819093BB008F5F94
:1016000080930E0290910E0280910D02981708F4BB
:1016100077CF85E88093BC000AC085EC8093BC003E
:101620001092140204C010920B020E94E809FF916C
:10163000EF91BF91AF919F918F917F916F915F914A
:101640004F913F912F910F900FBE0F901F901895C3
:10165000FC0110828FEF81831382128282E28483E5
:1016600086E98583178216820895CF93DF93EC0174
:10167000862F68839FEF99831B821A8220917902BB
:1016800030917A023F832E83D0937A02C0937902FD
:1016900060E00E94710D61E088810E94390D81E057
:1016A000DF91CF910895CF92DF92EF92FF92CF9387
:1016B000DF93EC0177FD04C0653B710524F405C0A0
:1016C00060E070E002C064EB70E06983CC802D8143
:1016D00030E0D12C2C193D09E12CF12C45E0CC0C4B
:1016E000DD1CEE1CFF1C4A95D1F7442737FD4095C1
:1016F000542FE5E0220F331F441F551FEA95D1F701
:10170000DB010E94481424EB30E040E050E00E94EE
:101710008614C20ED31EE41EF51EC701B60120E4D6
:1017200030E040E050E00E9486143B832A83DF9142
:10173000CF91FF90EF90DF90CF9008955F926F92DE
:101740007F928F929F92AF92BF92CF92DF92EF9251
:10175000FF920F931F93CF93DF93CDB7DEB70DB7F3
:101760001EB7ADB6BEB60E94B70EC0907B02D09039
:101770007C02E0907D02F0907E026C157D058E0566
:101780009F0558F024E1C20ED11CE11CF11C6C1520
:101790007D058E059F0508F49DC060937B027093C4
:1017A0007C0280937D0290937E02E0917902F09119
:1017B0007A02DF01D12C0BC012968D919C91139768
:1017C000892B09F0D39416960D90BC91A02D1097FB
:1017D00099F7DD2009F47EC08DB79EB7A2E0DA9EAE
:1017E0008019910911240FB6F8949EBF0FBE8DBFCA
:1017F000019640E00FC022813381232B41F0DC01B0
:10180000A40FB11DA40FB11DED93FC934F5F068093
:10181000F781E02D309779F727C0EC2DF0E03F01FC
:10182000660C771C680E791ED3012D913C9131977F
:10183000EE0FFF1FE80FF91F40815181D901129669
:10184000ED90FC901397DA0112966D917C911397AD
:10185000E616F70638F4D3014D935C933183208369
:1018600099249394C39403C0912CCC24C394CD1495
:10187000A0F29110F9CF7C014C01C12CD401ED9163
:10188000FD914D0161E080810E94710DC394CD10E6
:10189000F5CF46B5812C912C512C642E712CD7019B
:1018A000ED91FD917D0182819381860D971DC6B4D6
:1018B000C41608F493944C2D94012C0D311D8217FD
:1018C0009307A8F760E080810E94710D53944C2D1E
:1018D0005D10E5CF8A2D9B2D0FB6F8949EBF0FBEED
:1018E0008DBF0FB6F8941EBF0FBE0DBFDF91CF9115
:1018F0001F910F91FF90EF90DF90CF90BF90AF902E
:101900009F908F907F906F905F900895CB010C9483
:10191000C814CB01642F0C94D0148E3008F08E5074
:10192000877020911A0140E4249F90011124822B9A
:1019300080937C0080917A00806480937A0080910B
:101940007A0086FDFCCF2091780030917900932FAA
:1019500080E0AC01422B9A01C90108951F93CF93F7
:10196000DF93182FEB0161E00E94390D209711F4ED
:1019700060E004C0CF3FD10539F461E0812FDF91F1
:10198000CF911F910C94710DE12FF0E0E859FF4FBA
:10199000E491E330B9F028F4E13051F0E230B1F5F0
:1019A0000CC0E63019F1E73049F1E43079F514C0A4
:1019B00084B5806884BDC7BD2EC084B5806284BDF7
:1019C000C8BD29C080918000806880938000D0933A
:1019D0008900C09388001FC080918000806280933E
:1019E0008000D0938B00C0938A0015C08091B00016
:1019F00080688093B000C093B3000DC08091B000A8
:101A000080628093B000C093B40005C0C038D10597
:101A10000CF0B3CFADCFDF91CF911F9108958330FC
:101A200069F028F48130A1F0823011F514C08630BD
:101A3000B1F08730C1F08430D9F404C080918000C7
:101A40008F7703C0809180008F7D80938000089500
:101A500084B58F7702C084B58F7D84BD0895809151
:101A6000B0008F7703C08091B0008F7D8093B0006D
:101A70000895CF93DF9390E0FC01E458FF4F449129
:101A8000FC01E057FF4F8491882341F190E0880FDB
:101A9000991FFC01E854FF4F25913491D9018255DB
:101AA0009F4FFC0185919491C82FD92F9FB7F8942F
:101AB0008C91611106C0409584238C938881842386
:101AC00008C0623041F4242F209582238C938881B2
:101AD000842B888302C0842B8C939FBFDF91CF918E
:101AE00008950F931F93CF93DF931F92CDB7DEB767
:101AF000282F30E0F901E859FF4F8491F901E458AB
:101B0000FF4F1491F901E057FF4F04910023D1F0EA
:101B1000882321F069830E940F0D6981E02FF0E096
:101B2000EE0FFF1FE255FF4F85919491DC019FB7A7
:101B3000F8948C91611103C01095812301C0812B11
:101B40008C939FBF0F90DF91CF911F910F910895BC
:101B5000CF93DF93282F30E0F901E859FF4F8491AC
:101B6000F901E458FF4FD491F901E057FF4FC491B8
:101B7000CC2389F081110E940F0DEC2FF0E0EE0FC5
:101B8000FF1FEC55FF4F85919491DC018C918D23C3
:101B900021E030E011F420E030E0C901DF91CF9185
:101BA00008958F929F92AF92BF92CF92DF92EF9261
:101BB000FF920F931F93CF93DF9390E0FC01E458C3
:101BC000FF4FD491FC01E057FF4F7491611102C0A7
:101BD000C0E001C0CD2FDA01C901880F991FAA1FEB
:101BE000BB1F54E0B695A795979587955A95D1F761
:101BF000672F70E0660F771F6C557F4F812C912CFB
:101C00005401FB010591149110C0C12CD12C760117
:101C1000C394C80CD91CEA1CFB1C88169906AA069A
:101C2000BB0609F448C046015701F801E081ED23E5
:101C3000EC1759F310C0C12CD12C7601C394C80CF9
:101C4000D91CEA1CFB1C88169906AA06BB0699F14A
:101C50004601570103C0FB0105911491F801E08191
:101C6000ED23EC13E8CF88199909AA09BB0920E0F4
:101C700030E0A901FB016591749109C0281739076B
:101C80004A075B07C1F02F5F3F4F4F4F5F4FFB018C
:101C9000E081ED23EC1791F3A5E1B0E00E943D1443
:101CA0008B019C01005F1F4F2F4F3F4F36952795AB
:101CB0001795079503C000E010E09801B801C9012D
:101CC000DF91CF911F910F91FF90EF90DF90CF9018
:101CD000BF90AF909F908F9008951F920F920FB674
:101CE0000F9211242F933F938F939F93AF93BF93A2
:101CF0008091800290918102A0918202B091830232
:101D000030918802232F285E2D3720F40896A11DDC
:101D1000B11D05C0232F25560996A11DB11D209385
:101D200088028093800290938102A0938202B093F4
:101D300083028091840290918502A0918602B091E5
:101D400087020196A11DB11D8093840290938502A4
:101D5000A0938602B0938702BF91AF919F918F911C
:101D60003F912F910F900FBE0F901F9018950F93DA
:101D70001F938FB7F89400918002109181022091F7
:101D80008202309183028FBFB801C9011F910F9168
:101D900008950F931F939FB7F894009184021091B8
:101DA0008502209186023091870286B5A89B06C0E5
:101DB0008F3F21F00F5F1F4F2F4F3F4F9FBF322F9D
:101DC000212F102F0027080F111D211D311D45E067
:101DD000000F111F221F331F4A95D1F7B801C90107
:101DE0001F910F910895CF92DF92EF92FF92CF93C0
:101DF000DF936B017C010E94C90EEB010EC00E94B3
:101E0000C90E6C1B7D0B683E734038F081E0C81A28
:101E1000D108E108F108C851DC4FC114D104E10434
:101E2000F10469F7DF91CF91FF90EF90DF90CF90B1
:101E30000895019739F0019729F0880F991F0197AC
:101E40000197F1F70895789484B5826084BD84B5D4
:101E5000816084BD85B5826085BD85B5816085BDA5
:101E6000EEE6F0E0808181608083E1E8F0E01082BE
:101E7000808182608083E0E8F0E0808181608083FF
:101E8000E1EBF0E0808184608083E0EBF0E0808132
:101E900081608083EAE7F0E08081846080838081D4
:101EA000826080838081816080838081806880837C
:101EB0001092C10008958230E8F4E82FF0E0EE0FB0
:101EC000FF1FE757FD4F71836083813041F08091A0
:101ED00069008C7F842B80936900E89A0895809133
:101EE0006900440F551F440F551F837F842B809337
:101EF0006900E99A0895823068F4813011F0E89819
:101F000001C0E998E82FF0E0EE0FFF1FE757FD4F03
:101F10001182108208951F920F920FB60F92112412
:101F20002F933F934F935F936F937F938F939F93E1
:101F3000AF93BF93EF93FF938091890290918A02B0
:101F4000892B29F0E0918902F0918A020995FF918D
:101F5000EF91BF91AF919F918F917F916F915F9121
:101F60004F913F912F910F900FBE0F901F9018959A
:101F70001F920F920FB60F9211242F933F934F93FE
:101F80005F936F937F938F939F93AF93BF93EF93E1
:101F9000FF9380918B0290918C02892B29F0E09124
:101FA0008B02F0918C020995FF91EF91BF91AF9157
:101FB0009F918F917F916F915F914F913F912F9161
:101FC0000F900FBE0F901F901895CF92DF92EF9257
:101FD000FF920F931F93CF93DF936C01EB017A0174
:101FE000E60EF71E00E010E00BC06991D601ED91FE
:101FF000FC910190F081E02DC6010995080F191F91
:10200000CE15DF0591F7C801DF91CF911F910F9198
:10201000FF90EF90DF90CF9008950E94230F0E94D1
:10202000E201C9EED0E10E9454022097E1F30E9440
:10203000E910F9CFFC0184859585FC01E05CFF4F38
:1020400020813181FC01EE5BFF4F80819181281B53
:10205000390B2F733327C9010895FC0184859585B9
:10206000FC01E05CFF4F40815181FC01EE5BFF4FC2
:10207000208131814217530741F00190F081E02D1A
:10208000E80FF91F208130E002C02FEF3FEFC901B8
:102090000895FC0184859585FC01E05CFF4F40813B
:1020A0005181FC01EE5BFF4F2081318142175307C4
:1020B00081F0A081B181A80FB91F8C91208131815D
:1020C0002F5F3F4F2F73332731832083282F30E03A
:1020D00002C02FEF3FEFC9010895FC018685978567
:1020E000FC01E05CFF4FDC01AE5BBF4F40815181E2
:1020F0002D913C91119742175307C1F70895CF9343
:10210000DF93FC0186859785DC01A05CBF4F2D9194
:102110003C9111972F5F3F4F2F733327EC01CE5B1C
:10212000DF4F4881598124173507D9F30D90BC91B1
:10213000A02DA80FB91F6C93A685B785A05CBF4FD3
:1021400011963C932E93A689B7892C9181E090E05B
:10215000058C02C0880F991F0A94E2F7282B2C9354
:1021600081E090E0DF91CF91089508951F920F9242
:102170000FB60F9211242F933F934F938F939F93FA
:10218000EF93FF934091C60080913003909131030B
:1021900001968F7399272091320330913303821770
:1021A000930759F0E0913003F0913103E051FD4F76
:1021B00040839093310380933003FF91EF919F917F
:1021C0008F914F913F912F910F900FBE0F901F90C5
:1021D00018958DE892E00E941A10892B11F00C944A
:1021E000B51008951F920F920FB60F9211242F93DE
:1021F0003F938F939F93EF93FF932091EC02309145
:10220000ED028091EE029091EF022817390731F428
:102210008091C1008F7D8093C10014C0E091EE02D7
:10222000F091EF02E455FD4F20818091EE029091F4
:10223000EF0201968F7399279093EF028093EE023D
:102240002093C600FF91EF919F918F913F912F9125
:102250000F900FBE0F901F901895CF92DF92EF92C4
:10226000FF92CF93DF93EC016A017B01EC89FD893A
:1022700081E090E00E8C02C0880F991F0A94E2F76B
:10228000808360E271EA87E090E0A70196010E94F6
:1022900064142150310941095109569547953795E4
:1022A0002795211580E1380798F0EC89FD89108287
:1022B00060E970ED83E090E0A70196010E9464144C
:1022C0002150310941095109569547953795279570
:1022D000E889F9893083EA89FB892083EE89FF89BF
:1022E000408181E090E09C010A8C02C0220F331FE4
:1022F0000A94E2F7422B4083EE89FF8940819C01DA
:102300000B8C02C0220F331F0A94E2F7422B40834A
:10231000EE89FF8940819C010C8C02C0220F331F83
:102320000A94E2F7422B4083EE89FF8920810D8CCD
:1023300002C0880F991F0A94E2F780958223808358
:10234000DF91CF91FF90EF90DF90CF900895CF93E2
:10235000DF93FC0186859785DC01A05CBF4FEC0113
:10236000CE5BDF4F4D915C911197288139814217E7
:102370005307C1F7A689B7894C9181E090E09C0191
:10238000028C02C0220F331F0A94E2F72095242307
:102390002C93A689B7894C919C01038C02C0220F13
:1023A000331F0A94E2F7209524232C93A689B7893A
:1023B0004C919C01048C02C0220F331F0A94E2F757
:1023C000209524232C93A689B7892C91058C02C0D3
:1023D000880F991F0A94E2F7809582238C93848555
:1023E0009585FC01EE5BFF4F20813181FC01E05CB3
:1023F000FF4F31832083DF91CF9108951092900297
:1024000010928F0288EE93E0A0E0B0E080939102FA
:1024100090939202A0939302B09394028FE291E082
:1024200090938E0280938D0280EF92E090939A02B7
:10243000809399028CEA92E090939C0280939B0295
:1024400085EC90E090939E0280939D0284EC90E056
:102450009093A00280939F0280EC90E09093A20260
:102460008093A10281EC90E09093A4028093A30258
:1024700086EC90E09093A6028093A50284E080937E
:10248000A70283E08093A80287E08093A90285E0F9
:102490008093AA0281E08093AB0208955058BB2735
:1024A000AA270ED04DC13ED130F043D120F031F4F7
:1024B0009F3F11F41EF433C10EF4E095E7FB29C1F0
:1024C000E92F4FD180F3BA17620773078407950786
:1024D00018F071F49EF567C10EF4E0950B2EBA2F3B
:1024E000A02D0B01B90190010C01CA01A00111241A
:1024F000FF27591B99F0593F50F4503E68F11A16C6
:10250000F040A22F232F342F4427585FF3CF469556
:1025100037952795A795F0405395C9F77EF41F1678
:10252000BA0B620B730B840BBAF09150A1F0FF0F42
:10253000BB1F661F771F881FC2F70EC0BA0F621F2E
:10254000731F841F48F4879577956795B795F7951E
:102550009E3F08F0B3CF9395880F08F09927EE0FB0
:102560009795879508950CD0EBC0E3D040F0DAD072
:1025700030F021F45F3F19F0CCC0511115C1CFC02C
:10258000F0D098F39923C9F35523B1F3951B550B5C
:10259000BB27AA2762177307840738F09F5F5F4F36
:1025A000220F331F441FAA1FA9F333D00E2E3AF077
:1025B000E0E830D091505040E695001CCAF729D091
:1025C000FE2F27D0660F771F881FBB1F26173707E0
:1025D0004807AB07B0E809F0BB0B802DBF01FF2710
:1025E00093585F4F2AF09E3F510568F092C0DCC0BF
:1025F0005F3FECF3983EDCF3869577956795B7954A
:10260000F7959F5FC9F7880F911D9695879597F964
:102610000895E1E0660F771F881FBB1F62177307DD
:102620008407BA0720F0621B730B840BBA0BEE1FF2
:1026300088F7E095089504D06894B111B5C0089565
:1026400098D088F09F5790F0B92F9927B751A0F0F4
:10265000D1F0660F771F881F991F1AF0BA95C9F736
:1026600012C0B13081F09FD0B1E008959CC0672FB7
:10267000782F8827B85F39F0B93FCCF386957795E6
:102680006795B395D9F73EF49095809570956195CF
:102690007F4F8F4F9F4F0895E89409C097FB3EF4FA
:1026A00090958095709561957F4F8F4F9F4F99239F
:1026B000A9F0F92F96E9BB279395F695879577951D
:1026C0006795B795F111F8CFFAF4BB0F11F460FFDD
:1026D0001BC06F5F7F4F8F4F9F4F16C0882311F035
:1026E00096E911C0772321F09EE8872F762F05C049
:1026F000662371F096E8862F70E060E02AF09A95E4
:10270000660F771F881FDAF7880F9695879597F9D8
:10271000089597F99F6780E870E060E008959FEF63
:1027200080EC089500240A94161617061806090668
:10273000089500240A941216130614060506089537
:10274000092E0394000C11F4882352F0BB0F40F4BF
:10275000BF2B11F460FF04C06F5F7F4F8F4F9F4FFF
:10276000089557FD9058440F551F59F05F3F71F081
:102770004795880F97FB991F61F09F3F79F08795E8
:102780000895121613061406551FF2CF4695F1DF71
:1027900008C0161617061806991FF1CF8695710501
:1027A000610508940895E894BB2766277727CB0135
:1027B00097F908950BD0C4CFB5DF28F0BADF18F031
:1027C000952309F0A6CFABCF1124EECFCADFA0F33B
:1027D000959FD1F3950F50E0551F629FF001729FB6
:1027E000BB27F00DB11D639FAA27F00DB11DAA1FD5
:1027F000649F6627B00DA11D661F829F2227B00D22
:10280000A11D621F739FB00DA11D621F839FA00DAC
:10281000611D221F749F3327A00D611D231F849FFC
:10282000600D211D822F762F6A2F11249F57504053
:102830008AF0E1F088234AF0EE0FFF1FBB1F661FEE
:10284000771F881F91505040A9F79E3F510570F0A7
:1028500060CFAACF5F3FECF3983EDCF38695779587
:102860006795B795F795E7959F5FC1F7FE2B880FA2
:10287000911D9695879597F908950E94A214A59F9A
:10288000900DB49F900DA49F800D911D112408956B
:10289000B7FF0C943D140E943D14821B930B0895C6
:1028A00097FB072E16F4009407D077FD09D00E94FD
:1028B000AE1407FC05D03EF4909581959F4F089586
:1028C000709561957F4F0895A1E21A2EAA1BBB1B3C
:1028D000FD010DC0AA1FBB1FEE1FFF1FA217B307EC
:1028E000E407F50720F0A21BB30BE40BF50B661F02
:1028F000771F881F991F1A9469F7609570958095C6
:1029000090959B01AC01BD01CF010895052E97FB69
:1029100016F4009407D057FD0DD00E94641407FCF4
:1029200009D07EF490958095709561957F4F8F4F7B
:102930009F4F089550954095309521953F4F4F4FAB
:102940005F4F0895A29FB001B39FC001A39F01D024
:10295000B29F700D811D1124911D0895AA1BBB1BF0
:1029600051E107C0AA1FBB1FA617B70710F0A61B8F
:10297000B70B881F991F5A95A9F780959095BC01B0
:10298000CD010895EE0FFF1F0590F491E02D0994FD
:10299000F999FECF92BD81BDF89A992780B5089527
:1029A000262FF999FECF1FBA92BD81BD20BD0FB66B
:1029B000F894FA9AF99A0FBE01960895F894FFCF09
:1029C0000000803F0000803F0A000500C8000600AC
:1029D00009000D0004000800070001000000003697
:1029E000090809AB08B408C808D808000000007F2F
:0C29F00010E50F1A1049102D106D10009A
:00000001FF
