:100000000C9464000C94420E0C946F0E0C948C00B3
:100010000C948C000C948C000C948C000C948C0030
:100020000C948C000C948C000C948C000C948C0020
:100030000C948C000C948C000C948C000C948C0010
:100040000C94240D0C948C000C946D0F0C94A90F3F
:100050000C948C000C948C000C948C000C948C00F0
:100060000C94B6080C948C000000000700020100FC
:100070000003040600000000000000000102040864
:100080001020408001020408102001020408102002
:10009000040404040404040402020202020203032E
:1000A00003030303000000002300260029000000D2
:1000B0000000250028002B0000000000240027007D
:1000C0002A0065075D08B51011241FBECFEFD8E0E8
:1000D000DEBFCDBF11E0A0E0B1E0E8E3F6E202C090
:1000E00005900D92AC33B107D9F713E0ACE3B1E062
:1000F00001C01D92A832B107E1F710E0C8ECD0E0D2
:1001000004C02297FE010E941613C23CD107C9F712
:100110000E94C40E0C941A130C94000080916B0181
:1001200090916C01019690936C0180936B0181E03A
:1001300090E09093700180936F0108958091690120
:1001400090916A01019690936A018093690181E020
:1001500090E090936E0180936D010895CF93DF93AB
:1001600032C08BEA91E00E9469070497C1F41092B3
:100170004A011092490110924C0110924B0180915A
:10018000570190915801892B51F00E946E0D609398
:100190005D0170935E0180935F0190936001C09157
:1001A0004B01D0914C018BEA91E00E947207FE0155
:1001B000EE0FFF1FE35BFE4F918380832196D09368
:1001C0004C01C0934B018BEA91E00E946907892B97
:1001D00041F6DF91CF9108958091470190914801B8
:1001E000029701F580913C0190913D01FC01EC5B8F
:1001F000FE4F6081019690933D0180933C018BEA14
:1002000091E00E94F40780913C0190913D0102979A
:10021000A9F410923D0110923C01109248011092F5
:1002200047010895E091AB01F091AC010190F0819C
:10023000E02D60913E018BEA91E00994089570935E
:10024000A2016093A101892B39F060E0809118012F
:100250000E94280C61E006C061E0809118010E94B4
:10026000280C60E0809116010C94280C7093A0017A
:1002700060939F01892B39F060E0809114010E9406
:10028000280C61E006C061E0809114010E94280CF6
:1002900060E0809112010C94280C60E080911801BC
:1002A0000E94280C61E0809116010E94280C60E0F9
:1002B000809114010E94280C61E0809112010C943D
:1002C000280C61E0809118010E94280C60E0809168
:1002D00016010E94280C61E0809114010E94280CF4
:1002E00060E0809112010C94280C60E0809118016C
:1002F0000E94280C61E0809116010E94280C61E0A8
:10030000809114010E94280C61E0809112010C94EC
:10031000280C60E0809118010E94280C61E0809117
:1003200016010E94280C61E0809114010E94280CA3
:1003300060E0809112010C94280C61E0809118011A
:100340000E94280C61E0809116010E94280C60E058
:10035000809114010E94280C61E0809112010C949C
:10036000280C61E0809118010E94280C60E08091C7
:1003700016010E94280C60E0809114010E94280C54
:1003800061E0809112010C94280C61E080911801C9
:100390000E94280C61E0809116010E94280C61E007
:1003A000809114010E94280C61E0809112010C944C
:1003B000280C892B19F480910A0102C08091080150
:1003C0000C94280C43E050E06EE870E080E00E945E
:1003D000120E43E050E06EE970E081E00E94120EE0
:1003E00061E0809118010E94F00B61E0809116019C
:1003F0000E94F00B61E0809114010E94F00B61E01B
:10040000809112010E94F00B65E070E083EA91E0B8
:100410000E94F30968E070E08BEA91E00E945108C5
:100420006EEA70E08BEA91E00E9453086CEE70E097
:100430008BEA91E00E94580880910C0190910D0187
:100440009093A00180939F019093A2018093A101BA
:1004500008958F929F92AF92BF92CF92DF92EF92C8
:10046000FF926091A1017091A201809110010E9400
:10047000650B60919F017091A00180910E010E9417
:10048000650B80914D0190914E010A9781F5809105
:100490006F0190917001019749F461E080910A0128
:1004A0000E94280C1092700110926F0180916D01D2
:1004B00090916E01019751F461E070E081E090E06D
:1004C0000E94D90110926E0110926D0168EC70E0EB
:1004D00080E090E00E94AA0D60E080910A010E94F5
:1004E000280C60E070E081E090E00E94D9018091EA
:1004F0004D0190914E010B97E9F440E855E260E020
:1005000070E081E892E00E94E40F81E892E00E94AE
:10051000D10E892BD1F381E892E00E94000F813641
:1005200029F46BE681E892E00E94360F81E892E0C0
:100530000E945E1080914D0190914E010C97A9F49C
:1005400080914F019091500161E00E94F00B609109
:1005500051017091520180914F01909150010E9480
:10056000280C10924E0110924D0180914D019091F6
:100570004E010D97C9F480914F019091500160E0B8
:100580000E94F00B80914F01909150010E945F0CEE
:100590008093440182E090E090934801809347016A
:1005A00010924E0110924D0180914D0190914E019B
:1005B0000E9709F580914F01909150010E94440BD4
:1005C00090934301809342019C0197FF02C0215008
:1005D0003F4F3093440160E071E00E94A21280938B
:1005E000450182E090E0909348018093470110928A
:1005F0004E0110924D0180914D0190914E010F9747
:1006000071F4609151017091520180914F0190916C
:1006100050010E94650B10924E0110924D01809185
:100620004D0190914E014097C9F4809151019091F4
:100630005201892B31F480914F019091500160E07B
:100640000BC08091510190915201892B39F4809116
:100650004F019091500161E00E94F00B20914D01FB
:1006600030914E0180919B0190919C01273731057B
:1006700009F4EFC320914D0130914E01233731052C
:1006800009F0EBC3E6C380919F019091A001909384
:100690009E0180939D0181E090E090939C01809366
:1006A0009B01E0906F01F090700181E0E816F10489
:1006B00009F041C08091950190919601892B79F4C0
:1006C000F0929601E09295010E94800D609389015D
:1006D00070938A0180938B0190938C0128C01092B3
:1006E0009601109295010E94800D60938501709390
:1006F0008601809387019093880180908901909072
:100700008A01A0908B01B0908C01DC01CB0188198B
:100710009909AA09BB098093790190937A01A09362
:100720007B01B0937C01F0929001E0928F011092D6
:10073000700110926F01E0906D01F0906E0181E008
:10074000E816F10409F041C0809193019091940161
:10075000892B79F4F0929401E09293010E94800D2C
:10076000609381017093820180938301909384014F
:1007700028C010929401109293010E94800D609302
:100780007D0170937E0180937F0190938001809022
:10079000810190908201A0908301B0908401DC01DE
:1007A000CB0188199909AA09BB0980937501909317
:1007B0007601A0937701B0937801F0929201E092D4
:1007C000910110926E0110926D01809191019091B2
:1007D0009201019709F08CC0C0907901D0907A0104
:1007E000E0907B01F0907C0181E1C81687E2D80699
:1007F000E104F10408F47CC0609175017091760108
:1008000080917701909178016C197D098E099F097B
:1008100060937101709372018093730190937401DE
:100820000E94A0112091000130910101409102012C
:10083000509103010E942C124B015C01C701B601CB
:100840000E949E119B01AC01C501B4010E940511DB
:10085000AB01BC0140930401509305016093060174
:10086000709307016A017B01F7FAF094F7F8F094AE
:100870006091A1017091A201882777FD8095982F42
:100880000E94A0119B01AC01C701B6010E942C126D
:100890000E946D119B0170938E0160938D01809178
:1008A0009F019091A001820F931F8F3F910519F036
:1008B00014F08FEF90E097FF02C080E090E09093FB
:1008C000A00180939F0110929201109291011092C9
:1008D000900110928F010CC080919D0190919E011A
:1008E0009093A00180939F0110929C0110929B0114
:1008F00080914D0190914E018437910561F4809172
:10090000A1019091A201853F91051CF08FEF90E02D
:1009100016C00A9614C080914D0190914E01873601
:100920009105E9F48091A1019091A2018B3091058C
:100930002CF41092A2011092A10105C00A97909385
:10094000A2018093A1018091A1019091A2019093B5
:10095000A00180939F0110924E0110924D01809151
:100960004D0190914E018734910549F480914F01DA
:10097000909150019093A2018093A1010FC08091AA
:100980004D0190914E018634910561F480914F01A3
:10099000909150019093A00180939F0110924E017D
:1009A00010924D0180914D0190914E018737910534
:1009B00009F457C280914D0190914E0189369105FD
:1009C00009F052C24EC20E9475016EC180914D0164
:1009D00090914E018236910519F40E94890164C1FB
:1009E00080914D0190914E018337910509F445C2E4
:1009F00080914D0190914E018B36910509F040C2D6
:100A00003CC20E949D0150C180914D0190914E01C8
:100A10008E36910519F40E94B10146C180914D01B5
:100A200090914E018837910519F40E94C5013CC18F
:100A300080914D0190914E018F36910559F460914E
:100A400051017091520180914F01909150010E948B
:100A50001F012AC180914D0190914E01803791056F
:100A600059F4609151017091520180914F01909120
:100A700050010E94360118C180914D0190914E01A4
:100A80008637910549F480E00E94440B90939A01C7
:100A9000809399019C0136C080914D0190914E0147
:100AA00085379105E1F5E0904F01F090500161E04C
:100AB0008E2D0E94F00B60E08E2D0E94280C82E0AB
:100AC00090E00E94D00D61E08E2D0E94280C85E000
:100AD00090E00E94D00D60E08E2D0E94280C60E016
:100AE0008E2D0E94F00B20E432E44FE050E061E0F4
:100AF0008E2D0E94880C2AE330E040E050E00E94F6
:100B0000D812C90197FF02C021503F4F30934401D2
:100B100060E071E00E94A2128093450133C0809191
:100B20004D0190914E018C36910579F460915101FF
:100B30007091520180914F01909150010E94D90112
:100B400010924E0110924D01AFC080914D019091D5
:100B50004E018536910569F460914F017091500105
:100B6000709398016093970183EA91E00E94110AC3
:100B700038C080914D0190914E01449751F48CE022
:100B80008093440182E090E0909348018093470174
:100B9000D7CF80914D0190914E01C39779F443E0F6
:100BA00050E06EE870E080E00E94120E43E050E0FA
:100BB0006EE970E081E00E94120EC2CF80914D017B
:100BC00090914E01C49739F481E00E94320E80E08A
:100BD0000E94320EB5CF80914D0190914E01CD977C
:100BE00039F481E090E09093410180934001A8CFD7
:100BF00080914D0190914E01CC9729F410924101C2
:100C0000109240019DCF80914D0190914E01803511
:100C1000910569F580914F0190915001209151010A
:100C200030915201982F8827820F931FAA2797FD92
:100C3000A095BA2F8093590190935A01A0935B011C
:100C4000B0935C0110924E0110924D010E946E0D06
:100C500060935D0170935E0180935F0190936001EA
:100C600081E090E090935801809357011DC08091DE
:100C70004D0190914E0181359105B1F410924E01D4
:100C800010924D010E946E0D60935D0170935E01A4
:100C900080935F0190936001109258011092570168
:100CA000109268011092670180915701909158014C
:100CB000892B29F10E946E0DC0905D01D0905E01DC
:100CC000E0905F01F09060016C197D098E099F0929
:100CD000C0905901D0905A01E0905B01F0905C0106
:100CE000C616D706E806F90650F40E94C501109210
:100CF0004E0110924D0110925801109257018091AF
:100D00004D0190914E01C29709F4C3C080916701D3
:100D100090916801019709F06AC0BBC010924E0122
:100D200010924D0181E090E09093680180936701FB
:100D300080914F019091500197FD0196959587956F
:100D4000909366018093650180914F0190915001CD
:100D500062E070E00E94A2129093640180936301AC
:100D60008091510190915201209153013091540191
:100D7000982F8827820F931F9093620180936101BF
:100D800010926A011092690110926C0110926B012D
:100D90008091650190916601209163013091640119
:100DA000892B59F08091610190916201232B81F48C
:100DB00020916B0130916C0116C0232BC1F0209162
:100DC000690130916A0180916101909162010BC0CB
:100DD00020916B0130916C012817390744F0209164
:100DE000690130916A01281739070CF05AC0209127
:100DF00067013091680180913E0190913F01232B62
:100E000011F0816001C08E7F90933F0180933E017D
:100E1000209157013091580180913E0190913F01FE
:100E2000232B11F0826001C08D7F90933F0180934E
:100E30003E018091400190914101892BE9F1FF90A1
:100E4000EF90DF90CF90BF90AF909F908F900C94D9
:100E50005C0A892B09F417CC24CC892B09F03CCDF2
:100E600047CD0E944D0120CF80914D0190914E01C0
:100E70008136910509F0AACDA6CD0E94610114CF5B
:100E800080914D0190914E018436910509F0BCCDC1
:100E9000B8CD80914D0190914E01C29709F078CF65
:100EA0003DCF10924E0110924D010E94C50110924B
:100EB0006801109267019BCFFF90EF90DF90CF9079
:100EC000BF90AF909F908F90089583EA91E00C942B
:100ED000E6092091DE0130E08091DF01281B310915
:100EE000C90108958091DF019091DE01891750F4C6
:100EF000E82FF0E0E052FE4F208130E08F5F8093DA
:100F0000DF0102C02FEF3FEFC9010895E091DF013B
:100F10008091DE01E81730F4F0E0E052FE4F2081CE
:100F200030E002C02FEF3FEFC90108950895E0912E
:100F3000B701F091B8013097E1F03091DF012091D5
:100F4000DE013217B0F040E009C0DC01A20FB31F90
:100F50005C91D901A052BE4F5C934F5F242F30E0CB
:100F60002617370794F31092DF016093DE01CB015F
:100F700009940895E091B901F091BA01309729F0F0
:100F80001092BD011092BC0109940895CF92DF9296
:100F9000EF92FF920F931F93CF93DF937C01CB01CE
:100FA0008A012091BB01222391F0EB016B01C40E59
:100FB000D51E09C06991D701ED91FC910190F08196
:100FC000E02DC7010995CC15DD05A1F703C0642FFD
:100FD0000E948308C801DF91CF911F910F91FF906C
:100FE000EF90DF90CF900895CF93DF931F92CDB70E
:100FF000DEB769832091BB012223D1F02091BC018F
:10100000203240F021E030E0FC013383228320E0F5
:1010100030E015C08091BD01E82FF0E0E254FE4FB2
:10102000998190838F5F8093BD018093BC0105C03F
:1010300061E0CE0101960E94830821E030E0C90101
:101040000F90DF91CF910895FC011382128248EE38
:1010500053E060E070E044835583668377838FE1DB
:1010600091E09183808308951092DF011092DE0158
:101070001092BD011092BC010C946108CF93DF93D4
:10108000EC01862F0E947F088AEB97E00E94A1085E
:1010900087E997E00E949C08CE01DF91CF910C94E4
:1010A00034080C943E087093B8016093B70108951A
:1010B0007093BA016093B90108958BEA91E00C94A2
:1010C00024081092090281E0809307021092060220
:1010D00061E082E10E94280C61E083E10E94280C1B
:1010E000E9EBF0E080818E7F808380818D7F80833B
:1010F00082E08093B80085E48093BC000895880F57
:101100008093BA000895613298F420910902243046
:1011100089F460930202FC018AE292E0DC0102C0E1
:1011200021912D932A2F281B2617D0F380E00895B4
:1011300081E0089582E0089590934B0280934A02E3
:10114000089590934D0280934C02089585ED80930D
:10115000BC008091BC0084FDFCCF10920902089570
:1011600085EC8093BC001092090208951F920F92A3
:101170000FB60F9211242F933F934F935F936F936A
:101180007F938F939F93AF93BF93EF93FF93809140
:10119000B900887F803609F49FC058F5883209F479
:1011A0005BC090F4803109F452C038F4882309F40C
:1011B000F8C0883009F0F9C04AC0883109F44CC041
:1011C000803209F0F2C05CC0803409F46BC038F49E
:1011D000803309F455C0883309F0E7C054C0803526
:1011E00009F454C0883509F462C0883409F0DDC0C0
:1011F000DAC0883909F4CBC0A8F4883709F46CC088
:1012000038F4883609F468C0803709F0CEC064C06D
:10121000883809F4BCC0803909F464C0803809F00A
:10122000C4C060C0803B09F48AC038F4803A09F435
:101230006BC0883A09F0B9C082C0803C09F4ABC0E9
:10124000883C09F4A8C0883B09F0AFC08DC08091EC
:1012500008028093BB0012C09091050280910402A5
:10126000981788F580910502E82FF0E0E65FFD4FC2
:1012700090819093BB008F5F8093050285EC88C0BE
:101280008093000290C08093000256C080910502B6
:101290009091BB00E82FF0E0E65FFD4F90838F5FF9
:1012A0008093050290910502809104026DC08091A7
:1012B00005029091BB00E82FF0E0E65FFD4F9083C0
:1012C0008F5F809305028091070281116CC081E0DD
:1012D0008093060284EA60C083E080930902109242
:1012E0000102CCCF80910102803208F050C0809181
:1012F00001029091BB00E82FF0E0E25BFD4F90838C
:101300008F5F80930102BACF80910102803230F466
:10131000E0910102F0E0E25BFD4F10820E94A6081E
:1013200060910102E0914A02F0914B0270E08EE47C
:1013300092E00995109201020E94B00836C084E044
:10134000809309021092030210920202E0914C0273
:10135000F0914D02099580910202811105C081E052
:101360008093020210922A0280910302E82FF0E09B
:10137000E65DFD4F90819093BB008F5F80930302E9
:101380009091030280910202981708F477CF85E8C4
:101390008093BC000AC085EC8093BC0010920902C7
:1013A00004C0109200020E94A608FF91EF91BF9125
:1013B000AF919F918F917F916F915F914F913F91ED
:1013C0002F910F900FBE0F901F901895FC01108267
:1013D0008FEF81831382128282E2848386E9858380
:1013E000178216820895CF93DF93EC01862F6883CE
:1013F0009FEF99831B821A8220916E0230916F02B7
:101400003F832E83D0936F02C0936E0260E00E94F0
:10141000280C61E088810E94F00B81E0DF91CF9180
:101420000895CF92DF92EF92FF92CF93DF93EC017A
:1014300077FD04C0653B710524F405C060E070E0F1
:1014400002C064EB70E06983CC802D8130E0D12C48
:101450002C193D09E12CF12C45E0CC0CDD1CEE1CD7
:10146000FF1C4A95D1F7442737FD4095542FE5E0FE
:10147000220F331F441F551FEA95D1F7DB010E944D
:101480009A1224EB30E040E050E00E94D812C20EE5
:10149000D31EE41EF51EC701B60120E430E040E093
:1014A00050E00E94D8123B832A83DF91CF91FF90B6
:1014B000EF90DF90CF9008955F926F927F928F921E
:1014C0009F92AF92BF92CF92DF92EF92FF920F93D3
:1014D0001F93CF93DF93CDB7DEB70DB71EB7ADB671
:1014E000BEB60E946E0DC0907002D0907102E09066
:1014F0007202F09073026C157D058E059F0558F001
:1015000024E1C20ED11CE11CF11C6C157D058E0579
:101510009F0508F49DC060937002709371028093E0
:10152000720290937302E0916E02F0916F02DF01FC
:10153000D12C0BC012968D919C911397892B09F099
:10154000D39416960D90BC91A02D109799F7DD209D
:1015500009F47EC08DB79EB7A2E0DA9E801991098A
:1015600011240FB6F8949EBF0FBE8DBF019640E0C8
:101570000FC022813381232B41F0DC01A40FB11D68
:10158000A40FB11DED93FC934F5F0680F781E02D12
:10159000309779F727C0EC2DF0E03F01660C771CFF
:1015A000680E791ED3012D913C913197EE0FFF1FEC
:1015B000E80FF91F40815181D9011296ED90FC90FE
:1015C0001397DA0112966D917C911397E616F70640
:1015D00038F4D3014D935C93318320839924939401
:1015E000C39403C0912CCC24C394CD14A0F29110C9
:1015F000F9CF7C014C01C12CD401ED91FD914D013D
:1016000061E080810E94280CC394CD10F5CF46B5CF
:10161000812C912C512C642E712CD701ED91FD91D0
:101620007D0182819381860D971DC6B4C41608F48E
:1016300093944C2D94012C0D311D82179307A8F71C
:1016400060E080810E94280C53944C2D5D10E5CF02
:101650008A2D9B2D0FB6F8949EBF0FBE8DBF0FB67F
:10166000F8941EBF0FBE0DBFDF91CF911F910F9158
:10167000FF90EF90DF90CF90BF90AF909F908F90B2
:101680007F906F905F9008958E3008F08E50877035
:1016900020911A0140E4249F90011124822B809311
:1016A0007C0080917A00806480937A0080917A0037
:1016B00086FDFCCF2091780030917900932F80E057
:1016C000AC01422B9A01C90108951F93CF93DF9378
:1016D000182FEB0161E00E94F00B209711F460E0FD
:1016E00004C0CF3FD10539F461E0812FDF91CF9164
:1016F0001F910C94280CE12FF0E0E859FF4FE49182
:10170000E330B9F028F4E13051F0E230B1F50CC02B
:10171000E63019F1E73049F1E43079F514C084B5C9
:10172000806884BDC7BD2EC084B5806284BDC8BD3D
:1017300029C080918000806880938000D0938900C8
:10174000C09388001FC080918000806280938000D9
:10175000D0938B00C0938A0015C08091B000806840
:101760008093B000C093B3000DC08091B000806240
:101770008093B000C093B40005C0C038D1050CF010
:10178000B3CFADCFDF91CF911F910895833069F032
:1017900028F48130A1F0823011F514C08630B1F008
:1017A0008730C1F08430D9F404C0809180008F77F5
:1017B00003C0809180008F7D80938000089584B560
:1017C0008F7702C084B58F7D84BD08958091B0006D
:1017D0008F7703C08091B0008F7D8093B000089513
:1017E000CF93DF9390E0FC01E458FF4F4491FC015C
:1017F000E057FF4F8491882341F190E0880F991FB3
:10180000FC01E854FF4F25913491D90182559F4F37
:10181000FC0185919491C82FD92F9FB7F8948C9192
:10182000611106C0409584238C938881842308C06D
:10183000623041F4242F209582238C938881842B5D
:10184000888302C0842B8C939FBFDF91CF91089532
:101850000F931F93CF93DF931F92CDB7DEB7282F3F
:1018600030E0F901E859FF4F8491F901E458FF4F46
:101870001491F901E057FF4F04910023D1F0882320
:1018800021F069830E94C60B6981E02FF0E0EE0F22
:10189000FF1FE255FF4F85919491DC019FB7F894AB
:1018A0008C91611103C01095812301C0812B8C9311
:1018B0009FBF0F90DF91CF911F910F910895CF930C
:1018C000DF93282F30E0F901E859FF4F8491F901A7
:1018D000E458FF4FD491F901E057FF4FC491CC2356
:1018E00089F081110E94C60BEC2FF0E0EE0FFF1F74
:1018F000EC55FF4F85919491DC018C918D2321E073
:1019000030E011F420E030E0C901DF91CF9108957B
:101910008F929F92AF92BF92CF92DF92EF92FF92FF
:101920000F931F93CF93DF9390E0FC01E458FF4F98
:10193000D491FC01E057FF4F7491611102C0C0E0E7
:1019400001C0CD2FDA01C901880F991FAA1FBB1F43
:1019500054E0B695A795979587955A95D1F7672F37
:1019600070E0660F771F6C557F4F812C912C5401CE
:10197000FB010591149110C0C12CD12C7601C394A8
:10198000C80CD91CEA1CFB1C88169906AA06BB06C3
:1019900009F448C046015701F801E081ED23EC1736
:1019A00059F310C0C12CD12C7601C394C80CD91C9A
:1019B000EA1CFB1C88169906AA06BB0699F146018B
:1019C000570103C0FB0105911491F801E081ED235B
:1019D000EC13E8CF88199909AA09BB0920E030E087
:1019E000A901FB016591749109C0281739074A07BD
:1019F0005B07C1F02F5F3F4F4F4F5F4FFB01E0810F
:101A0000ED23EC1791F3A5E1B0E00E948F128B015A
:101A10009C01005F1F4F2F4F3F4F3695279517951D
:101A2000079503C000E010E09801B801C901DF91FB
:101A3000CF911F910F91FF90EF90DF90CF90BF90CB
:101A4000AF909F908F9008951F920F920FB60F92B4
:101A500011242F933F938F939F93AF93BF938091C4
:101A6000740290917502A0917602B0917702309144
:101A70007C02232F285E2D3720F40896A11DB11D6E
:101A800005C0232F25560996A11DB11D20937C0268
:101A90008093740290937502A0937602B0937702BC
:101AA0008091780290917902A0917A02B0917B02A4
:101AB0000196A11DB11D8093780290937902A093A5
:101AC0007A02B0937B02BF91AF919F918F913F912A
:101AD0002F910F900FBE0F901F9018950F931F938B
:101AE0008FB7F894009174021091750220917602DC
:101AF000309177028FBFB801C9011F910F910895EE
:101B00000F931F939FB7F894009178021091790278
:101B100020917A0230917B0286B5A89B06C08F3F48
:101B200021F00F5F1F4F2F4F3F4F9FBF322F212FAD
:101B3000102F0027080F111D211D311D45E0000F3A
:101B4000111F221F331F4A95D1F7B801C9011F91F8
:101B50000F910895CF92DF92EF92FF92CF93DF9390
:101B60006B017C010E94800DEB010EC00E94800D74
:101B70006C1B7D0B683E734038F081E0C81AD108B9
:101B8000E108F108C851DC4FC114D104E104F104AB
:101B900069F7DF91CF91FF90EF90DF90CF9008959C
:101BA000019739F0019729F0880F991F0197019744
:101BB000F1F70895789484B5826084BD84B581601E
:101BC00084BD85B5826085BD85B5816085BDEEE645
:101BD000F0E0808181608083E1E8F0E01082808124
:101BE00082608083E0E8F0E0808181608083E1EBC7
:101BF000F0E0808184608083E0EBF0E080818160B0
:101C00008083EAE7F0E08081846080838081826065
:101C1000808380818160808380818068808310924E
:101C2000C10008958230E8F4E82FF0E0EE0FFF1FC6
:101C3000E358FD4F71836083813041F080916900EA
:101C40008C7F842B80936900E89A089580916900C5
:101C5000440F551F440F551F837F842B80936900C9
:101C6000E99A0895823068F4813011F0E89801C053
:101C7000E998E82FF0E0EE0FFF1FE358FD4F1182C7
:101C8000108208951F920F920FB60F9211242F9376
:101C90003F934F935F936F937F938F939F93AF93F4
:101CA000BF93EF93FF9380917D0290917E02892BE9
:101CB00029F0E0917D02F0917E020995FF91EF916C
:101CC000BF91AF919F918F917F916F915F914F9154
:101CD0003F912F910F900FBE0F901F9018951F925C
:101CE0000F920FB60F9211242F933F934F935F9350
:101CF0006F937F938F939F93AF93BF93EF93FF93D4
:101D000080917F0290918002892B29F0E0917F02DF
:101D1000F09180020995FF91EF91BF91AF919F9152
:101D20008F917F916F915F914F913F912F910F9084
:101D30000FBE0F901F901895CF92DF92EF92FF92F7
:101D40000F931F93CF93DF936C01EB017A01E60EA3
:101D5000F71E00E010E00BC06991D601ED91FC91F7
:101D60000190F081E02DC6010995080F191FCE15CD
:101D7000DF0591F7C801DF91CF911F910F91FF907F
:101D8000EF90DF90CF9008950E94DA0D0E94E2015B
:101D9000C0EADFE00E9429022097E1F30E94A00F31
:101DA000F9CFFC0184859585FC01E05CFF4F208123
:101DB0003181FC01EE5BFF4F80819181281B390B43
:101DC0002F733327C9010895FC0184859585FC0193
:101DD000E05CFF4F40815181FC01EE5BFF4F2081B1
:101DE00031814217530741F00190F081E02DE80F57
:101DF000F91F208130E002C02FEF3FEFC9010895A5
:101E0000FC0184859585FC01E05CFF4F4081518198
:101E1000FC01EE5BFF4F208131814217530781F0B7
:101E2000A081B181A80FB91F8C91208131812F5FD2
:101E30003F4F2F73332731832083282F30E002C098
:101E40002FEF3FEFC9010895FC0186859785FC01BE
:101E5000E05CFF4FDC01AE5BBF4F408151812D91B3
:101E60003C91119742175307C1F70895CF93DF9321
:101E7000FC0186859785DC01A05CBF4F2D913C91CC
:101E800011972F5F3F4F2F733327EC01CE5BDF4F4E
:101E90004881598124173507D9F30D90BC91A02DA5
:101EA000A80FB91F6C93A685B785A05CBF4F11968C
:101EB0003C932E93A689B7892C9181E090E0058C04
:101EC00002C0880F991F0A94E2F7282B2C9381E017
:101ED00090E0DF91CF91089508951F920F920FB671
:101EE0000F9211242F933F934F938F939F93EF93D0
:101EF000FF934091C60080912403909125030196A1
:101F00008F73992720912603309127038217930717
:101F100059F0E0912403F0912503EC51FD4F4083EB
:101F20009093250380932403FF91EF919F918F91CC
:101F30004F913F912F910F900FBE0F901F901895CA
:101F400081E892E00E94D10E892B11F00C946C0F65
:101F500008951F920F920FB60F9211242F933F9363
:101F60008F939F93EF93FF932091E0023091E102D2
:101F70008091E2029091E3022817390731F48091B1
:101F8000C1008F7D8093C10014C0E091E202F09106
:101F9000E302E056FD4F20818091E2029091E3023E
:101FA00001968F7399279093E3028093E202209326
:101FB000C600FF91EF919F918F913F912F910F90CC
:101FC0000FBE0F901F901895CF92DF92EF92FF9265
:101FD000CF93DF93EC016A017B01EC89FD8981E0FD
:101FE00090E00E8C02C0880F991F0A94E2F780835C
:101FF00060E271EA87E090E0A70196010E94B612C4
:102000002150310941095109569547953795279532
:10201000211580E1380798F0EC89FD89108260E98C
:1020200070ED83E090E0A70196010E94B612215066
:102030003109410951095695479537952795E88902
:10204000F9893083EA89FB892083EE89FF89408101
:1020500081E090E09C010A8C02C0220F331F0A9499
:10206000E2F7422B4083EE89FF8940819C010B8C73
:1020700002C0220F331F0A94E2F7422B4083EE89FD
:10208000FF8940819C010C8C02C0220F331F0A94EF
:10209000E2F7422B4083EE89FF8920810D8C02C03C
:1020A000880F991F0A94E2F7809582238083DF913D
:1020B000CF91FF90EF90DF90CF900895CF93DF9373
:1020C000FC0186859785DC01A05CBF4FEC01CE5BEF
:1020D000DF4F4D915C911197288139814217530749
:1020E000C1F7A689B7894C9181E090E09C01028CF0
:1020F00002C0220F331F0A94E2F7209524232C9369
:10210000A689B7894C919C01038C02C0220F331F12
:102110000A94E2F7209524232C93A689B7894C9141
:102120009C01048C02C0220F331F0A94E2F7209511
:1021300024232C93A689B7892C91058C02C0880F83
:10214000991F0A94E2F7809582238C938485958564
:10215000FC01EE5BFF4F20813181FC01E05CFF4F11
:1021600031832083DF91CF910895109284021092E1
:10217000830288EE93E0A0E0B0E080938502909324
:102180008602A0938702B09388028FE291E0909339
:1021900082028093810284EE92E090938E0280937B
:1021A0008D0280EA92E09093900280938F0285ECFA
:1021B00090E0909392028093910284EC90E090934F
:1021C00094028093930280EC90E090939602809327
:1021D000950281EC90E0909398028093970286ECB0
:1021E00090E090939A028093990284E080939B02FE
:1021F00083E080939C0287E080939D0285E080933A
:102200009E0281E080939F0208950CD0EBC0E3D042
:1022100040F0DAD030F021F45F3F19F0CCC051111A
:1022200015C1CFC0F0D098F39923C9F35523B1F36A
:10223000951B550BBB27AA2762177307840738F035
:102240009F5F5F4F220F331F441FAA1FA9F333D094
:102250000E2E3AF0E0E830D091505040E695001C48
:10226000CAF729D0FE2F27D0660F771F881FBB1F04
:10227000261737074807AB07B0E809F0BB0B802DDE
:10228000BF01FF2793585F4F2AF09E3F510568F02A
:1022900092C0DCC05F3FECF3983EDCF38695779507
:1022A0006795B795F7959F5FC9F7880F911D96952C
:1022B000879597F90895E1E0660F771F881FBB1F88
:1022C000621773078407BA0720F0621B730B840B35
:1022D000BA0BEE1F88F7E095089504D06894B11109
:1022E000B5C0089598D088F09F5790F0B92F9927DE
:1022F000B751A0F0D1F0660F771F881F991F1AF011
:10230000BA95C9F712C0B13081F09FD0B1E00895FD
:102310009CC0672F782F8827B85F39F0B93FCCF37E
:10232000869577956795B395D9F73EF49095809506
:10233000709561957F4F8F4F9F4F0895E89409C026
:1023400097FB3EF490958095709561957F4F8F4FE8
:102350009F4F9923A9F0F92F96E9BB279395F695FE
:10236000879577956795B795F111F8CFFAF4BB0F7C
:1023700011F460FF1BC06F5F7F4F8F4F9F4F16C0E0
:10238000882311F096E911C0772321F09EE8872F6A
:10239000762F05C0662371F096E8862F70E060E026
:1023A0002AF09A95660F771F881FDAF7880F96959F
:1023B000879597F9089597F99F6780E870E060E046
:1023C00008959FEF80EC089500240A9416161706CE
:1023D00018060906089500240A9412161306140616
:1023E00005060895092E0394000C11F4882352F079
:1023F000BB0F40F4BF2B11F460FF04C06F5F7F4F31
:102400008F4F9F4F089557FD9058440F551F59F017
:102410005F3F71F04795880F97FB991F61F09F3FD1
:1024200079F087950895121613061406551FF2CFFA
:102430004695F1DF08C0161617061806991FF1CF4A
:1024400086957105610508940895E894BB27662771
:102450007727CB0197F908950BD0C4CFB5DF28F0CB
:10246000BADF18F0952309F0A6CFABCF1124EECF39
:10247000CADFA0F3959FD1F3950F50E0551F629FDF
:10248000F001729FBB27F00DB11D639FAA27F00DCD
:10249000B11DAA1F649F6627B00DA11D661F829FF4
:1024A0002227B00DA11D621F739FB00DA11D621FD9
:1024B000839FA00D611D221F749F3327A00D611DF6
:1024C000231F849F600D211D822F762F6A2F1124D8
:1024D0009F5750408AF0E1F088234AF0EE0FFF1F2B
:1024E000BB1F661F771F881F91505040A9F79E3F62
:1024F000510570F060CFAACF5F3FECF3983EDCF35C
:10250000869577956795B795F795E7959F5FC1F79E
:10251000FE2B880F911D9695879597F908950E9437
:10252000F412A59F900DB49F900DA49F800D911D56
:1025300011240895B7FF0C948F120E948F12821BF2
:10254000930B089597FB072E16F4009407D077FDA0
:1025500009D00E94001307FC05D03EF490958195A8
:102560009F4F0895709561957F4F0895A1E21A2EAF
:10257000AA1BBB1BFD010DC0AA1FBB1FEE1FFF1F27
:10258000A217B307E407F50720F0A21BB30BE40B77
:10259000F50B661F771F881F991F1A9469F76095BE
:1025A0007095809590959B01AC01BD01CF01089578
:1025B000052E97FB16F4009407D057FD0DD00E940E
:1025C000B61207FC09D07EF49095809570956195C0
:1025D0007F4F8F4F9F4F089550954095309521958F
:1025E0003F4F4F4F5F4F0895A29FB001B39FC0016F
:1025F000A39F01D0B29F700D811D1124911D0895DC
:10260000AA1BBB1B51E107C0AA1FBB1FA617B70718
:1026100010F0A61BB70B881F991F5A95A9F7809534
:102620009095BC01CD010895EE0FFF1F0590F49128
:08263000E02D0994F894FFCF9E
:102638000000803F0000803F0A000500C800060037
:1026480009000D000400080007000100000000F464
:1026580007C6076907720786079607000000003655
:0C2668000F9C0ED10E000FE40E240F009A
:00000001FF
