:100000000C9464000C94EF0D0C941C0E0C948C005A
:100010000C948C000C948C000C948C000C948C0030
:100020000C948C000C948C000C948C000C948C0020
:100030000C948C000C948C000C948C000C948C0010
:100040000C94CE0C0C948C000C943F100C947B10F0
:100050000C948C000C948C000C948C000C948C00F0
:100060000C948D080C948C00000000070002010025
:100070000003040600000000000000000102040864
:100080001020408001020408102001020408102002
:10009000040404040404040402020202020203032E
:1000A00003030303000000002300260029000000D2
:1000B0000000250028002B0000000000240027007D
:1000C0002A003C0734088D1111241FBECFEFD8E061
:1000D000DEBFCDBF11E0A0E0B1E0E8EEF7E202C084
:1000E00005900D92A634B107D9F713E0A6E4B1E06C
:1000F00001C01D92A832B107E1F710E0C8ECD0E0D2
:1001000004C02297FE010E94EE13C23CD107C9F73A
:100110000E94960F0C94F2130C94000080917101D0
:10012000909172010196909372018093710181E028
:1001300090E09093760180937501089580916F010E
:100140009091700101969093700180936F0181E00E
:1001500090E090937401809373010895CF93DF939F
:1001600032C08BEA91E00E9440070497C1F41092DC
:10017000500110924F011092520110925101809142
:100180005D0190915E01892B51F00E94180D6093E2
:100190006301709364018093650190936601C0913F
:1001A0005101D09152018BEA91E00E944907FE0172
:1001B000EE0FFF1FED5AFE4F918380832196D0935F
:1001C0005201C09351018BEA91E00E944007892BB4
:1001D00041F6DF91CF91089580915D0190915E018C
:1001E000892B51F00E94180D609363017093640194
:1001F000809365019093660180914D0190914E012D
:10020000029701F58091460190914701FC01E65B60
:10021000FE4F6081019690934701809346018BEADF
:1002200091E00E94CB07809146019091470102978F
:10023000D1F4109247011092460110924E01109293
:100240004D01089560916D0170916E016115710508
:1002500051F0E091AB01F091AC010190F081E02D03
:100260008BEA91E00994089560E0809118010E9462
:10027000020C61E0809116010E94020C60E0809106
:1002800014010E94020C61E0809112010C94020C96
:1002900061E0809118010E94020C60E080911601DB
:1002A0000E94020C61E0809114010E94020C60E047
:1002B000809112010C94020C60E0809118010E9460
:1002C000020C61E0809116010E94020C61E08091B5
:1002D00014010E94020C61E0809112010C94020C46
:1002E00060E0809118010E94020C61E0809116018B
:1002F0000E94020C61E0809114010E94020C60E0F7
:10030000809112010C94020C61E0809118010E940E
:10031000020C61E0809116010E94020C60E0809165
:1003200014010E94020C61E0809112010C94020CF5
:1003300061E0809118010E94020C60E0809116013A
:100340000E94020C60E0809114010E94020C61E0A6
:10035000809112010C94020C61E0809118010E94BE
:10036000020C61E0809116010E94020C61E0809114
:1003700014010E94020C61E0809112010C94020CA5
:10038000892B19F480910A0102C0809108010C9414
:100390003F0B40E052EC61E070E081E892E00E94A7
:1003A000B6106BE171E081E892E00E94810E43E0BB
:1003B00050E06EE870E080E00E94BF0D43E050E046
:1003C0006EE970E081E00E94BF0D61E0809118014C
:1003D0000E94CA0B61E0809116010E94CA0B61E085
:1003E000809114010E94CA0B61E0809112010E9469
:1003F000CA0B65E070E083EA91E00E94D20968E9E7
:1004000078E083EA91E00E94CA0968E070E08BEA34
:1004100091E00E9428086EEA70E08BEA91E00E9469
:100420002A086CEE70E08BEA91E00E942F08809120
:100430000C0190910D019093A00180939F019093E6
:10044000A2018093A10108958F929F92AF92BF92D3
:10045000CF92DF92EF92FF926091A1017091A20181
:10046000809110010E943F0B60919F017091A0014B
:1004700080910E010E943F0B809153019091540195
:100480000A9791F58091750190917601019751F449
:100490006FEF70E080910A010E943F0B109276018D
:1004A000109275018091730190917401019751F43C
:1004B0006FEF70E081E090E00E94C0011092740143
:1004C0001092730168EC70E080E090E00E94540D9F
:1004D00060E070E080910A010E943F0B60E070E0F4
:1004E00081E090E00E94C0018091530190915401FD
:1004F0000B97E9F440E855E260E070E081E892E0B3
:100500000E94B61081E892E00E94A30F892BD1F3DC
:1005100081E892E00E94D20F813629F46BE681E8EF
:1005200092E00E94081081E892E00E9436118091CA
:100530005301909154010C9789F480915501909149
:10054000560161E00E94CA0B6091570170915801F9
:1005500080915501909156010E94020C80915301A7
:10056000909154018737910509F448C48091530153
:10057000909154018337910509F00CC13FC48091DB
:10058000990190919A01892B79F4F0929A01E09265
:1005900099010E942A0D60938B0170938C018093C6
:1005A0008D0190938E0128C010929A0110929901AA
:1005B0000E942A0D609387017093880180938901BE
:1005C00090938A0180908B0190908C01A0908D0176
:1005D000B0908E01DC01CB0188199909AA09BB09E9
:1005E00080937B0190937C01A0937D01B0937E0169
:1005F000F0929401E09293011092760110927501AD
:10060000E0907301F090740181E0E816F10409F0C4
:1006100041C08091970190919801892B79F4F092D3
:100620009801E09297010E942A0D609383017093D4
:100630008401809385019093860128C010929801CF
:10064000109297010E942A0D60937F0170938001A0
:100650008093810190938201809083019090840126
:10066000A0908501B0908601DC01CB018819990921
:10067000AA09BB098093770190937801A09379012F
:10068000B0937A01F0929601E09295011092740174
:10069000109273018091930190919401019709F058
:1006A00079C0C0907B01D0907C01E0907D01F090FA
:1006B0007E0181E1C81687E2D806E104F10408F45E
:1006C00069C060917701709178016C197D09709310
:1006D000920160939101882777FD8095982F0E9461
:1006E0007812209100013091010140910201509156
:1006F00003010E9404134B015C01C701B6010E9473
:1007000076129B01AC01C501B4010E94DD11AB0161
:10071000BC0140930401509305016093060170935E
:1007200007016A017B01F7FAF094F7F8F094609101
:10073000A1017091A201882777FD8095982F0E94D2
:1007400078129B01AC01C701B6010E9404130E94FC
:1007500045129B017093900160938F0180919F01DE
:100760009091A001820F931F8F3F910519F014F013
:100770008FEF90E097FF02C080E090E09093A0019F
:1007800080939F011092960110929501109294010E
:1007900010929301809153019091540184379105F7
:1007A00061F48091A1019091A201853F91051CF017
:1007B0008FEF90E016C00A9614C08091530190917B
:1007C000540187369105E9F48091A1019091A2012D
:1007D0008B3091052CF41092A2011092A10105C05A
:1007E0000A979093A2018093A1018091A101909119
:1007F000A2019093A00180939F0110925401109246
:10080000530180915301909154018734910549F42B
:1008100080915501909156019093A2018093A1017E
:100820000FC080915301909154018634910561F479
:1008300080915501909156019093A00180939F0162
:1008400010925401109253018091530190915401E0
:100850008737910509F4DCC28091530190915401CE
:100860008936910509F0D7C2D3C20E945C0198C1B4
:1008700080915301909154018236910519F40E94A0
:1008800070018EC18091530190915401833791057D
:1008900009F4CAC280915301909154018B3691059D
:1008A00009F0C5C2C1C20E9484017AC1809153017E
:1008B000909154018E36910519F40E94980170C1EF
:1008C00080915301909154018837910519F40E9449
:1008D000AC0166C180915301909154018637910516
:1008E000A9F480E00E941E0B90939E0180939D01CD
:1008F0009C0197FF02C021503F4F30934A0160E0B6
:1009000071E00E947A1380934B01B8C0809153012B
:10091000909154018537910509F077C0E090550119
:10092000F090560161E271E081E892E00E94810E50
:100930004AE050E0B70181E892E00E94740F61E064
:100940008E2D0E94CA0B60E08E2D0E94020C82E068
:1009500090E00E947A0D61E08E2D0E94020C85E0ED
:1009600090E00E947A0D60E08E2D0E94020C60E003
:100970008E2D0E94CA0B20E432E44FE050E061E08B
:100980008E2D0E94390C2AE330E040E050E00E94B6
:10099000B013F90137FF02C021503F4F30934A0195
:1009A000CF0160E071E00E947A1380934B0182E0F6
:1009B00090E090934E0180934D014AE050E0BF01DA
:1009C00081E892E00E94740F63E271E081E892E0B6
:1009D0000E94810E4AE050E060914A0181E892E075
:1009E0000E94090F63E271E081E892E00E94810EAB
:1009F0004AE050E060914B0181E892E00E94100FC4
:100A00001092540110925301CBC0809153019091E8
:100A100054018C36910559F4609157017091580139
:100A200080915501909156010E94C001E9CF8091BB
:100A300053019091540185369105B9F460915501A7
:100A40007091560170939C0160939B014AE050E0C5
:100A500081E892E00E947C0F60919B0170919C0163
:100A600083EA91E00E94F00938C08091530190918F
:100A70005401449751F48CE080934A0182E090E065
:100A800090934E0180934D01BBCF80915301909183
:100A90005401C39779F443E050E06EE870E080E0E1
:100AA0000E94BF0D43E050E06EE970E081E00E94DB
:100AB000BF0DA6CF8091530190915401C49739F492
:100AC00081E00E94DF0D80E00E94DF0D99CF8091D0
:100AD000530190915401CD9739F481E090E09093C7
:100AE0004901809348018CCF80915301909154012A
:100AF000CC9729F4109249011092480181CF80913E
:100B00005301909154018035910569F5809155010B
:100B1000909156012091570130915801982F8827C4
:100B2000820F931FAA2797FDA095BA2F80935F018C
:100B300090936001A0936101B093620110925401FF
:100B4000109253010E94180D609363017093640129
:100B5000809365019093660181E090E090935E013F
:100B600080935D011DC080915301909154018135A6
:100B70009105B1F410925401109253010E94180D86
:100B800060936301709364018093650190936601A3
:100B900010925E0110925D0110926E0110926D0133
:100BA00080915D0190915E01892B29F10E94180DC1
:100BB000C0906301D0906401E0906501F0906601FF
:100BC0006C197D098E099F09C0905F01D09060016A
:100BD000E0906101F0906201C616D706E806F906BA
:100BE00050F40E94AC0110925401109253011092E3
:100BF0005E0110925D018091530190915401C29762
:100C000009F41EC180916D0190916E01019709F068
:100C1000E4C016C1109254011092530181E090E09B
:100C200090936E0180936D018091550190915601D2
:100C300097FD01969595879590936C0180936B0134
:100C4000809155019091560162E070E00E947A1304
:100C500090936A01809369018091570190915801A6
:100C60002091590130915A01982F8827820F931FA4
:100C700090936801809367011092700110926F0148
:100C8000109272011092710180916B0190916C0130
:100C90002091690130916A01892B59F08091670197
:100CA00090916801232B81F42091710130917201A0
:100CB00016C0232BC1F020916F01309170018091FB
:100CC0006701909168010BC0209171013091720110
:100CD0002817390744F020916F01309170012817CF
:100CE00039070CF0B5C060915501709156014AE08A
:100CF00050E081E892E00E94740F63E271E081E8C5
:100D000092E00E94810E60915701709158014AE073
:100D100050E081E892E00E94740F63E271E081E8A4
:100D200092E00E94810E6091590170915A014AE04F
:100D300050E081E892E00E94740F63E271E081E884
:100D400092E00E94810E60917101709172014AE0FF
:100D500050E081E892E00E94740F63E271E081E864
:100D600092E00E94810E60916F01709170014AE0E3
:100D700050E081E892E00E94740F63E271E081E844
:100D800092E00E94810E60914D0170914E014AE007
:100D900050E081E892E00E94740F63E271E081E824
:100DA00092E00E94810E60916D0170916E014AE0A7
:100DB00050E081E892E00E94740F63E271E081E804
:100DC00092E00E94810E60916701709168014AE093
:100DD00050E081E892E00E947C0F80914801909160
:100DE0004901892B09F43FC0FF90EF90DF90CF902D
:100DF000BF90AF909F908F900C94360AE090750151
:100E0000F090760181E0E816F10409F0F9CBB7CB58
:100E10000E943401C5CE80915301909154018136D6
:100E2000910509F025CD21CD0E944801B9CE8091D0
:100E30005301909154018436910509F037CD33CD9B
:100E40008091530190915401C29709F01DCFE2CED9
:100E500010925401109253010E94AC0110926E0145
:100E600010926D0140CFFF90EF90DF90CF90BF9038
:100E7000AF909F908F90089583EA91E00C94BD0904
:100E80002091DE0130E08091DF01281B3109C9018A
:100E900008958091DF019091DE01891750F4E82FC9
:100EA000F0E0E052FE4F208130E08F5F8093DF0161
:100EB00002C02FEF3FEFC9010895E091DF0180915B
:100EC000DE01E81730F4F0E0E052FE4F208130E020
:100ED00002C02FEF3FEFC90108950895E091B701D7
:100EE000F091B8013097E1F03091DF012091DE01FF
:100EF0003217B0F040E009C0DC01A20FB31F5C91D3
:100F0000D901A052BE4F5C934F5F242F30E02617CB
:100F1000370794F31092DF016093DE01CB0109944F
:100F20000895E091B901F091BA01309729F010923B
:100F3000BD011092BC0109940895CF92DF92EF9207
:100F4000FF920F931F93CF93DF937C01CB018A0114
:100F50002091BB01222391F0EB016B01C40ED51E41
:100F600009C06991D701ED91FC910190F081E02DCC
:100F7000C7010995CC15DD05A1F703C0642F0E94B8
:100F80005A08C801DF91CF911F910F91FF90EF9008
:100F9000DF90CF900895CF93DF931F92CDB7DEB748
:100FA00069832091BB012223D1F02091BC01203222
:100FB00040F021E030E0FC013383228320E030E088
:100FC00015C08091BD01E82FF0E0E254FE4F9981F9
:100FD00090838F5F8093BD018093BC0105C061E069
:100FE000CE0101960E945A0821E030E0C9010F901D
:100FF000DF91CF910895FC011382128248EE53E0F5
:1010000060E070E0448355836683778389E291E0F2
:101010009183808308951092DF011092DE01109277
:10102000BD011092BC010C943808CF93DF93EC0102
:10103000862F0E94560881E997E00E9478088EE684
:1010400097E00E947308CE01DF91CF910C940B08BA
:101050000C9415087093B8016093B70108957093CC
:10106000BA016093B90108958BEA91E00C94FB07F3
:101070001092090281E0809307021092060261E05B
:1010800082E10E94020C61E083E10E94020CE9EB24
:10109000F0E080818E7F808380818D7F808388E4F3
:1010A0008093B80085E48093BC000895880F8093F6
:1010B000BA000895613298F420910902243089F42D
:1010C00060930202FC018AE292E0DC0102C02191FD
:1010D0002D932A2F281B2617D0F380E0089581E056
:1010E000089582E0089590934B0280934A020895F8
:1010F00090934D0280934C02089585ED8093BC003F
:101100008091BC0084FDFCCF10920902089585EC0B
:101110008093BC001092090208951F920F920FB69F
:101120000F9211242F933F934F935F936F937F936D
:101130008F939F93AF93BF93EF93FF938091B900E9
:10114000887F803609F49FC058F5883209F45BC067
:1011500090F4803109F452C038F4882309F4F8C0BF
:10116000883009F0F9C04AC0883109F44CC0803297
:1011700009F0F2C05CC0803409F46BC038F48033ED
:1011800009F455C0883309F0E7C054C0803509F42C
:1011900054C0883509F462C0883409F0DDC0DAC073
:1011A000883909F4CBC0A8F4883709F46CC038F446
:1011B000883609F468C0803709F0CEC064C088382A
:1011C00009F4BCC0803909F464C0803809F0C4C097
:1011D00060C0803B09F48AC038F4803A09F46BC0DF
:1011E000883A09F0B9C082C0803C09F4ABC0883CA1
:1011F00009F4A8C0883B09F0AFC08DC080910802F7
:101200008093BB0012C09091050280910402981750
:1012100088F580910502E82FF0E0E65FFD4F9081B0
:101220009093BB008F5F8093050285EC88C080930C
:10123000000290C08093000256C0809105029091F8
:10124000BB00E82FF0E0E65FFD4F90838F5F809357
:10125000050290910502809104026DC08091050203
:101260009091BB00E82FF0E0E65FFD4F90838F5F29
:10127000809305028091070281116CC081E0809308
:10128000060284EA60C083E08093090210920102A2
:10129000CCCF80910102803208F050C080910102D1
:1012A0009091BB00E82FF0E0E25BFD4F90838F5FF1
:1012B00080930102BACF80910102803230F4E09134
:1012C0000102F0E0E25BFD4F10820E947D08609118
:1012D0000102E0914A02F0914B0270E08EE492E04C
:1012E0000995109201020E94870836C084E080931D
:1012F00009021092030210920202E0914C02F09156
:101300004D02099580910202811105C081E0809310
:10131000020210922A0280910302E82FF0E0E65DBB
:10132000FD4F90819093BB008F5F8093030290915B
:10133000030280910202981708F477CF85E8809322
:10134000BC000AC085EC8093BC001092090204C066
:10135000109200020E947D08FF91EF91BF91AF9122
:101360009F918F917F916F915F914F913F912F91BD
:101370000F900FBE0F901F901895FC0110828FEFF9
:1013800081831382128282E2848386E985831782B5
:101390001682089534E0769567953A95E1F7FC0159
:1013A00065830895CF93DF93EC01862F68839FEFC9
:1013B00099831B821A8220916E0230916F023F83C3
:1013C0002E83D0936F02C0936E0260E00E94020CE5
:1013D00061E088810E94CA0B81E0DF91CF9108957E
:1013E000CF92DF92EF92FF92CF93DF93EC0177FDE4
:1013F00004C0653B710524F405C060E070E002C0E4
:1014000064EB70E06983CC802D8130E02C193109C8
:10141000D12CE12CF12CFE2CED2CDC2CCC24C901A0
:10142000AA2797FDA095BA2F2227382F492F5A2F88
:10143000DB010E94721324EB30E040E050E00E9498
:10144000B013C20ED31EE41EF51EC701B60120E480
:1014500030E040E050E00E94B0133B832A83DF91EC
:10146000CF91FF90EF90DF90CF9008955F926F92B1
:101470007F928F929F92AF92BF92CF92DF92EF9224
:10148000FF920F931F93CF93DF93CDB7DEB70DB7C6
:101490001EB7ADB6BEB60E94180DC0907002D090B7
:1014A0007102E0907202F09073026C157D058E055A
:1014B0009F0558F024E1C20ED11CE11CF11C6C15F3
:1014C0007D058E059F0508F49DC0609370027093A2
:1014D00071028093720290937302E0916E02F09118
:1014E0006F02DF01D12C0BC012968D919C91139746
:1014F000892B09F0D39416960D90BC91A02D1097CE
:1015000099F7DD2009F47EC08DB79EB7A2E0DA9E80
:101510008019910911240FB6F8949EBF0FBE8DBF9C
:10152000019640E00FC022813381232B41F0DC0182
:10153000A40FB11DA40FB11DED93FC934F5F068066
:10154000F781E02D309779F727C0EC2DF0E03F01CF
:10155000660C771C680E791ED3012D913C91319752
:10156000EE0FFF1FE80FF91F40815181D90112963C
:10157000ED90FC901397DA0112966D917C91139780
:10158000E616F70638F4D3014D935C93318320833C
:1015900099249394C39403C0912CCC24C394CD1468
:1015A000A0F29110F9CF7C014C01C12CD401ED9136
:1015B000FD914D0161E080810E94020CC394CD1029
:1015C000F5CF46B5812C912C512C642E712CD7016E
:1015D000ED91FD917D0182819381860D971DC6B4A9
:1015E000C41608F493944C2D94012C0D311D8217D0
:1015F0009307A8F760E080810E94020C53944C2D61
:101600005D10E5CF8A2D9B2D0FB6F8949EBF0FBEBF
:101610008DBF0FB6F8941EBF0FBE0DBFDF91CF91E7
:101620001F910F91FF90EF90DF90CF90BF90AF9000
:101630009F908F907F906F905F9008958E3008F00C
:101640008E50877020911A0140E4249F900111244C
:10165000822B80937C0080917A00806480937A0052
:1016600080917A0086FDFCCF20917800309179003E
:10167000932F80E0AC01422B9A01C90108951F937A
:10168000CF93DF93182FEB0161E00E94CA0B2097E4
:1016900011F460E004C0CF3FD10539F461E0812F3F
:1016A000DF91CF911F910C94020CE12FF0E0E859EB
:1016B000FF4FE491E330B9F028F4E13051F0E2302B
:1016C000B1F50CC0E63019F1E73049F1E43079F5B5
:1016D00014C084B5806884BDC7BD2EC084B5806247
:1016E00084BDC8BD29C0809180008068809380003F
:1016F000D0938900C09388001FC0809180008062D1
:1017000080938000D0938B00C0938A0015C0809195
:10171000B00080688093B000C093B3000DC080918A
:10172000B00080628093B000C093B40005C0C038A0
:10173000D1050CF0B3CFADCFDF91CF911F910895BC
:10174000833069F028F48130A1F0823011F514C0A3
:101750008630B1F08730C1F08430D9F404C0809174
:1017600080008F7703C0809180008F7D8093800000
:10177000089584B58F7702C084B58F7D84BD0895A8
:101780008091B0008F7703C08091B0008F7D8093EF
:10179000B0000895CF93DF9390E0FC01E458FF4F31
:1017A0004491FC01E057FF4F8491882341F190E080
:1017B000880F991FFC01E854FF4F25913491D901FE
:1017C00082559F4FFC0185919491C82FD92F9FB7C7
:1017D000F8948C91611106C0409584238C93888184
:1017E000842308C0623041F4242F209582238C93F7
:1017F0008881842B888302C0842B8C939FBFDF91C8
:10180000CF9108950F931F93CF93DF931F92CDB77E
:10181000DEB7282F30E0F901E859FF4F8491F90134
:10182000E458FF4F1491F901E057FF4F0491002352
:10183000D1F0882321F069830E94A00B6981E02FF9
:10184000F0E0EE0FFF1FE255FF4F85919491DC0110
:101850009FB7F8948C91611103C01095812301C04A
:10186000812B8C939FBF0F90DF91CF911F910F9190
:1018700008958F929F92AF92BF92CF92DF92EF9294
:10188000FF920F931F93CF93DF9390E0FC01E458F6
:10189000FF4FD491FC01E057FF4F7491611102C0DA
:1018A000C0E001C0CD2FDA01C901BF70672F70E021
:1018B000660F771F6C557F4F812C912C5401FB01D3
:1018C0000591149110C0C12CD12C7601C394C80C81
:1018D000D91CEA1CFB1C88169906AA06BB0609F44B
:1018E0004BC046015701F801E081ED23EC1759F395
:1018F00010C0C12CD12C7601C394C80CD91CEA1C91
:10190000FB1C88169906AA06BB06B1F146015701D1
:1019100003C0FB0105911491F801E081ED23EC1364
:10192000E8CF88199909AA09BB0920E030E0A9018C
:10193000FB016591749109C0281739074A075B07B5
:10194000D9F02F5F3F4F4F4F5F4FFB01E081ED23F9
:10195000EC1791F3A5E1B0E00E9467138B019C01A5
:10196000005F1F4F2F4F3F4F84E036952795179507
:1019700007958A95D1F703C000E010E09801B801FF
:10198000C901DF91CF911F910F91FF90EF90DF90F0
:10199000CF90BF90AF909F908F9008951F920F921D
:1019A0000FB60F9211242F933F938F939F93AF9372
:1019B000BF938091740290917502A0917602B091CC
:1019C000770230917C02232F2D5F2D3720F4019672
:1019D000A11DB11D05C0232F2A570296A11DB11DBF
:1019E00020937C028093740290937502A0937602F8
:1019F000B09377028091780290917902A0917A0257
:101A0000B0917B020196A11DB11D80937802909345
:101A10007902A0937A02B0937B02BF91AF919F911C
:101A20008F913F912F910F900FBE0F901F9018959F
:101A30000F931F938FB7F894009174021091750261
:101A400020917602309177028FBFB801C9011F91B2
:101A50000F9108950F931F939FB7F8940091780208
:101A60001091790220917A0230917B0286B5A89B71
:101A700006C08F3F21F00F5F1F4F2F4F3F4F9FBF7B
:101A8000322F212F102F0027080F111D211D311D6E
:101A900042E0000F111F221F331F4A95D1F7B801F2
:101AA000C9011F910F910895CF92DF92EF92FF929B
:101AB000CF93DF936B017C010E942A0DEB010EC0D6
:101AC0000E942A0D6C1B7D0B683E734038F081E04C
:101AD000C81AD108E108F108C851DC4FC114D1047B
:101AE000E104F10469F7DF91CF91FF90EF90DF906F
:101AF000CF900895019739F0880F991F880F991F8B
:101B000002970197F1F70895789484B5826084BDB7
:101B100084B5816084BD85B5826085BD85B58160F1
:101B200085BDEEE6F0E0808181608083E1E8F0E051
:101B30001082808182608083808181608083E0E880
:101B4000F0E0808181608083E1EBF0E0808184605F
:101B50008083E0EBF0E0808181608083EAE7F0E061
:101B600080818460808380818260808380818160C5
:101B700080838081806880831092C10008958230C4
:101B8000E8F4E82FF0E0EE0FFF1FE358FD4F7183FC
:101B90006083813041F0809169008C7F842B809339
:101BA0006900E89A089580916900440F551F440F19
:101BB000551F837F842B80936900E99A08958230B2
:101BC00068F4813011F0E89801C0E998E82FF0E05E
:101BD000EE0FFF1FE358FD4F1182108208951F92F0
:101BE0000F920FB60F9211242F933F934F935F9351
:101BF0006F937F938F939F93AF93BF93EF93FF93D5
:101C000080917D0290917E02892B29F0E0917D02E6
:101C1000F0917E020995FF91EF91BF91AF919F9155
:101C20008F917F916F915F914F913F912F910F9085
:101C30000FBE0F901F9018951F920F920FB60F9224
:101C400011242F933F934F935F936F937F938F93C1
:101C50009F93AF93BF93EF93FF9380917F029091F7
:101C60008002892B29F0E0917F02F0918002099592
:101C7000FF91EF91BF91AF919F918F917F916F9164
:101C80005F914F913F912F910F900FBE0F901F903A
:101C90001895CF92DF92EF92FF920F931F93CF93FD
:101CA000DF936C01EB017A01E60EF71E00E010E015
:101CB0000BC06991D601ED91FC910190F081E02D6E
:101CC000C6010995080F191FCE15DF0591F7C80148
:101CD000DF91CF911F910F91FF90EF90DF90CF9008
:101CE0000895DB010D900020E9F7AD014150510945
:101CF000461B570BDC01ED91FC910280F381E02D36
:101D000009940C94710EDC01ED91FC910190F0812D
:101D1000E02D09940F931F93CF93DF93EC016DE0B7
:101D20000E94830E8C016AE0CE010E94830E9C010A
:101D3000200F311FC901DF91CF911F910F9108959D
:101D40004F925F926F927F929F92AF92BF92CF928B
:101D5000DF92EF92FF920F931F93CF93DF93CDB754
:101D6000DEB7A1970FB6F894DEBF0FBECDBF5C0102
:101D70006A017B01922E19A281E0821710F08AE09D
:101D8000982E8E010F5D1F4F492C512C612C712C08
:101D9000C701B601A30192010E948E138C2D929E61
:101DA00080191124015011098A3014F4805D01C09A
:101DB000895CF801808369017A01C114D104E104CE
:101DC000F10431F7B801C5010E94710EA1960FB65A
:101DD000F894DEBF0FBECDBFDF91CF911F910F9161
:101DE000FF90EF90DF90CF90BF90AF909F907F904B
:101DF0006F905F904F9008952115310541F4DC01FB
:101E0000ED91FC910190F081E02D642F09940C94E8
:101E1000A00E9A01462F50E060E070E00C94FC0E9A
:101E20000F931F93CF93DF93EC019A01462F50E05D
:101E300060E070E00E94FC0E8C01CE010E948A0ED0
:101E40009801280F391FC901DF91CF911F910F9180
:101E50000895CF92DF92EF92FF920F931F93CF934B
:101E6000DF93EC016A017B012115310579F4E881EA
:101E7000F9810190F081E02D642FDF91CF911F91C6
:101E80000F91FF90EF90DF90CF9009942A303105A9
:101E900019F477FD0EC02AE0B701A601CE01DF914B
:101EA000CF911F910F91FF90EF90DF90CF900C9406
:101EB000A00E6DE20E94830E8C0144275527BA01C3
:101EC0004C195D096E097F092AE0CE010E94A00E1F
:101ED000080F191FC801DF91CF911F910F91FF903B
:101EE000EF90DF90CF9008959A01AB01662757FDE0
:101EF0006095762F0C94290F0F931F93CF93DF9348
:101F0000EC019A01AB01662757FD6095762F0E9480
:101F1000290F8C01CE010E948A0E9801280F391FCB
:101F2000C901DF91CF911F910F9108950E94840DF7
:101F30000E94C901C2E7D0E10E9424022097E1F388
:101F40000E947210F9CFFC0184859585FC01E05C4C
:101F5000FF4F20813181FC01EE5BFF4F8081918139
:101F6000281B390B2F733327C9010895FC01848581
:101F70009585FC01E05CFF4F40815181FC01EE5BE7
:101F8000FF4F208131814217530741F00190F081CA
:101F9000E02DE80FF91F208130E002C02FEF3FEF66
:101FA000C9010895FC0184859585FC01E05CFF4F23
:101FB00040815181FC01EE5BFF4F2081318142174E
:101FC000530781F0A081B181A80FB91F8C912081A6
:101FD00031812F5F3F4F2F73332731832083282F89
:101FE00030E002C02FEF3FEFC9010895FC01868564
:101FF0009785FC01E05CFF4FDC01AE5BBF4F408189
:1020000051812D913C91119742175307C1F70895C3
:10201000CF93DF93FC0186859785DC01A05CBF4FE1
:102020002D913C9111972F5F3F4F2F733327EC0178
:10203000CE5BDF4F4881598124173507D9F30D90C6
:10204000BC91A02DA80FB91F6C93A685B785A05C85
:10205000BF4F11963C932E93A689B7892C9181E0AE
:1020600090E0058C02C0880F991F0A94E2F7282B94
:102070002C9381E090E0DF91CF91089508951F9215
:102080000F920FB60F9211242F933F934F938F937C
:102090009F93EF93FF934091C6008091240390910A
:1020A000250301968F7399272091260330912703EA
:1020B0008217930759F0E0912403F0912503EC5126
:1020C000FD4F40839093250380932403FF91EF916C
:1020D0009F918F914F913F912F910F900FBE0F9035
:1020E0001F90189581E892E00E94A30F892B11F0B0
:1020F0000C943E1008951F920F920FB60F92112468
:102100002F933F938F939F93EF93FF932091E00240
:102110003091E1028091E2029091E30228173907A1
:1021200031F48091C1008F7D8093C10014C0E09193
:10213000E202F091E302E056FD4F20818091E2023D
:102140009091E30201968F7399279093E302809315
:10215000E2022093C600FF91EF919F918F913F91F2
:102160002F910F900FBE0F901F901895CF92DF9276
:10217000EF92FF92CF93DF93EC016A017B0141154F
:1021800081EE580761057105F9F0EC89FD8981E060
:1021900090E00E8C02C0880F991F0A94E2F78083AA
:1021A00060E079E08DE390E0A70196010E948E1334
:1021B0002150310941095109569547953795279581
:1021C000211580E1380798F0EC89FD89108260E8DC
:1021D00074E88EE190E0A70196010E948E132150D1
:1021E0003109410951095695479537952795E88951
:1021F000F9893083EA89FB892083EE89FF89408150
:1022000081E090E09C010A8C02C0220F331F0A94E7
:10221000E2F7422B4083EE89FF8940819C010B8CC1
:1022200002C0220F331F0A94E2F7422B4083EE894B
:10223000FF8940819C010C8C02C0220F331F0A943D
:10224000E2F7422B4083EE89FF8920810D8C02C08A
:10225000880F991F0A94E2F7809582238083DF918B
:10226000CF91FF90EF90DF90CF900895CF93DF93C1
:10227000FC0186859785DC01A05CBF4FEC01CE5B3D
:10228000DF4F4D915C911197288139814217530797
:10229000C1F7A689B7894C9181E090E09C01028C3E
:1022A00002C0220F331F0A94E2F7209524232C93B7
:1022B000A689B7894C919C01038C02C0220F331F61
:1022C0000A94E2F7209524232C93A689B7894C9190
:1022D0009C01048C02C0220F331F0A94E2F7209560
:1022E00024232C93A689B7892C91058C02C0880FD2
:1022F000991F0A94E2F7809582238C9384859585B3
:10230000FC01EE5BFF4F20813181FC01E05CFF4F5F
:1023100031832083DF91CF9108951092840210922F
:10232000830288EE93E0A0E0B0E080938502909372
:102330008602A0938702B093880289E391E090938C
:1023400082028093810284EE92E090938E028093C9
:102350008D0280EA92E09093900280938F0285EC48
:1023600090E0909392028093910284EC90E090939D
:1023700094028093930280EC90E090939602809375
:10238000950281EC90E0909398028093970286ECFE
:1023900090E090939A028093990284E080939B024C
:1023A00083E080939C0287E080939D0285E0809388
:1023B0009E0281E080939F0208950CD0EBC0E3D091
:1023C00040F0DAD030F021F45F3F19F0CCC0511169
:1023D00015C1CFC0F0D098F39923C9F35523B1F3B9
:1023E000951B550BBB27AA2762177307840738F084
:1023F0009F5F5F4F220F331F441FAA1FA9F333D0E3
:102400000E2E3AF0E0E830D091505040E695001C96
:10241000CAF729D0FE2F27D0660F771F881FBB1F52
:10242000261737074807AB07B0E809F0BB0B802D2C
:10243000BF01FF2793585F4F2AF09E3F510568F078
:1024400092C0DCC05F3FECF3983EDCF38695779555
:102450006795B795F7959F5FC9F7880F911D96957A
:10246000879597F90895E1E0660F771F881FBB1FD6
:10247000621773078407BA0720F0621B730B840B83
:10248000BA0BEE1F88F7E095089504D06894B11157
:10249000B5C0089598D088F09F5790F0B92F99272C
:1024A000B751A0F0D1F0660F771F881F991F1AF05F
:1024B000BA95C9F712C0B13081F09FD0B1E008954C
:1024C0009CC0672F782F8827B85F39F0B93FCCF3CD
:1024D000869577956795B395D9F73EF49095809555
:1024E000709561957F4F8F4F9F4F0895E89409C075
:1024F00097FB3EF490958095709561957F4F8F4F37
:102500009F4F9923A9F0F92F96E9BB279395F6954C
:10251000879577956795B795F111F8CFFAF4BB0FCA
:1025200011F460FF1BC06F5F7F4F8F4F9F4F16C02E
:10253000882311F096E911C0772321F09EE8872FB8
:10254000762F05C0662371F096E8862F70E060E074
:102550002AF09A95660F771F881FDAF7880F9695ED
:10256000879597F9089597F99F6780E870E060E094
:1025700008959FEF80EC089500240A94161617061C
:1025800018060906089500240A9412161306140664
:1025900005060895092E0394000C11F4882352F0C7
:1025A000BB0F40F4BF2B11F460FF04C06F5F7F4F7F
:1025B0008F4F9F4F089557FD9058440F551F59F066
:1025C0005F3F71F04795880F97FB991F61F09F3F20
:1025D00079F087950895121613061406551FF2CF49
:1025E0004695F1DF08C0161617061806991FF1CF99
:1025F00086957105610508940895E894BB276627C0
:102600007727CB0197F908950BD0C4CFB5DF28F019
:10261000BADF18F0952309F0A6CFABCF1124EECF87
:10262000CADFA0F3959FD1F3950F50E0551F629F2D
:10263000F001729FBB27F00DB11D639FAA27F00D1B
:10264000B11DAA1F649F6627B00DA11D661F829F42
:102650002227B00DA11D621F739FB00DA11D621F27
:10266000839FA00D611D221F749F3327A00D611D44
:10267000231F849F600D211D822F762F6A2F112426
:102680009F5750408AF0E1F088234AF0EE0FFF1F79
:10269000BB1F661F771F881F91505040A9F79E3FB0
:1026A000510570F060CFAACF5F3FECF3983EDCF3AA
:1026B000869577956795B795F795E7959F5FC1F7ED
:1026C000FE2B880F911D9695879597F908950E9486
:1026D000CC13A59F900DB49F900DA49F800D911DCC
:1026E00011240895B7FF0C9467130E946713821B8F
:1026F000930B089597FB072E16F4009407D077FDEF
:1027000009D00E94D81307FC05D03EF4909581951E
:102710009F4F0895709561957F4F0895A1E21A2EFD
:10272000AA1BBB1BFD010DC0AA1FBB1FEE1FFF1F75
:10273000A217B307E407F50720F0A21BB30BE40BC5
:10274000F50B661F771F881F991F1A9469F760950C
:102750007095809590959B01AC01BD01CF010895C6
:10276000052E97FB16F4009407D057FD0DD00E945C
:102770008E1307FC09D07EF4909580957095619535
:102780007F4F8F4F9F4F08955095409530952195DD
:102790003F4F4F4F5F4F0895A29FB001B39FC001BD
:1027A000A39F01D0B29F700D811D1124911D08952A
:1027B000AA1BBB1B51E107C0AA1FBB1FA617B70767
:1027C00010F0A61BB70B881F991F5A95A9F7809583
:1027D0009095BC01CD010895EE0FFF1F0590F49177
:0827E000E02D0994F894FFCFED
:1027E8000000803F0000803F0A000500C800060086
:1027F80009000D00040008000700015265616479B2
:10280800005553200000000000CB079D07400749F2
:10281800075D076D07000000000810490EA30FD2DE
:062828000FB60FF60F00D1
:00000001FF
