:100000000C9464000C94520D0C947F0D0C948C0095
:100010000C948C000C948C000C948C000C948C0030
:100020000C948C000C948C000C948C000C948C0020
:100030000C948C000C948C000C948C000C948C0010
:100040000C94310C0C948C000C94A20F0C94DE0FC9
:100050000C948C000C948C000C948C000C948C00F0
:100060000C94F0070C948C000000000700020100C3
:100070000003040600000000000000000102040864
:100080001020408001020408102001020408102002
:10009000040404040404040402020202020203032E
:1000A00003030303000000002300260029000000D2
:1000B0000000250028002B0000000000240027007D
:1000C0002A009F069707F01011241FBECFEFD8E03B
:1000D000DEBFCDBF11E0A0E0B1E0EEEAF6E202C083
:1000E00005900D92A634B107D9F713E0A6E4B1E06C
:1000F00001C01D92AE31B107E1F710E0C8ECD0E0CD
:1001000004C02297FE010E945113C23CD107C9F7D7
:100110000E94F90E0C9455130C9400008091670115
:10012000909168010196909368018093670181E046
:1001300090E090936C0180936B010895809165012C
:10014000909166010196909366018093650181E02C
:1001500090E090936A01809369010895CF93DF93B3
:1001600022C081EA91E00E94A306049741F4109214
:10017000500110924F011092520110925101C09102
:100180005101D091520181EA91E00E94AC06FE013A
:10019000EE0FFF1FED5AFE4F918380832196D0937F
:1001A0005201C093510181EA91E00E94A306892B7C
:1001B000C1F6DF91CF91089580914D0190914E014C
:1001C000029701F58091460190914701FC01E65BA1
:1001D000FE4F60810196909347018093460181EA2A
:1001E00091E00E942E07809146019091470102976D
:1001F000D1F4109247011092460110924E011092D4
:100200004D0108956091630170916401611571055C
:1002100051F0E091A101F091A2010190F081E02D57
:1002200081EA91E00994089560E0809118010E94AC
:10023000650B61E0809116010E94650B60E0809182
:1002400014010E94650B61E0809112010C94650B12
:1002500061E0809118010E94650B60E080911601B9
:100260000E94650B61E0809114010E94650B60E0C3
:10027000809112010C94650B60E0809118010E943E
:10028000650B61E0809116010E94650B61E0809131
:1002900014010E94650B61E0809112010C94650BC2
:1002A00060E0809118010E94650B61E08091160169
:1002B0000E94650B61E0809114010E94650B60E073
:1002C000809112010C94650B61E0809118010E94ED
:1002D000650B61E0809116010E94650B60E08091E2
:1002E00014010E94650B61E0809112010C94650B72
:1002F00061E0809118010E94650B60E08091160119
:100300000E94650B60E0809114010E94650B61E022
:10031000809112010C94650B61E0809118010E949C
:10032000650B61E0809116010E94650B61E0809190
:1003300014010E94650B61E0809112010C94650B21
:10034000892B19F480910A0102C0809108010C9454
:10035000A20A40E052EC61E070E087E792E00E9480
:1003600019106BE171E087E792E00E94E40D43E031
:1003700050E06EE870E080E00E94220D43E050E023
:100380006EE970E081E00E94220D61E08091180129
:100390000E942D0B61E0809116010E942D0B61E0FF
:1003A000809114010E942D0B61E0809112010E9446
:1003B0002D0B65E070E089E991E00E94350968E95C
:1003C00078E089E991E00E942D0968E070E081EA17
:1003D00091E00E948B076EEA70E081EA91E00E9452
:1003E0008D076CED70E081EA91E00E9492078091A8
:1003F0000C0190910D01909396018093950190933B
:1004000098018093970108958F929F92AF92BF9227
:10041000CF92DF92EF92FF926091970170919801D5
:10042000809110010E94A20A60919501709196013D
:1004300080910E010E94A20A809153019091540173
:100440000A9791F580916B0190916C01019751F49D
:100450006FEF70E080910A010E94A20A10926C0175
:1004600010926B018091690190916A01019751F49A
:100470006FEF70E081E090E00E94A00110926A01AD
:100480001092690168EC70E080E090E00E94B70C87
:1004900060E070E080910A010E94A20A60E070E0D2
:1004A00081E090E00E94A00180915301909154015D
:1004B0000B97E9F440E855E260E070E087E792E0EE
:1004C0000E94191087E792E00E94060F892BD1F352
:1004D00087E792E00E94350F813629F46BE687E7C3
:1004E00092E00E946B0F87E792E00E949910809142
:1004F0005301909154010C9789F48091550190918A
:10050000560161E00E942D0B6091570170915801D6
:1005100080915501909156010E94650B8091530185
:10052000909154018737910509F4CBC38091530111
:10053000909154018337910509F00CC1C2C3809199
:100540008F0190919001892B79F4F0929001E092C3
:100550008F010E948D0C60938101709382018093C2
:1005600083019093840128C01092900110928F0112
:100570000E948D0C60937D0170937E0180937F01BA
:10058000909380018090810190908201A0908301DE
:10059000B0908401DC01CB0188199909AA09BB0933
:1005A0008093710190937201A0937301B0937401D1
:1005B000F0928A01E092890110926C0110926B0115
:1005C000E0906901F0906A0181E0E816F10409F019
:1005D00041C080918D0190918E01892B79F4F09228
:1005E0008E01E0928D010E948D0C609379017093D1
:1005F0007A0180937B0190937C0128C010928E0138
:1006000010928D010E948D0C60937501709376019C
:1006100080937701909378018090790190907A018E
:10062000A0907B01B0907C01DC01CB018819990975
:10063000AA09BB0980936D0190936E01A0936F018D
:10064000B0937001F0928C01E0928B0110926A01DC
:10065000109269018091890190918A01019709F0B6
:1006600079C0C0907101D0907201E0907301F09058
:10067000740181E1C81687E2D806E104F10408F4A8
:1006800069C060916D0170916E016C197D09709364
:10069000880160938701882777FD8095982F0E94B5
:1006A000DB11209100013091010140910201509134
:1006B00003010E9467124B015C01C701B6010E9451
:1006C000D9119B01AC01C501B4010E944011AB01DD
:1006D000BC0140930401509305016093060170939F
:1006E00007016A017B01F7FAF094F7F8F094609142
:1006F000970170919801882777FD8095982F0E9427
:10070000DB119B01AC01C701B6010E9467120E9478
:10071000A8119B01709386016093850180919501DA
:1007200090919601820F931F8F3F910519F014F05D
:100730008FEF90E097FF02C080E090E090939601E9
:100740008093950110928C0110928B0110928A0176
:100750001092890180915301909154018437910541
:1007600061F48091970190919801853F91051CF06B
:100770008FEF90E016C00A9614C0809153019091BB
:10078000540187369105E9F4809197019091980181
:100790008B3091052CF4109298011092970105C0AE
:1007A0000A97909398018093970180919701909177
:1007B00098019093960180939501109254011092A4
:1007C000530180915301909154018734910549F46C
:1007D00080915501909156019093980180939701D3
:1007E0000FC080915301909154018634910561F4BA
:1007F00080915501909156019093960180939501B7
:100800001092540110925301809153019091540120
:100810008737910509F45FC280915301909154018B
:100820008936910509F05AC256C20E943C0146C160
:1008300080915301909154018236910519F40E94E0
:1008400050013CC18091530190915401833791052F
:1008500009F44DC280915301909154018B3691055A
:1008600009F048C244C20E94640128C1809153012A
:10087000909154018E36910519F40E9478011EC1A1
:1008800080915301909154018837910519F40E9489
:100890008C0114C1809153019091540186379105C8
:1008A000A9F480E00E94810A9093940180939301BF
:1008B0009C0197FF02C021503F4F30934A0160E0F6
:1008C00071E00E94DD1280934B01B4C0809153010E
:1008D000909154018537910509F073C0E09055015E
:1008E000F090560161E271E087E792E00E94E40D2A
:1008F0004AE050E0B70187E792E00E94D70E61E03E
:100900008E2D0E942D0B60E08E2D0E94650B82E0E3
:1009100090E00E94DD0C61E08E2D0E94650B85E069
:1009200090E00E94DD0C60E08E2D0E94650B60E07F
:100930008E2D0E942D0B20E432E44FE050E061E068
:100940008E2D0E949C0B2AE330E040E050E00E9494
:100950001313F90137FF02C021503F4F30934A0172
:10096000CF0160E071E00E94DD1280934B0182E0D4
:1009700090E090934E0180934D014AE050E0BF011A
:1009800087E792E00E94D70E63E271E087E792E08A
:100990000E94E40D4AE050E060914A0187E792E04E
:1009A0000E946C0E63E271E087E792E00E94E40D22
:1009B0004AE050E060914B0187E792E00E94730E9D
:1009C00079C080915301909154018C36910559F46E
:1009D0006091570170915801809155019091560195
:1009E0000E94A00167C08091530190915401853607
:1009F0009105B9F46091550170915601709392017F
:100A0000609391014AE050E087E792E00E94DF0E98
:100A1000609191017091920189E991E00E945309DE
:100A200038C08091530190915401449751F48CE067
:100A300080934A0182E090E090934E0180934D01B3
:100A400039C08091530190915401C39779F443E0E8
:100A500050E06EE870E080E00E94220D43E050E03C
:100A60006EE970E081E00E94220D24C08091530164
:100A700090915401C49739F481E00E94420D80E0C6
:100A80000E94420D17C08091530190915401CD975F
:100A900039F481E090E090934901809348010AC0C5
:100AA0008091530190915401CC9741F410924901E7
:100AB00010924801109254011092530180915301F9
:100AC00090915401C29709F41EC1809163019091E5
:100AD0006401019709F0E4C016C11092540110920C
:100AE000530181E090E090936401809363018091D1
:100AF00055019091560197FD019695958795909394
:100B0000620180936101809155019091560162E0EC
:100B100070E00E94DD129093600180935F018091EC
:100B20005701909158012091590130915A01982F05
:100B30008827820F931F90935E0180935D0110922E
:100B40006601109265011092680110926701809110
:100B500061019091620120915F0130916001892BC8
:100B600059F080915D0190915E01232B81F42091D9
:100B700067013091680116C0232BC1F020916501F7
:100B80003091660180915D0190915E010BC02091D2
:100B90006701309168012817390744F020916501F9
:100BA00030916601281739070CF0B5C060915501E6
:100BB000709156014AE050E087E792E00E94D70E1C
:100BC00063E271E087E792E00E94E40D60915701D3
:100BD000709158014AE050E087E792E00E94D70EFA
:100BE00063E271E087E792E00E94E40D60915901B1
:100BF00070915A014AE050E087E792E00E94D70ED8
:100C000063E271E087E792E00E94E40D6091670182
:100C1000709168014AE050E087E792E00E94D70EA9
:100C200063E271E087E792E00E94E40D6091650164
:100C3000709166014AE050E087E792E00E94D70E8B
:100C400063E271E087E792E00E94E40D60914D015C
:100C500070914E014AE050E087E792E00E94D70E83
:100C600063E271E087E792E00E94E40D6091630126
:100C7000709164014AE050E087E792E00E94D70E4D
:100C800063E271E087E792E00E94E40D60915D010C
:100C900070915E014AE050E087E792E00E94DF0E2B
:100CA0008091480190914901892B09F43FC0FF9040
:100CB000EF90DF90CF90BF90AF909F908F900C946B
:100CC0009909E0906B01F0906C0181E0E816F10465
:100CD00009F076CC34CC0E941401F0CE80915301FF
:100CE000909154018136910509F0A2CD9ECD0E94CC
:100CF0002801E4CE809153019091540184369105EE
:100D000009F0B4CDB0CD8091530190915401C297B8
:100D100009F01DCFE2CE10925401109253010E94AF
:100D20008C01109264011092630140CFFF90EF900C
:100D3000DF90CF90BF90AF909F908F90089589E9FA
:100D400091E00C9420092091D40130E08091D501EC
:100D5000281B3109C90108958091D5019091D401D2
:100D6000891750F4E82FF0E0EA52FE4F208130E07E
:100D70008F5F8093D50102C02FEF3FEFC901089527
:100D8000E091D5018091D401E81730F4F0E0EA5207
:100D9000FE4F208130E002C02FEF3FEFC9010895E0
:100DA0000895E091AD01F091AE013097E1F03091FE
:100DB000D5012091D4013217B0F040E009C0DC0128
:100DC000A20FB31F5C91D901AA52BE4F5C934F5F33
:100DD000242F30E02617370794F31092D501609343
:100DE000D401CB0109940895E091AF01F091B001D5
:100DF000309729F01092B3011092B201099408952E
:100E0000CF92DF92EF92FF920F931F93CF93DF93D6
:100E10007C01CB018A012091B101222391F0EB01E9
:100E20006B01C40ED51E09C06991D701ED91FC91EB
:100E30000190F081E02DC7010995CC15DD05A1F7E2
:100E400003C0642F0E94BD07C801DF91CF911F919D
:100E50000F91FF90EF90DF90CF900895CF93DF93A5
:100E60001F92CDB7DEB769832091B1012223D1F063
:100E70002091B201203240F021E030E0FC013383C8
:100E8000228320E030E015C08091B301E82FF0E02C
:100E9000EC54FE4F998190838F5F8093B3018093D0
:100EA000B20105C061E0CE0101960E94BD0721E0BC
:100EB00030E0C9010F90DF91CF910895FC011382BA
:100EC000128248EE53E060E070E04483558366830D
:100ED000778389E291E09183808308951092D50110
:100EE0001092D4011092B3011092B2010C949B079E
:100EF000CF93DF93EC01862F0E94B90784EF96E031
:100F00000E94DB0781ED96E00E94D607CE01DF91BB
:100F1000CF910C946E070C9478077093AE01609398
:100F2000AD0108957093B0016093AF01089581EA17
:100F300091E00C945E071092FF0181E08093FD0127
:100F40001092FC0161E082E10E94650B61E083E1A7
:100F50000E94650BE9EBF0E080818E7F80838081C9
:100F60008D7F808388E48093B80085E48093BC0003
:100F70000895880F8093BA000895613298F4209103
:100F8000FF01243089F46093F801FC0180E292E0D3
:100F9000DC0102C021912D932A2F281B2617D0F3A4
:100FA00080E0089581E0089582E0089590934102E1
:100FB00080934002089590934302809342020895E3
:100FC00085ED8093BC008091BC0084FDFCCF109225
:100FD000FF01089585EC8093BC001092FF010895F5
:100FE0001F920F920FB60F9211242F933F934F939E
:100FF0005F936F937F938F939F93AF93BF93EF9381
:10100000FF938091B900887F803609F49FC058F51E
:10101000883209F45BC090F4803109F452C038F48E
:10102000882309F4F8C0883009F0F9C04AC0883133
:1010300009F44CC0803209F0F2C05CC0803409F47D
:101040006BC038F4803309F455C0883309F0E7C029
:1010500054C0803509F454C0883509F462C088341E
:1010600009F0DDC0DAC0883909F4CBC0A8F48837AC
:1010700009F46CC038F4883609F468C0803709F088
:10108000CEC064C0883809F4BCC0803909F464C09B
:10109000803809F0C4C060C0803B09F48AC038F4CD
:1010A000803A09F46BC0883A09F0B9C082C0803C2C
:1010B00009F4ABC0883C09F4A8C0883B09F0AFC074
:1010C0008DC08091FE018093BB0012C09091FB0106
:1010D0008091FA01981788F58091FB01E82FF0E0E4
:1010E000E050FE4F90819093BB008F5F8093FB0197
:1010F00085EC88C08093F60190C08093F60156C0BD
:101100008091FB019091BB00E82FF0E0E050FE4F92
:1011100090838F5F8093FB019091FB018091FA0196
:101120006DC08091FB019091BB00E82FF0E0E05092
:10113000FE4F90838F5F8093FB018091FD018111B1
:101140006CC081E08093FC0184EA60C083E08093FE
:10115000FF011092F701CCCF8091F701803208F0A7
:1011600050C08091F7019091BB00E82FF0E0EC5B5C
:10117000FD4F90838F5F8093F701BACF8091F70185
:10118000803230F4E091F701F0E0EC5BFD4F10822B
:101190000E94E0076091F701E0914002F091410266
:1011A00070E084E492E009951092F7010E94EA074A
:1011B00036C084E08093FF011092F9011092F8018B
:1011C000E0914202F091430209958091F80181116A
:1011D00005C081E08093F801109220028091F9010E
:1011E000E82FF0E0E05EFD4F90819093BB008F5FB1
:1011F0008093F9019091F9018091F801981708F412
:1012000077CF85E88093BC000AC085EC8093BC0052
:101210001092FF0104C01092F6010E94E007FF91B6
:10122000EF91BF91AF919F918F917F916F915F915E
:101230004F913F912F910F900FBE0F901F901895D7
:10124000FC0110828FEF81831382128282E28483F9
:1012500086E9858317821682089534E0769567952E
:101260003A95E1F7FC0165830895CF93DF93EC0194
:10127000862F68839FEF99831B821A8220916402D4
:10128000309165023F832E83D0936502C093640240
:1012900060E00E94650B61E088810E942D0B81E077
:1012A000DF91CF910895CF92DF92EF92FF92CF938B
:1012B000DF93EC0177FD04C0653B710524F405C0A4
:1012C00060E070E002C064EB70E06983CC802D8147
:1012D00030E02C193109D12CE12CF12CFE2CED2C15
:1012E000DC2CCC24C901AA2797FDA095BA2F222770
:1012F000382F492F5A2FDB010E94D51224EB30E002
:1013000040E050E00E941313C20ED31EE41EF51EEF
:10131000C701B60120E430E040E050E00E94131322
:101320003B832A83DF91CF91FF90EF90DF90CF90A6
:1013300008955F926F927F928F929F92AF92BF9229
:10134000CF92DF92EF92FF920F931F93CF93DF9391
:10135000CDB7DEB70DB71EB7ADB6BEB60E947B0CDB
:10136000C0906602D0906702E0906802F090690237
:101370006C157D058E059F0558F024E1C20ED11C29
:10138000E11CF11C6C157D058E059F0508F49DC0C0
:10139000609366027093670280936802909369027B
:1013A000E0916402F0916502DF01D12C0BC012962E
:1013B0008D919C911397892B09F0D39416960D90DB
:1013C000BC91A02D109799F7DD2009F47EC08DB750
:1013D0009EB7A2E0DA9E8019910911240FB6F89405
:1013E0009EBF0FBE8DBF019640E00FC022813381AA
:1013F000232B41F0DC01A40FB11DA40FB11DED930F
:10140000FC934F5F0680F781E02D309779F727C076
:10141000EC2DF0E03F01660C771C680E791ED301BD
:101420002D913C913197EE0FFF1FE80FF91F40817E
:101430005181D9011296ED90FC901397DA01129622
:101440006D917C911397E616F70638F4D3014D930E
:101450005C933183208399249394C39403C0912C8B
:10146000CC24C394CD14A0F29110F9CF7C014C018F
:10147000C12CD401ED91FD914D0161E080810E946C
:10148000650BC394CD10F5CF46B5812C912C512C12
:10149000642E712CD701ED91FD917D0182819381A4
:1014A000860D971DC6B4C41608F493944C2D940170
:1014B0002C0D311D82179307A8F760E080810E94F0
:1014C000650B53944C2D5D10E5CF8A2D9B2D0FB6E7
:1014D000F8949EBF0FBE8DBF0FB6F8941EBF0FBE0F
:1014E0000DBFDF91CF911F910F91FF90EF90DF9093
:1014F000CF90BF90AF909F908F907F906F905F90B4
:1015000008958E3008F08E50877020911A0140E4C3
:10151000249F90011124822B80937C0080917A007B
:10152000806480937A0080917A0086FDFCCF2091C0
:10153000780030917900932F80E0AC01422B9A0122
:10154000C90108951F93CF93DF93182FEB0161E03A
:101550000E942D0B209711F460E004C0CF3FD1050D
:1015600039F461E0812FDF91CF911F910C94650BCD
:10157000E12FF0E0E859FF4FE491E330B9F028F4AF
:10158000E13051F0E230B1F50CC0E63019F1E7304E
:1015900049F1E43079F514C084B5806884BDC7BDD5
:1015A0002EC084B5806284BDC8BD29C080918000F2
:1015B000806880938000D0938900C09388001FC00A
:1015C00080918000806280938000D0938B00C093D4
:1015D0008A0015C08091B00080688093B000C093ED
:1015E000B3000DC08091B00080628093B000C093C2
:1015F000B40005C0C038D1050CF0B3CFADCFDF913A
:10160000CF911F910895833069F028F48130A1F0C3
:10161000823011F514C08630B1F08730C1F08430CB
:10162000D9F404C0809180008F7703C0809180003E
:101630008F7D80938000089584B58F7702C084B534
:101640008F7D84BD08958091B0008F7703C0809115
:10165000B0008F7D8093B0000895CF93DF9390E02A
:10166000FC01E458FF4F4491FC01E057FF4F849187
:10167000882341F190E0880F991FFC01E854FF4F47
:1016800025913491D90182559F4FFC018591949108
:10169000C82FD92F9FB7F8948C91611106C040953F
:1016A00084238C938881842308C0623041F4242FE2
:1016B000209582238C938881842B888302C0842B7D
:1016C0008C939FBFDF91CF9108950F931F93CF937A
:1016D000DF931F92CDB7DEB7282F30E0F901E8592C
:1016E000FF4F8491F901E458FF4F1491F901E0573D
:1016F000FF4F04910023D1F0882321F069830E94D9
:10170000030B6981E02FF0E0EE0FFF1FE255FF4F62
:1017100085919491DC019FB7F8948C91611103C07D
:101720001095812301C0812B8C939FBF0F90DF9177
:10173000CF911F910F9108958F929F92AF92BF9278
:10174000CF92DF92EF92FF920F931F93CF93DF938D
:1017500090E0FC01E458FF4FD491FC01E057FF4FAB
:101760007491611102C0C0E001C0CD2FDA01C9013E
:10177000BF70672F70E0660F771F6C557F4F812C0D
:10178000912C5401FB010591149110C0C12CD12C56
:101790007601C394C80CD91CEA1CFB1C8816990658
:1017A000AA06BB0609F44BC046015701F801E081C7
:1017B000ED23EC1759F310C0C12CD12C7601C39442
:1017C000C80CD91CEA1CFB1C88169906AA06BB0685
:1017D000B1F14601570103C0FB0105911491F801D5
:1017E000E081ED23EC13E8CF88199909AA09BB0918
:1017F00020E030E0A901FB016591749109C0281730
:1018000039074A075B07D9F02F5F3F4F4F4F5F4FB4
:10181000FB01E081ED23EC1791F3A5E1B0E00E941C
:10182000CA128B019C01005F1F4F2F4F3F4F84E076
:1018300036952795179507958A95D1F703C000E04F
:1018400010E09801B801C901DF91CF911F910F916C
:10185000FF90EF90DF90CF90BF90AF909F908F90D0
:1018600008951F920F920FB60F9211242F933F935A
:101870008F939F93AF93BF9380916A0290916B0275
:10188000A0916C02B0916D0230917202232F2D5FF6
:101890002D3720F40196A11DB11D05C0232F2A5715
:1018A0000296A11DB11D2093720280936A0290934B
:1018B0006B02A0936C02B0936D0280916E029091C6
:1018C0006F02A0917002B09171020196A11DB11D2D
:1018D00080936E0290936F02A0937002B093710296
:1018E000BF91AF919F918F913F912F910F900FBE1C
:1018F0000F901F9018950F931F938FB7F894009136
:101900006A0210916B0220916C0230916D028FBFC0
:10191000B801C9011F910F9108950F931F939FB7AD
:10192000F89400916E0210916F0220917002309134
:10193000710286B5A89B06C08F3F21F00F5F1F4F35
:101940002F4F3F4F9FBF322F212F102F0027080FFF
:10195000111D211D311D42E0000F111F221F331FD9
:101960004A95D1F7B801C9011F910F910895CF92FF
:10197000DF92EF92FF92CF93DF936B017C010E9485
:101980008D0CEB010EC00E948D0C6C1B7D0B683E14
:10199000734038F081E0C81AD108E108F108C85155
:1019A000DC4FC114D104E104F10469F7DF91CF9158
:1019B000FF90EF90DF90CF900895019739F0880F56
:1019C000991F880F991F02970197F1F7089578944E
:1019D00084B5826084BD84B5816084BD85B5826034
:1019E00085BD85B5816085BDEEE6F0E080818160D2
:1019F0008083E1E8F0E010828081826080838081D2
:101A000081608083E0E8F0E0808181608083E1EBA9
:101A1000F0E0808184608083E0EBF0E08081816091
:101A20008083EAE7F0E08081846080838081826047
:101A30008083808181608083808180688083109230
:101A4000C10008958230E8F4E82FF0E0EE0FFF1FA8
:101A5000ED58FD4F71836083813041F080916900C2
:101A60008C7F842B80936900E89A089580916900A7
:101A7000440F551F440F551F837F842B80936900AB
:101A8000E99A0895823068F4813011F0E89801C035
:101A9000E998E82FF0E0EE0FFF1FED58FD4F11829F
:101AA000108208951F920F920FB60F9211242F9358
:101AB0003F934F935F936F937F938F939F93AF93D6
:101AC000BF93EF93FF938091730290917402892BDF
:101AD00029F0E0917302F09174020995FF91EF9162
:101AE000BF91AF919F918F917F916F915F914F9136
:101AF0003F912F910F900FBE0F901F9018951F923E
:101B00000F920FB60F9211242F933F934F935F9331
:101B10006F937F938F939F93AF93BF93EF93FF93B5
:101B20008091750290917602892B29F0E0917502DF
:101B3000F09176020995FF91EF91BF91AF919F913E
:101B40008F917F916F915F914F913F912F910F9066
:101B50000FBE0F901F901895CF92DF92EF92FF92D9
:101B60000F931F93CF93DF936C01EB017A01E60E85
:101B7000F71E00E010E00BC06991D601ED91FC91D9
:101B80000190F081E02DC6010995080F191FCE15AF
:101B9000DF0591F7C801DF91CF911F910F91FF9061
:101BA000EF90DF90CF900895DB010D900020E9F7D2
:101BB000AD0141505109461B570BDC01ED91FC91E1
:101BC0000280F381E02D09940C94D40DDC01ED9199
:101BD000FC910190F081E02D09940F931F93CF9316
:101BE000DF93EC016DE00E94E60D8C016AE0CE010E
:101BF0000E94E60D9C01200F311FC901DF91CF919A
:101C00001F910F9108954F925F926F927F929F92D2
:101C1000AF92BF92CF92DF92EF92FF920F931F93FA
:101C2000CF93DF93CDB7DEB7A1970FB6F894DEBFA1
:101C30000FBECDBF5C016A017B01922E19A281E02B
:101C4000821710F08AE0982E8E010F5D1F4F492CED
:101C5000512C612C712CC701B601A30192010E9485
:101C6000F1128C2D929E80191124015011098A3095
:101C700014F4805D01C0895CF801808369017A01F8
:101C8000C114D104E104F10431F7B801C5010E9487
:101C9000D40DA1960FB6F894DEBF0FBECDBFDF9175
:101CA000CF911F910F91FF90EF90DF90CF90BF9059
:101CB000AF909F907F906F905F904F900895211507
:101CC000310541F4DC01ED91FC910190F081E02DB2
:101CD000642F09940C94030E9A01462F50E060E0A3
:101CE00070E00C945F0E0F931F93CF93DF93EC0182
:101CF0009A01462F50E060E070E00E945F0E8C0178
:101D0000CE010E94ED0D9801280F391FC901DF9106
:101D1000CF911F910F910895CF92DF92EF92FF9292
:101D20000F931F93CF93DF93EC016A017B01211581
:101D3000310579F4E881F9810190F081E02D642F7B
:101D4000DF91CF911F910F91FF90EF90DF90CF9097
:101D500009942A30310519F477FD0EC02AE0B70145
:101D6000A601CE01DF91CF911F910F91FF90EF90CF
:101D7000DF90CF900C94030E6DE20E94E60D8C0173
:101D800044275527BA014C195D096E097F092AE0DD
:101D9000CE010E94030E080F191FC801DF91CF91D9
:101DA0001F910F91FF90EF90DF90CF9008959A01CF
:101DB000AB01662757FD6095762F0C948C0E0F9320
:101DC0001F93CF93DF93EC019A01AB01662757FD78
:101DD0006095762F0E948C0E8C01CE010E94ED0D35
:101DE0009801280F391FC901DF91CF911F910F91E1
:101DF00008950E94E70C0E94A901C5EDDFE00E9452
:101E000004022097E1F30E94D50FF9CFFC018485ED
:101E10009585FC01E05CFF4F20813181FC01EE5B88
:101E2000FF4F80819181281B390B2F733327C90104
:101E30000895FC0184859585FC01E05CFF4F40819D
:101E40005181FC01EE5BFF4F208131814217530726
:101E500041F00190F081E02DE80FF91F208130E082
:101E600002C02FEF3FEFC9010895FC0184859585DD
:101E7000FC01E05CFF4F40815181FC01EE5BFF4FB4
:101E8000208131814217530781F0A081B181A80FD1
:101E9000B91F8C91208131812F5F3F4F2F733327E2
:101EA00031832083282F30E002C02FEF3FEFC9019C
:101EB0000895FC0186859785FC01E05CFF4FDC01FD
:101EC000AE5BBF4F408151812D913C9111974217DC
:101ED0005307C1F70895CF93DF93FC01868597855B
:101EE000DC01A05CBF4F2D913C9111972F5F3F4FBC
:101EF0002F733327EC01CE5BDF4F488159812417C4
:101F00003507D9F30D90BC91A02DA80FB91F6C9384
:101F1000A685B785A05CBF4F11963C932E93A689EA
:101F2000B7892C9181E090E0058C02C0880F991F41
:101F30000A94E2F7282B2C9381E090E0DF91CF9177
:101F4000089508951F920F920FB60F9211242F93A8
:101F50003F934F938F939F93EF93FF934091C600CE
:101F600080911A0390911B0301968F7399272091FA
:101F70001C0330911D038217930759F0E0911A0357
:101F8000F0911B03E652FD4F408390931B03809317
:101F90001A03FF91EF919F918F914F913F912F9154
:101FA0000F900FBE0F901F90189587E792E00E9448
:101FB000060F892B11F00C94A10F08951F920F9218
:101FC0000FB60F9211242F933F938F939F93EF930C
:101FD000FF932091D6023091D7028091D802909140
:101FE000D9022817390731F48091C1008F7D809381
:101FF000C10014C0E091D802F091D902EA56FD4F19
:1020000020818091D8029091D90201968F739927EF
:102010009093D9028093D8022093C600FF91EF914C
:102020009F918F913F912F910F900FBE0F901F9016
:102030001895CF92DF92EF92FF92CF93DF93EC014E
:102040006A017B01411581EE580761057105F9F0C0
:10205000EC89FD8981E090E00E8C02C0880F991F09
:102060000A94E2F7808360E079E08DE390E0A701D5
:1020700096010E94F11221503109410951095695EA
:10208000479537952795211580E1380798F0EC8919
:10209000FD89108260E874E88EE190E0A701960166
:1020A0000E94F11221503109410951095695479575
:1020B00037952795E889F9893083EA89FB89208358
:1020C000EE89FF89408181E090E09C010A8C02C08A
:1020D000220F331F0A94E2F7422B4083EE89FF89D7
:1020E00040819C010B8C02C0220F331F0A94E2F73F
:1020F000422B4083EE89FF8940819C010C8C02C0F9
:10210000220F331F0A94E2F7422B4083EE89FF89A6
:1021100020810D8C02C0880F991F0A94E2F78095E8
:1021200082238083DF91CF91FF90EF90DF90CF905B
:102130000895CF93DF93FC0186859785DC01A05C31
:10214000BF4FEC01CE5BDF4F4D915C911197288121
:10215000398142175307C1F7A689B7894C9181E0AD
:1021600090E09C01028C02C0220F331F0A94E2F718
:10217000209524232C93A689B7894C919C01038C2C
:1021800002C0220F331F0A94E2F7209524232C93D8
:10219000A689B7894C919C01048C02C0220F331F81
:1021A0000A94E2F7209524232C93A689B7892C91D1
:1021B000058C02C0880F991F0A94E2F7809582234C
:1021C0008C9384859585FC01EE5BFF4F20813181E6
:1021D000FC01E05CFF4F31832083DF91CF910895B4
:1021E00010927A021092790288EE93E0A0E0B0E0BB
:1021F00080937B0290937C02A0937D02B0937E0239
:1022000089E391E090937802809377028AED92E0DF
:10221000909384028093830286E992E090938602F1
:102220008093850285EC90E09093880280938702EA
:1022300084EC90E090938A028093890280EC90E095
:1022400090938C0280938B0281EC90E090938E02AD
:1022500080938D0286EC90E09093900280938F02A1
:1022600084E08093910283E08093920287E08093E0
:10227000930285E08093940281E080939502089513
:102280000CD0EBC0E3D040F0DAD030F021F45F3F67
:1022900019F0CCC0511115C1CFC0F0D098F39923DB
:1022A000C9F35523B1F3951B550BBB27AA2762171A
:1022B0007307840738F09F5F5F4F220F331F441F5F
:1022C000AA1FA9F333D00E2E3AF0E0E830D0915097
:1022D0005040E695001CCAF729D0FE2F27D0660F84
:1022E000771F881FBB1F261737074807AB07B0E8C3
:1022F00009F0BB0B802DBF01FF2793585F4F2AF0D9
:102300009E3F510568F092C0DCC05F3FECF3983E01
:10231000DCF3869577956795B795F7959F5FC9F735
:10232000880F911D9695879597F90895E1E0660FBE
:10233000771F881FBB1F621773078407BA0720F037
:10234000621B730B840BBA0BEE1F88F7E0950895A0
:1023500004D06894B111B5C0089598D088F09F5703
:1023600090F0B92F9927B751A0F0D1F0660F771FE1
:10237000881F991F1AF0BA95C9F712C0B13081F0C1
:102380009FD0B1E008959CC0672F782F8827B85F51
:1023900039F0B93FCCF3869577956795B395D9F722
:1023A0003EF490958095709561957F4F8F4F9F4F2C
:1023B0000895E89409C097FB3EF490958095709538
:1023C00061957F4F8F4F9F4F9923A9F0F92F96E981
:1023D000BB279395F695879577956795B795F111F6
:1023E000F8CFFAF4BB0F11F460FF1BC06F5F7F4F93
:1023F0008F4F9F4F16C0882311F096E911C07723A5
:1024000021F09EE8872F762F05C0662371F096E8AD
:10241000862F70E060E02AF09A95660F771F881F7C
:10242000DAF7880F9695879597F9089597F99F673A
:1024300080E870E060E008959FEF80EC089500244C
:102440000A941616170618060906089500240A9419
:1024500012161306140605060895092E0394000C9F
:1024600011F4882352F0BB0F40F4BF2B11F460FF2E
:1024700004C06F5F7F4F8F4F9F4F089557FD905857
:10248000440F551F59F05F3F71F04795880F97FB38
:10249000991F61F09F3F79F08795089512161306F2
:1024A0001406551FF2CF4695F1DF08C01616170621
:1024B0001806991FF1CF8695710561050894089556
:1024C000E894BB2766277727CB0197F908950BD0AF
:1024D000C4CFB5DF28F0BADF18F0952309F0A6CFF6
:1024E000ABCF1124EECFCADFA0F3959FD1F3950FA8
:1024F00050E0551F629FF001729FBB27F00DB11D88
:10250000639FAA27F00DB11DAA1F649F6627B00D17
:10251000A11D661F829F2227B00DA11D621F739F00
:10252000B00DA11D621F839FA00D611D221F749F0E
:102530003327A00D611D231F849F600D211D822F55
:10254000762F6A2F11249F5750408AF0E1F088239C
:102550004AF0EE0FFF1FBB1F661F771F881F9150A9
:102560005040A9F79E3F510570F060CFAACF5F3F62
:10257000ECF3983EDCF3869577956795B795F795DC
:10258000E7959F5FC1F7FE2B880F911D9695879564
:1025900097F908950E942F13A59F900DB49F900D59
:1025A000A49F800D911D11240895B7FF0C94CA12A9
:1025B0000E94CA12821B930B089597FB072E16F4F4
:1025C000009407D077FD09D00E943B1307FC05D08B
:1025D0003EF4909581959F4F0895709561957F4F3A
:1025E0000895A1E21A2EAA1BBB1BFD010DC0AA1F54
:1025F000BB1FEE1FFF1FA217B307E407F50720F06C
:10260000A21BB30BE40BF50B661F771F881F991FE6
:102610001A9469F760957095809590959B01AC012F
:10262000BD01CF010895052E97FB16F4009407D045
:1026300057FD0DD00E94F11207FC09D07EF4909551
:102640008095709561957F4F8F4F9F4F089550955E
:102650004095309521953F4F4F4F5F4F0895A29F72
:10266000B001B39FC001A39F01D0B29F700D811D27
:102670001124911D0895AA1BBB1B51E107C0AA1F7D
:10268000BB1FA617B70710F0A61BB70B881F991F13
:102690005A95A9F780959095BC01CD010895EE0F4C
:0E26A000FF1F0590F491E02D0994F894FFCFF0
:1026AE000000803F0000803F0A000500C8000600C1
:1026BE0009000D00040008000700015265616479ED
:1026CE000055532000000000002E070007A306ACA3
:1026DE0006C006D006000000006B0FAC0D060F35CD
:0626EE000F190F590F0047
:00000001FF
